:020000040800F2
:10000000F85A0020E90200086F330008792A000836
:100010006D330008CB0500082345000800000000F0
:10002000000000000000000000000000290200089D
:10003000130900080000000085020008A53A000826
:100040000303000803030008030300080303000878
:100050000303000803030008030300080303000868
:10006000030300080303000803030008CD0700088A
:10007000D9070008E5070008F10700080303000896
:10008000FD0700080908000803030008030300082F
:100090000303000803030008030300080303000828
:1000A000413C0008030300080303000803030008A1
:1000B0000303000803030008030300080303000808
:1000C00003030008030300080303000803030008F8
:1000D00003030008E9430008014400081544000830
:1000E00003030008030300080303000803030008D8
:1000F0000303000803030008653C00081508000816
:1001000003030008030300084D3C00080303000834
:10011000654000087D400008593C000803030008C2
:1001200003030008210800082D0800080303000845
:100130000303000803030008030300080303000887
:100140000303000803030008030300080303000877
:100150000303000839080008450800082D4400087A
:100160000303000803030008030300080303000857
:100170000303000803030008030300080000000055
:10018000030300080303000800F002F800F03CF845
:100190000AA090E8000C82448344AAF10107DA45E2
:1001A00001D100F031F8AFF2090EBAE80F0013F0F8
:1001B000010F18BFFB1A43F00103184780630000CA
:1001C000A0630000103A24BF78C878C1FAD852075B
:1001D00024BF30C830C144BF04680C6070470000C1
:1001E0000023002400250026103A28BF78C1FBD840
:1001F000520728BF30C148BF0B6070471FB506F0DB
:1002000059F91FBD10B510BD00F0AAF91146FFF74E
:10021000F5FF04F08DFA00F0C8F903B4FFF7F2FF20
:1002200003BC00F0CBF900002C4B19680868B0E85B
:10023000F04F80F30988BFF36F8F4FF0000080F319
:10024000118870470000000008480068006880F3CB
:1002500008884FF0000080F3148862B661B6BFF3DF
:100260004F8FBFF36F8F00DF00BF00BF08ED00E0CE
:10027000DFF80C00016841F470010160704700BFB5
:1002800088ED00E0EFF30980BFF36F8F134B1A681E
:100290001EF0100F08BF20ED108A20E9F04F10600B
:1002A00009B44FF0500080F31188BFF34F8FBFF3B4
:1002B0006F8F05F06FFB4FF0000080F3118809BCD1
:1002C00019680868B0E8F04F1EF0100F08BFB0ECD6
:1002D000108A80F30988BFF36F8F704720000020D9
:1002E000EFF3058070470000094880470948004740
:1002F000FEE7FEE7FEE7FEE7FEE7FEE7FEE7FEE7D6
:10030000FEE7FEE704480549054A064B7047000032
:10031000553B000889010008F8540020F85A0020D5
:10032000F8560020F856002053EA020C00F06980CD
:100330002DE9F04B4FF00006002B1FBFB3FA83F5F9
:1003400003FA05F424FA05F65E4012BF1643B2FA2A
:1003500082F502FA05F4C5F120051EBF22FA05FC5C
:1003600044EA0C04203556EA044C4FEA144418BF02
:10037000641C4FF000084FF00009904271EB030C31
:1003800039D3002919BFB1FA81F701FA07F6B0FA9B
:1003900080F700FA07F6C7F120071EBF20FA07FC16
:1003A00046EA0C062037B6FBF4FCA7EB0507103F26
:1003B00007F01F0BCBF120060CFA0BFB2CFA06F60C
:1003C00044BFB3460026202FA4BF5E464FF0000B6B
:1003D0005BEA060C08BF4FF0010B19EB0B09ABFBF6
:1003E000027C48EB0608C01B06FB02CC0BFB03CCCF
:1003F00071EB0C01C1E70B46024641464846BDE899
:10040000F08B13B54FF000004FF00001AFF3008008
:10041000BDE81C407047032A40F2308010F0030C06
:1004200000F0158011F8013BBCF1020F624498BF47
:1004300011F801CB00F8013B38BF11F8013BA2F1E4
:10044000040298BF00F801CB38BF00F8013B11F05F
:10045000030300F02580083AC0F0088051F8043BFF
:10046000083A51F804CBA0E80810F5E7121D5CBF6C
:1004700051F8043B40F8043BAFF30080D20724BF9F
:1004800011F8013B11F801CB48BF11F8012B24BF33
:1004900000F8013B00F801CB48BF00F8012B704782
:1004A00010B5203AC0F00B80B1E81850203AA0E80F
:1004B0001850B1E81850A0E81850BFF4F5AF5FEA43
:1004C000027C24BFB1E81850A0E8185044BF18C9F6
:1004D00018C0BDE810405FEA827C24BF51F8043B9D
:1004E00040F8043B08BF7047D20728BF31F8023BF1
:1004F00048BF11F8012B28BF20F8023B48BF00F885
:10050000012B70474FF0000200B513469446964603
:10051000203922BFA0E80C50A0E80C50B1F1200116
:10052000BFF4F7AF090728BFA0E80C5048BF0CC0C4
:100530005DF804EB890028BF40F8042B08BF704722
:1005400048BF20F8022B11F0804F18BF00F8012B94
:1005500070477047704770470048704794540020B8
:100560007546FFF7F9FFAE4605006946534620F091
:100570000700854618B020B5FFF7C4FEBDE820404F
:100580004FF000064FF000074FF000084FF0000B4F
:1005900021F00701AC46ACE8C009ACE8C009ACE802
:1005A000C009ACE8C0098D46704710B50446AFF3EA
:1005B00000802046BDE81040FFF72FBE01491820FB
:1005C000ABBEFEE7260002007047FEE770B53C2197
:1005D0002DED048B594801F059FC3C21584801F09D
:1005E00055FC3C21574801F051FC3C21564801F094
:1005F0004DFC0021554801F04DFE0021544801F00A
:1006000049FE0421534801F045FE0021524801F003
:1006100041FE9FED528AB0EE481ADFED518AF0EEAE
:10062000680A9FED509A42F29E042346B0EE490AB2
:100630001A4603214C4802F037FF2346B0EE481A11
:10064000F0EE680AB0EE490A1A460321474802F064
:100650002BFF2346B0EE481AF0EE680AB0EE490AC6
:100660001A460321424802F01FFF2346B0EE481A03
:10067000F0EE680AB0EE490A1A4603213D4802F03E
:1006800013FF4FF4FA75B0EE001AF0EE480AB1EE1F
:10069000000A64232A460321374802F005FF642339
:1006A000B0EE481AF0EE480A9FED340A9A00032192
:1006B000334802F0F9FE2346B0EE001AF0EE480A85
:1006C000B1EE080A1A4603212E4802F0EDFEBEEEF6
:1006D000001AF0EE480ABFEE080A64234FF4617274
:1006E0000321294802F0E0FEB0EE001AF0EE480ABD
:1006F000B1EE080A64234FF416720321234802F076
:10070000D3FEB0EE481ADFED220AB0EE000A6423F1
:100710004FF4967203211F4802F0C6FEB0EE481A4D
:10072000F0EE480ABDEC048B2A466423BDE8704015
:10073000B0EE000A0321184802F0B6BE8807002078
:10074000C8070020080800204808002008090020E9
:100750004809002088090020C80900200000000086
:100760003333B33F00005C42184F0020844F002019
:10077000F04F00205C500020C8500020CDCC0C4031
:1007800034510020A05100200C520020785200204B
:100790006F12833ABC5300202854002010B504F097
:1007A00051FF00F005F8BDE8104004F06BBF0000F9
:1007B00010B500F0AFF804480078322803D8BDE83F
:1007C000104003F05BB910BDA8000020014800F004
:1007D0002BBB0000280C0020014800F025BB0000C6
:1007E000680E0020014800F01FBB0000C80B00206D
:1007F000014800F019BB0000C80E0020014800F0BD
:1008000013BB0000A80D0020014800F00DBB000044
:10081000080E0020014800F007BB0000880C0020F3
:10082000014800F001BB0000280F0020014800F043
:10083000FBBA0000E80C0020014800F0F5BA000007
:10084000880F0020014800F0EFBA0000480D00209A
:1008500001681823CAB2103AB2FBF3F2054B6FF3EA
:100860000901032A9B5CC36500D9091D81650846FF
:10087000704700000865000810B5014600208B692C
:100880008A6A4FF0C07453B1B3F5005F15D072B1EE
:10089000012A0CD0022A0AD0032A09D104E01AB195
:1008A000012A06D0022A03D1C96AC90100D5012054
:1008B00010BDC96AA142FAD010BD002AF7D0012AA2
:1008C000F2D0022AF3D0032AF3D010BD30B5046869
:1008D000256825F480252560046863608368402BC3
:1008E000036803D099600068C26030BD9A600068F8
:1008F000C16030BD10B503F02BFE03F023FB03F005
:1009000065FE04F073FF03F00DFEBDE81040FFF735
:100910005DBE70472DE9F047C44CC34DB2EE000AEE
:100920002DED028B04F11409D4ED010AC24FC34E20
:100930002B7830EE801A70EEC01ABD49DFF8F482D1
:100940003888FA8896ED000A9FEDBD8A092B7AD087
:1009500007DC79D2DFE803F0292942787878C18270
:10096000B7000C2B21D004DC0A2B6ED00B2B6BD1E3
:100970002BE10D2B6AD0642BF9D1B0EE480A84ED3F
:10098000000A84ED010AF0EE400A84ED020A4846AE
:10099000B0EE401A03F00EFF03F07EFEA868401C84
:1009A000A860BDEC028BBDE8F08710EE902A8A4269
:1009B00004DC502802D300BF84ED011AA8E000BF78
:1009C00010EE100A404502DA3889C8287AD384ED3F
:1009D000008A38882A28E4D8002039E010EE900AEE
:1009E0009849884203D8502A01D3C4ED011AF0EE89
:1009F000480A954803F0B4FF84ED020A96ED000A18
:100A0000B5EEC00AF1EE10FA01DCB1EE400A10EECC
:100A1000100A404502DA3889C82802D384ED008ADA
:100A20000FE0697869B900EE100A688800EE900A54
:100A3000B8EE400A8548F8EE600A03F091FF84EDB5
:100A4000000AF888BDE05CE0D9E086E051E00120D2
:100A5000BDEC028BBDE8F04702F0EEBF10EE900A4D
:100A60007B49884202DCDFED7B0A33E0F0EE480A86
:100A7000754803F075FF84ED020A96ED000AB5EEA5
:100A8000C00AF1EE10FA01DCB1EE400A10EE100AD5
:100A9000404502DA3889C82802D384ED008A80E70D
:100AA00069780029FBD100EE100A688800EE900AF0
:100AB000B8EE400A6548F8EE600A03F051FF84ED95
:100AC000000A6EE736E010EE900A63498842CDD8FE
:100AD000DFED620AC4ED010AC8E7F0EE480AC4ED92
:100AE000000AC4ED010A5E4803F03AFF84ED020AF1
:100AF00057E710EE902A8A420ADC2A28BFF45CAF3E
:100B000006E010EE900A5749884201DC502AF5D2DF
:100B1000F0EE480A4C4803F023FF84ED020A96EDFC
:100B2000000AB5EEC00AF1EE10FA3FF749AFB1EE98
:100B3000400A45E7697800297FF44BAF00EE100AC0
:100B4000688800EE900AB8EE400A4048F8EE600A65
:100B500003F006FF84ED000A3BE710EE901A424ACC
:100B6000914203D8502801D3C4ED011AF0EE480A8F
:100B7000354803F0F5FE84ED020A96ED000AB5EE65
:100B8000C00AF1EE10FA01DCB1EE400A10EE100AD4
:100B9000404502DA3889C82802D384ED008A0FE084
:100BA000697869B900EE100A688800EE900AB8EE1C
:100BB000400A2648F8EE600A03F0D2FE84ED000AEF
:100BC00038882A287FF643AFEBE6388900EE100A12
:100BD000A88800EE900AB8EE400A1C48F8EE600AB9
:100BE00003F0BEFE84ED000AF0EE480A96ED000A1E
:100BF000154803F0B5FE84ED020A03F021FDB0EEC6
:100C0000480A84ED000A84ED010A84ED020AB0EE80
:100C1000401A4846F0EE400A03F0CCFDBDEC028BD2
:100C2000BDE8F04703F038BDA8000020404E00208A
:100C30000080DE430000A0408A4E0020D00000204B
:100C4000000000000080DEC3A0510020C85000203A
:100C50000080AC430000A0430080ACC30000A0C3F0
:100C60007852002000009243000092C370470000B9
:100C70002C4808B500680168C1F3001100294FD065
:100C8000016840680090274801F031FB2648017850
:100C900055293ED1417853293BD1C088DFED230A45
:100CA00000EE100A2348244AB8EE400A9FED231AAA
:100CB00020EE200ADFED1E0A20EE200A80ED010A58
:100CC000D0ED030A70EEC00A10EE901AC0ED020AD1
:100CD000914203D370EE810AC0ED020A10EE903A01
:100CE00017498B4203DD70EEC10AC0ED020A10EE17
:100CF000103A934203D330EE010A80ED010A10EE60
:100D0000102A8A4203DD30EE410A80ED010A0121FA
:100D10000170BDE808400B220349024801F000BE03
:100D200008BD0000080B0020F84E0020000000382D
:100D300000003443C8000020000034C30000B44366
:100D40000000344300B5722002F08EFE362002F01F
:100D50008BFE23205DF804EB02F086BE00B5722006
:100D600002F082FE372002F07FFE23205DF804EBC4
:100D700002F07ABE2DE9F0410446876D00F0BAFA20
:100D8000064694F835000025022806D080206065CC
:100D900084F834500120BDE8F0812068016821F01A
:100DA000160101602068416921F080014161206CD9
:100DB00008B9A06C20B12068016821F00801016029
:100DC0002068016821F0010101600BE000F092FA57
:100DD000801B052806D92020606504F8345F0320B5
:100DE0006070D8E720680068C007EFD194F85C1005
:100DF0003F208840B86004F8345F01206070002014
:100E0000C9E790F83510022903D0802141650120FF
:100E10007047052180F835100068016821F0010154
:100E200001600020704700002DE9F84304464FF0B0
:100E30000009CDF8009063484FF41651A56D006885
:100E4000B0FBF1F72E6894F85C10082000FA01F16D
:100E500031420FD021680A6852070BD50A6822F088
:100E600004020A6094F85C108840A860606D40F04D
:100E70000100606594F85C104FF0010808FA01F079
:100E8000304208D021684969090604D5A860606D20
:100E900040F00200606594F85C1004208840304205
:100EA00008D021680968890704D5A860606D40F002
:100EB0000400606594F85C1010208840304218D01F
:100EC00021680968090714D5A860206801684903EA
:100ED00004D50068000308D5A16C07E00168C905C6
:100EE00003D4016821F008010160216C09B120469A
:100EF000884794F85C1020208840304231D0216827
:100F00000968C9062DD5A86094F835000528206821
:100F1000016806D0490347D5006800031DD4616C01
:100F20001CE021F0160101602068416921F0800178
:100F30004161206C08B9A06C20B12068016821F0E3
:100F40000801016094F85C103F208840A86084F894
:100F5000349084F83580216D1FE0E16B09B12046A3
:100F60008847606D00282BD0606DC00714D0052025
:100F700084F835002068016821F0010101600098C3
:100F8000401C0090B84203D820680068C007F6D122
:100F900084F8349084F83580E16C002910D001B0D9
:100FA0002046BDE8F04308470168C905D5D401686B
:100FB00021F01001016084F8349084F83580CCE78A
:100FC000BDE8F8831C0000202DE9F041044600F044
:100FD00091F906465CB1002584F83450022084F86B
:100FE00035002068016821F0010101600DE0012059
:100FF000BDE8F08100F07EF9801B052805D920208E
:101000006065032084F83500F2E720680068C007B7
:10101000F0D12268116820480140D4E90103184347
:10102000D4E903363343184363691843A36918436B
:10103000E3691843236A18430843616A042903D10A
:10104000D4E90B1319430843106020684069666AAD
:1010500020F0070130460E43012704280CD1A06A76
:101060000643E06A40B12046FFF706FC20B140206D
:10107000606584F83570BAE7206846612046FFF75E
:10108000E7FB94F85C203F2191408160656584F81E
:1010900035700020ACE700003F8010F02DE9F041F2
:1010A0000446866D90F83400002501280DD00120FB
:1010B00084F8340094F835700020012F07D084F8AC
:1010C000340002252846BDE8F0810220FBE7022714
:1010D00084F8357060652046FFF7F8FB94F85C10E3
:1010E0003F208840B0602068016841F0160101602F
:1010F000206C20B12068016841F00801016020687F
:10110000016841F001010160DCE7000070B50446B0
:1011100000F0F0F80546601C02D004480078044452
:1011200000F0E8F8401BA042FAD370BD1000002088
:101130002DE9F84F00224FF0010803254FF00F0E64
:101140000B6808FA02F42340A3426ED14E68012EC8
:1011500005D0022E03D0112E01D0122E12D1866896
:101160004FEA420C05FA0CF7BE43CF6807FA0CF7BA
:10117000374387604668A6430C79C4F30014944053
:1011800034434460C668570005FA07FC8C6826EAB9
:101190000C06BC403443C4604C68022C01D0122CB5
:1011A00013D1D40800EB8404A346D4F8209054074C
:1011B0004FEAD46A0EFA0AF629EA06090E6906FA17
:1011C0000AF646EA0906CBF8206006680C7926EA9A
:1011D0000C0604F00304BC40344304604C68E40093
:1011E00065D5364C266846F480462660246822F091
:1011F000030604F480440094314C3444A446D4F8EB
:1012000008489607370F0EFA07F6B4432D4EB04242
:1012100001D1002624E02C4EB04201D101261FE06E
:101220002A4EB04202D102261AE040E0284EB042D7
:1012300001D1032614E0274EB04201D104260FE06D
:10124000254EB04201D105260AE0244EB04201D11C
:10125000062605E0224EB04201D1072600E008260E
:10126000BE402643CCF808681E4E34684F689C4345
:10127000FF0300D51C4334601A4C241D26684F68B8
:101280009E43BF0300D51E432660164E08363468C1
:101290004F689C43FF0200D51C433460114E0C364E
:1012A00034684F689C43BF0200D51C433460521C15
:1012B000102AFFF445AFBDE8F88F00004438024023
:1012C00000300140000002400004024000080240DB
:1012D000000C0240001002400014024000180240BE
:1012E000001C0240003C01400AB1816170470904C2
:1012F000FBE70000014880687047000010000020F4
:101300000248816802781144816070471000002013
:101310000B4810B5016841F400710160016841F4A7
:1013200080610160016841F480710160032000F078
:1013300089F8002000F006F800F03EF8002010BD0B
:10134000003C024010B5014688B00022362000F073
:1013500059F8362000F048F813480024016841F09D
:1013600010010160006805A900F0100006906846B1
:1013700000F014F900F032F90C494000B0FBF1F133
:101380000C480B4A491E026040F2E732C0E90324D0
:10139000C0E9011400F06CFB10B1012008B010BDD1
:1013A000044800F0D5FBF9E74038024040420F0006
:1013B00000100040E80F00200A4808B5016841F419
:1013C00080410160006800F4804000900548001FE3
:1013D000016841F080510160006800F08050009089
:1013E00008BD000044380240002809DB00F01F025D
:1013F000012191404009800000F1E020C0F8001177
:1014000070470000F0B40E4B1B680C46C3F3022378
:10141000C3F10705042D00D90425191D072901D2A0
:10142000002300E0DB1E012606FA05F1491E2140DB
:1014300099409E40761E16403143F0BC03F0D8B868
:101440000CED00E0064900F0070208684FF6FF03C4
:10145000184040EA0220034A104308607047000029
:101460000CED00E00000FA052DE9F0470E460500FE
:1014700065D0DFF81481D8F80000F7B200F00F0053
:10148000B04207D288F80070D8F8000000F00F00D2
:10149000B04254D128683D4C810712D5400703D58E
:1014A000206840F4E05020602878000703D52068C9
:1014B00040F4604020602068A96820F0F0000843F4
:1014C00020602878C0072DD0304968680839012885
:1014D00012D0022813D0032811D0096889070029E7
:1014E0002DDA216821F0030101432160FFF702FF9B
:1014F000814641F2883A0EE009688903EFE70968FE
:101500008901ECE7FFF7F6FEA0EB0901514502D98E
:101510000320BDE8F0872068696800F00C00B0EB9C
:10152000810FEFD1D8F80010404601F00F01B14211
:1015300007D90770006800F00F00B04201D0012009
:10154000E7E72878400705D52068E96820F4E050EF
:10155000084320602878000706D52068296920F410
:10156000604040EAC100206000F058F82168084A55
:10157000C1F30311515CC840064908600648006881
:10158000FFF7E0FE0020C4E7003C024008380240BC
:10159000106500081C000020140000200F220260CB
:1015A0000C4A136803F003034360136803F0F0036D
:1015B0008360136803F4E053C36012684FF4E05390
:1015C00003EAD20202610448006800F00F000860DC
:1015D0007047000008380240003C024004480549BA
:1015E00000680968044AC1F38221515CC840704711
:1015F0001C00002008380240206500080448054906
:1016000000680968044AC1F34231515CC840704720
:101610001C0000200838024020650008154810B55D
:10162000006810F00C02144813D01449042A0FD09B
:10163000082A0ED10F4C241F2268236802F03F02B3
:101640005B0207D52068C0F38810A0FB010106E00B
:10165000084610BD2168C1F38811A1FB00010023D9
:10166000FEF762FE2168C1F30141491C4900B0FB4D
:10167000F1F010BD083802400024F40040787D01EC
:101680002DE9F84F04006ED02078DFF83C93C007B6
:10169000A9F104054AD009F104000168C1F38101F0
:1016A000012908D00068C0F3810002280AD1D9F8C6
:1016B0000000400206D52868800337D560680028FE
:1016C000E1D033E06068B0F5803F10D0B0F5A02FD6
:1016D000286810D020F480302860286820F480200A
:1016E00028606068A8B1FFF705FE06460DE028688F
:1016F00040F48030F4E740F480202860F7E700BF32
:10170000FFF7F8FD801B642873D828688003F7D59D
:101710000CE0FFF7EFFD064605E000BFFFF7EAFD2E
:10172000801B6428F0D828688003F7D42078DFF87D
:101730009C8280074FF0000A3ED5A348001D016837
:1017400011F00C0F08D00068C0F3810002280BD103
:10175000D9F80000400207D42868800716D5E06851
:10176000012800D112E02BE1E068B8B10120C8F8EF
:101770000000FFF7BFFD064605E000BFFFF7BAFD1A
:10178000801B0228C0D828688007F7D528682169FF
:1017900020F0F80040EAC10028600DE0C8F800A081
:1017A000FFF7A8FD064604E0FFF7A4FD801B022812
:1017B0001FD828688007F7D42078000722D5824EEA
:1017C00083486169703671B101210160FFF792FDB4
:1017D000074604E0FFF78EFDC01B022809D83068D9
:1017E0008007F7D50EE0C0F800A0FFF783FD07469D
:1017F00005E082E0FFF77EFDC01B02287DD830683F
:101800008007F7D42078400768D5DFF8BCB10027FF
:101810000BF13C0BDBF80000C0000BD4DBF8001030
:1018200041F08051CBF80010DBF80000012700F0F8
:1018300080500090674E3068C00510D4306840F486
:1018400080703060FFF756FD009005E0FFF752FD15
:101850000099401A022850D83068C005F6D55A4E73
:10186000A0686C3601280FD00528306810D020F011
:1018700001003060306820F004003060A068B8B12A
:10188000FFF738FD00900FE0306840F00100F4E70A
:1018900040F004003060F7E7FFF72CFD0099411A93
:1018A00041F28830814266D830688007F4D50EE076
:1018B000FFF720FD009007E0FFF71CFD0099411A9B
:1018C00041F28830814256D830688007F4D42FB175
:1018D000DBF8001021F08051CBF80010A069C8B3EC
:1018E0003949091D0968C1F3810102294AD002283A
:1018F000504607D0C8F8600000E03CE0FFF7FAFC73
:1019000004463BE04746C8F86000FFF7F3FC064694
:1019100005E000BFFFF7EEFC801B02282BD82868EB
:101920008001F7D4D4E907010843A16A2A4A49088B
:1019300002EB0141626A41EA8211084394F82C10DB
:1019400040EA0161C9F8001001203866FFF7D2FCB7
:10195000044606E036E000BFFFF7CCFC001B02287F
:1019600009D828688001F7D52CE000BFFFF7C2FC3A
:10197000001B022802D90320BDE8F88F28688001E7
:10198000F4D41FE00128F7D0D9F80000E26900F490
:101990008001914214D1226A00F03F0191420FD19F
:1019A00047F6C071626A0140914209D1A26A00F40F
:1019B0004031914204D1E16A00F07060884201D068
:1019C0000120D9E70020D7E7043802400000474251
:1019D000800E4742007000400000FFFF70477047D4
:1019E00070B590F83C20012A32D0012480F83C40A8
:1019F000022280F83D2003685A689D6822F0700634
:101A00000A6832435A60134B02689A4214D0B2F10A
:101A1000804F11D0104B9A420ED0104B9A420BD0EF
:101A20000F4B9A4208D00F4B9A4205D00E4B9A4268
:101A300002D00E4B9A4204D1496825F08003194325
:101A4000916080F83D40002180F83C10084670BD50
:101A5000022070BD0000014000040040000800406A
:101A6000000C00400004014000400140001800400C
:101A700010B5040003D094F83D0010B107E0012038
:101A800010BD002084F83C00204600F00DF8022034
:101A900084F83D00211D206802F0EAF8012084F856
:101AA0003D00002010BD000008B52349026823480E
:101AB0008A4211D1016841F00801016000680022EA
:101AC00000F00800009011463220FFF79BFCBDE8B3
:101AD00008403220FFF788BC1849194B091D9A426B
:101AE00007D1086840F400300860086800F400304E
:101AF00009E0144B9A4208D1086840F4802008603D
:101B0000086800F48020009008BD0F498A4207D180
:101B1000016841F080010160006800F08000F2E798
:101B20000A498A42F0D1016841F48071016000687D
:101B300000F48070E7E70000000C004040380240ED
:101B40000044014000480140001C004000200040CB
:101B50000168CA6842F00102CA600068816801F049
:101B60000701062903D0016841F00101016000204E
:101B7000704770B5044690F83C00012817D0012545
:101B800084F83C50022084F83D002068826822F0EE
:101B9000770222F47F4282600868502830D00DDC42
:101BA00020284DD005DC98B310283BD148E0022016
:101BB00070BD302844D0402834D139E0602828D086
:101BC000702806D0B0F5805F2CD0B0F5005F29D129
:101BD0000AE0CB68D1E90121206802F0BAF8206858
:101BE000816841F0770109E0CB68D1E901212068E3
:101BF00002F0AFF82068816841F48041816011E013
:101C0000CA684968206802F079F95021206807E025
:101C100016E0CA684968206802F081F960212068EE
:101C200002F0A1F884F83D50002084F83C0070BD1B
:101C3000CA684968206802F061F940212068EFE72E
:101C4000226801461046EBE72DE9F0410D460400FD
:101C500003D094F83D0018B108E00120BDE8F08100
:101C6000002084F83C00204600F03AF8022084F876
:101C70003D002068816844F2070291438160211D84
:101C8000206801F0F5FF226890689169166A2B6858
:101C9000AF69034340F20330814341EA0721A8685A
:101CA000EF6908434FF6FC418843E96840EA0720A2
:101CB000014328692F6A000140EA07300843696838
:101CC0006D6926F0AA0646EA051529439360226845
:101CD000906120680162012084F83D000020BDE78A
:101CE000F0B587B0044614216846FEF70BFC5E4849
:101CF0005C49236800255C4A1438022401268B4283
:101D000020D1116841F001011160116801F0010159
:101D10000591016841F0100101600068694600F01A
:101D2000100005904FF420608DE83100CDE90346A6
:101D30004E48FFF7FDF9002211461820FFF762FB1D
:101D400018208BE048494A4F091FB3F1804F1DD03E
:101D5000484EB34243D10A6842F002020A60096861
:101D600001F002010591016841F002010160006883
:101D7000694600F00200059030208DE831000394A0
:101D800038460494FFF7D4F907B0F0BD0A6842F072
:101D900001020A60096801F001010591016841F042
:101DA00001010160016801F001010591016841F044
:101DB000020101600068694600F0020005902020E1
:101DC0008DE83100CDE903462B48FFF7B1F9082033
:101DD0008DE83100CDE9034669463846D2E7274E03
:101DE000B34218D10A6842F004020A60096801F09F
:101DF00004010591016841F008010160006869462D
:101E000000F0080005904FF440508DE83100039435
:101E10001B480494B6E71B498B42B5D1116841F0C9
:101E200002011160116801F002010591016841F0A1
:101E3000040101600068694600F004000590C020BC
:101E40008DE831000320CDE903400F48FFF770F91A
:101E5000002211462E20FFF7D5FA2E20FFF7C4FAF4
:101E600092E70000000001404438024000100240A8
:101E7000000402400004004000000240000800404E
:101E8000000C0240000401400008024010B5044666
:101E9000006891B1042904D00122002101F04CFF17
:101EA000206801225FF0040101F046FF206801680C
:101EB00041F001010160002010BD01220021F3E783
:101EC000704770B50446006801694FF00005C943CA
:101ED000890715D4C168C943890711D4E91E016176
:101EE00001202077206880698007204602D0FFF714
:101EF000E7FF04E000F034F9204600F0C9F9257747
:101F000020680169C943490717D4C168C943490713
:101F100013D46FF0040101610220207720688069EA
:101F200010F4407F204602D0FFF7CAFF04E000F023
:101F300017F9204600F0ACF9257720680169C943FC
:101F4000090716D4C168C943090712D46FF0080104
:101F50000161042020772068C0698007204602D0F4
:101F6000FFF7AEFF04E000F0FBF8204600F090F928
:101F7000257720680169C943C90617D4C168C943D8
:101F8000C90613D46FF01001016108202077206882
:101F9000C06910F4407F204602D0FFF791FF04E0B3
:101FA00000F0DEF8204600F073F92577206801691B
:101FB000C943C90708D1C168C943C90704D1891EEB
:101FC0000161204600F088F920680169C9430906CB
:101FD00009D4C168C943090605D46FF080010161C5
:101FE0002046FFF7FBFC20680169C943490609D474
:101FF000C168C943490605D46FF04001016120461C
:1020000000F074F920680169C94389060BD4C168DE
:10201000C943890607D46FF0200101612046BDE85D
:102020007040FFF7DCBC70BDF0B587B004461421EA
:102030006846FEF767FA4048256800223F490224B7
:1020400003233F4F854210D1086840F0010008602B
:10205000086802AD00F0010005900E20CDE90004F3
:1020600085E81C006946384612E0364E3648B542CF
:1020700012D10D6845F020050D600968CDE90223F5
:1020800001F0200105914021CDE900140493694637
:10209000FFF74EF807B0F0BDDFF8B0C08026654509
:1020A0000CD10D6845F020050D600968CDE90223CB
:1020B00001F02001CDE90431694639E0DFF890E014
:1020C0004FF0090C75450ED1086840F00200086019
:1020D0000868694600F0020005904FF40040CDE921
:1020E00000041C4810E0DFF870E0754510D10D6861
:1020F00045F020050D60096801F0200105914FF4BD
:102100008071CDE90014694602AD85E80C10BFE787
:1021100012488542BED1086840F001000860086896
:10212000694600F00100CDE904C03846CDE902233C
:10213000CDE90064ACE70000000C004030380240FC
:1021400000000240004401400014024000480140E9
:102150000018004000040240001C00400020004025
:10216000704770B5044690F83C000D4601280DD02C
:10217000012684F83C60022084F83D0042B1042A24
:1021800018D0082A2AD00C2A4DD139E0022070BD7F
:10219000206801F0F1FD2068816941F0080181614A
:1021A0002068816921F004018161206881692A69C0
:1021B000114311E0206801F00FFE2068816941F4AD
:1021C000006181612068816921F4806181612068FA
:1021D00081692A6941EA0221816124E0206801F0D5
:1021E00031FE2068C16941F00801C1612068C16900
:1021F00021F00401C1612068C1692A69114311E01D
:10220000206801F053FE2068C16941F40061C1619A
:102210002068C16921F48061C1612068C1692A69AF
:1022200041EA0221C16184F83D60002084F83C004D
:1022300070BD10B5040003D094F83D0010B107E064
:10224000012010BD002084F83C00204600F00CF86E
:10225000022084F83D00211D206801F009FD0120C5
:1022600084F83D00002010BD08B50068064988428A
:1022700008D10648016841F040010160006800F0A3
:102280004000009008BD00000018004040380240A7
:102290007047000010B504460068012201F04CFDB3
:1022A0000B492068884202D00A49884203D1416C18
:1022B00041F4004141642068816801F0070106296A
:1022C00003D0016841F001010160002010BD000051
:1022D000000001400004014000680349884201D128
:1022E000FFF70EB87047000000100040704710B5AF
:1022F00004460068416994F83920C1F3C011212ACD
:102300000BD151B1416921F080014161206B08B1CD
:10231000FEF730FD204601F01BFF2068416994F86C
:102320003A20C1F38011222A0BD151B1416921F029
:1023300040014161606B08B1FEF71CFD204601F0D1
:10234000F9FE002010BD704770B5026804461068A1
:10235000D168536910F00F0F53D003F0010501F459
:1023600090762E435FD0C20705D0CA0503D5E26B35
:1023700042F00102E263420705D5DA0703D0E26BBF
:1023800042F00202E263820705D5DA0703D0E26B6E
:1023900042F00402E263020707D501F020022A435B
:1023A00003D0E26B42F00802E263E26B002A34D011
:1023B000800604D5880602D5204601F0D2FE2068AA
:1023C0004069E16BC0F3801001F008010143204631
:1023D00024D001F0AFFE2068416949061AD5416951
:1023E00021F040014161606BA0B11B490165606B48
:1023F000FEF707FD002810D0606B016DBDE870404E
:10240000084783060FD58B060DD52046BDE87040E2
:1024100001F0A7BE2046FFF796FF70BDFFF793FFC0
:102420000020E06370BD030606D50B0604D52046E8
:10243000BDE8704001F074BF4006F3D54806F1D501
:10244000D168204621F04001D160202184F8391064
:1024500000F011FB70BD00009540000870B504004D
:1024600004D094F83900002510B106E0012070BDB9
:1024700084F83850204600F023F8242084F83900EE
:102480002068C16821F40051C160204601F0B4FE0B
:102490002068016921F4904101612068416921F0BF
:1024A0002A0141612068C16841F40051C160E563BF
:1024B000202084F8390084F83A00002070BD000024
:1024C0002DE9F04F87B0044614216846FEF71AF84C
:1024D000FF48DFF8F8831038D4F800C0FC4A022126
:1024E00001230327DFF8ECE3002506154FF0006910
:1024F000C44536D1D2F800C04CF4002CC2F800C05C
:10250000126802F400220592026842F0040202609E
:10251000006800F004000590B8028DE88B000820E8
:10252000049069467046FEF703FEEC4FEA483860B7
:10253000C7E90195C7E9035680157D61C7E90650D3
:102540003D6238467D62FEF73FFD08B1FEF78EFB27
:102550006763002205213420BC63FEF753FF34205B
:102560006CE0DFF87C834FF0400A4FF4003BC44539
:1025700069D1D2F800C04CF4801CC2F800C01268C7
:1025800002F480120592026842F0040202600268BE
:1025900002F004020592026842F00802026000683C
:1025A000884600F0080005904FF48050CDE9000106
:1025B0000120CDE902070820049069467046FEF725
:1025C000B7FD0420CDE900080120CDE9020708206D
:1025D00004906946C348FEF7ABFDC04FBE48603764
:1025E00030383860C7E90195C7E903567D61BD61A0
:1025F000C7E9075B38467D62FEF7E6FC08B1FEF7E7
:1026000035FB6763BC63B54FB348C0377830C7E963
:1026100003567D61BD61C7E9075B7D6287E80106FE
:102620003846FEF7D1FC08B1FEF720FB27630022F5
:1026300005213520BC63FEF7E5FE3520FEF7D4FE0C
:1026400007B0BDE8F08FA24BDFF89C821B1D4FF056
:10265000070EC44547D11A6842F010021A601A6882
:1026600002F010020592026842F001020260006866
:1026700000F0010005904FF4C0608DE8A34069466A
:102680009A48FEF755FD9B4F99483860C7E9019578
:10269000C7E903567D61BD61FD613D6238467D62DB
:1026A000FEF792FC08B1FEF7E1FA6763BC63914F55
:1026B0008F4860377830C7E903567D61BD61FD61A1
:1026C0003D627D6287E801063846FEF77DFC08B171
:1026D000FEF7CCFA2763002211462520BC63FEF7E3
:1026E00091FE2520AAE7DFF81082C44547D1136880
:1026F00043F400331360126802F40032059202685A
:1027000042F008020260006800F0080005906020B6
:102710008DE8A34069467348FEF70AFD754F6E4881
:10272000C03748303860C7E90195C7E903567D6175
:10273000BD61FD613D6238467D62FEF745FC08B132
:10274000FEF794FA6763BC636C4F6348C7E90356AE
:102750007D61BD61FD613D6260307D6287E801069B
:102760003846FEF731FC08B1FEF780FA27630022F5
:1027700011462620BC63FEF745FE26205EE7DFF803
:102780008081C44551D11368002543F48023136030
:10279000126802F480220592026842F0020202608E
:1027A000006800F0020005904FF440608DE8A340FF
:1027B00069465448FEF7BCFC504847496030183918
:1027C0000160C0E90195C0E90356B04600F1180365
:1027D0008E15456183E860084F464562FEF7F4FBBD
:1027E00008B1FEF743FA4548444D603060638463A6
:1027F0003948C035183085E881040020C5E9030850
:1028000005F11801686181E8410868622846FEF711
:10281000DBFB08B1FEF72AFA2563002205212720F9
:10282000AC63FEF7EFFD272008E7374A94457FF4B5
:1028300007AF1A6842F020021A601A6802F02002FC
:102840000592026842F040020260006800F0400019
:1028500005904FF484408DE8A30008200490694659
:102860002A48FEF765FC2A4F21484FF020691838A6
:102870003860C7E90195C7E9035607F118024FF41C
:1028800080787D6182E8200938467D62FEF79CFBF6
:1028900008B1FEF7EBF96763BC631D4F144860375E
:1028A00007F11801C7E903567D6181E8200960300E
:1028B0007D6287E801063846FEF786FB08B1FEF721
:1028C000D5F9002205212763472023E0004C004072
:1028D000403802400008024040600240C80B00201F
:1028E00000500040000C0240001001400000024077
:1028F00040640240E80C002000440040080E002024
:10290000004800400004024000140140001802404A
:10291000280F0020BC63FEF775FD47208EE60000FF
:10292000F8B5044690F83A0020283CD1C1B3BAB3B8
:1029300094F83800012836D0012084F83800A162CC
:10294000A2850025E563222084F83A00636B1748CE
:10295000D863636B16481864636B1648D864606B61
:10296000134605650846666B216802463046091D18
:10297000FEF794FB206801684168009184F83850A4
:10298000C16841F48071C1602068416941F0010172
:1029900041612068416941F0400141610020F8BD7A
:1029A000FFE70120FBE70220F9E70000EF40000805
:1029B0002B410008A5400008704770472DE9F843F7
:1029C000044690F839001F4616460D46202850D17F
:1029D000B5B1AEB194F8380001284AD0012084F88E
:1029E00038004FF00008C4F83C80212084F83900FA
:1029F000FEF780FCA6848146E68484F8388026E0D1
:102A00000120BDE8F883E08C401EE084A0684B46BE
:102A1000B0F5805F4FF000024FF080012046009734
:102A200003D001F0AEFCE8B90DE001F0AAFCC8B992
:102A300028882168C0F308004860206908B16D1C2F
:102A400005E0AD1C03E0216815F8010B4860E08C3F
:102A50000028D8D14B46002240212046009701F0A3
:102A600090FC08B10320CCE7202084F83900002036
:102A7000C7E70220C5E77047FEE7A0F1300109294A
:102A800001D8C8B27047A0F14101052901D83738F3
:102A900004E0A0F16101052902D85738C0B270479F
:102AA000FF207047354808B5016841F48001016096
:102AB000016801F480010091016841F40011016096
:102AC0000068002200F40010009011460B20FEF771
:102AD00099FC0B20FEF788FC002205210C20FEF754
:102AE00091FC0C20FEF780FC002211460D20FEF721
:102AF00089FC0D20FEF778FC002205210E20FEF750
:102B000081FC0E20FEF770FC002211461020FEF71B
:102B100079FC1020FEF768FC002211461120FEF718
:102B200071FC1120FEF760FC002211462F20FEF7F9
:102B300069FC2F20FEF758FC002205213920FEF702
:102B400061FC3920FEF750FC002211463A20FEF7C6
:102B500059FC3A20FEF748FC002205214520FEF7EB
:102B600051FC4520FEF740FC002211464620FEF7AE
:102B700049FCBDE808404620FEF736BC303802402C
:102B800030B51B4D93B00022D5E90001CDE90E010F
:102B900001210EA801F096FE164C0022A060D5E996
:102BA0000201CDE91001012110A801F08BFEE060C7
:102BB0000621A06801F0A6FE0221E06801F0A2FE55
:102BC0001C2205F110016846FDF76AFC00216846E9
:102BD00001F04EFE20601C2205F12C0107A8FDF734
:102BE0005FFC002107A801F043FE606013B030BD18
:102BF000C0640008000000202DE9F04F87B01421C8
:102C00006846FDF77FFC4B480024016841F0100145
:102C10000160016801F010010591016841F0200197
:102C20000160016801F020010591016841F0800117
:102C30000160016801F080010591016841F0010126
:102C40000160016801F001010591016841F0020194
:102C50000160016801F002010591016841F008017D
:102C60000160016801F008010591016841F004016B
:102C70000160016801F004010591016841F0400123
:102C800001600068DFF8B0A000F040004FF48A5502
:102C90000590002229465046FEF726FBDFF89CB03F
:102CA0004FF4AC58002241465846FEF71DFB4FF446
:102CB0000049002249462248FEF716FB0022C021A7
:102CC0002048FEF711FB0C20CDE900046946584668
:102CD0000294FEF72DFA009501AA1125012603277B
:102CE00082E8E00069465046FEF722FA0620CDE968
:102CF0000004694613480294FEF71AFA01AACDF8B7
:102D0000008082E8E00069465846FEF711FA01AA01
:102D1000CDF8009082E8E00069460948FEF708FA1D
:102D2000C0208DE8E10069460648FEF701FA07B0C9
:102D3000BDE8F08F30380240000002400010024031
:102D4000001802400004024010B588B01C216846FB
:102D5000FDF7D8FB15481449002401600121C0E9A2
:102D6000011442F2CF01C0E9031480218161FEF712
:102D70007FFE08B1FDF77AFF0C48FFF75AFA08B159
:102D8000FDF774FF6020CDE900040294002269463B
:102D900006480494FFF7E5F908B1FDF767FF03481B
:102DA000FFF742F908B010BD0044014008090020B7
:102DB00010B588B01C216846FDF7A4FB15481449DE
:102DC000002401600121C0E9011442F2CF01C0E9F1
:102DD000031480218161FEF74BFE08B1FDF746FF29
:102DE0000C48FFF726FA08B1FDF740FF6020CDE957
:102DF000000402940022694606480494FFF7B1F9E2
:102E000008B1FDF733FF0348FFF70EF908B010BD16
:102E1000004801404809002010B588B01C216846D0
:102E2000FDF770FB124811490024C0E9001442F27A
:102E3000CF01C0E90241802104618161FFF7F9F906
:102E400008B1FDF713FF6020CDE9000402940422CD
:102E5000694607480494FFF784F908B1FDF706FFB7
:102E60000348FFF7E1F808B010BD0000001800406B
:102E70008809002010B588B01C216846FDF742FB88
:102E8000154814490024C0E9001442F2CF01C0E9FA
:102E90000241802104618161FEF7EAFD08B1FDF77E
:102EA000E5FE0D48FFF7C5F908B1FDF7DFFE60202C
:102EB000CDE9000402940022694607480494FFF714
:102EC00050F908B1FDF7D2FE0348FFF7ADF808B09E
:102ED00010BD0000001C0040C809002010B588B0DB
:102EE0001C216846FDF70EFB154814490024C0E973
:102EF000001442F2CF01C0E90241802104618161E6
:102F0000FEF7B6FD08B1FDF7B1FE0D48FFF791F9E8
:102F100008B1FDF7ABFE6020CDE900040294002269
:102F2000694607480494FFF71CF908B1FDF79EFEB7
:102F30000348FFF779F808B010BD000000200040FA
:102F4000080A002010B58CB024216846FDF7DAFA93
:102F500000241648099414490A9401600321C0E929
:102F600001144FF6FF72C0E90324446184610091AB
:102F70000120CDE9014003940494CDE90540079474
:102F800069460A480894FEF75FFE08B1FDF76EFE39
:102F9000099409A905480A94FEF722FD002801D0EA
:102FA000FDF764FE0CB010BD000001408807002052
:102FB00010B58CB024216846FDF7A4FA002415480A
:102FC00009944FF080410A9401600321C0E9011483
:102FD0004FF6FF72C0E90324846100910120CDE91E
:102FE000014003940494CDE90540079469460948DB
:102FF0000894FEF729FE08B1FDF738FE099409A9E7
:1030000004480A94FEF7ECFC002801D0FDF72EFEE0
:103010000CB010BDC807002010B58CB02421684644
:10302000FDF770FA00241648099414490A940160C7
:103030000321C0E901144FF6FF72C0E90324846143
:1030400000910120CDE9014003940494CDE90540AD
:10305000079469460A480894FEF7F6FD08B1FDF7A3
:1030600005FE099409A906480A94FEF7B9FC002850
:1030700001D0FDF7FBFD0CB010BD000000040040C6
:103080000808002010B58CB024216846FDF73AFAF4
:1030900000241648099414490A9401600321C0E9E8
:1030A00001144FF6FF72C0E90324846100910120EE
:1030B000CDE9014003940494CDE9054007946946A5
:1030C0000A480894FEF7C0FD08B1FDF7CFFD09944A
:1030D00009A906480A94FEF783FC002801D0FDF7F1
:1030E000C5FD0CB010BD00000008004048080020DD
:1030F00010B58EB000240794089409940A940B9498
:103100001C2168460C94FDF7FDF92748254901600C
:1031100041F61F41C0E90114C721C0E90314802111
:103120008161FEF7A5FC08B1FDF7A0FD4FF48050CA
:10313000079007A91C48FEF71CFD08B1FDF796FD96
:103140001948FFF776F808B1FDF790FD0B940BA92D
:1031500015480C94FEF744FC08B1FDF787FD60208C
:10316000CDE900040294042269460F480494FEF756
:10317000F8FF08B1FDF77AFD082269460A48FEF714
:10318000F0FF08B1FDF772FD0C2269460648FEF714
:10319000E8FF08B1FDF76AFD0348FEF745FF0EB0F2
:1031A00010BD0000000C00408808002010B58CB055
:1031B00024216846FDF7A6F900241748099415490B
:1031C0000A9401600321C0E901144FF6FF72C0E9BF
:1031D00003248022C0E9054200910120CDE901408D
:1031E00003940494CDE90540079469460A4808947D
:1031F000FEF72AFD08B1FDF739FD099409A9064833
:103200000A94FEF7EDFB002801D0FDF72FFD0CB06E
:1032100010BD000000040140C80800200C4810B593
:103220000A4901604FF4E1314160002181600C22C4
:10323000C160C0E904128161C161FFF70FF9002884
:1032400003D0BDE81040FDF711BD10BD004C00409B
:10325000480A00200C4810B50A4901604FF4E131DA
:103260004160002181600C22C160C0E904128161CB
:10327000C161FFF7F3F8002803D0BDE81040FDF767
:10328000F5BC10BD00500040880A00200C4810B565
:103290000A4901604FF4E1314160002181600C2254
:1032A000C160C0E904128161C161FFF7D7F800284D
:1032B00003D0BDE81040FDF7D9BC10BD001001409F
:1032C000C80A00200C4810B50A4901604FF4E131EA
:1032D0004160002181600C22C160C0E9041281615B
:1032E000C161FFF7BBF8002803D0BDE81040FDF72F
:1032F000BDBC10BD00440040080B00200C4810B5B8
:103300000A4901604FF4E1314160002181600C22E3
:10331000C160C0E904128161C161FFF79FF8002814
:1033200003D0BDE81040FDF7A1BC10BD004800402F
:10333000480B00200C4810B50A4901604FF41651A3
:103340004160002181600C22C160C0E904128161EA
:10335000C161FFF783F8002803D0BDE81040FDF7F6
:1033600085BC10BD00140140880B0020FEE77047AB
:103370002DE9F04140490868DFF804813F4CD8F856
:10338000002004EB42029081002008603D494A6A17
:103390003D4D2B6804EB43039A81486289034A6AD6
:1033A0003A4E5242336804EB43039A8148623849EB
:1033B0000A68384F52423B6804EB43039A81086025
:1033C000B4F9140000EE100AB4F90C00F8EEC00ACB
:1033D00000EE100A3048B8EEC00A01F0C1FA2868C1
:1033E000BDEEC00A04EB800080ED070AB4F91600B8
:1033F00000EE100AB4F90E00F8EEC00A00EE100A52
:103400002648B8EEC00A01F0ABFA3068BDEEC00A3B
:1034100004EB800080ED070AB4F9180000EE100AF2
:10342000B4F91000F8EEC00A00EE100A1C48B8EE1D
:10343000C00A01F095FAD8F80000BDEEC00A04EB0E
:10344000800080ED070AB4F91A0000EE100AB4F902
:103450001200F8EEC00A00EE100A1248B8EEC00AD8
:1034600001F07EFA3868BDEEC00A04EB800080ED02
:10347000070ABDE8F081000024040040404E00200F
:103480009C000020000001409400002098000020D3
:1034900024080040A0000020184F0020844F002086
:1034A000F04F00205C50002030B4034C4466034CC5
:1034B000846630BC01F048BB494B0008574B0008FC
:1034C00010B51949164C174BCA78607A897890B1B3
:1034D000012815D0022819D003280BD10A216FF03A
:1034E000590000F057FD002804D0082002F02CF805
:1034F0000820207010BD18895028FBD90120607267
:10350000012AF7D10129F5D10220607218882A28F2
:10351000F0D8002AEED10029ECD103206072DDE75B
:10352000B40000208A4E0020C300002010B5144CC7
:10353000144A217B108881B1012915D002290BD1B1
:103540000A216FF0590000F025FD002804D0012069
:1035500001F0FAFF0B20207010BDD1880029FBD0AC
:103560002A28F9D3012121732A28F5D80648C178E1
:103570000029F1D180780028EED102202073DFE706
:10358000B40000208A4E0020C300002010B51A4A63
:10359000184CD178A0799278B0B101281AD00228BD
:1035A0001FD0032821D004280DD1012000F044FAB7
:1035B0000A215A2000F0EEFC002804D0022001F07D
:1035C000C3FF0520207010BD0C4800885028FAD990
:1035D0000120A0710029F6D1012AF4D10220A071A6
:1035E00010BD002AFCD10320A0710029F8D10420CD
:1035F000A071DAE7B4000020C30000208A4E00204A
:1036000070B51A4D1A491B4C6879C0B101281BD0FE
:10361000022821D0032811D1E07800280ED1A0780B
:1036200000280BD10A216FF0590000F0B3FC0028EC
:1036300004D0082001F088FF0420287070BD08899C
:103640005028FBD901206871E0780128F6D1A078D4
:103650000128F3D10220687108882A28EED80020BA
:1036600000F0EAF903206871D6E70000B4000020FA
:103670008A4E0020C300002010B51A4A184CD17899
:10368000A07A9278B0B101281AD002281FD003285E
:1036900021D004280DD1012000F0CEF90A215A20B2
:1036A00000F078FC002804D0022001F04DFF092032
:1036B000207010BD0C4800885028FAD90120A07253
:1036C0000029F6D1012AF4D10220A07210BD002AEF
:1036D000FCD10320A0720029F8D10420A072DAE7FF
:1036E000B4000020C30000208A4E002070B5154AA7
:1036F000134C0125D078A178927881B1012913D09B
:1037000002291CD10A216FF0590000F043FC002867
:1037100015D02570BDE87040012001F015BF0128CB
:103720000DD1012A0BD1A570074909882A2906D88D
:10373000002804D1002A02D10220A070E2E770BD67
:10374000B4000020C30000208A4E002010B51B4AA0
:10375000194CD178207A9278B8B101281BD0022870
:1037600020D0032822D004280ED1012000F064F9D3
:103770000A216FF0590000F00DFC002804D0012050
:1037800001F0E2FE0720207010BD0D48008850288F
:10379000FAD9012020720129F6D1002AF4D10220A1
:1037A000207210BD0029FCD103202072002AF8D11C
:1037B00004202072D9E70000B4000020C3000020DC
:1037C0008A4E002010B5144A124CD078E1799278D4
:1037D00079B1012913D002290AD10A215A2000F017
:1037E000D9FB002804D0072001F0AEFE062020708F
:1037F00010BD0128FCD1012AFAD10121E17107494C
:10380000C9882A29F4D80028F2D1002AF0D1022050
:10381000E071E2E7B4000020C30000208A4E0020DF
:1038200010B501F00FFF00F005F8BDE8104001F001
:1038300029BF000010B5214C2078401C607001F0B9
:10384000B9FE60780D2838D2DFE800F037070B0F9B
:1038500013171B1F23272B2F3300BDE81040FFF742
:1038600045BFBDE8104000F0B9B8BDE8104000F019
:1038700055B8BDE81040FFF7C3BEBDE81040FFF7E4
:1038800085BEBDE81040FFF79DBFBDE81040FFF7C3
:103890005DBFBDE81040FFF713BEBDE81040FFF765
:1038A000EBBEBDE8104000F00BB8BDE81040FFF7DC
:1038B0003DBEBDE8104000F063B810BDB40000206C
:1038C00010B5144A124CD078E17A927879B1012976
:1038D00013D002290AD10A215A2000F05BFB0028EC
:1038E00004D00D2001F030FE0A20207010BD012808
:1038F000FCD1012AFAD10121E1720749C9882A299C
:10390000F4D80028F2D1002AF0D10220E072E2E7D8
:10391000B4000020C30000208A4E002070B5164C71
:1039200016492079CA788978012816D003250228FB
:103930001AD003281BD0042815D1002000F07CF8F1
:103940000A216FF0590000F025FB00280BD02570EC
:10395000BDE87040012001F0F7BD012A03D1002924
:1039600001D10220207170BD002AFCD125710029EF
:10397000F9D104202071E0E7B4000020C30000204A
:1039800010B5134C1348617B008881B1012912D016
:1039900002290BD10A216FF0590000F0FBFA002830
:1039A00004D0642001F0D0FD0C20207010BD502800
:1039B000FCD3012161732A28F8D80748C17800296F
:1039C000F4D180780028F1D102206073E2E7000092
:1039D000B40000208A4E0020C300002070B5134CB4
:1039E00013480225E178008881B1012912D002290B
:1039F0001BD10A216FF0590000F0CCFA002814D036
:103A00002570BDE87040072001F09EBD50280CD9FC
:103A10000121E1702A2808D80648C178002904D17C
:103A20008078002801D1E570E3E770BDB400002084
:103A30008A4E0020C30000200A49F2EE000A91EDF0
:103A4000010A30B1012803D130EE200A81ED010ACC
:103A50007047B5EEC00AF1EE10FAF9DD30EE600AFB
:103A6000F4E70000404E002003490860081F016889
:103A70004906FCD5704700000414014010B5064803
:103A800090EC030A143000F095FEFFF771FCBDE8DE
:103A9000104000F0CFBE0000404E0020012000F09A
:103AA000DBFEFBE710B5502080F31188BFF34F8F8A
:103AB000BFF36F8F02F020FB18B104494FF0805024
:103AC0000860002080F3118810BD000004ED00E0C4
:103AD00030B593B030216846FCF714FD14210CA8D2
:103AE000FCF710FD19480025016841F08051016084
:103AF000006800F0805011901548016841F4804141
:103B000001600068022400F48040119001200390BD
:103B100010200490009406940820CDE90750A820B6
:103B2000CDE9090404200B906846FDF7A9FD0CA916
:103B30000F2081E831004FF4A0500F90E002109068
:103B400005210CA8FDF790FC13B030BD40380240B1
:103B5000007000400548016841F4700101600349AC
:103B60004FF00060803908607047000088ED00E089
:103B700010B50B4600221CE0042A04D0052A15D0FB
:103B8000062A16D132E001796D2912D1021D807802
:103B9000FEF773FF02F8020D5078FEF76EFF5070CB
:103BA000117801EB810100EB410047E041796D297B
:103BB00003D0521C0A2ADFDB10BD421D8078FEF7BD
:103BC0005CFF02F8030D5078FEF757FF50709078B5
:103BD000FEF753FF90701178642411FB04F15278C2
:103BE00002EB820201EB4201084427E081796D2952
:103BF00001D00822C0E7821D8078FEF73EFF02F860
:103C0000040D5078FEF739FF50709078FEF735FFBD
:103C10009070D078FEF731FFD070117801EB41043D
:103C2000C4EBC11100EBC1005178642411FB04F115
:103C3000927802EB820201EB42010844186010BD49
:103C40000148FEF73EB90000880700200148FEF752
:103C500038B90000880800200148FEF732B900009A
:103C6000E80F00200148FEF72CB90000C80800202A
:103C7000F0B50268254C264D264E274F274B4FF0B6
:103C8000804CA04209D0604507D0A84205D0B04280
:103C900003D0B84201D0984204D122F0700E4A6895
:103CA00042EA0E02A0421BD0604519D0A84217D0AC
:103CB000B04215D0B84213D0984211D0184DA84246
:103CC0000ED0184DA8420BD0174DA84208D0174D62
:103CD000A84205D0164DA84202D0164DA84203D1E5
:103CE00022F44075CA682A434D6922F080022A43B3
:103CF00002608A68C2620A688262A04201D0984269
:103D000001D10969016301214161F0BD0000014059
:103D10000004004000080040000C00400004014086
:103D200000400140004401400048014000180040AC
:103D3000001C00400020004010B501F01F030121CD
:103D4000046A99408C430462016A9A4011430162FB
:103D500010BD10B5846842EA032224F47F440A436C
:103D60002243826010BD826822F070020A4342F052
:103D70000701816070470000F0B5026A22F001027D
:103D80000262036A42688469124E24F073050C686B
:103D90002C4323F002058B682B430D4DA84201D024
:103DA000B04205D123F00807CB683B4323F004035E
:103DB000A84201D0B04205D14D6922F440721543AA
:103DC0008A692A4342608461496841630362F0BDA5
:103DD0000000014000040140F0B5026A22F0100228
:103DE0000262026A436884690D6824F4E64444EA86
:103DF00005248D6822F0200242EA05120F4D104E74
:103E0000A84201D0B04206D1CF6822F0800242EA37
:103E1000071222F04002A84201D0B04207D14D69FA
:103E200023F4406343EA85038D6943EA85034360D5
:103E30008461496881630262F0BD000000000140B6
:103E400000040140F0B5026A22F480720262026A44
:103E50004368C46922F4007224F073050C68124EA2
:103E60002C438D6842EA05220E4DA84201D0B04293
:103E700006D1CF6822F4006242EA072222F480626F
:103E8000A84201D0B04207D14D6923F4405343EA20
:103E900005138D6943EA05134360C4614968C16332
:103EA0000262F0BD000001400004014030B5026A2A
:103EB00022F480520262046A4268C3690D6823F4E6
:103EC000E64343EA05238D6824F4005444EA0534AC
:103ED000084DA84202D0084DA84204D14D6922F4F1
:103EE000804242EA85124260C3614968016404620B
:103EF00030BD0000000001400004014010B5036A1D
:103F0000046A24F001040462846924F0F00444EAA1
:103F1000021423F00A020A438461026210BD10B544
:103F2000036A23F0100303628369046A23F4704375
:103F300043EA023224F0A00343EA011182610162E4
:103F400010BD000010B57320FFF78EFD3520FFF780
:103F50008BFD2D20FFF788FD3120FFF785FD232005
:103F6000FFF782FD0A20FDF7D1F8FCF7EBFEFCF726
:103F7000F5FE06480068C16841F01001C160BDE867
:103F800010401E2202490148FEF7CABC880B0020DF
:103F90006C4E00202DE9F047294C8046294FA07B2C
:103FA000294E8946002520B1012808D002282ED0AC
:103FB0003FE0642001F0C8FA01203D60A073396839
:103FC000494536D300EE108A2048214AB8EEC00A8F
:103FD000D0ED000A30EE800ADFED1E0A10EE101A56
:103FE00080ED000A914203DB30EE600A80ED000AAA
:103FF00010EE101A184A914203D330EE200A80EDD9
:10400000000A3570062001F09FFA0220A0731348C1
:1040100090ED000AB5EEC00AF1EE10FA01DCB1EE47
:10402000400A10EE100A0E49884202DC307801285E
:1040300002D00020BDE8F087A5730120FAE7000058
:10404000B4000020B0000020C8000020D4000020F0
:10405000000034430000B443000034C3D00000200B
:104060000000404010B5044800F048FABDE8104098
:104070000148FEF769B90000480A002010B504485D
:1040800000F03CFABDE810400148FEF75DB90000C1
:10409000880A002010B5806B0021C185C184FEF71D
:1040A00052F910BD70B5846B2068406994F83910DE
:1040B000C0F3C0100025212904D118B1E5842046A1
:1040C00000F046F82068406994F83A10C0F3801078
:1040D000222904D118B1E585204600F02BF8E06BC9
:1040E00040F01000E0632046FEF72DF970BD10B5DA
:1040F0000146806B09680968C90513D40021C18590
:104100000168CA6822F48072CA6001684A6922F0B4
:1041100001024A6101684A6922F040024A61202195
:1041200080F83A10FEF748FC10BD10B5806BFEF722
:1041300044FC10BD0168CA6822F49072CA6001682C
:104140004A6922F001024A61202180F83A10704742
:104150000168CA6822F0C002CA60202180F83910C4
:10416000704710B590F83A10222901D0022010BDF6
:104170008168B1F5805F11D00169002901681FD005
:10418000496801F07F03816A4A1C82620B70C18D0D
:10419000491E0904090CC18518D02BE00269816A07
:1041A000002A0268526805D0D2B20A80816A491C8E
:1041B0008162ECE7C2F308020A80816A891CF7E792
:1041C0004A68816A4B1C83620A70E0E70168CA682A
:1041D00022F02002CA600168CA6822F48072CA60B4
:1041E00001684A6922F001024A61202180F83A10F0
:1041F000FEF7E2FB002010BD2DE9F0410446006807
:104200000169E26821F44051114301612169A0680C
:10421000E26908436169114308432168CA6849F2A9
:104220000C639A430243CA6020684169A26921F481
:10423000407111434161E069192764253226B0F5C8
:10424000004F354A354920684FF0000806D08842B3
:1042500001D0904236D1FDF7D1F935E0884201D046
:10426000904202D1FDF7CAF901E0FDF7B7F96168A4
:104270004A18A0FB070148EB0803FCF755F8014674
:10428000B0FBF5F00201B1FBF5F06FF018035843F5
:1042900001EB800006EBC000B0FBF5F000F0F80089
:1042A00002EB4002B1FBF5F0584301EB800006EB56
:1042B000C000B0FBF5F000F00700216810448860F2
:1042C000BDE8F081FDF78AF961688B0F8A00A0FBD9
:1042D0000701FCF729F80146B0FBF5F06FF0180272
:1042E000504301EB800006EB0010B0FBF5F000F04E
:1042F000F002B1FBF5F002EB0012B1FBF5F06FF04C
:104300001803584301EB800006EB0010B0FBF5F0FA
:1043100000F00F00D1E70000001401400010014040
:1043200090F83910212901D0022070478168B1F539
:10433000805F016A0BD04A1C0262026809785160F2
:10434000C18C491E0904090CC1840ED017E00988EC
:104350000268C1F30801516001690029016A02D0B5
:10436000491C0162ECE7891CFBE70168CA6822F07E
:104370008002CA600068C16841F04001C16000204D
:1043800070472DE9F041984617460E460446069DB3
:104390001DE0681C1BD02DB1FCF7ACFFA0EB0800A2
:1043A000A84214D92068C16821F4D071C160206886
:1043B000416921F001014161202084F8390084F82D
:1043C0003A00002084F838000320BDE8F08120681E
:1043D000006836EA000004D00020B842D9D000209E
:1043E000F3E70120F9E7000010B5044800F086F873
:1043F000BDE810400148FDF7A7BF0000C80A002033
:1044000010B5FCF735FCBDE810400148FDF79CBF36
:10441000080B002010B5044800F070F8BDE810400B
:104420000148FDF791BF0000480B002010B504487B
:1044300000F064F8BDE810400148FDF785BF0000BA
:10444000880B002010B5044600681F49884201D13E
:10445000FCF70EFC1D492068884207D11C4801F07A
:10446000DDFA32221A491B48FEF75AFA1A49206827
:10447000884207D1194801F0BBFA32221749204679
:10448000FEF74EFA16492068884207D1154801F018
:10449000D9FA142213492046FEF742FA124920683D
:1044A000884210D1FCF74EFC10491148FFF760FB21
:1044B0000E4810491E2200880881BDE810400C49B2
:1044C0000D48FEF72DBA10BD0044004000480040E2
:1044D000944E0020480B0020004C0040C64E0020A7
:1044E00000500040034F002000140140A4000020B1
:1044F0006C4E00208A4E0020880B002038B50168E1
:1045000004460868C043C0060AD40868486800909A
:104510002046FDF7ECFE2046BDE83840FFF792BF8D
:1045200038BDFEE705480068C16841F01001C16070
:10453000142203490148FEF7F3B90000880A00205D
:10454000034F002001F07EF801F09CF8FAE700002C
:1045500010B52DED028B00F065FF00211348FDF72B
:1045600099FE3C211248FDF791FC9FED128A42F220
:1045700010742346B0EE481ADFED0F0A9FED0F0AC4
:104580001A4603210E48FEF78FFFB0EE481AF0EEF0
:10459000480A2346BDEC028B1A46BDE810409FED49
:1045A000090A03210848FEF77FBF0000080A00201F
:1045B000C8080020000000003333B33F00005C4215
:1045C000E4520020CDCC4C3D5053002010B50B22BE
:1045D00005490648FEF7A4F904480068C16841F09F
:1045E0001001C16010BD0000F84E0020080B002033
:1045F0000907090E002804DB00F1E02080F8001410
:10460000704700F00F0000F1E02080F8141D7047A3
:1046100030EE201AD0ED001AF4EEC11AF1EE10FAC5
:1046200002DCB0EE611A01E080ED001A30EEC00A43
:10463000B4EEC01AF1EE10FA01D280ED000A704714
:10464000114810B5B0F90000104C282801DD3C28B5
:1046500009DB00EE100ADFED0E0A0E48B8EEC00AC4
:1046600000F07EF90DE0293813280CD294ED010AF0
:10467000B5EEC00AF1EE10FA05DDF7EE000A30EEF5
:10468000600A84ED010A10BDDA000020404E0020CF
:10469000000048422854002070B51B4D4FF4805450
:1046A000002221462846FCF71FFE00224021284612
:1046B000FCF71AFE154D002280212846FCF714FE57
:1046C000002221112846FCF70FFE0022A1102846E7
:1046D000FCF70AFE002221462846FCF705FE0C4C9A
:1046E000002280212046FCF7FFFD002240212046C9
:1046F000FCF7FAFD074900200860074908600749F0
:1047000008600749086070BD0000024000100240C8
:10471000000402403444014034480140381800404D
:10472000341C0040EFF30580002800D001207047C2
:10473000FCF7EEFDFFF7CCF9FEF75EFAFEF7B2F9F3
:10474000FEF7F8FDFEF7DAFDFEF768FDFEF782FDE5
:10475000FEF7F8FBFEF72CFCFEF75EFCFEF792FC82
:10476000FEF7C6FCFEF7F0FAFEF722FBFEF754FB5D
:10477000FEF780FBFEF7B2FBFEF7A4FDFEF786FD19
:10478000FEF714FDFCF7B6F805490120087005494D
:1047900000200870FEF7F4F900F065F8FEE700006D
:1047A000A8000020B400002001460020842900D089
:1047B000C81C704770EE201A30EEC00A3CB531EECE
:1047C000C12A70EE010A30EE410A4FF4E174BDEEE9
:1047D000C22AFDEEE00ABDEEC00A12EE101A6A46C9
:1047E000ADF8001010EE901AADF8021010EE101A8D
:1047F00031EE810AADF80410BDEEC00A10EE101AB9
:10480000ADF806100021634232F91150A54201DBD8
:1048100022F8114032F911509D4201DC22F811308A
:10482000491CC9B20429EFD3009901600199416084
:104830003CBD000070B5074D002400BF05EB8400AF
:10484000C169204600F004FE641CE4B2052CF5D3D7
:1048500070BD0000404E002010B500B9012000F0EE
:10486000E5FF002010BD10B501F048F8002010BD94
:104870007FB50D4604464169B0F9080081B1A169D0
:1048800071B1FFF791FFD4E905128DE80700D4E973
:1048900000102B46226901F0F0FB039004B070BDBC
:1048A000FFF782FF03A9CDE90001208A2B4682B2DF
:1048B000D4E9001001F0B4FB012801D00020EDE79D
:1048C0000398EBE71CB511C86CB1CDE900040129D0
:1048D00007D0002013460246012109A001F072FD15
:1048E0001CBD0120F6E70090012907D000201346E7
:1048F0000246012102A001F04BFD1CBD0120F6E79C
:10490000000000002DE9FC41002507462E460195D8
:104910000C0000D10124FFF705FF009690B101AB18
:1049200022460921384601F095FD012812D101984F
:1049300088B10A494FF080500860BFF34F8FBFF332
:104940006F8F08E0002322460421384601F082FDE3
:10495000012800D0FF252846BDE8FC8104ED00E0D9
:10496000B0EE601AF0EE401A00B571EE610AC0EDCB
:10497000081A80ED051AC0ED0B0A90ED142A0146C5
:104980009FED700A31EE611AB5EEC02AB1EE411A00
:10499000F1EE10FA0ED0F5EEC00AF1EE10FA02DDDB
:1049A000F0EE601A01E0F0EE411AF4EEC21AF1EEF8
:1049B00010FA7CD3D1ED151AF5EEC01AF1EE10FA0B
:1049C0000BD0F5EEC00AF1EE10FA01DDB0EE601A80
:1049D000B4EEE11AF1EE10FA69D38A6D01F13400F8
:1049E000032A02D0042A3FD08AE091ED001AB0EEEB
:1049F000402A21EE201A81ED0C1A91ED0D1AD1ED0D
:104A0000011A01EEA01A81ED0D1A91ED0A1A70EE4D
:104A1000C10A91ED021A60EE810AC1ED0E0AD1EDD4
:104A2000180AB8EE601AF0EE420AB0EE410AFFF73B
:104A3000EFFD91ED0C0AD1ED0D0A01F13C0030EED5
:104A4000200AD1ED0E0A30EE200AF0EE420A81ED86
:104A50000F0A91ED170AB8EE400AFFF7D9FD91ED64
:104A60000F0A81ED100A4BE091ED0A1A91ED002A30
:104A700070EEC11A61EE821AC1ED0C1AD1ED011A65
:104A800061EEA01AC1ED0D1AF0EE001A41EE610AB6
:104A900091ED091A70EE810A91ED021A60EE810A19
:104AA000C1ED0E0AD1ED180AB8EE601A00E044E03C
:104AB000B0EE402AB0EE410AF0EE420AFFF7A8FD40
:104AC00091ED0C0AD1ED0D0A01F1480030EE200AFB
:104AD000D1ED0E0A30EE200A81ED110AD1ED130A54
:104AE00030EE800AF0EE420A81ED120A91ED170ACB
:104AF000B8EE400AFFF78CFD91ED120A81ED130A22
:104B000091ED0A0A81ED090A91ED0B0A81ED0A0A7D
:104B100091ED070A81ED060A91ED080A81ED070A79
:104B200091ED040A81ED030A91ED050A81ED040A75
:104B3000886D032802D091ED120A00BD91ED0F0A95
:104B400000BD00000000000000F1580C8CE80E00D1
:104B500080EC030A704780EC030A70472DE9F041AE
:104B6000184C0F46054666692068001D00F0F8FCE9
:104B700038B9206890F82C1001208840A169814341
:104B8000A161681C07D137B12168BDE8F0410E482A
:104B9000091D00F04BBD20683544B54245602168D1
:104BA00005D2A068BDE8F041091D00F027BD60688E
:104BB000091D00F023FD206B854200D22563BDE86E
:104BC000F081000020000020441100202DE9F04178
:104BD000054600F037FD2E4C2069401C20612068FE
:104BE0002C4F10B1E06940B32DE025602069012809
:104BF00029D1002606EB860007EB800000F0F0FCD0
:104C0000761C072EF6D323488C3000F0E9FC2148AF
:104C1000A03000F0E5FC1F48B43000F0E1FC1D4876
:104C2000C83000F0DDFC1B48DC3000F0D9FC19482E
:104C30008C3060601430A06005E02068E96AC06ACA
:104C4000884200D82560E06A401CE062E96A0120E1
:104C5000A26988401043A06101EB810007EB80004E
:104C6000291D00F0E3FC00F00DFDE06900280CD0E8
:104C70002068E96AC06A884207D207494FF080502D
:104C80000860BFF34F8FBFF36F8FBDE8F081000066
:104C9000200000206810002004ED00E038B500F08E
:104CA000D1FC104CA068C8B90F4800F099FC0E4820
:104CB000143000F095FC0C482060143060600A4B02
:104CC00000202833009003F148020C210A2000F054
:104CD0004BFFA06010B105A100F052FDBDE83840C7
:104CE00000F0D0BC5C00002058110020546D7251BF
:104CF0000000000030B4026C0B46002A0BD0C168E3
:104D00001144C1608468A14201D30168C16030BC14
:104D10001846FBF780BB30BC70472DE9F041856B2E
:104D2000174604460026026C82B1C7B1E068FBF763
:104D300072FBE168206C091AE1602268914202D29C
:104D4000A168081AE060022F16D017E02068A8B901
:104D5000A06801F035FA06460020A0600EE0606809
:104D6000FBF759FB216C606808446060A1688842C9
:104D700004D32068606001E005B16D1E6D1CA56361
:104D80003046BDE8F08110B5044690F8510058B1A6
:104D900001280CD002280FD0502080F31188BFF3D7
:104DA0004F8FBFF36F8FFEE7206B00F07FFC204634
:104DB000BDE8104000F07ABC10BD000010484FF470
:104DC0007051420706D0C01D0D4920F00700411A5E
:104DD000C1F570510B4A00230144C2E900030839B0
:104DE000103A21F0070111604B600B600B1AC0E90B
:104DF000001393604FF000405360D0607047000094
:104E00004012002080000020144E154CA6F1C80767
:104E10004FF08058DFF84C9012E000BF00F012FC19
:104E2000F068C568281D00F09BFB2069401E2061CA
:104E3000E068401EE06000F025FC2846FFF7A3FF75
:104E4000E0680028EAD138680128F9D9C9F800805B
:104E5000BFF34F8FBFF36F8FF2E7000030110020D8
:104E60002000002004ED00E00346009829B1026014
:104E7000C0E90F31012100F0ABBE0060F8E72DE979
:104E8000F0479A46DDE9098481466FF00303206B01
:104E900003EB82021044089E20F00707780707D032
:104EA000502080F31188BFF34F8FBFF36F8FFEE761
:104EB000002561B1002023180A5C83F834200A5CC5
:104EC00012B1401C1028F6D384F8435001E084F856
:104ED0003450072E00D30626E662C4E91165201D72
:104EE00000F089FB04F1180000F085FB2461C6F195
:104EF00007006462A061E56484F850505246494658
:104F0000384600F079FA2060B8F1000F01D0C8F8F7
:104F10000040BDE8F0872DE9F0471E46DDE9089422
:104F200017460D00804615D0002C11D0FFF7B6FEB5
:104F300004F11801C4F8008081E86002201D00F02F
:104F40005AFB002F04D014F8240F40F00400207006
:104F5000BDE8F087502080F31188BFF34F8FBFF377
:104F60006F8FFEE730B5114900E011460A688242B2
:104F7000FBD34B685C18844203D1406818444860F6
:104F8000084643681C18944209D1084C103C246818
:104F9000A24209D052681A4442600A68126802604C
:104FA000814200D0086030BD0460F9E78000002035
:104FB00070B5002441600B4D0061914206D8D11AB2
:104FC0008269914206D2011D686807E09A4203D2C5
:104FD000994201D3012403E0011D286800F00EFB73
:104FE000204670BD5C00002010B5044600F02AFB8E
:104FF000A06B28B15FF0000400F044FB204610BD18
:105000000124F9E730B587B0394D67E004980028EE
:1050100064DB069C606910B1201D00F0A1FA03A8B2
:1050200000F0D8F8024604980A2857D2DFE800F0CA
:105030000505052D334A05052D3394F8240040F06D
:10504000010084F824000599A069059B01442046CD
:10505000FFF7AEFF68B3216A2046884794F8240022
:1050600040073BD5002000900598A1690023421815
:105070001946204601F0EEF9D8B9502080F3118886
:10508000BFF34F8FBFF36F8FFEE714F8240F20F0AC
:105090000100207022E094F8240040F0010084F820
:1050A00024000598A06128B1811813462046FFF717
:1050B0007FFF13E0502080F31188BFF34F8FBFF3C1
:1050C0006F8FFEE794F82400810703D4204600F098
:1050D000EDFA03E020F0010084F82400002204A986
:1050E000A86800F0C7FE002890D107B030BD0000CE
:1050F0005C0000202DE9FC410F46054600F042FC13
:1051000001A800F067F80446019818B101F0DEF834
:10511000BDE8FC81254EAFB170680068D0B30027B0
:10512000291B3A46B06800F03FFB01F0CFF8002899
:10513000EED11F494FF080500860BFF34F8FBFF38F
:105140006F8FE5E7A542EBD801F0C0F8306827463D
:10515000C068C468201D00F003FA94F824004107D9
:1051600019D5A0692B4641193A462046FFF720FF82
:10517000A8B100200346014600902A46204601F0CF
:1051800069F960B9502080F31188BFF34F8FBFF3E6
:105190006F8FFEE707E020F0010084F82400216A09
:1051A00020468847B4E70127BAE700005C000020EA
:1051B00004ED00E006484168096829B14168C96802
:1051C000C9684968016370474FF0FF31FAE7000092
:1051D0002000002070B5054600F088FF064E04460A
:1051E0003069844203D200F009F8012000E0002079
:1051F00028602046346170BD5C000020F8B5194D70
:1052000020E0C068C4680668201D00F0A9F9216A82
:105210002046884794F82400400713D5A0693044FD
:10522000B04206D924616060211D286800F0E6F9CB
:1052300008E000200346014600903246204601F077
:1052400009F938B1286801680029DAD16968C5E927
:105250000010F8BD502080F31188BFF34F8FBFF3CB
:105260006F8FFEE75C00002008484068401C4FF04C
:10527000500080F3118804D0BFF34F8FBFF36F8FBE
:10528000FEE7BFF34F8FBFF36F8FFEE7880000206C
:10529000074C2068016841B1C0680021D0F80000C7
:1052A000FFF728FFFFF7AEFEF3E701210020F7E745
:1052B0005C0000202DE9F041044600F0C3F994F9A8
:1052C000455004F1240609E0606A48B1304600F018
:1052D000C3FF08B100F0D8FA6D1E6DB2002DF3DCEB
:1052E0004FF0FF3684F8456000F0CCF900F0AAF9E1
:1052F00094F9445004F1100709E0206948B1384698
:1053000000F0AAFF08B100F0BFFA6D1E6DB2002DCB
:10531000F3DC84F84460BDE8F04100F0B3B900006C
:105320002DE9F0410546002700F02CFB314E306896
:1053300008B9FFF743FDF06805424BD1C5B3083506
:1053400068070ED005F00700C0F1080005446807A3
:1053500007D0502080F31188BFF34F8FBFF36F8FBA
:10536000FEE72DB37068854234D8224810300146DC
:105370000C6801E020460C466168A94202D221680F
:105380000029F7D131688C4224D007682168016078
:1053900060680837411B10290FD96019420708D0EF
:1053A000502080F31188BFF34F8FBFF36F8FFEE75C
:1053B00010E041606560FFF7D5FD61687068401AD4
:1053C0007060B268904200D2B060F0680143002083
:1053D000C4E9000100F07AFF780707D0502080F37D
:1053E0001188BFF34F8FBFF36F8FFEE73846BDE8DC
:1053F000F08100007000002010B5031F4FF0807492
:105400001C601B1F21F001011960191F044B0B6068
:1054100014390A60091F6FF0020244380A6010BD97
:105420006952000810B50C210848FCF733FF082129
:105430000648FCF72FFF04210448FCF72BFFBDE8CA
:10544000104000210148FCF725BF0000880800201B
:105450002DE9F0410C460100C4F1000518D0334895
:105460008714012930D002293FD003290ED13048BA
:10547000304E002C4EDB012239460546FBF734FF47
:10548000002240212846FBF72FFF3460BDE8F08161
:10549000294E2A4F002C0BDB002280213046FBF7DF
:1054A00023FF012240213046FBF71EFF3C60EDE761
:1054B000012280213046FBF717FF002240213046B1
:1054C000FBF712FF3D60E1E71D4E4FF48061002CB9
:1054D00005DB00220546FBF707FF012210E0012251
:1054E0000446FBF701FF002212E0164E4FF48077CE
:1054F000002C07DB012280210546FBF7F5FE002288
:105500003946BFE7002280210446FBF7EDFE012269
:10551000394606E0002239460446FBF7E5FE012243
:1055200040212046FBF7E0FE3560AFE70010024067
:105530000000024034480140000402403818004096
:10554000341C00403444014003494FF6FF730122EC
:1055500008700248FDF732BAA8000020C80A0020EF
:10556000D0E9013201699A60D0E901235A604A68A2
:10557000824201D182684A60002202610868401EAE
:105580000860086870470000034B036003F1540093
:105590000860802010607047E0000020044B03602A
:1055A00003F1540008604FF48070106070470000F1
:1055B000340300200749D1F8042207480270D1F8CB
:1055C000081241700549D1F80822C270D1F80C12B6
:1055D0008170704700804042C300002000004242BA
:1055E00000F108014FF0FF32C0E90112C160016112
:1055F00000210160704700210161704730B50B68E0
:105600005A1C02D000F1080202E0026904E02246BE
:10561000546825689D42FAD953684B6099608A6046
:10562000516008610168491C016030BD42684A60F0
:1056300093688B6093685960916008610168491CA8
:1056400001607047502080F31188BFF34F8FBFF384
:105650006F8F0A494868401C486001280CD10848EF
:10566000006810F0FF0F07D0502080F31188BFF3BF
:105670004F8FBFF36F8FFEE7704700008800002058
:1056800004ED00E00849486828B1401E486001D197
:1056900080F311887047502080F31188BFF34F8F3B
:1056A000BFF36F8FFEE700008800002070B5002870
:1056B00027D0144DA0F108046168E868014207D1C1
:1056C000502080F31188BFF34F8FBFF36F8FFEE739
:1056D00022683AB1502080F31188BFF34F8FBFF397
:1056E0006F8FFEE78143616000F04CF96068696884
:1056F000084468602046FFF735FCBDE8704000F0C4
:10570000E5BD70BD700000204FF0E0200021016178
:10571000816105494FF47A720968B1FBF2F1491EC3
:1057200041610721016170471C00002010B5FAF7A4
:10573000D7FD114910280ED300F1E02090F8F003B6
:105740000A78904207D2502080F31188BFF34F8F20
:10575000BFF36F8FFEE709480068896800F4E060D6
:10576000884207D9502080F31188BFF34F8FBFF3D1
:105770006F8FFEE710BD0000880000200CED00E0F8
:1057800010B5084B002200BF53F832401CB1521C28
:10579000082AF9D310BD43F8321003EBC201486068
:1057A00010BD00002810002070B515460E460446B6
:1057B000FFF748FF94F944100020491C01D184F8F8
:1057C000440094F94510491C01D184F84500FFF7C5
:1057D00059FFA06B28B92A46314604F1240000F095
:1057E00071F82046BDE87040FFF764BD10B5322265
:1057F0000B490C48FDF794F80949322232310A4826
:10580000FDF78EF807480068C16841F01001C160DB
:1058100005480068C16841F01001C16010BD00007A
:10582000944E0020480B0020480A002010B50200CA
:1058300014D00F48806B38B1502080F31188BFF32B
:105840004F8FBFF36F8FFEE700F09CF800211046EA
:10585000FFF784F900F03AFD002807D105494FF021
:1058600080500860BFF34F8FBFF36F8F10BD0000F3
:105870002000002004ED00E002498A6A02604969C4
:1058800041607047200000200149012048627047B4
:105890002000002010B50C4650B1094909681831A4
:1058A000FFF7ACFE2046BDE810400121FFF756B9D6
:1058B000502080F31188BFF34F8FBFF36F8FFEE747
:1058C0002000002070B514460D4668B10A490968E9
:1058D0001831FFF7ABFE0CB14FF0FF3521462846DB
:1058E000BDE87040FFF73AB9502080F31188BFF34C
:1058F0004F8FBFF36F8FFEE72000002030B587B0D9
:105900000024039405AA04A903A80494FFF73CFE0D
:10591000DDE903010094CDE90110002315A117482A
:10592000059A00F0AAFB164D002868631FD000F00E
:1059300061FD012809D0401C19D1502080F3118845
:10594000BFF34F8FBFF36F8FFEE7502080F31188B6
:10595000BFF34F8FBFF36F8F4FF0FF3028630120ED
:10596000E8616C6107B0BDE8304000F083B807B073
:1059700030BD000049444C4500000000094E0008BD
:10598000200000200248816B491C816370470000A1
:10599000200000201448816B11B101214162704741
:1059A000002141628169B1FA81F1C1F11F0101EB6E
:1059B00081020E4951F822306BB101EB820101F1F5
:1059C00008034A6852684A609A4201D152684A60A4
:1059D000D16801607047502080F31188BFF34F8F6A
:1059E000BFF36F8FFEE7000020000020681000204A
:1059F000017859290FD1417859290CD141888088E3
:105A0000642808D9A0F57F42FF3A04D00A20B1FBF0
:105A1000F0F00149C88070478A4E0020017859296A
:105A20000CD14178592909D141888088642805D949
:105A3000A0F57F42FF3A01D0014801807047000085
:105A40008A4E002002780A492C2A07D00020FE2A1C
:105A500001D0FF2A0AD14A60488006E0C3785B2B58
:105A600004D14A6042784A808078088070470000FC
:105A7000D80000201CB537480168374A914207D149
:105A8000502080F31188BFF34F8FBFF36F8FFEE775
:105A900000683149491E884207D1502080F311889F
:105AA000BFF34F8FBFF36F8FFEE72C49087801904B
:105AB000FF20087008788DF800009DF800009DF820
:105AC000002000F0F000904207D0502080F31188B1
:105AD000BFF34F8FBFF36F8FFEE79DF80000204BA1
