:020000040800F2
:1000000008690020E90200081F2C00089D2700084D
:100010001D2C00082F0600087135000800000000A4
:10002000000000000000000000000000290200089D
:10003000290900080000000085020008412C000882
:100040000303000803030008030300080303000878
:100050000303000803030008030300080303000868
:100060000303000803030008030300086D060008EB
:100070007906000885060008910600089D0600081C
:10008000A9060008B5060008030300083D0600089D
:1000900031060008030300080303000803030008F7
:1000A00003030008452D00080303000803030008AC
:1000B0000303000803030008030300080303000808
:1000C00003030008030300080303000803030008F8
:1000D000030300086D330008853300089D330008D2
:1000E00003030008030300080303000803030008D8
:1000F000030300080303000803030008C106000807
:1001000003030008030300080303000803030008B7
:10011000912E0008A92E000803030008030300081D
:1001200003030008CD060008D906000803030008F1
:100130000303000803030008030300086106000826
:1001400049060008550600080303000803030008D9
:1001500003030008E5060008F1060008B5330008AF
:100160000303000803030008030300080303000857
:100170000303000803030008030300080000000055
:10018000030300080303000800F002F800F03CF845
:100190000AA090E8000C82448344AAF10107DA45E2
:1001A00001D100F031F8AFF2090EBAE80F0013F0F8
:1001B000010F18BFFB1A43F0010318474C790000E8
:1001C0006C790000103A24BF78C878C1FAD8520779
:1001D00024BF30C830C144BF04680C6070470000C1
:1001E0000023002400250026103A28BF78C1FBD840
:1001F000520728BF30C148BF0B6070471FB507F0DA
:1002000033FB1FBD10B510BD00F0DCF91146FFF740
:10021000F5FF04F0D5FD00F0FAF903B4FFF7F2FFA3
:1002200003BC00F0FDF900002C4B19680868B0E829
:10023000F04F80F30988BFF36F8F4FF0000080F319
:10024000118870470000000008480068006880F3CB
:1002500008884FF0000080F3148862B661B6BFF3DF
:100260004F8FBFF36F8F00DF00BF00BF08ED00E0CE
:10027000DFF80C00016841F470010160704700BFB5
:1002800088ED00E0EFF30980BFF36F8F134B1A681E
:100290001EF0100F08BF20ED108A20E9F04F10600B
:1002A00009B44FF0500080F31188BFF34F8FBFF3B4
:1002B0006F8F05F0BBFE4FF0000080F3118809BC82
:1002C00019680868B0E8F04F1EF0100F08BFB0ECD6
:1002D000108A80F30988BFF36F8F704724000020D5
:1002E000EFF3058070470000094880470948004740
:1002F000FEE7FEE7FEE7FEE7FEE7FEE7FEE7FEE7D6
:10030000FEE7FEE704480549054A064B7047000032
:10031000F12C00088901000808530020086900201A
:10032000086300200863002053EA020C00F0698093
:100330002DE9F04B4FF00006002B1FBFB3FA83F5F9
:1003400003FA05F424FA05F65E4012BF1643B2FA2A
:1003500082F502FA05F4C5F120051EBF22FA05FC5C
:1003600044EA0C04203556EA044C4FEA144418BF02
:10037000641C4FF000084FF00009904271EB030C31
:1003800039D3002919BFB1FA81F701FA07F6B0FA9B
:1003900080F700FA07F6C7F120071EBF20FA07FC16
:1003A00046EA0C062037B6FBF4FCA7EB0507103F26
:1003B00007F01F0BCBF120060CFA0BFB2CFA06F60C
:1003C00044BFB3460026202FA4BF5E464FF0000B6B
:1003D0005BEA060C08BF4FF0010B19EB0B09ABFBF6
:1003E000027C48EB0608C01B06FB02CC0BFB03CCCF
:1003F00071EB0C01C1E70B46024641464846BDE899
:10040000F08B13B54FF000004FF00001AFF3008008
:10041000BDE81C407047032A40F2308010F0030C06
:1004200000F0158011F8013BBCF1020F624498BF47
:1004300011F801CB00F8013B38BF11F8013BA2F1E4
:10044000040298BF00F801CB38BF00F8013B11F05F
:10045000030300F02580083AC0F0088051F8043BFF
:10046000083A51F804CBA0E80810F5E7121D5CBF6C
:1004700051F8043B40F8043BAFF30080D20724BF9F
:1004800011F8013B11F801CB48BF11F8012B24BF33
:1004900000F8013B00F801CB48BF00F8012B704782
:1004A00010B5203AC0F00B80B1E81850203AA0E80F
:1004B0001850B1E81850A0E81850BFF4F5AF5FEA43
:1004C000027C24BFB1E81850A0E8185044BF18C9F6
:1004D00018C0BDE810405FEA827C24BF51F8043B9D
:1004E00040F8043B08BF7047D20728BF31F8023BF1
:1004F00048BF11F8012B28BF20F8023B48BF00F885
:10050000012B70474FF000020429C0F0128010F058
:10051000030C00F01B80CCF1040CBCF1020F18BFDF
:1005200000F8012BA8BF20F8022BA1EB0C0100F072
:100530000DB85FEAC17C24BF00F8012B00F8012B45
:1005400048BF00F8012B70474FF0000200B513467A
:1005500094469646203922BFA0E80C50A0E80C50E3
:10056000B1F12001BFF4F7AF090728BFA0E80C5094
:1005700048BF0CC05DF804EB890028BF40F8042B8D
:1005800008BF704748BF20F8022B11F0804F18BFFA
:1005900000F8012B704770477047704710B500F0A6
:1005A00009F8006810BD10B5044600F003F80460B7
:1005B00010BD000000487047A85200200048704756
:1005C000A85200207546FFF7F9FFAE4605006946C0
:1005D000534620F00700854618B020B5FFF792FE7D
:1005E000BDE820404FF000064FF000074FF0000834
:1005F0004FF0000B21F00701AC46ACE8C009ACE8B5
:10060000C009ACE8C009ACE8C0098D46704710B518
:100610000446AFF300802046BDE81040FFF7FDBD63
:1006200001491820ABBEFEE7260002007047FEE736
:10063000014800F002BB0000CC070020014800F098
:10064000FCBA0000CC070020014800F0F6BA000018
:10065000F4070020014800F0F0BA0000F407002081
:10066000014800F0EABA0000F4070020014800F059
:10067000F7BD00009C0A0020014800F0F1BD000019
:10068000DC0C0020014800F0EBBD0000DC0900207C
:10069000014800F0E5BD00003C0D0020014800F0DD
:1006A000DFBD00003C0A0020014800F0D9BD000079
:1006B0001C0C0020014800F0D3BD00007C0C002081
:1006C000014800F0CDBD0000FC0A0020014800F008
:1006D000C7BD00009C0D0020014800F0C1BD000016
:1006E0005C0B0020014800F0BBBD0000FC0D0020A9
:1006F000014800F0B5BD0000BC0B002001681823C4
:10070000CAB2103AB2FBF3F2054B6FF30901032AA8
:100710009B5CC36500D9091D8165084670470000D0
:100720000C7A000810B5014600208B698A6A4FF0E8
:10073000C07453B1B3F5005F15D072B1012A0CD06B
:10074000022A0AD0032A09D104E01AB1012A06D0EC
:10075000022A03D1C96AC90100D5012010BDC96AA6
:10076000A142FAD010BD002AF7D0012AF2D0022A05
:10077000F3D0032AF3D010BD30B50468256825F402
:1007800080252560046863608368402B036803D07C
:1007900099600068C26030BD9A600068C16030BD79
:1007A0000B4A10EE100A12F82D1F491CC9B2117025
:1007B0000A290BD88900064A091FC9B2030A5054F6
:1007C0001144020C4B708A70000EC8707047000014
:1007D000DE51002070B5044600F02EF815490020C7
:1007E00091F82D200A2A11D882B1042303EB820349
:1007F00001F8220001EB82028025507095707F2560
:10080000DBB2D57081F82C30002209E00023F9E733
:1008100023681D686D06FCD58D5C5D60521CD2B2EC
:1008200091F82C309342F3D881F82D0081F82C00F8
:1008300070BD0000DE51002070B53548354D364C96
:100840000078052862D2DFE800F0031E3D454D0028
:100850003248007800EE100AB8EE400AFFF7A0FF19
:100860002F48007800EE100AB8EE400AFFF798FF14
:10087000688800EE100AB8EE400AFFF791FF294899
:1008800090ED010A3EE094ED100AFFF789FF94ED28
:10089000140AFFF785FF94ED110AFFF781FF94ED2D
:1008A000150AFFF77DFF94ED120AFFF779FF94ED2B
:1008B000160AFFF775FF94ED130AFFF771FF94ED29
:1008C000170A1FE094ED040AFFF76AFF94ED030A8C
:1008D000FFF766FF94ED0A0AFFF762FF94ED090A3D
:1008E000FFF75EFF288800EE100AB8EE400AFFF717
:1008F00057FF688800EE100AB8EE400AFFF750FF75
:1009000095ED020ABDE87040FFF74ABF70BD0000D8
:10091000DE000020785200200C520020E000002071
:10092000E1000020945200207047704790F820208A
:10093000012A07D0022A05D0416A41F48021416290
:1009400001207047006842690A43426100207047F5
:10095000F0B590F820500468A468012D05D0022D50
:1009600003D0416A41F4802153E014F0406F01D17B
:10097000E5004BD5C4F30164022C03D9416A41F46C
:10098000000146E00125A5401D608D684FF4C0734D
:100990009DB1CE6835434E6845EAC605066803EB4F
:1009A0000417F5514FF4C275076805EB04150E697D
:1009B0007E51097D012905D009E00E88CD6845EA00
:1009C0004655EBE701684E5946F480764E51117951
:1009D000D2F805504FF4C67641EA0525016806EBCA
:1009E00004168D511178D2F801204FF4C47541EAF4
:1009F0000221026805EB04155151006803EB041154
:100A0000425842F0010242500020F0BD416A41F4D8
:100A1000001141620120F0BD10B590F82020012A9C
:100A200007D0022A05D0416A41F4802141620120A9
:100A300010BD3B48D0F8002242F00102C0F800226D
:100A4000D0F8002222F47C52C0F80022D0F8002214
:100A50004B6A42EA0322C0F800220A7D02F01F031B
:100A600001229A40D0F81C329343C0F81C32CB6963
:100A7000B3B9D0F80C329343C0F80C328C894B6870
:100A800064F31F434C6900EBC404C4F840320C8982
:100A90000B6864F31F434C6900EBC404C4F8443290
:100AA000CB69012B16D1D0F80C321343C0F80C32AD
:100AB0000C884B6864F31F434C6900EBC404C4F812
:100AC00040320C89CB6864F31F434C6900EBC404CB
:100AD000C4F844328B69002BD0F804320ED0134393
:100AE000C0F804320B69002BD0F8143208D013433D
:100AF000C0F81432096A012904D008E09343EFE7F3
:100B00009343F5E7D0F81C121143C0F81C12D0F83B
:100B1000001221F00101C0F80012002010BD0000F9
:100B200000640040704730B590F82040012C05D09B
:100B3000022C03D0416A41F480215DE00468002961
:100B400055D02469A40754D04FF4D874056804EB39
:100B500001142D5915F00405956005682D594ED0E6
:100B6000ED08556005682C59C4F34004D4604FF477
:100B7000DA74056804EB01142D5905F00F051561B1
:100B800005682D59C5F30725956105682C59240C76
:100B900054614FF4DC72046802EB0112A4581C701B
:100BA0000468A458240A5C700468A458240C9C703F
:100BB0000468A258120EDA704FF4DE72046802EB79
:100BC0000112A4581C710468A458240A5C710468BA
:100BD000A458240C9C710468A258120EDA710068A3
:100BE00081B1016941F020010161002030BDE4685C
:100BF000A8E7416A41F400114162012030BD6D0D4A
:100C00001560AFE7C16841F02001C160EDE7024621
:100C1000002092F82010012901D002290CD111687E
:100C20008A68520100D501208A68120100D5401C53
:100C30008968C90000D5401C70472DE9F05F054662
:100C4000006800244669D0F804908768D0F80CB09A
:100C5000D0F810A0D0F81880F10748D0F90714D0C8
:100C600001218160B80703D5284600F09AFA0CE00C
:100C7000780702D54FF4006407E0380702D54FF437
:100C8000805402E0284600F08BFAF80516D5296852
:100C90004FF480708860B80503D5284600F083FAC9
:100CA0000CE0780502D544F4005407E0380502D57D
:100CB00044F4804402E0284600F074FAF80316D5A4
:100CC00029684FF480308860B80303D5284600F0C7
:100CD0006CFA0CE0780302D544F4004407E03803D2
:100CE00002D544F4803402E0284600F05DFA300773
:100CF00007D55FEACB6004D52968102044F400745E
:100D0000C86070074FF0080707D55FEA0B7004D57D
:100D10002868C760284600F0B1F9B00706D52868F2
:100D2000C068800702D0284600F0AAF9700607D5EF
:100D30005FEACA6004D52968102044F48064086121
:100D4000B00607D55FEA0A7004D52868076128460F
:100D500000F0F6F9F00606D528680069800702D091
:100D6000284600F0EEF9B00308D55FEAC96005D562
:100D7000296810204860284600F0E4F9F00307D500
:100D80005FEA097004D528684760284600F00EFA2B
:100D9000300446D55FEA497040D5F00504D55FEAD6
:100DA000C87001D044F00104B00504D55FEA887032
:100DB00001D544F00204700504D55FEA487001D5FE
:100DC00044F00404300529D518F0700F26D008F03F
:100DD0007000402815D006DC102809D020280AD041
:100DE000302816D10AE050280ED0602811D10EE02C
:100DF00044F008040DE044F010040AE044F020043C
:100E000007E044F0400404E044F0800401E044F4CE
:100E100080742868816921F070018161296804204B
:100E20004860002C05D0686A204368622846FFF7B6
:100E300079FEBDE8F09F70B5040003D094F820005F
:100E400010B104E0012070BD204600F081F8206858
:100E5000016821F00201016000F068FC05460526EA
:100E600004E000F063FC401B0A2811D820684068A9
:100E70008007F6D42068016841F00101016000F0AC
:100E800055FC05460BE000F051FC401B0A2806D932
:100E9000606A40F40030606284F82060D2E7206825
:100EA0004068C007EFD0207E0128206801683DD04F
:100EB00021F080010160607E01282068016838D03F
:100EC00021F040010160A07E01282068016833D034
:100ED00021F020010160E07E0128206801682ED009
:100EE00041F010010160207F01282068016829D0AD
:100EF00021F008010160607F01282068016824D08A
:100F000021F004010160D4E902010843D4E904128C
:100F1000114308436168491E08432168C8610020E5
:100F20006062012084F82000002070BD41F0800143
:100F3000C0E741F04001C5E741F02001CAE721F0D8
:100F40001001CFE741F00801D4E741F00401D9E7EF
:100F5000F0B587B0044614216846FFF7F5FA424B16
:100F60004248DFF800E11968D4F800C03F4A032581
:100F70000226092710300024491CF4452AD11960A3
:100F8000012907D1016841F000710160006800F09B
:100F900000700590106840F0080010601068CDE9FE
:100FA000005600F00800CDE9047069463048CDE9EC
:100FB000024500F0DDFA00220521132000F042FC7A
:100FC000132000F031FC00220521142000F03AFC2F
:100FD000142043E0DFF89CE0F44541D1D0F800C094
:100FE0004CF0806CC0F800C0D0F800C001290CF0B3
:100FF000806CCDF814C0196007D1016841F0007110
:101000000160006800F000700590106840F0020078
:101010001060106802AB00F0020005904FF44050E1
:10102000CDE9000683E8B0006946134800F0A0FA55
:10103000002205213F2000F005FC3F2000F0F4FBDA
:1010400000220521402000F0FDFB402000F0ECFBD9
:1010500000220521412000F0F5FB412000F0E4FBD7
:1010600007B0F0BD0064004010000020303802409E
:10107000000C02400068004000040240704700007D
:1010800010B52A4CA04223D1294B2A4A0021FFF750
:101090004AFD28480068A0F50071013905D00129F2
:1010A00003D0022901D003290CD12149401E08395F
:1010B000C0B208701F4900EB4000D83901EBC000F6
:1010C0001B4925E02068416941F00201416110BDE2
:1010D000194CA042FBD1164B164A10333432002172
:1010E000FFF721FD134834300068012813D002288F
:1010F00011D0A0F50070053806D00128E2D10C49C6
:101100000C481031483803E009490A48103160386A
:1011100003F0D2FBD6E709490A7C0AB901220A7416
:101120000349103101F078FECCE70000CC07002025
:10113000A000002070510020F4070020C0510020C2
:10114000704770477047000070B5044690F8200063
:10115000012804D0606A40F40020606218E0022098
:1011600084F820002068016821F00101016000F08E
:10117000DDFA05460EE000BF00F0D8FA401B0A2851
:1011800008D9606A40F400306062052084F82000CD
:10119000012070BD20684068C007EDD1606270BD5D
:1011A00070477047704770477047704770472DE928
:1011B000F0410446876D00F0B9FA064694F8350010
:1011C0000025022806D08020606584F83450012074
:1011D000BDE8F0812068016821F0160101602068F7
:1011E000416921F080014161206C08B9A06C20B1F7
:1011F0002068016821F0080101602068016821F081
:10120000010101600BE000F091FA801B052806D96E
:101210002020606504F8345F03206070D8E7206800
:101220000068C007EFD194F85C103F208840B86098
:1012300004F8345F012060700020C9E790F8351091
:10124000022903D08021416501207047052180F8E3
:1012500035100068016821F001010160002070472D
:101260002DE9F84304464FF00009CDF8009063489B
:101270004FF41651A56D0068B0FBF1F72E6894F895
:101280005C10082000FA01F131420FD021680A6891
:1012900052070BD50A6822F004020A6094F85C1029
:1012A0008840A860606D40F00100606594F85C10B3
:1012B0004FF0010808FA01F0304208D0216849696E
:1012C000090604D5A860606D40F00200606594F8DE
:1012D0005C1004208840304208D0216809688907E2
:1012E00004D5A860606D40F00400606594F85C105F
:1012F00010208840304218D021680968090714D5A9
:10130000A86020680168490304D50068000308D577
:10131000A16C07E00168C90503D4016821F0080148
:101320000160216C09B12046884794F85C102020A8
:101330008840304231D021680968C9062DD5A8609F
:1013400094F8350005282068016806D0490347D580
:10135000006800031DD4616C1CE021F016010160DF
:101360002068416921F080014161206C08B9A06CBE
:1013700020B12068016821F00801016094F85C1038
:101380003F208840A86084F8349084F83580216D2F
:101390001FE0E16B09B120468847606D00282BD023
:1013A000606DC00714D0052084F8350020680168FE
:1013B00021F0010101600098401C0090B84203D860
:1013C00020680068C007F6D184F8349084F835802E
:1013D000E16C002910D001B02046BDE8F043084779
:1013E0000168C905D5D4016821F01001016084F8B5
:1013F000349084F83580CCE7BDE8F88320000020E5
:101400002DE9F041044600F091F906465CB1002553
:1014100084F83450022084F835002068016821F0F7
:10142000010101600DE00120BDE8F08100F07EF9CE
:10143000801B052805D920206065032084F835002D
:10144000F2E720680068C007F0D1226811682048E0
:101450000140D4E901031843D4E903363343184368
:1014600063691843A3691843E3691843236A18435F
:101470000843616A042903D1D4E90B1319430843D3
:10148000106020684069666A20F0070130460E430C
:10149000012704280CD1A06A0643E06A40B1204627
:1014A000FFF740F920B14020606584F83570BAE755
:1014B000206846612046FFF721F994F85C203F211F
:1014C00091408160656584F835700020ACE70000CC
:1014D0003F8010F02DE9F0410446866D90F834000D
:1014E000002501280DD0012084F8340094F83570CF
:1014F0000020012F07D084F8340002252846BDE8DB
:10150000F0810220FBE7022784F8357060652046F1
:10151000FFF732F994F85C103F208840B0602068F3
:10152000016841F0160101602068416941F08001C5
:101530004161206C20B12068016841F00801016020
:101540002068016841F001010160D7E770B50446E9
:1015500000F0ECF80546601C02D004480078044412
:1015600000F0E4F8401BA042FAD370BD1400002044
:101570002DE9F84FDFF87CB100224FF001084FF061
:10158000030A4FF00F090BF1040E00BF0B6808FAB5
:1015900002F42340A3426ED14D68022D01D0122DDA
:1015A0000ED1D50800EB850CDCF820505607F70E5D
:1015B00009FA07F6B5430E69BE402E43CCF8206009
:1015C000066855000F790AFA05FC07F0030726EABA
:1015D0000C06AF40374307604E68012E05D0022E3F
:1015E00003D0112E01D0122E0ED18668CF6826EAC4
:1015F0000C06AF40374387604668A6430C79C4F3B6
:101600000014944034434460C6688C6826EA0C0693
:10161000AC403443C4604C68E40065D5364C256862
:1016200045F480452560246822F0030504F48044D5
:101630000094324C2E19D6F8084895072F0F09FA56
:1016400007F5AC432E4DA84201D1002524E02D4DD5
:10165000A84201D101251FE02B4DA84201D102254E
:101660001AE02A4DA84201D1032515E0284DA842D1
:1016700002D1042510E037E0264DA84201D105250E
:101680000AE0254DA84201D1062505E0234DA842D8
:1016900001D1072500E00825BD402543C6F80858BC
:1016A000DBF800405D464E689C43F60300D51C43C2
:1016B0002C60DEF8004075464E689C43B60300D5AA
:1016C0001C432C600B4D08352C684E689C43F60279
:1016D00000D51C432C60074D0C352C684E689C438C
:1016E000B60200D51C432C60521C102AFFF44EAFEA
:1016F000BDE8F88F003C0140443802400030014012
:10170000000002400004024000080240000C0240B9
:10171000001002400014024000180240001C024069
:101720000069084000D0012070470000014880682F
:1017300070470000140000200248816802781144BC
:1017400081607047140000200B4810B5016841F417
:1017500000710160016841F480610160016841F439
:1017600080710160032000F08DF8002000F006F881
:1017700000F03EF8002010BD003C024010B50146CC
:1017800088B00022192000F05DF8192000F04CF814
:1017900013480024016841F400310160006805A984
:1017A00000F400300690684600F016F900F044F9A5
:1017B0000C494000B0FBF1F10C480B4A491E026095
:1017C00040F2E732C0E90324C0E9011400F0FAFA5C
:1017D00010B1012008B010BD044800F023FBF9E768
:1017E0004438024040420F00004401405C0E00209B
:1017F0000C4882B0016841F480410160006800F447
:10180000804000900748001F016841F0805101604E
:101810000068002200F0805000900F21901E02B05E
:1018200000F010B844380240002809DB00F01F0225
:10183000012191404009800000F1E020C0F8001132
:1018400070470000F0B40E4B1B680C46C3F3022334
:10185000C3F10705042D00D90425191D072901D25C
:10186000002300E0DB1E012606FA05F1491E214097
:1018700099409E40761E16403143F0BC01F091BE67
:101880000CED00E0064900F0070208684FF6FF0380
:10189000184040EA0220034A1043086070470000E5
:1018A0000CED00E00000FA052DE9F0470E460500BA
:1018B00065D0DFF81481D8F80000F7B200F00F000F
:1018C000B04207D288F80070D8F8000000F00F008E
:1018D000B04254D128683D4C810712D5400703D54A
:1018E000206840F4E05020602878000703D5206885
:1018F00040F4604020602068A96820F0F0000843B0
:1019000020602878C0072DD0304968680839012840
:1019100012D0022813D0032811D0096889070029A2
:101920002DDA216821F0030101432160FFF7FEFE5B
:10193000814641F2883A0EE009688903EFE70968B9
:101940008901ECE7FFF7F2FEA0EB0901514502D94E
:101950000320BDE8F0872068696800F00C00B0EB58
:10196000810FEFD1D8F80010404601F00F01B142CD
:1019700007D90770006800F00F00B04201D00120C5
:10198000E7E72878400705D52068E96820F4E050AB
:10199000084320602878000706D52068296920F4CC
:1019A000604040EAC100206000F056F82168084A13
:1019B000C1F30311515CC840064908600020FFF7DD
:1019C000DDFE0020C5E70000003C02400838024070
:1019D000147A0008200000200F2202600C4A1368CD
:1019E00003F003034360136803F0F003836013689C
:1019F00003F4E053C36012684FF4E05303EAD202E9
:101A000002610448006800F00F00086070470000A1
:101A100008380240003C0240044805490068096853
:101A2000044AC1F38221515CC84070472000002065
:101A300008380240247A000804480549006809680B
:101A4000044AC1F34231515CC84070472000002075
:101A500008380240247A0008104810B5006810F0D9
:101A60000C010F4818D0042916D0082914D10B4CAA
:101A7000241F216801F03F02216821680023C1F37F
:101A80008811A1FB0001FEF74FFC2168C1F3014161
:101A9000491C4900B0FBF1F010BD000008380240BD
:101AA0000024F4002DE9F84F050076D02878DFF8FF
:101AB000F8B2BE4CC00749D0DBF800105846C1F35D
:101AC0008101012908D00068C0F3810002280AD1F1
:101AD000201D0068400206D52068800336D568685E
:101AE0000028E2D032E06868B0F5803F10D0B0F551
:101AF000A02F206810D020F480302060206820F4CF
:101B0000802020606868A0B1FFF710FE06460CE058
:101B1000206840F48030F4E740F480202060F7E74C
:101B2000FFF704FE801B642873D820688003F7D574
:101B30000CE0FFF7FBFD064605E000BFFFF7F6FDF2
:101B4000801B6428F0D820688003F7D42878DFF859
:101B5000608280074FF000093ED5DBF80010584640
:101B600011F00C0F09D00068C0F3810002280BD1DE
:101B70008D48001F0068400206D42068800715D5F4
:101B8000E868012809D111E0E868B8B10120C8F877
:101B90000000FFF7CBFD064605E002E1FFF7C6FDBA
:101BA000801B0228C0D820688007F7D520682969E3
:101BB00020F0F80040EAC10020600DE0C8F8009075
:101BC000FFF7B4FD064604E0FFF7B0FD801B0228D6
:101BD0001FD820688007F7D42878000722D5724ED6
:101BE000744869696C3671B101210160FFF79EFD8F
:101BF000074604E0FFF79AFDC01B022809D83068A9
:101C00008007F7D50EE0C0F80090FFF78FFD07467C
:101C100005E083E0FFF78AFDC01B02287ED830680C
:101C20008007F7D42878400768D5DFF87CA1002723
:101C30000AF1380ADAF80000C0000BD4DAF8001014
:101C400041F08051CAF80010DAF80000012700F0D6
:101C500080500090584E3068C00510D4306840F471
:101C600080703060FFF762FD009005E0FFF75EFDD9
:101C70000099401A022851D83068C005F6D54A4E5E
:101C8000A868683601280FD00528306810D020F0E9
:101C900001003060306820F004003060A868B8B1FE
:101CA000FFF744FD00900FE0306840F00100F4E7DA
:101CB00040F004003060F7E7FFF738FD0099411A63
:101CC00041F28830814264D830688007F4D50EE054
:101CD000FFF72CFD009007E0FFF728FD0099411A5F
:101CE00041F28830814254D830688007F4D42FB153
:101CF000DAF8001021F08051CAF80010A869C0B3CA
:101D0000DBF80010C1F3810102294AD002284846BD
:101D100007D0C8F86000FFF709FD00E039E005468C
:101D20003AE04746C8F86000FFF700FD064604E0C9
:101D3000FFF7FCFC801B02282BD820688001F7D419
:101D4000D5E907010843A96A1C4A490802EB014189
:101D50006A6A41EA8211084395F82C1040EA016151
:101D60001148001F016001203866FFF7DFFC0546BF
:101D700005E014E0FFF7DAFC401B022809D82068D0
:101D80008001F7D50BE000BFFFF7D0FC401B022815
:101D900002D90320BDE8F88F20688001F4D4002028
:101DA000F8E70120F6E7000008380240003802405A
:101DB00000004742800E4742007000400000FFFFD5
:101DC0007047704710B5040003D094F83D0010B17F
:101DD00007E0012010BD002084F83C00204600F000
:101DE0000DF8022084F83D00211D206800F0B0FFAE
:101DF000012084F83D00002010BD000008B50068F7
:101E00000649884208D10648016841F480710160A2
:101E1000006800F48070009008BD000000200040C1
:101E2000403802400168CA6842F00102CA60006896
:101E3000816801F00701062903D0016841F0010122
:101E4000016000207047704770B504460068016962
:101E50004FF00005C943890715D4C168C9438907F4
:101E600011D4E91E01610120207720688069800774
:101E7000204602D0FFF7E7FF04E000F098F8204684
:101E800000F096F8257720680169C943490717D4FF
:101E9000C168C943490713D46FF0040101610220EE
:101EA00020772068806910F4407F204602D0FFF739
:101EB000CAFF04E000F07BF8204600F079F82577AF
:101EC00020680169C943090716D4C168C9430907D5
:101ED00012D46FF008010161042020772068C069E6
:101EE0008007204602D0FFF7AEFF04E000F05FF865
:101EF000204600F05DF8257720680169C943C906CE
:101F000017D4C168C943C90613D46FF01001016129
:101F1000082020772068C06910F4407F204602D056
:101F2000FFF791FF04E000F042F8204600F040F88F
:101F3000257720680169C943C90708D1C168C94329
:101F4000C90704D1891E0161204600F033F82068DA
:101F50000169C943090609D4C168C943090605D402
:101F60006FF0800101612046FFF72AFF20680169B8
:101F7000C943490609D4C168C943490605D46FF06D
:101F800040010161204600F01FF820680169C94343
:101F900089060BD4C168C943890607D46FF02001B4
:101FA00001612046BDE87040FFF70BBF70BD704770
:101FB0007047000000680349884201D1FFF7BCBBAD
:101FC0007047000000440140704710B504460068A7
:101FD000416994F83920C1F3C011212A0BD151B1C4
:101FE000416921F080014161206B08B1FFF7DFF802
:101FF000204600F0DFFF2068416994F83A20C1F3E1
:102000008011222A0BD151B1416921F04001416177
:10201000606B08B1FFF7CBF8204600F0BDFF002051
:1020200010BD704770B5026804461068D1685369E6
:1020300010F00F0F51D003F0010501F490763543F5
:102040005DD0C20705D0CA0503D5E26B42F001029C
:10205000E263420705D5DA0703D0E26B42F00202E1
:10206000E263820705D5DA0703D0E26B42F004028F
:10207000E263020705D5DA0703D0E26B42F00802FB
:10208000E263E26B002A34D0800604D5880602D5CC
:10209000204600F098FF20684069E16BC0F3801093
:1020A00001F008010143204624D000F075FF2068AC
:1020B000416949061AD5416921F040014161606BCF
:1020C000A0B11B490165606BFFF7B8F8002810D07C
:1020D000606B016DBDE87040084783060FD58B0625
:1020E0000DD52046BDE8704000F06DBF2046FFF7DB
:1020F00098FF70BDFFF795FF0020E06370BD0306F9
:1021000006D50B0604D52046BDE8704001F0FCB8AA
:102110004006F3D54806F1D5D168204621F04001AC
:10212000D160202184F8391000F036FB70BD00002A
:10213000C12E000870B5040004D094F839000025C1
:1021400010B106E0012070BD84F83850204600F040
:1021500023F8242084F839002068C16821F4005154
:10216000C160204600F07AFF2068016921F49041A7
:1021700001612068416921F02A0141612068C1683C
:1021800041F40051C160E563202084F8390084F8EF
:102190003A00002070BD00002DE9F04F87B00446E2
:1021A00014216846FEF7D0F9F848DFF8DCC3103890
:1021B0002368F64A01270221002506154FF003087F
:1021C0004FF0080B4FF040094FF0006A634566D1AD
:1021D000136843F400231360126802F4002205928E
:1021E000026842F001020260026802F001020592F8
:1021F000026842F004020260006802AB00F00400D2
:1022000005900220CDE9007083E880096946E04826
:10221000FFF7AEF97000009001AB022083E881095E
:102220006946DC48FFF7A4F9DFF87083DA494046D5
:10223000C8F80010C0E901A5C0E90356C8F8145059
:10224000C8F81850C8F81C50C8F820505746C8F8AD
:102250002450FFF7D5F808B1FEF767FBCF4DCE4805
:10226000C4F8348060353030C8F8384085E88102E1
:102270000020C5E903066861A861E8612862686218
:102280002846FFF7BDF808B1FEF74FFB2563002293
:1022900005213420AC63FFF7D5FA34206DE0DFF878
:1022A00000C363456ED11368002543F480131360A7
:1022B000126802F480120592026842F00402026081
:1022C000026802F004020592026842F0080202600D
:1022D000006801AB00F0080005904FF480500090BA
:1022E000022083E881096946AA48FFF741F90420E2
:1022F000009001AB022083E881096946A948FFF7F5
:1023000037F9DFF89882A44908F1C008303940460F
:10231000C8F80010C0E901A5C0E90356C8F8145078
:10232000C8F81850C8F81C50C8F820505746C8F8CC
:102330002450FFF765F808B1FEF7F7FA96489A4D72
:10234000C4F834807830C8F8384085E8810200202D
:10235000C5E903066861A861E861286268622846E9
:10236000FFF74EF808B1FEF7E0FA256300220521D9
:102370003520AC63FFF766FA3520FFF755FA07B052
:10238000BDE8F08FDFF824C24FF0070E63454FD150
:102390007E4A121D136843F010031360126802F0A6
:1023A00010020592026842F001020260006800F02B
:1023B000010005904FF4C0608DE883416946744880
:1023C000FFF7D6F8784F7A4860373860C7E901A53B
:1023D000C7E9035680157D61C7E906504FF44030C8
:1023E000C7E908053846FFF70BF808B1FEF79DFA74
:1023F0006763BC636C4F6E48C0377830C7F808908D
:10240000C7E903567D61BD61FD613D627D62C7E93B
:10241000000A3846FEF7F4FF08B1FEF786FA276394
:10242000002205212520BC63FFF70CFA2520A4E734
:10243000DFF880C1634549D1136843F4003313606A
:10244000126802F400320592026842F00102026052
:10245000006800F0010005900C208DE8834169467A
:102460004B48FFF785F84C48534F48303860C7E970
:1024700001A5C7E903567D61BD61FD613D62384636
:102480007D62FEF7BDFF08B1FEF74FFA6763BC63DC
:10249000494F414860376030C7F80890C7E9035694
:1024A0007D61BD61FD613D627D62C7E9000A38461C
:1024B000FEF7A6FF08B1FEF738FA276300220521D0
:1024C0002620BC63FFF7BEF9262056E7DFF8ECC0F4
:1024D00063457AD11368AB4643F4802313601268D6
:1024E00002F480220592026842F002020260006853
:1024F00000F0020005904FF440608DE8834169468A
:102500002F48FFF735F8DFF8B080234908F1C008FD
:1025100018394046C8F80010C0E901A5C0E90356C3
:10252000C8F81450C8F81850C8F81C50C8F8205003
:102530005746C8F82450FEF763FF08B1FEF7F5F9D7
:102540001548204DC4F834801830C8F8384085E864
:102550008102C5E903B6C5F814B0C5F818B0C5F8CE
:102560001CB0C5F820B02846C5F824B0FEF748FFD7
:1025700008B1FEF7DAF92563002205212720AC63B4
:10258000FFF760F92720F8E6004C00404038024091
:10259000000002400008024040600240DC090020C8
:1025A00000500040000C0240FC0A002000100140D6
:1025B00040640240004400401C0C002000480040E1
:1025C000000402403C0D0020FFE7274A93427FF4BD
:1025D000D6AE264A136843F020031360126802F057
:1025E00020020592026842F004020260006800F0D6
:1025F00004000590C0208DE8830969461C48FEF759
:10260000B7FF1D4F1B484FF020683860C7E90185B0
:10261000C7E903567D61BD61FD613D6238467D625B
:10262000FEF7EEFE08B1FEF780F96763BC63124F58
:10263000104860377830C7E903567D61BD61FD61A0
:102640003D627D6287E801033846FEF7D9FE08B196
:10265000FEF76BF92763002205214720BC63FFF7D3
:10266000F1F8472089E60000001401404438024098
:1026700000080240286402409C0D0020F8B5044682
:1026800090F83A0020283CD1C1B3BAB394F838008E
:10269000012836D0012084F83800A162A2850025E7
:1026A000E563222084F83A00636B1748D863636BB4
:1026B00016481864636B1648D864606B134605654A
:1026C0000846666B216802463046091DFEF702FF88
:1026D000206801684168009184F83850C16841F46D
:1026E0008071C1602068416941F001014161206849
:1026F000416941F0400141610020F8BDFFE7012040
:10270000FBE70220F9E700001B2F0008572F000805
:10271000D12E00087047704770B5044690F8390014
:10272000202830D169B362B394F8380001282AD048
:10273000012084F838002162A284E2840025E56348
:10274000212084F83900236B1048D863236B10488C
:102750001864236B0F48D864206B13460565266800
:10276000206B321DFEF7B6FE21686FF04000086056
:1027700084F838502068416941F0800141610020AF
:1027800070BD012070BD022070BD0000612F0008E7
:102790008F2F0008D12E000870477047FEE710B554
:1027A00064220021012003F0A3F9642002F062FBFF
:1027B00064224FF4BE71062003F09AF9642002F0FF
:1027C00059FB64224FF41171042003F091F9642045
:1027D00002F050FB64229100052003F089F9642087
:1027E00002F048FB64224FF4FA71022003F080F9F2
:1027F000BDE81040642002F03DBB00000F4810B55A
:102800000D4901600621416000214FF400328160D2
:10281000C0E90312120142610176012242768176FB
:10282000C17601774177FEF706FB002803D0BDE8AB
:102830001040FEF77AB810BD00640040CC070020BD
:102840000F4810B50D4901600621416000214FF489
:1028500000328160C0E90312120142610176012257
:1028600042768176C17601774177FEF7E4FA002857
:1028700003D0BDE81040FEF758B810BD0068004016
:10288000F4070020394808B5016841F4800101606F
:10289000016801F480010091016841F400110160B8
:1028A0000068002200F40010009005210B20FEF7C4
:1028B000C9FF0B20FEF7B8FF002205210C20FEF710
:1028C000C1FF0C20FEF7B0FF002205210D20FEF70E
:1028D000B9FF0D20FEF7A8FF002205210E20FEF70C
:1028E000B1FF0E20FEF7A0FF002205210F20FEF70A
:1028F000A9FF0F20FEF798FF002205211020FEF708
:10290000A1FF1020FEF790FF002205211120FEF705
:1029100099FF1120FEF788FF002205212F20FEF7E6
:1029200091FF2F20FEF780FF002205213920FEF7BE
:1029300089FF3920FEF778FF002205213A20FEF7B3
:1029400081FF3A20FEF770FF002205214520FEF7A7
:1029500079FF4520FEF768FF002205214620FEF79B
:1029600071FFBDE808404620FEF75EBF30380240E8
:1029700010B5AAB003F08CF91C2222496846FDF775
:102980008FFD0021684602F0EEFA1F4C1D491C2203
:10299000E0601C3107A8FDF783FD002107A802F0C5
:1029A000E2FA184960601C2238310EA8FDF778FD64
:1029B00000210EA802F0D7FA124920601C225431DF
:1029C00015A8FDF76DFD002115A802F0CCFA0D4900
:1029D00020601C2270311CA8FDF762FD00211CA89C
:1029E00002F0C1FA074920601C228C3123A8FDF7B0
:1029F00057FD002123A802F0B6FAA06003F068F9A1
:102A00002AB010BD647900080000002000B587B02E
:102A100014216846FDF798FD19480021026842F02C
:102A200080020260026802F080020592026842F0B1
:102A300001020260026802F001020592026842F09F
:102A400002020260026802F002020592026842F08D
:102A500004020260026802F004020592026842F079
:102A6000080202600068029100F008000590402012
:102A7000CDE9000169460348FEF77AFD07B000BDC5
:102A800030380240000C02400C4810B50A49016081
:102A90004FF45271416000214FF4FA62C0E9021212
:102AA000016180218161FFF78DF9002803D0BDE825
:102AB0001040FDF73ABF10BD002000401C08002068
:102AC0000C4810B50A4901604FF4165141600021CD
:102AD00081600C22C160C0E904128161C161FFF70D
:102AE00029FB002803D0BDE81040FDF71EBF10BD34
:102AF000004C00405C0800200C4810B50A490160F9
:102B00004FF4E1314160002181600C22C160C0E9D5
:102B100004128161C161FFF70DFB002803D0BDE8FD
:102B20001040FDF702BF10BD005000409C0800207F
:102B30000E4810B50C4901600D4941604FF48051B9
:102B4000816000214FF48062C0E903120C22C0E9C9
:102B50000521C161FFF7EEFA002803D0BDE810405F
:102B6000FDF7E3BE10BD000000100140DC080020AE
:102B7000A08601000C4810B50A4901604FF4E1310C
:102B80004160002181600C22C160C0E904128161B2
:102B9000C161FFF7CFFA002803D0BDE81040FDF770
:102BA000C4BE10BD004400401C0900200C4810B5F4
:102BB0000A4901604FF4E1314160002181600C223B
:102BC000C160C0E904128161C161FFF7B3FA002856
:102BD00003D0BDE81040FDF7A8BE10BD004800407E
:102BE0005C0900200C4810B50A4901604FF4E1313E
:102BF0004160002181600C22C160C0E90412816142
:102C0000C161FFF797FA002803D0BDE81040FDF737
:102C10008CBE10BD001401409C090020FEE77047E7
:102C200030B4034C4466034C846630BC02F0C4BA32
:102C3000B9510008C75100080A2002F01BF9FBE750
:102C400010B5502080F31188BFF34F8FBFF36F8F03
:102C500003F06EFE18B104494FF080500860002068
:102C600080F3118810BD000004ED00E030B593B092
:102C700030216846FDF768FC14210CA8FDF764FCC0
:102C800019480025016841F080510160006800F09A
:102C9000805011901548016841F48041016000683E
:102CA000022400F480401190012000900004019063
:102CB0008001CDE9064008200890A820CDE909044C
:102CC00004200B906846FEF7EDFE0CA90F2081E86A
:102CD00031004FF4A0500F90E002109005210CA895
:102CE000FEF7E2FD13B030BD4038024000700040F6
:102CF0001048016841F4700101600F48016841F01B
:102D0000010101600C4A00210832116002680B4B7E
:102D10001A400260031D0A4A1A60026822F48022E7
:102D2000026005480C30016002495806803908608D
:102D30007047000088ED00E000380240FFFFF6FE1B
:102D4000103000240148FFF77FB800005C0E00201F
:102D5000F0B50268254C264D264E274F274B4FF0E5
:102D6000804CA04209D0604507D0A84205D0B042AF
:102D700003D0B84201D0984204D122F0700E4A68C4
:102D800042EA0E02A0421BD0604519D0A84217D0DB
:102D9000B04215D0B84213D0984211D0184DA84275
:102DA0000ED0184DA8420BD0174DA84208D0174D91
:102DB000A84205D0164DA84202D0164DA84203D114
:102DC00022F44075CA682A434D6922F080022A43E2
:102DD00002608A68C2620A688262A04201D0984298
:102DE00001D10969016301214161F0BD0000014089
:102DF0000004004000080040000C004000040140B6
:102E000000400140004401400048014000180040DB
:102E1000001C0040002000400F4B104A012810D039
:102E200002280DD1086898604868D86003F108004E
:102E300090ED000A82ED000A90ED010A82ED010A90
:102E40007047086818604868586093ED000A82ED82
:102E5000020AD06070470000C0000020C05100206E
:102E600030B500221C216FF02F04435CA3F1300524
:102E7000092D05D802EB820204EB42021A4492B2F9
:102E8000491C2829F1DB0148028030BDD400002014
:102E900010B50448FFF7C6F8BDE81040014800F03F
:102EA00009BB00005C08002010B50448FFF7BAF821
:102EB000BDE81040014800F0FDBA00009C08002069
:102EC00010B5806B0021C185C184FFF7AAF810BD41
:102ED00070B5846B2068406994F83910C0F3C01055
:102EE0000025212904D118B1E584204600F062F8BC
:102EF0002068406994F83A10C0F38010222904D168
:102F000018B1E585204600F047F8E06B40F010006E
:102F1000E0632046FFF785F870BD10B50146806B71
:102F200009680968C90513D40021C1850168CA6808
:102F300022F48072CA6001684A6922F001024A6183
:102F400001684A6922F040024A61202180F83A1063
:102F5000FFF7E0FB10BD10B5806BFFF7DCFB10BD89
:102F600010B50146806B09680968C9050CD40021B9
:102F7000C18401684A6922F080024A610068C16820
:102F800041F04001C16010BDFFF706FC10BD10B557
:102F9000806BFFF702FC10BD0168CA6822F49072D2
:102FA000CA6001684A6922F001024A61202180F862
:102FB0003A1070470168CA6822F0C002CA60202136
:102FC00080F83910704710B590F83A10222901D0D6
:102FD000022010BD8168B1F5805F11D00169002920
:102FE00001681FD0496801F07F03816A4A1C826230
:102FF0000B70C18D491E0904090CC18518D02BE046
:103000000269816A002A0268526805D0D2B20A8039
:10301000816A491C8162ECE7C2F308020A80816A76
:10302000891CF7E74A68816A4B1C83620A70E0E7F3
:103030000168CA6822F02002CA600168CA6822F4E6
:103040008072CA6001684A6922F001024A61202147
:1030500080F83A10FFF75EFB002010BD2DE9F0412B
:10306000044600680169E26821F44051114301619E
:103070002169A068E2690843616911432268084335
:10308000D16849F20C6399430143D16020684169DA
:10309000A26921F4407111434161E2696425B2F5EE
:1030A000004F9748974922684FF032083FD08A4234
:1030B00001D082427CD1FEF7BFFC00EBC00101EBE6
:1030C000001061688900B0FBF1F6FEF7B5FC00EB7B
:1030D000C00101EB001061688900B0FBF1F0B0FBAA
:1030E000F5F06FF01801484306EB800108EB011082
:1030F000B0FBF5F000F0F006FEF79EFC00EBC0011F
:1031000001EB001061688900B0FBF1F0B0FBF5F055
:1031100006EB0016FEF790FC00EBC00101EB00107F
:1031200061688900B0FBF1F7FEF786FCD2E08A42C5
:1031300001D082423DD1FEF77FFC00EBC00101EBE4
:10314000001061684900B0FBF1F0B0FBF5F006013A
:10315000FEF772FC00EBC00101EB00106168490052
:10316000B0FBF1F7FEF768FC00EBC00101EB0010CB
:1031700061684900B0FBF1F0B0FBF5F06FF01801A9
:10318000484307EB800108EBC100B0FBF5F000F00D
:10319000F80006EB4006FEF74FFC00EBC00101EB28
:1031A000001061684900B0FBF1F7FEF745FC3CE018
:1031B00055E0FEF731FC00EBC00101EB0010616847
:1031C0004900B0FBF1F0B0FBF5F00601FEF724FC7E
:1031D00000EBC00101EB001061684900B0FBF1F7A2
:1031E000FEF71AFC00EBC00101EB0010616849001A
:1031F000B0FBF1F0B0FBF5F06FF01801484307EBBE
:10320000800108EBC100B0FBF5F000F0F80006EB20
:103210004006FEF701FC00EBC00101EB0010616805
:103220004900B0FBF1F7FEF7F7FB00EBC00101EB43
:10323000001061684900B0FBF1F0B0FBF5F06FF0F1
:103240001801484307EB800108EBC100B0FBF5F023
:1032500000F00700216830448860BDE8F081FEF787
:10326000DBFB00EBC00101EB001061688900B0FBE3
:10327000F1F6FEF7D1FB00EBC00101EB0010616835
:103280008900B0FBF1F0B0FBF5F06FF01801484396
:1032900006EB800108EB0110B0FBF5F000F0F00642
:1032A000FEF7BAFB00EBC00101EB0010616889007A
:1032B000B0FBF1F0B0FBF5F006EB0016FEF7ACFB4F
:1032C00000EBC00101EB001061688900B0FBF1F771
:1032D000FEF7A2FB00EBC00101EB00106168890062
:1032E000B0FBF1F0B0FBF5F06FF01801484307EBCD
:1032F000800108EB0110B0FBF5F000F00F00A9E72A
:10330000001401400010014090F83910212901D02B
:10331000022070478168B1F5805F016A0BD04A1CBA
:103320000262026809785160C18C491E0904090CC7
:10333000C1840ED017E009880268C1F3080151600A
:1033400001690029016A02D0491C0162ECE7891C6D
:10335000FBE70168CA6822F08002CA600068C168A1
:1033600041F04001C16000207047000010B50448E2
:10337000FEF758FEBDE81040014800F09BB8000081
:10338000DC08002010B50448FEF74CFEBDE81040F4
:10339000014800F08FB800001C09002010B5044857
:1033A000FEF740FEBDE81040014800F083B8000081
:1033B0005C09002010B50448FEF734FEBDE810405B
:1033C000014800F077B800009C09002010B50446C1
:1033D0000068304988420CD12F49304802F00EFB7A
:1033E00012212D48FDF78EF812222B492C48FFF7A9
:1033F00045F92C49206888420ED12748443002F014
:1034000043FE254832214430FDF77CF82249322220
:1034100044312046FFF732F92349206888420ED113
:103420001D48123002F048FE1B4832211230FDF7D1
:1034300069F81949322212312046FFF71FF91B495A
:10344000206888420FD114481921763001F030FCF1
:10345000114832217630FDF755F80F493222763186
:103460002046FFF70BF912492068884210D10A481C
:10347000A830FFF7F5FC084832217630FDF742F816
:10348000054920463222BDE81040A831FFF7F6B8C2
:1034900010BD000000100140BE4F0020A84F0020CA
:1034A000DC08002000480040004C00400044004080
:1034B0000014014038B5016804460868C043C006DE
:1034C0000AD40868486800902046FEF77EFD204632
:1034D000BDE83840FFF77ABF38BD00001E4810B580
:1034E0000068C16841F01001C16012221B491A48EE
:1034F000FFF7C4F81A480068C16841F01001C160C4
:103500001649322212311648FFF7B8F815480068FC
:10351000C16841F01001C1601049322244311148A4
:10352000FFF7ACF810480068C16841F01001C160B5
:103530000A49322276310C48FFF7A0F80B480068A0
:10354000C16841F01001C16004493222BDE8104059
:10355000A8310648FFF792B8DC080020BE4F0020D3
:103560005C0800205C0900209C0900201C09002048
:10357000FEE703B401984100009850EAC12018BF4B
:1035800004204A0D18BF40F0010040F2FF72B2EB78
:10359000515F08BF40F00200012808BF052002B0BB
:1035A00070470907090E002804DB00F1E02080F8CD
:1035B0000014704700F00F0000F1E02080F8141DA7
:1035C00070470000000000002DE9F04D2DED040BC8
:1035D0002DED0E8B96B0DDE92550279CDDF890A0EF
:1035E00025F0004624F00048BAF1000F14BF012175
:1035F000002101EB4502FC4953184A1093422AD39B
:10360000002814BF0123002303EB44030B44F749B4
:103610008B4220D358EA00019FEDF59B76D0DFF86E
:10362000D8B35D4503D1BAF1000F05D188E0BAF1F6
:10363000000F08BF002100D0012101EB450111F569
:10364000001F08D8002814BF0121002101EB44010C
:1036500011F5001F0BD99DED261B9DED240B16B017
:10366000BDEC0E8B04B0BDE8F04D00F069BE002744
:10367000002DBCBFE149884521DAE1498845A8BF52
:1036800002271CDAC3451ADCDE4901EB2851142954
:1036900008DDC1F1340220FA02F101FA02F282429D
:1036A0000DD108E058B9C1F1140228FA02F101FA6B
:1036B00002F2424503D101F00101C1F1020756EACD
:1036C0000A0124D1002C22DA002D18BF022F01D0CC
:1036D000012F0AD00220FCF766FF16B0BDEC0E8B5E
:1036E00004B0BDE8F04D00F013BE0220FCF75BFF14
:1036F00000F00EFE51EC100B03F00CFB41EC100B34
:1037000016B0BDEC0E8B04B0BDE8F08D18E09FED57
:10371000BEAB9FEDBF8B002871D1B848804522D148
:1037200005F1804010F5801008BFBAF1000F07D0F6
:10373000B3450ADC002CA8BF9DED260BE0DA0DE0B6
:10374000B0EE490AF0EE690ADAE7002C06DA9DEDE0
:10375000260B51EC100B03F0DDFA6FE0AE48784415
:1037600090ED000BCCE7D8454DD1002C48DA2EB1B6
:1037700086423AD1BAF1000F42D126E0BAF1000FE9
:1037800013D00220FCF70FFF00F0F6FD8DED020BC9
:103790009DED240B8DED000B10EE900A039961F363
:1037A0001E0003909DED020BAAE78DED02AB9DED8F
:1037B000240B1AEE901A10EE900A8DED000B61F3B7
:1037C0001E0003909DED020B9AE78DED028B9DED9F
:1037D000240B18EE901A10EE900A8DED000B61F399
:1037E0001E0003909DED020B8AE709DA9DED240B84
:1037F00051EC190B53EC102B03F054FB1EE020E0AE
:103800009DED240B7CE786421BDAB4F1804F0DD08E
:10381000A4F10050B0F1FF5013D1002D11DB9DED4C
:10382000240B51EC100B02F085F907E09DED240B01
:1038300053EC102B51EC100B00F0C2BC41EC100B00
:103840005EE79DED240B51EC100B01F0AFF9BAF1DE
:10385000000FCDE90E0142D19FED710B46B3A6F1E9
:10386000E040B0F17F600CD05E4538D1002D00DA29
:10387000A7B3022F0CBF01204FF0FF3003F097FCDD
:10388000DCE7002D01DD002C0DDA002D01DD002C20
:103890001FDB002D16DA002C14DB012F08BF9FED73
:1038A000620B3FF42DAFB0EE4A0AF0EE6A0A27E74A
:1038B000022F18BF002D0CD0012F0AD1002DFFF6CA
:1038C0001FAF06E0002DB8BF002C08DA012F3FF42F
:1038D00017AFB0EE480AF0EE680A11E71BE00120CE
:1038E00000EBE57050EA070115D0791EB0EE498A69
:1038F000F0EE698A084308BF9FED4D8B4E480025C6
:10390000804570DD4D494E48884514DDB0420DDBE1
:10391000002C19DB2FE00120FCF745FE16B0BDECB2
:103920000E8B04B0BDE8F04D00F016BDB34502DCCF
:10393000002C09DC1FE0864202DA002C1BDA03E0CF
:103940005E452BDD002C16DD0220FCF72CFE00F07E
:1039500013FD8DED020B53EC1A2B51EC180B03F0F9
:103960008DFCCDE900010399019861F31E000390DD
:103970009DED020BC4E60220FCF715FE00F00CFDE5
:1039800010EE901A18EE900A8DED020B8DED008B63
:1039900061F31E0003909DED020BB1E69DED0E0B51
:1039A00053EC192B51EC100B03F074FE9FED260B1A
:1039B000CDE9080153EC102B9DED080B51EC100BD9
:1039C00003F05CFC9FED221B53EC112B03F08AFDEE
:1039D0009DED081B53EC112B03F050FC9FED1E1BBB
:1039E00053EC112B3CE08CE0FFFF1F00FFFF0F00AA
:1039F000000000000000F03F0000F03F0000F07FFA
:103A00000000404301FCFFFF000000000000F07FC9
:103A1000000000000000000056430000000000000D
:103A20000000000000000080000000000000F0FF27
:103A3000000000000000F0BF0000E0410000F04383
:103A4000FFFFEF3F00000000000000000000D03F3B
:103A5000555555555555D53F000000000000E03F35
:103A600003F040FD9DED080B41EC1A0B53EC102BBD
:103A700051EC100B03F002FC53EC1A2B03F0FEFB8D
:103A800041EC1A0B9FEDFE0B53EC102B9DED080B38
:103A900051EC100B03F0F2FB41EC1B0B9FEDFA0B0A
:103AA00051EC1A0B53EC102B03F0E8FB41EC1A0B12
:103AB0009FEDF70B53EC102B9DED080B51EC100B09
:103AC00003F0DCFB53EC1A2B03F0E4FD41EC1A0B82
:103AD00051EC1B0B53EC1A2B03F028F90690CDE99F
:103AE00006519DED060B53EC1B2B51EC100B03F014
:103AF000D1FD53EC1A2B03F0F5FC41EC100B00F058
:103B0000A1B90020B6F5801F0EDA9FEDE30B53EC50
:103B1000102B9DED0E0B51EC100B03F0AFFBCDE91C
:103B20000E016FF034000E4600EB2650A0F2FF3776
:103B3000C6F31300DA4940F07F6646F040568842EB
:103B4000D8BF002408DDD7498142C8BF012403DC67
:103B50000024A6F580167F1CD348784400EBC400EF
:103B60000F9690ED00CB9DED0E0B53EC1C2B51EC02
:103B7000100B03F08FFD9DED0E0B41EC1B0B53EC76
:103B80001C2B51EC100B03F0D1F841EC100B51EC55
:103B9000190B53EC102B03F085F941EC1D0B51EC84
:103BA0001B0B53EC1D2B03F069FB41EC1A0BBF48B8
:103BB0008DED10AB7844109590ED000B4FF0005058
:103BC00040EA660000EB84408DED080B00F5002014
:103BD00009909DED080B53EC1C2B51EC100B03F0DE
:103BE00059FD9DED0E1B53EC112B03F07BFC41ECBA
:103BF000100B53EC102B9DED100B51EC100B03F040
:103C00003DFB9DED080B41EC1C0B53EC102B9DED87
:103C1000100B51EC100B03F031FB53EC1B2B03F09A
:103C200061FC53EC1C2B03F035FD53EC1D2B03F012
:103C300025FB41EC1C0B53EC1A2B51EC1A0B03F037
:103C40001DFB41EC1B0B9A480621B0EE4B0AF0EE2F
:103C50006B0A784400F0E0FAB0EE401AF0EE601A19
:103C6000B0EE41DAF0EE61DA53EC1B2B51EC1B0B9A
:103C700003F004FB53EC1D2B03F000FB9DED100B38
:103C800041EC1B0B53EC1A2B51EC100B03F04EF8CC
:103C900053EC1C2B03F0F2FA53EC1B2B03F046F809
:103CA0009DED100B41EC1B0B53EC102B51EC100B4A
:103CB00003F0E4FA41EC1D0B9FED7FEB53EC1E2B60
:103CC00003F034F853EC1B2B03F030F80890CDE9E7
:103CD00008519DED080B53EC1E2B51EC100B03F01B
:103CE000D9FC53EC1D2B03F0D5FC53EC1B2B03F03C
:103CF000F9FB9DED080B41EC1D0B53EC102B9DEDDA
:103D0000100B51EC100B03F0B9FA41EC1B0B53EC08
:103D10001A2B51EC1D0B03F0B1FA9DED080B41EC91
:103D20001A0B53EC102B51EC1C0B03F0A7FA53ECBD
:103D30001A2B02F0FBFF41EC1A0B51EC1B0B53EC5E
:103D40001A2B02F0F3FF0C90CDE90C519DED0C0BFA
:103D500053EC1B2B51EC100B03F09CFC53EC1A2B77
:103D600003F0C0FB41EC1B0B9FED550B53EC102BEC
:103D70009DED0C0B51EC100B03F080FA41EC1A0B8B
:103D80009FED510B51EC1B0B53EC102B03F076FA0B
:103D900041EC1B0B9FED4E0B53EC102B9DED0C0BD0
:103DA00051EC100B03F06AFA53EC1B2B02F0BEFF30
:103DB00041EC100B4848784400EBC40090ED001B28
:103DC00051EC100B53EC112B02F0B0FF41EC1B0B2C
:103DD000384603F0ECF9CDE9080153EC1B2B51EC0C
:103DE0001A0B02F0A3FF41EC100B3C48784400EBA7
:103DF000C40090ED00CB51EC100B53EC1C2B02F0E7
:103E000095FF9DED081B53EC112B02F08FFF0690E0
:103E1000CDE906519DED080B53EC102B9DED060BE3
:103E200051EC100B03F036FC53EC1C2B03F032FC6E
:103E300053EC1A2B03F02EFC53EC1B2B03F052FB1C
:103E400041EC100B9DED261B53EC102B8DED001B50
:103E500000959DED260B51EC100B03F00FFA9DED34
:103E6000000B41EC1A0B53EC102B9DED260B51EC83
:103E7000100B03F00FFC9DED061B53EC112B2FE0F4
:103E8000000000604715F73FFE822B654715F73F9E
:103E900044DF5DF80BAE543E0000000000004043DC
:103EA0008E9803007AB60B00D23E0000003F00005F
:103EB0000A3E000000000000000000000000084072
:103EC000000000E009C7EE3FFD033ADC09C7EE3F02
:103ED000F5015B14E02F3EBE963C0000503C000014
:103EE00003F0CCF953EC1A2B02F020FF9DED060BEA
:103EF00041EC1A0B53EC102B9DED000B51EC100B09
:103F000003F0BCF9CDE90C019DED0C0B51EC1A0B43
:103F100053EC102B02F00AFFCDE902010C46AA492E
:103F20008C422FDB611A084318D19DED0C0B53EC2A
:103F3000102B9DED020B51EC100B03F0ABFB41EC91
:103F40001B0B9FEDA30B51EC1A0B53EC102B02F043
:103F5000EDFE53EC1B2B03F08FFA2DD20220FCF761
:103F600022FB00F009FA10EE901A18EE900A8DED7F
:103F7000020B8DED008B61F31E0003909DED020B93
:103F8000FFF7BEBB944A24F00041914214D39349F9
:103F9000214408437FF4EFAC9DED0C0B53EC102B48
:103FA0009DED020B51EC100B03F074FB53EC1A2B3C
:103FB00003F062FA7FF6DFAC24F000408849894ABA
:103FC000002601EB205182422BDA481C4FF480116D
:103FD00021FA00F02044844AC0F30A517A44A1F245
:103FE000FF3192ED000B814A8DED080BCA4020EAAB
:103FF0000202C0F3130040F48010C1F1140120FA52
:1040000001F60992002CB8BF76429DED080B53ECE7
:10401000102B9DED0C0B51EC100B03F03BFBCDE98D
:104020000C019DED0C0B51EC1A0B53EC102B02F014
:104030007DFE9FED6F0B0890CDE9085153EC102BDE
:104040009DED080B51EC100B03F018F941EC1B0B24
:104050009FED690B53EC102B9DED080B51EC100BF1
:1040600003F00CF99DED0C0B41EC1C0B53EC102BE9
:104070009DED080B51EC100B03F00CFB53EC1A2BCD
:1040800003F030FA9FED5E1B53EC112B03F0F6F8B2
:1040900053EC1C2B02F04AFE41EC1A0B51EC1B0BAB
:1040A00053EC1A2B02F042FECDE902019DED020B0A
:1040B00053EC1B2B51EC100B03F0ECFA53EC1A2BC6
:1040C00003F010FA9DED020B41EC1A0B53EC102B90
:1040D00051EC100B03F0D2F8CDE908014A489DEDF0
:1040E000080B0521784400F097F89DED081B51EC72
:1040F000100B53EC112B03F0C1F89DED021B53EC98
:10410000112B03F0EFF9CDE906019DED020B53EC05
:104110001A2B51EC100B03F0B1F853EC1A2B02F0F0
:1041200005FE9FED3B0B41EC1A0B53EC102B9DED64
:10413000060B51EC100B03F0ADFA9DED060B41ECB4
:104140001B0B53EC102B9DED020B51EC100B03F0ED
:1041500095F853EC1B2B02F0A5FE53EC1A2B03F041
:1041600099FA9DED021B53EC112B03F093FA53ECDB
:10417000192B03F0B7F9CDE9020101EB0650011547
:104180000029C8BF039015DC9DED020B324651ECAF
:10419000100B03F0A0FBFFF7ECF9042808BF00F0B8
:1041A000FBF832469DED020B51EC100B03F093FB34
:1041B000CDE902019DED020B51EC180B53EC102BD5
:1041C00003F05CF8FFF73ABB0000904000000000ED
:1041D000FE822B654715973C00CC904000346F3F22
:1041E00001FCFFFF0000E03FD83A0000FFFF0F0096
:1041F00000000000432EE63F396CA80C615C20BE35
:10420000EF39FAFE422EE63FA83900000000000018
:10421000000000000000004070B504462DED028B48
:104220004D1E00EBC500B0EE408AF0EE608A90EDC6
:10423000000B35F0060017D053EC182B51EC100B87
:1042400003F01CF841EC100B6D1E04EBC50090ED63
:10425000001B51EC100B53EC112B02F067FD41ECED
:10426000100B35F00600E7D1022D36D0042D1CD0FE
:10427000062D1CBFBDEC028B70BD53EC182B51EC0E
:10428000100B02F0FBFF94ED0A1B53EC112B02F014
:104290004DFD53EC182B02F0F1FF94ED081B53EC8D
:1042A000112B02F043FD41EC100B53EC182B51EC99
:1042B000100B02F0E3FF94ED061B53EC112B02F000
:1042C00035FD53EC182B02F0D9FF94ED040B53ECA1
:1042D000102B02F02BFD41EC100B53EC182B51EC82
:1042E000100B02F0CBFF94ED021B53EC112B02F0EC
:1042F0001DFD53EC182B02F0C1FF94ED001B53EC95
:10430000112B02F013FDBDEC028B41EC100B70BDC4
:104310009FED070B10B553EC102B9FED070B51ECE5
:10432000100B02F0BFFD41EC100B10BD00000000AF
:104330000000000000000000000000000000F03F4E
:1043400010B553EC112B51EC100B02F0EFFC41ECCB
:10435000100B10BD000000009FED050B10B553ECD5
:10436000102B51EC100B02F09DFD41EC100B10BD19
:1043700000000000000000009FED050B10B553EC9D
:10438000102B51EC100B02F079FF41EC100B10BD1B
:1043900000000000000000709FED050B10B553EC0D
:1043A000102B51EC100B02F069FF41EC100B10BD0B
:1043B000000000000000001030EE201AD0ED001ABE
:1043C000F4EEC11AF1EE10FA02DCB0EE611A01E06F
:1043D00080ED001A30EEC00AB4EEC01AF1EE10FA09
:1043E00001D280ED000A704770B5124C049D206028
:1043F0000020A060E060082020610F480C0A0470D3
:104400004170110A8170C270190A01714371290A41
:104410008171C5710948FCF7FAFBC0B20028F9D0D8
:104420000548054A103803494368BDE87040034811
:10443000FCF78EBA58510020A8000020CC070020BD
:1044400000B58BB00020012103900490CDE9060156
:10445000CDE908100590009001900290694614483B
:10446000FCF7DAFA69461248FCF7D6FA0028F9D1C7
:104470000E20059069460F48FCF7CEFA69460D48B4
:10448000FCF7CAFA0028F9D16420FDF75FF8084864
:10449000FCF75AFE02210648FCF748FA0548FCF7EB
:1044A00053FE02210348FCF741FA0BB000BD0000A7
:1044B000CC070020F40700200EB50E4C4FF0FF355E
:1044C0004FF400762A460121684600F021FDDDE91F
:1044D00000100829F6D1C007F4D0B4F90600009006
:1044E000B4F90430B4F90220B4F900103046FFF7F3
:1044F0007BFFE7E71C01002010B5D0ED000A0E4855
:1045000000F16C01C0ED0A0A098800EE101AB8EE3D
:10451000400A80ED090A094800F056FDBDEEC00AC8
:1045200010EE100A00B200EE100A0548B8EEC00AFC
:1045300080ED020A10BD00000C520020D04E002079
:10454000E000002010B5154C90ED000A04F16C005D
:1045500084ED040A90ED020AA0F1600184ED030AE3
:104560009FED0F0A5C3800F06BF984ED050A94EDBD
:10457000031A0C4871EE000AB0EE410A00F024FD67
:10458000BDEEC00A10EE100A00B2404200EE100A62
:104590000548B8EEC00A80ED010A10BD0C5200209B
:1045A0000000B443644E0020E00000200B480321CB
:1045B0009FED0B0A017041700A4880ED010A80ED01
:1045C000020A9FED090A80ED040AC17007214170BB
:1045D000064900200870487070470000E000002085
:1045E000000034439452002000007042DC000020A0
:1045F00010B54FF47A542DED028BB2EE080A9FED00
:104600002F8ADFED2F8A0023B0EE481AF0EE680AF9
:10461000224603212B48FEF703FB2A48B0EE481A36
:10462000F0EE680AB2EE080A0023224603216C303D
:10463000FEF7F6FA2348B0EE481AF0EE680AB2EE3A
:10464000080A002322460321D830FEF7E9FAB0EE2B
:10465000481AF0EE680AB2EE080A00232246032147
:104660001948FEF7DDFAB0EE481AF0EE480A9FED61
:10467000170A0023224603211548FEF7D1FAB7EEA8
:10468000001AF0EE480A9FED130A002345F6D812EF
:1046900003211148FEF7C4FAF0EE480ABDEC028B84
:1046A0000023BDE81040B7EE001AB2EE040A43F250
:1046B000C82203210948FEF7B3BA00000000000039
:1046C000CDCCCC3DB44C0020F84D00200000704310
:1046D000644E002000000C42D04E00203C4F0020D1
:1046E0002DE9F041154D164E164F002405EB8400C0
:1046F00004EB4401D0ED0C0A06EBC101C0ED100A39
:10470000B1F90C1000EE101AB8EEC00A80ED140AD0
:1047100004EBC40000EB400007EB800000F054FC09
:10472000BDEEC00A05EB4401641C10EE100AE4B2B1
:10473000A1F86000042CD9D3BDE8F0810C52002010
:1047400098500020B44C002008B500F0A6FB364C71
:10475000344D04F13009354E354F009000F05EFACB
:10476000287820B101280ED0022847D124E09FEDFF
:10477000310A002084ED000A84ED010A84ED020A6A
:10478000206660663AE02C49A1F1240898F8000000
:1047900051F820202449C8F810209031081F904774
:1047A00088F8010098F8001008F1140202EB81016A
:1047B000095C88F8001021E02048B0F9041001EBF2
:1047C0008101490000EE101AB8EEC00A84ED000A1B
:1047D000B0F9061001EB8101490000EE101AB8EEA5
:1047E000C00A84ED010AB0F9000000EB800040002F
:1047F00000EE100AB8EEC00A84ED020A484694ECB6
:10480000030A00F00AFBFFF76BFF206E3060606E5A
:1048100070600121386800F04DFB0121684600F00E
:1048200030FB9BE7140100200C5200201C010020EB
:10483000040000200000000004010020A84F002018
:10484000F0EE400A90ED001A91ED000AB4EEC01AA5
:10485000F1EE10FA0DDD31EE400AB6EE001A20EE50
:10486000811AB4EEC10AF1EE10FA01DD30EE600AF1
:1048700070470DD231EE400ABEEE001A20EE811ACA
:10488000B4EEC10AF1EE10FAF2D230EE200A70470F
:104890009FED010A704700000000000008B500F01D
:1048A000FCFA00900348FBF795FF0121684600F0F1
:1048B000E8FAF7E71C0900204A8852BA82818A8800
:1048C00052BAC2814388838009884ABA4280D31A87
:1048D0000169B3F5805F01DB491E03E013F5805FDA
:1048E00001DC491C016102EB41310288891A8160B7
:1048F000704700002DE9F0470E46DFF8E090384998
:104900000546B9F80200498895ED000A4FF0050800
:1049100009F11C0488422ED310EE100A31490427F5
:10492000884209D010EE100A2F49884204D010EEB8
:10493000100A2E49884204D12D4900200870487081
:10494000677095ED000AB5EEC00AF1EE10FA09D0D5
:10495000B5EEC00AF1EE10FA04D010EE100A2549A7
:10496000884211D11D49224A1331881E00F02AF9CC
:10497000B0B195ED000AD6ED000AB4EE600AF1EE92
:1049800010FA01D184F80180607804280AD0052843
:1049900003D0062820D0072800D10120BDE8F087E9
:1049A0006770F1E70D4D99F810106C3D89B199F8D9
:1049B000120070B105F19800FFF79EFD85ED000A29
:1049C00000F0DEF9201DFFF7BDFD85ED020A002095
:1049D000E4E79FED090AF1E70220DFE778520020C3
:1049E000E00000200000B442000087430000344390
:1049F000DC0000200000B443000000000F4810B5A8
:104A0000017C00F11C0319B9807C08B90020D87022
:104A1000D87838B1012804D0022802D0032800D168
:104A2000012010BD00F0ACF9181DFFF78BFD034805
:104A30006C3880ED020A002010BD00007852002082
:104A400010B590ED000AD1ED000A1348B4EE600AEB
:104A5000F1EE10FA01D00E2100E00C218170C8B2F5
:104A60000C2807D00D2803D00E2805D00F2800D120
:104A7000012010BD002010BD074C9FED080A883CA6
:104A800004F1900084ED000A84ED010AFFF75AFD5D
:104A900084ED020A022010BD9452002000000000A4
:104AA00070B53949B1F91400002800DA4042364C9B
:104AB0004FF4FA721C34904216DBB1F9160000284C
:104AC00000DA404290420FDBB1F91800002800DA0A
:104AD0004042904208DBB1F91A00002800DA404257
:104AE000904201DB092000E00A202070C0B20828B3
:104AF00006D0092806D00A2817D00B2801D112E0C9
:104B0000002070BD40F6B83001F04CF81E482C3043
:104B1000FFF7F2FC1C4D201D6C3D85ED000AFFF7F0
:104B200011FD85ED020A012070BD94ED010A1749BF
:104B300010EE100ADFED160A884201D1C4ED020A18
:104B400010EE100A1349884203D19FED131A84ED29
:104B5000021AB5EEC00AF1EE10FA03D19FED0F1A5A
:104B600084ED021A10EE100A0D49884203D19FED20
:104B70000D1A84ED021A10EE100A0B49884201D179
:104B8000C4ED020A022070BD7852002000003443B8
:104B90000000B4420000B44200000000000087435F
:104BA000000087430000B4430000B44382B0CDE965
:104BB000000121F0004001909DED000B02B051EC8E
:104BC000100B7047037801200BB9097819B11070E8
:104BD000507000207047002010705078704700001F
:104BE00070B50C4D044602212846FCF799FD0A4E8B
:104BF000207080213046FCF793FD607040213046E4
:104C0000FCF78EFDA07004212846FCF789FDE070BA
:104C100070BD000000080240000C024010B51E48A4
:104C2000FFF7DEFF1D4801881D4801801D494988A6
:104C300041801D49D1ED010AC0ED020A91ED020A41
:104C400000F11C0180ED030A91ED020A70EEC00A2A
:104C5000C1ED030AF0EEE00A10EE902AB2F17C5F9B
:104C600001DA81ED010A0C490A7802744A7842742B
:104C70008A788274C978C1740C4A002101EB41031F
:104C800000EB410402EBC303491C9B89C9B2A38218
:104C90000429F3D310BD0000D8000020D400002068
:104CA00078520020D0000020C051002098500020F1
:104CB000F0B506462DED028B83B025480022144640
:104CC0000068CDE90002154610466B460F18F75DE7
:104CD0001F54401C0428F9DB002001AE195C303958
:104CE000092903D8641CE4B2315400E03254401C5A
:104CF0000428F3DB23E0601E02F059FA41EC110BAB
:104D00009FED140BFEF760FCC4F10400B0EE408A86
:104D1000F0EE608A305C02F061FA53EC182B02F07E
:104D2000ADFA41EC180B284602F058FA53EC182B58
:104D300001F0FCFF02F00EFA641E85B2E4B2002C12
:104D4000D9D10648058003B0BDEC028BF0BD000050
:104D50002C7A00080000000000002440D40000204D
:104D60000548817A0548012904D0022902D0032987
:104D700001D1002101707047A84F002014010020CC
:104D80000949F1EE080A094A91ED010A30EE200ABC
:104D900010EE100A81ED010A904203DD9FED040A36
:104DA00081ED010A704700000C52002000204B46A4
:104DB00000204B46EFF30580002800D0012070470B
:104DC000FCF7C2FCFDF752FFFDF720FEFDF75AFD90
:104DD000FDF7AEFEFDF758FEFDF732FDFDF70EFDC7
:104DE000FDF7E4FEFDF76CFEFDF786FEFDF7C2FE63
:104DF000FDF7F8FEFEF772FBFFF722FBFFF7F8FB6B
:104E0000FFF7D4FBFDF7B4FD00F042F8FEE70146E2
:104E10000020842900D0C81C704730EE602A70EE54
:104E2000201AF1EE402A30EEC00A72EEE02A71EE4E
:104E3000811A32EE012A30EE010A72EE812A80EDEB
:104E4000030AC0EC031A704708B500F026F8084CB6
:104E50000090606810B100F031FE01E0FFF780FFC4
:104E6000052000F007F80121684600F00AF8F0E795
:104E70001401002010B500B9012000F0DDFF002072
:104E800010BD10B501B9012100F0FCFF002010BDDC
:104E900010B501F07FF8002010BD10B5FFF78AFFB4
:104EA00018B1BDE8104001F03BBDBDE8104001F075
:104EB00031BD0000FEB5064600200D46029001906F
:104EC000FFF778FF4FF0004498B102A8009001ABC3
:104ED00001222946304601F097FC012811D10298A1
:104EE00088B10A49E0080860BFF34F8FBFF36F8FA6
:104EF00009E001AB01222946304601F01FFC0128E0
:104F000001D02046FEBD0198FEBD000004ED00E08A
:104F1000FEB5002506460F462C460195501C06D0CE
:104F200002B11446FFF746FF20B1822015E04FF092
:104F3000FF34F7E723463946002001AA01F05CFD63
:104F4000012804D00CB1402007E0009506E001984C
:104F5000002801DA862000E0082000909DE8070084
:104F600086E80700FEBD7FB50D4604464169B0F9ED
:104F7000080081B1A16971B1FFF749FFD4E90512B9
:104F80008DE80700D4E900102B46226901F0ABFB45
:104F9000039004B070BDFFF73AFF03A9CDE900010B
:104FA000208A2B4682B2D4E9001001F06FFB012861
:104FB00001D00020EDE70398EBE7FDF7F0FB64205C
:104FC000FFF758FFF9E7000010B5B0EE601AF0EEF9
:104FD000401A2DED028B71EE610AC0ED081A80EDCA
:104FE000051AC0ED0B0A90ED142A04469FED710AD4
:104FF00031EE611AB5EEC02AB1EE411AF1EE10FAA7
:105000000ED0F5EEC00AF1EE10FA02DDF0EE601AF5
:1050100001E0F0EE411AF4EEC21AF1EE10FA7CDC77
:10502000D4ED151AF5EEC01AF1EE10FA0BD0F5EE2C
:10503000C00AF1EE10FA01DDB0EE601AB4EEE11A2A
:10504000F1EE10FA69D3A16D04F13400032902D006
:1050500004293FD08AE094ED001AB0EE408A21EE98
:10506000201A84ED0C1A94ED0D1AD4ED011A01EEFC
:10507000A01A84ED0D1A94ED0A1A70EEC10A94ED8F
:10508000021A60EE810AC4ED0E0AD4ED180AB8EED9
:10509000601AF0EE480AB0EE410AFFF78DF994ED80
:1050A0000C0AD4ED0D0A04F13C0030EE200AD4EDD8
:1050B0000E0A30EE200AF0EE480A84ED0F0A94ED55
:1050C000170AB8EE400AFFF777F994ED0F0A84ED5E
:1050D000100A4BE094ED0A1A94ED002A70EEC11A02
:1050E00061EE821AC4ED0C1AD4ED011A61EEA01A19
:1050F000C4ED0D1AF0EE001A41EE610A94ED091AA2
:1051000070EE810A94ED021A60EE810AC4ED0E0A77
:10511000D4ED180AB8EE601A00E044E0B0EE408A20
:10512000B0EE410AF0EE480AFFF746F994ED0C0A9A
:10513000D4ED0D0A04F1480030EE200AD4ED0E0A39
:1051400030EE200A84ED110AD4ED130A30EE800A05
:10515000F0EE480A84ED120A94ED170AB8EE400A00
:10516000FFF72AF994ED120A84ED130A94ED0A0A66
:1051700084ED090A94ED0B0A84ED0A0A94ED070AFE
:1051800084ED060A94ED080A84ED070A94ED040AFA
:1051900084ED030A94ED050A84ED040AA06D03284A
:1051A00004D094ED120ABDEC028B10BD94ED0F0AF1
:1051B000F9E700000000000000F1580C8CE80E0038
:1051C00080EC030A704780EC030A70472DE9F04138
:1051D000184C0F46054666692068001D00F0FCFC6F
:1051E00038B9206890F82C1001208840A1698143CB
:1051F000A161681C07D137B12168BDE8F0410E48B4
:10520000091D00F039BD20683544B542456021686C
:1052100005D2A068BDE8F041091D00F015BD606829
:10522000091D00F011FD206B854200D22563BDE809
:10523000F081000024000020B80F00202DE9F0418B
:10524000054600F025FD2E4C2069401C2061206899
:105250002C4F10B1E06940B32DE025602069012892
:1052600029D1002606EB860007EB800000F0DEFC6B
:10527000761C072EF6D323488C3000F0D7FC21484B
:10528000A03000F0D3FC1F48B43000F0CFFC1D4824
:10529000C83000F0CBFC1B48DC3000F0C7FC1948DC
:1052A0008C3060601430A06005E02068E96AC06A54
:1052B000884200D82560E06A401CE062E96A01206B
:1052C000A26988401043A06101EB810007EB8000D8
:1052D000291D00F0D1FC00F0FBFCE06900280CD097
:1052E0002068E96AC06A884207D207494FF08050B7
:1052F0000860BFF34F8FBFF36F8FBDE8F0810000F0
:1053000024000020DC0E002004ED00E038B500F0A1
:10531000BFFC104CA068C8B90F4800F087FC0E48CD
:10532000143000F083FC0C482060143060600A4B9D
:1053300000202833009003F148020C210A2000F0DD
:1053400049FFA06010B105A100F040FDBDE8384064
:1053500000F0BEBC60000020CC0F0020546D7251E4
:105360000000000030B4026C0B46002A0BD0C1686C
:105370001144C1604468A14201D30168C16030BCDE
:105380001846FBF748B830BC70472DE9F041856BF3
:10539000174604460026026C82B1C7B1E068FBF7ED
:1053A0003AF8E168206C091AE1602268914202D261
:1053B0006168081AE060022F16D017E02068A8B9CB
:1053C000606801F05FFB0646002060600EE0A068A8
:1053D000FBF721F8216CA0680844A060616888424E
:1053E00004D32068A06001E005B16D1E6D1CA563AB
:1053F0003046BDE8F08110B5044690F8510058B130
:1054000001280CD002280FD0502080F31188BFF360
:105410004F8FBFF36F8FFEE7206B00F06DFC2046CF
:10542000BDE8104000F068BC10BD000010484FF40B
:105430007051420706D0C01D0D4920F00700411AE7
:10544000C1F570510B4A00230144C2E90003083939
:10545000103A21F0070111604B600B600B1AC0E994
:10546000001393604FF000405360D060704700001D
:10547000B410002084000020144E154CA6F1C8077B
:105480004FF08058DFF84C9012E000BF00F000FCB5
:10549000F068C568281D00F09FFB2069401E206150
:1054A000E068401EE06000F013FC2846FFF7A3FF11
:1054B000E0680028EAD138680128F9D9C9F80080E5
:1054C000BFF34F8FBFF36F8FF2E70000A40F0020F0
:1054D0002400002004ED00E00346009829B102609A
:1054E000C0E90F31012100F0A9BE0060F8E72DE905
:1054F000F0479A46DDE9098481466FF00303206B8B
:1055000003EB82021044089D20F00706700707D0C5
:10551000502080F31188BFF34F8FBFF36F8FFEE7EA
:1055200023180A5C83F834200A5C12B1401C10284E
:10553000F6D3002784F84370072D00D30625E562D3
:10554000C4E91157201D00F07CFB04F1180000F0A5
:1055500078FB2461C5F107006462A061E76484F808
:10556000507052464946304600F032FA2060B8F199
:10557000000F01D0C8F80040BDE8F08730B51149F0
:1055800000E011460A688242FBD34B685C188442F3
:1055900003D1406818444860084643681C18944288
:1055A00009D1084C103C2468A24209D052681A4420
:1055B00042600A6812680260814200D0086030BD13
:1055C0000460F9E78400002070B5002441600B4DB1
:1055D0000061914206D8D11A8269914206D2011D1A
:1055E000686807E09A4203D2994201D3012403E09C
:1055F000011D286800F028FB204670BD60000020D7
:1056000010B5044600F044FBA06B28B15FF0000425
:1056100000F05EFB204610BD0124F9E730B587B0ED
:105620002C4D4EE0049800284BDB069C606910B1BD
:10563000201D00F0D1FA02A800F0B8F80246049844
:105640000A283ED2DFE800F00505053D26370505AE
:105650003D260598A169034601442046FFF7B4FFA3
:1056600000B3616A20468847E069012829D10020FB
:1056700000900598A169002342181946204601F0C0
:1056800019FB78B9502080F31188BFF34F8FBFF317
:105690006F8FFEE70598A06128B181181346204658
:1056A000FFF792FF0DE0502080F31188BFF34F8F7A
:1056B000BFF36F8FFEE794F8280010B9204600F082
:1056C0001BFB002204A9A86800F00AFF0028A9D14A
:1056D00007B030BD600000202DE9FC410F460546B3
:1056E00000F09CFC01A800F061F80446019818B194
:1056F00001F04EFABDE8FC81224EAFB1706800683F
:10570000A8B30027291B3A46B06800F073FB01F0EC
:105710003FFA0028EED11C494FF080500860BFF3DB
:105720004F8FBFF36F8FE5E7A542EBD801F030FA5A
:1057300030682746C068C468201D00F04DFAE06953
:10574000012810D1A0692B4641193A462046FFF79F
:105750003BFF40B100200346014600902A46204608
:1057600001F0A8FA20B1616A20468847C2E707E045
:10577000502080F31188BFF34F8FBFF36F8FFEE788
:105780000127BFE76000002004ED00E00648416803
:10579000096829B14168C968C968496801637047E7
:1057A0004FF0FF31FAE700002400002070B50546F5
:1057B00001F0B0F8064E04463069844203D200F08E
:1057C00009F8012000E0002028602046346170BD07
:1057D00060000020F8B5194D1FE0C068C468066875
:1057E000201D00F0F9F9616A20468847E069012828
:1057F00013D1A0693044B04206D924616060211DF4
:10580000286800F021FA08E00020034601460090D5
:105810003246204601F04EFA38B128680168002966
:10582000DBD16968C5E90010F8BD502080F311880C
:10583000BFF34F8FBFF36F8FFEE7000060000020C3
:1058400008484068401C4FF0500080F3118804D095
:10585000BFF34F8FBFF36F8FFEE7BFF34F8FBFF3E1
:105860006F8FFEE78C000020074C2068016841B173
:10587000C0680021D0F80000FFF72EFFFFF7CEFE32
:10588000F3E701210020F7E7600000202DE9F04157
:10589000044600F0FDF994F9455004F1240609E0AE
:1058A000606A48B1304601F039F908B100F038FBC0
:1058B0006D1E6DB2002DF3DC4FF0FF3684F84560AD
:1058C00000F006FA00F0E4F994F9445004F11007EE
:1058D00009E0206948B1384601F020F908B100F02C
:1058E0001FFB6D1E6DB2002DF3DC84F84460BDE833
:1058F000F04100F0EDB900002DE9F0410546002728
:1059000000F08CFB314E306808B9FFF78FFDF0686E
:1059100005424BD1C5B3083568070ED005F0070026
:10592000C0F108000544680707D0502080F31188B3
:10593000BFF34F8FBFF36F8FFEE72DB370688542C3
:1059400034D82248103001460C6801E020460C464D
:105950006168A94202D221680029F7D131688C42DE
:1059600024D007682168016060680837411B10294E
:105970000FD96019420708D0502080F31188BFF377
:105980004F8FBFF36F8FFEE710E041606560FFF758
:10599000F5FD61687068401A7060B268904200D28C
:1059A000B060F06801430020C4E9000101F0F0F8A4
:1059B000780707D0502080F31188BFF34F8FBFF3D3
:1059C0006F8FFEE73846BDE8F081000074000020CC
:1059D00010B5031F4FF080741C601B1F21F00101E4
:1059E0001960191F044B0B6014390A60091F6FF00E
:1059F000020244380A6010BD415800082DE9F04108
:105A0000054608880C46C0F30A02A2F580622A8087
:105A100048788978C00840EA4110C0F30A03A3F52A
:105A200080636B80A078E178800940EA8100217969
:105A300002F5257240EA8120C0F30A01A1F58061D8
:105A4000A98020796679400840EAC610C0F30A00B0
:105A5000A0F58060E880268AA6F5806636B22E81A1
:105A60006779BF09AF726779C7F30117EF724FF417
:105A7000A567BA420FD803F52573BB420BD801F5D1
:105A80002571B94207D800F52570B84203D806F54C
:105A90002576BE4203D916212846FAF733FDE08861
:105AA000A8812089E88160892882207BA874607B96
:105AB000E874E089A882BDE8F08100000A48817A94
:105AC00003290FD1C17A01290CD1B0F9021011F5C7
:105AD000257F07D1B0F90000B0F5257F02D1034939
