:020000040800F2
:1000000010680020E9020008DB280008F524000839
:10001000D92800080F060008693100080000000018
:10002000000000000000000000000000290200089D
:10003000810700080000000085020008FD28000874
:100040000303000803030008030300080303000878
:100050000303000803030008030300080303000868
:100060000303000803030008030300084D0600080B
:100070005906000865060008710600087D0600089C
:100080008906000895060008030300081D060008FD
:100090001106000803030008030300080303000817
:1000A00003030008012A00080303000803030008F3
:1000B0000303000803030008030300080303000808
:1000C00003030008030300080303000803030008F8
:1000D00003030008F92F0008113000082930000838
:1000E00003030008030300080303000803030008D8
:1000F000030300080303000803030008A106000827
:1001000003030008030300080303000803030008B7
:100110001D2B0008352B000803030008030300080B
:1001200003030008AD060008B90600080303000831
:100130000303000803030008030300084106000846
:100140002906000835060008030300080303000819
:1001500003030008C5060008D10600084130000866
:100160000303000803030008030300080303000857
:100170000303000803030008030300080000000055
:10018000030300080303000800F002F800F03CF845
:100190000AA090E8000C82448344AAF10107DA45E2
:1001A00001D100F031F8AFF2090EBAE80F0013F0F8
:1001B000010F18BFFB1A43F001031847105200004B
:1001C00030520000103A24BF78C878C1FAD85207DC
:1001D00024BF30C830C144BF04680C6070470000C1
:1001E0000023002400250026103A28BF78C1FBD840
:1001F000520728BF30C148BF0B6070471FB505F0DC
:100200008BF81FBD10B510BD00F0CCF91146FFF7FB
:10021000F5FF03F05BFB00F0EAF903B4FFF7F2FF30
:1002200003BC00F0EDF900002C4B19680868B0E839
:10023000F04F80F30988BFF36F8F4FF0000080F319
:10024000118870470000000008480068006880F3CB
:1002500008884FF0000080F3148862B661B6BFF3DF
:100260004F8FBFF36F8F00DF00BF00BF08ED00E0CE
:10027000DFF80C00016841F470010160704700BFB5
:1002800088ED00E0EFF30980BFF36F8F134B1A681E
:100290001EF0100F08BF20ED108A20E9F04F10600B
:1002A00009B44FF0500080F31188BFF34F8FBFF3B4
:1002B0006F8F04F015FB4FF0000080F3118809BC2C
:1002C00019680868B0E8F04F1EF0100F08BFB0ECD6
:1002D000108A80F30988BFF36F8F704720000020D9
:1002E000EFF3058070470000094880470948004740
:1002F000FEE7FEE7FEE7FEE7FEE7FEE7FEE7FEE7D6
:10030000FEE7FEE704480549054A064B7047000032
:10031000AD29000889010008105200201068002053
:10032000106200201062002053EA020C00F0698085
:100330002DE9F04B4FF00006002B1FBFB3FA83F5F9
:1003400003FA05F424FA05F65E4012BF1643B2FA2A
:1003500082F502FA05F4C5F120051EBF22FA05FC5C
:1003600044EA0C04203556EA044C4FEA144418BF02
:10037000641C4FF000084FF00009904271EB030C31
:1003800039D3002919BFB1FA81F701FA07F6B0FA9B
:1003900080F700FA07F6C7F120071EBF20FA07FC16
:1003A00046EA0C062037B6FBF4FCA7EB0507103F26
:1003B00007F01F0BCBF120060CFA0BFB2CFA06F60C
:1003C00044BFB3460026202FA4BF5E464FF0000B6B
:1003D0005BEA060C08BF4FF0010B19EB0B09ABFBF6
:1003E000027C48EB0608C01B06FB02CC0BFB03CCCF
:1003F00071EB0C01C1E70B46024641464846BDE899
:10040000F08B13B54FF000004FF00001AFF3008008
:10041000BDE81C407047032A40F2308010F0030C06
:1004200000F0158011F8013BBCF1020F624498BF47
:1004300011F801CB00F8013B38BF11F8013BA2F1E4
:10044000040298BF00F801CB38BF00F8013B11F05F
:10045000030300F02580083AC0F0088051F8043BFF
:10046000083A51F804CBA0E80810F5E7121D5CBF6C
:1004700051F8043B40F8043BAFF30080D20724BF9F
:1004800011F8013B11F801CB48BF11F8012B24BF33
:1004900000F8013B00F801CB48BF00F8012B704782
:1004A00010B5203AC0F00B80B1E81850203AA0E80F
:1004B0001850B1E81850A0E81850BFF4F5AF5FEA43
:1004C000027C24BFB1E81850A0E8185044BF18C9F6
:1004D00018C0BDE810405FEA827C24BF51F8043B9D
:1004E00040F8043B08BF7047D20728BF31F8023BF1
:1004F00048BF11F8012B28BF20F8023B48BF00F885
:10050000012B70474FF000020429C0F0128010F058
:10051000030C00F01B80CCF1040CBCF1020F18BFDF
:1005200000F8012BA8BF20F8022BA1EB0C0100F072
:100530000DB85FEAC17C24BF00F8012B00F8012B45
:1005400048BF00F8012B70474FF0000200B513467A
:1005500094469646203922BFA0E80C50A0E80C50E3
:10056000B1F12001BFF4F7AF090728BFA0E80C5094
:1005700048BF0CC05DF804EB890028BF40F8042B8D
:1005800008BF704748BF20F8022B11F0804F18BFFA
:1005900000F8012B7047704770477047004870475C
:1005A000B05100207546FFF7F9FFAE4605006946D9
:1005B000534620F00700854618B020B5FFF7A2FE8D
:1005C000BDE820404FF000064FF000074FF0000854
:1005D0004FF0000B21F00701AC46ACE8C009ACE8D5
:1005E000C009ACE8C009ACE8C0098D46704710B539
:1005F0000446AFF300802046BDE81040FFF70DBE73
:1006000001491820ABBEFEE7260002007047FEE756
:10061000014800F0C4B90000C8070020014800F0FC
:10062000BEB90000C8070020014800F0B8B90000BA
:10063000F0070020014800F0B2B90000F0070020E8
:10064000014800F0ACB90000F0070020014800F0BC
:10065000B9BC0000980A0020014800F0B3BC0000BB
:10066000D80C0020014800F0ADBC0000D8090020E3
:10067000014800F0A7BC0000380D0020014800F040
:10068000A1BC0000380A0020014800F09BBC00001B
:10069000180C0020014800F095BC0000780C0020E8
:1006A000014800F08FBC0000F80A0020014800F06B
:1006B00089BC0000980D0020014800F083BC0000B8
:1006C000580B0020014800F07DBC0000F80D002010
:1006D000014800F077BC0000B80B00200168182327
:1006E000CAB2103AB2FBF3F2054B6FF30901032AC9
:1006F0009B5CC36500D9091D8165084670470000F1
:100700007853000810B5014600208B698A6A4FF0C3
:10071000C07453B1B3F5005F15D072B1012A0CD08B
:10072000022A0AD0032A09D104E01AB1012A06D00C
:10073000022A03D1C96AC90100D5012010BDC96AC6
:10074000A142FAD010BD002AF7D0012AF2D0022A25
:10075000F3D0032AF3D010BD30B50468256825F422
:1007600080252560046863608368402B036803D09C
:1007700099600068C26030BD9A600068C16030BD99
:100780007047704790F82020012A07D0022A05D030
:10079000416A41F48021416201207047006842694A
:1007A0000A4342610020704710B590F82020012ACA
:1007B00007D0022A05D0416A41F48021416201201C
:1007C00010BD3B48D0F8002242F00102C0F80022E0
:1007D000D0F8002222F47C52C0F80022D0F8002287
:1007E0004B6A42EA0322C0F800220A7D02F01F038E
:1007F00001229A40D0F81C329343C0F81C32CB69D6
:10080000B3B9D0F80C329343C0F80C328C894B68E2
:1008100064F31F434C6900EBC404C4F840320C89F4
:100820000B6864F31F434C6900EBC404C4F8443202
:10083000CB69012B16D1D0F80C321343C0F80C321F
:100840000C884B6864F31F434C6900EBC404C4F884
:1008500040320C89CB6864F31F434C6900EBC4043D
:10086000C4F844328B69002BD0F804320ED0134305
:10087000C0F804320B69002BD0F8143208D01343AF
:10088000C0F81432096A012904D008E09343EFE765
:100890009343F5E7D0F81C121143C0F81C12D0F8AE
:1008A000001221F00101C0F80012002010BD00006C
:1008B00000640040704730B590F82040012C05D00E
:1008C000022C03D0416A41F480215DE004680029D4
:1008D00055D02469A40754D04FF4D874056804EBAC
:1008E00001142D5915F00405956005682D594ED059
:1008F000ED08556005682C59C4F34004D4604FF4EA
:10090000DA74056804EB01142D5905F00F05156123
:1009100005682D59C5F30725956105682C59240CE8
:1009200054614FF4DC72046802EB0112A4581C708D
:100930000468A458240A5C700468A458240C9C70B1
:100940000468A258120EDA704FF4DE72046802EBEB
:100950000112A4581C710468A458240A5C7104682C
:10096000A458240C9C710468A258120EDA71006815
:1009700081B1016941F020010161002030BDE468CE
:10098000A8E7416A41F400114162012030BD6D0DBC
:100990001560AFE7C16841F02001C160EDE72DE9C6
:1009A000F05F0546006800244669D0F80490876827
:1009B000D0F80CB0D0F810A0D0F81880F10748D0CB
:1009C000F90714D001218160B80703D5284600F04B
:1009D0009AFA0CE0780702D54FF4006407E0380774
:1009E00002D54FF4805402E0284600F08BFAF80557
:1009F00016D529684FF480708860B80503D528465D
:100A000000F083FA0CE0780502D544F4005407E0C6
:100A1000380502D544F4804402E0284600F074FA18
:100A2000F80316D529684FF480308860B80303D5E1
:100A3000284600F06CFA0CE0780302D544F4004438
:100A400007E0380302D544F4803402E0284600F081
:100A50005DFA300707D55FEACB6004D5296810201E
:100A600044F40074C86070074FF0080707D55FEAC8
:100A70000B7004D52868C760284600F0B1F9B007AC
:100A800006D52868C068800702D0284600F0AAF979
:100A9000700607D55FEACA6004D52968102044F4BF
:100AA00080640861B00607D55FEA0A7004D528683B
:100AB0000761284600F0F6F9F00606D528680069B7
:100AC000800702D0284600F0EEF9B00308D55FEAAF
:100AD000C96005D5296810204860284600F0E4F96F
:100AE000F00307D55FEA097004D5286847602846F7
:100AF00000F00EFA300446D55FEA497040D5F005A3
:100B000004D55FEAC87001D044F00104B00504D5F3
:100B10005FEA887001D544F00204700504D55FEAED
:100B2000487001D544F00404300529D518F0700F41
:100B300026D008F07000402815D006DC102809D017
:100B400020280AD0302816D10AE050280ED060287C
:100B500011D10EE044F008040DE044F010040AE066
:100B600044F0200407E044F0400404E044F0800432
:100B700001E044F480742868816921F0700181618A
:100B8000296804204860002C05D0686A2043686208
:100B90002846FFF78FFEBDE8F09F70B5040003D034
:100BA00094F8200010B104E0012070BD204600F050
:100BB00081F82068016821F00201016000F062FC08
:100BC0000546052604E000F05DFC401B0A2811D80C
:100BD000206840688007F6D42068016841F0010170
:100BE000016000F04FFC05460BE000F04BFC401BA1
:100BF0000A2806D9606A40F40030606284F82060F8
:100C0000D2E720684068C007EFD0207E0128206826
:100C100001683DD021F080010160607E01282068DC
:100C2000016838D021F040010160A07E01282068D1
:100C3000016833D021F020010160E07E01282068A6
:100C400001682ED041F010010160207F012820684A
:100C5000016829D021F008010160607F0128206827
:100C6000016824D021F004010160D4E902010843A5
:100C7000D4E90412114308436168491E08432168FE
:100C8000C86100206062012084F82000002070BD4F
:100C900041F08001C0E741F04001C5E741F020018B
:100CA000CAE721F01001CFE741F00801D4E741F095
:100CB0000401D9E7F0B587B0044614216846FFF770
:100CC00043FC424B4248DFF800E11968D4F800C009
:100CD0003F4A03250226092710300024491CF44509
:100CE0002AD11960012907D1016841F00071016022
:100CF000006800F000700590106840F00800106077
:100D00001068CDE9005600F00800CDE9047069468E
:100D10003048CDE9024500F0DDFA0022052113201C
:100D200000F03CFC132000F02BFC002205211420D5
:100D300000F034FC142043E0DFF89CE0F44541D19E
:100D4000D0F800C04CF0806CC0F800C0D0F800C0F3
:100D500001290CF0806CCDF814C0196007D101682E
:100D600041F000710160006800F0007005901068AB
:100D700040F002001060106802AB00F00200059025
:100D80004FF44050CDE9000683E8B00069461348AF
:100D900000F0A0FA002205213F2000F0FFFB3F20D9
:100DA00000F0EEFB00220521402000F0F7FB402080
:100DB00000F0E6FB00220521412000F0EFFB41207E
:100DC00000F0DEFB07B0F0BD006400400C00002026
:100DD00030380240000C024000680040000402402D
:100DE0007047000010B52A4CA04223D1294B2A4A53
:100DF0000021FFF760FD28480068A0F50071013967
:100E000005D0012903D0022901D003290CD12149A1
:100E1000401E0839C0B208701F4900EB4000D839A5
:100E200001EBC0001B4925E02068416941F0020147
:100E3000416110BD194CA042FBD1164B164A10332C
:100E400034320021FFF737FD1348343000680128A1
:100E500013D0022811D0A0F50070053806D0012863
:100E6000E2D10C490C481031483803E009490A48DE
:100E70001031603802F07AFBD6E709490A7C0AB9DA
:100E800001220A740349103101F024FECCE700006E
:100E9000C8070020A4000020A4500020F007002074
:100EA000F4500020704770477047000070B504464A
:100EB00090F82000012804D0606A40F400206062AD
:100EC00018E0022084F820002068016821F0010168
:100ED000016000F0D7FA05460EE000BF00F0D2FA3C
:100EE000401B0A2808D9606A40F40030606205207F
:100EF00084F82000012070BD20684068C007EDD153
:100F0000606270BD704770477047704770477047A8
:100F100070472DE9F0410446876D00F0B3FA0646AC
:100F200094F835000025022806D08020606584F8FA
:100F300034500120BDE8F0812068016821F01601DD
:100F400001602068416921F080014161206C08B98D
:100F5000A06C20B12068016821F0080101602068C0
:100F6000016821F0010101600BE000F08BFA801BA9
:100F7000052806D92020606504F8345F03206070DE
:100F8000D8E720680068C007EFD194F85C103F20D4
:100F90008840B86004F8345F012060700020C9E721
:100FA00090F83510022903D0802141650120704757
:100FB000052180F835100068016821F00101016009
:100FC000002070472DE9F84304464FF00009CDF8A2
:100FD000009063484FF41651A56D0068B0FBF1F71F
:100FE0002E6894F85C10082000FA01F131420FD00D
:100FF00021680A6852070BD50A6822F004020A60C9
:1010000094F85C108840A860606D40F00100606555
:1010100094F85C104FF0010808FA01F0304208D053
:1010200021684969090604D5A860606D40F0020096
:10103000606594F85C1004208840304208D0216834
:101040000968890704D5A860606D40F004006065F8
:1010500094F85C1010208840304218D0216809684C
:10106000090714D5A86020680168490304D5006801
:10107000000308D5A16C07E00168C90503D4016825
:1010800021F008010160216C09B12046884794F8DD
:101090005C1020208840304231D021680968C906A0
:1010A0002DD5A86094F8350005282068016806D081
:1010B000490347D5006800031DD4616C1CE021F092
:1010C000160101602068416921F080014161206CB6
:1010D00008B9A06C20B12068016821F00801016006
:1010E00094F85C103F208840A86084F8349084F81D
:1010F0003580216D1FE0E16B09B120468847606DA6
:1011000000282BD0606DC00714D0052084F835006E
:101110002068016821F0010101600098401C0090E6
:10112000B84203D820680068C007F6D184F834902C
:1011300084F83580E16C002910D001B02046BDE86C
:10114000F04308470168C905D5D4016821F01001B2
:10115000016084F8349084F83580CCE7BDE8F883EA
:101160001C0000202DE9F041044600F08BF90646F2
:101170005CB1002584F83450022084F835002068E2
:10118000016821F0010101600DE00120BDE8F0815E
:1011900000F078F9801B052805D920206065032020
:1011A00084F83500F2E720680068C007F0D12268B3
:1011B000116820480140D4E901031843D4E90336FB
:1011C0003343184363691843A3691843E369184319
:1011D000236A18430843616A042903D1D4E90B1335
:1011E00019430843106020684069666A20F00701CF
:1011F00030460E43012704280CD1A06A0643E06A5A
:1012000040B12046FFF77EFA20B14020606584F8A7
:101210003570BAE7206846612046FFF75FFA94F818
:101220005C203F2191408160656584F83570002025
:10123000ACE700003F8010F02DE9F0410446866DD8
:1012400090F83400002501280DD0012084F83400E6
:1012500094F835700020012F07D084F8340002255F
:101260002846BDE8F0810220FBE7022784F83570AC
:1012700060652046FFF770FA94F85C103F208840C4
:10128000B0602068016841F0160101602068416982
:1012900041F080014161206C20B12068016841F07B
:1012A000080101602068016841F001010160D7E791
:1012B00070B5044600F0E6F80546601C02D004480C
:1012C0000078044400F0DEF8401BA042FAD370BD61
:1012D000100000202DE9F84FDFF87CB100224FF01C
:1012E00001084FF0030A4FF00F090BF1040E00BF85
:1012F0000B6808FA02F42340A3426ED14D68022D18
:1013000001D0122D0ED1D50800EB850CDCF8205051
:101310005607F70E09FA07F6B5430E69BE402E438D
:10132000CCF82060066855000F790AFA05FC07F032
:10133000030726EA0C06AF40374307604E68012ECC
:1013400005D0022E03D0112E01D0122E0ED18668A8
:10135000CF6826EA0C06AF40374387604668A6434D
:101360000C79C4F30014944034434460C6688C681C
:1013700026EA0C06AC403443C4604C68E40065D5F2
:10138000364C256845F480452560246822F0030525
:1013900004F480440094324C2E19D6F8084895077E
:1013A0002F0F09FA07F5AC432E4DA84201D10025B5
:1013B00024E02D4DA84201D101251FE02B4DA8426C
:1013C00001D102251AE02A4DA84201D1032515E0DA
:1013D000284DA84202D1042510E037E0264DA8424E
:1013E00001D105250AE0254DA84201D1062505E0D9
:1013F000234DA84201D1072500E00825BD40254323
:10140000C6F80858DBF800405D464E689C43F6037A
:1014100000D51C432C60DEF8004075464E689C43A6
:10142000B60300D51C432C600B4D08352C684E6864
:101430009C43F60200D51C432C60074D0C352C68EC
:101440004E689C43B60200D51C432C60521C102AE7
:10145000FFF44EAFBDE8F88F003C01404438024035
:101460000030014000000240000402400008024039
:10147000000C02400010024000140240001802401C
:10148000001C0240014880687047000010000020E6
:101490000248816802781144816070471000002082
:1014A0000B4810B5016841F400710160016841F416
:1014B00080610160016841F480710160032000F0E7
:1014C0008DF8002000F006F800F03EF8002010BD76
:1014D000003C024010B5014688B00022192000F0FF
:1014E0005DF8192000F04CF813480024016841F41D
:1014F00000310160006805A900F4003006906846DC
:1015000000F016F900F044F90C494000B0FBF1F18D
:101510000C480B4A491E026040F2E732C0E903243E
:10152000C0E9011400F0FAFA10B1012008B010BDB2
:10153000044800F023FBF9E74438024040420F0022
:1015400000440140580E00200C4882B0016841F46C
:1015500080410160006800F4804000900748001F4F
:10156000016841F0805101600068002200F0805065
:1015700000900F21901E02B000F010B844380240D5
:10158000002809DB00F01F02012191404009800082
:1015900000F1E020C0F8001170470000F0B40E4BDD
:1015A0001B680C46C3F30223C3F10705042D00D9C1
:1015B0000425191D072901D2002300E0DB1E0126A6
:1015C00006FA05F1491E214099409E40761E1640BC
:1015D0003143F0BC01F0C9BD0CED00E0064900F05C
:1015E000070208684FF6FF03184040EA0220034A4A
:1015F00010430860704700000CED00E00000FA05A1
:101600002DE9F0470E46050065D0DFF81481D8F8C3
:101610000000F7B200F00F00B04207D288F8007067
:10162000D8F8000000F00F00B04254D128683D4CBB
:10163000810712D5400703D5206840F4E0502060B0
:101640002878000703D5206840F4604020602068B7
:10165000A96820F0F000084320602878C0072DD04A
:10166000304968680839012812D0022813D00328AD
:1016700011D00968890700292DDA216821F00301BA
:1016800001432160FFF7FEFE814641F2883A0EE0F9
:1016900009688903EFE709688901ECE7FFF7F2FEC3
:1016A000A0EB0901514502D90320BDE8F08720686D
:1016B000696800F00C00B0EB810FEFD1D8F8001092
:1016C000404601F00F01B14207D90770006800F0F1
:1016D0000F00B04201D00120E7E72878400705D588
:1016E0002068E96820F4E05008432060287800076B
:1016F00006D52068296920F4604040EAC1002060D6
:1017000000F056F82168084AC1F30311515CC84043
:10171000064908600020FFF7DDFE0020C5E7000055
:10172000003C024008380240805300081C000020A2
:101730000F2202600C4A136803F00303436013682E
:1017400003F0F0038360136803F4E053C36012688E
:101750004FF4E05303EAD20202610448006800F04B
:101760000F0008607047000008380240003C02404B
:101770000448054900680968044AC1F38221515CA4
:10178000C84070471C0000200838024090530008F1
:101790000448054900680968044AC1F34231515CB4
:1017A000C84070471C0000200838024090530008D1
:1017B000104810B5006810F00C010F4818D004292B
:1017C00016D0082914D10B4C241F216801F03F02C8
:1017D000216821680023C1F38811A1FB0001FEF7F5
:1017E000A3FD2168C1F30141491C4900B0FBF1F0A0
:1017F00010BD0000083802400024F4002DE9F84F25
:10180000050076D02878DFF8F8B2BE4CC00749D082
:10181000DBF800105846C1F38101012908D00068A7
:10182000C0F3810002280AD1201D0068400206D5BD
:101830002068800336D568680028E2D032E0686806
:10184000B0F5803F10D0B0F5A02F206810D020F464
:1018500080302060206820F4802020606868A0B17B
:10186000FFF710FE06460CE0206840F48030F4E7F5
:1018700040F480202060F7E7FFF704FE801B642817
:1018800073D820688003F7D50CE0FFF7FBFD064610
:1018900005E000BFFFF7F6FD801B6428F0D8206844
:1018A0008003F7D42878DFF8608280074FF00009C2
:1018B0003ED5DBF80010584611F00C0F09D0006837
:1018C000C0F3810002280BD18D48001F0068400240
:1018D00006D42068800715D5E868012809D111E0F1
:1018E000E868B8B10120C8F80000FFF7CBFD064654
:1018F00005E002E1FFF7C6FD801B0228C0D8206882
:101900008007F7D52068296920F0F80040EAC10077
:1019100020600DE0C8F80090FFF7B4FD064604E033
:10192000FFF7B0FD801B02281FD820688007F7D47E
:101930002878000722D5724E744869696C3671B1F7
:1019400001210160FFF79EFD074604E0FFF79AFDC5
:10195000C01B022809D830688007F7D50EE0C0F810
:101960000090FFF78FFD074605E083E0FFF78AFD53
:10197000C01B02287ED830688007F7D4287840073B
:1019800068D5DFF87CA100270AF1380ADAF80000F0
:10199000C0000BD4DAF8001041F08051CAF80010F2
:1019A000DAF80000012700F080500090584E3068AF
:1019B000C00510D4306840F480703060FFF762FDDD
:1019C000009005E0FFF75EFD0099401A022851D80B
:1019D0003068C005F6D54A4EA868683601280FD091
:1019E0000528306810D020F001003060306820F009
:1019F00004003060A868B8B1FFF744FD00900FE024
:101A0000306840F00100F4E740F004003060F7E790
:101A1000FFF738FD0099411A41F28830814264D8BD
:101A200030688007F4D50EE0FFF72CFD009007E04A
:101A3000FFF728FD0099411A41F28830814254D8BD
:101A400030688007F4D42FB1DAF8001021F080510B
:101A5000CAF80010A869C0B3DBF80010C1F3810117
:101A600002294AD00228484607D0C8F86000FFF78C
:101A700009FD00E039E005463AE04746C8F8600055
:101A8000FFF700FD064604E0FFF7FCFC801B022880
:101A90002BD820688001F7D4D5E907010843A96A4B
:101AA0001C4A490802EB01416A6A41EA8211084373
:101AB00095F82C1040EA01611148001F01600120D7
:101AC0003866FFF7DFFC054605E014E0FFF7DAFCB7
:101AD000401B022809D820688001F7D50BE000BF21
:101AE000FFF7D0FC401B022802D90320BDE8F88F85
:101AF00020688001F4D40020F8E70120F6E7000018
:101B0000083802400038024000004742800E474239
:101B1000007000400000FFFF7047704710B50400E0
:101B200003D094F83D0010B107E0012010BD002063
:101B300084F83C00204600F00DF8022084F83D00B7
:101B4000211D206800F062FF012084F83D00002084
:101B500010BD000008B500680649884208D1064853
:101B6000016841F480710160006800F480700090A9
:101B700008BD000000200040403802400168CA68EB
:101B800042F00102CA600068816801F0070106297D
:101B900003D0016841F001010160002070477047E7
:101BA00070B50446006801694FF00005C943890714
:101BB00015D4C168C943890711D4E91E0161012008
:101BC0002077206880698007204602D0FFF7E7FF72
:101BD00004E000F098F8204600F096F82577206899
:101BE0000169C943490717D4C168C943490713D4D8
:101BF0006FF004010161022020772068806910F4F1
:101C0000407F204602D0FFF7CAFF04E000F07BF8D7
:101C1000204600F079F8257720680169C943090753
:101C200016D4C168C943090712D46FF008010161D5
:101C3000042020772068C0698007204602D0FFF783
:101C4000AEFF04E000F05FF8204600F05DF8257775
:101C500020680169C943C90617D4C168C943C906C8
:101C600013D46FF010010161082020772068C0694B
:101C700010F4407F204602D0FFF791FF04E000F00F
:101C800042F8204600F040F8257720680169C943F2
:101C9000C90708D1C168C943C90704D1891E0161B8
:101CA000204600F033F820680169C943090609D4C9
:101CB000C168C943090605D46FF08001016120465F
:101CC000FFF72AFF20680169C943490609D4C168A2
:101CD000C943490605D46FF040010161204600F078
:101CE0001FF820680169C94389060BD4C168C9433C
:101CF000890607D46FF0200101612046BDE87040DD
:101D0000FFF70BBF70BD70477047000000680349C4
:101D1000884201D1FFF7BCBB70470000004401407E
:101D2000704710B504460068416994F83920C1F342
:101D3000C011212A0BD151B1416921F080014161CB
:101D4000206B08B1FFF7E5F8204600F079FF206826
:101D5000416994F83A20C1F38011222A0BD151B184
:101D6000416921F040014161606B08B1FFF7D1F892
:101D7000204600F057FF002010BD704770B5026884
:101D800004461068D168536910F00F0F51D003F06A
:101D9000010501F4907635435DD0C20705D0CA0530
:101DA00003D5E26B42F00102E263420705D5DA0790
:101DB00003D0E26B42F00202E263820705D5DA0744
:101DC00003D0E26B42F00402E263020705D5DA07B2
:101DD00003D0E26B42F00802E263E26B002A34D0E7
:101DE000800604D5880602D5204600F032FF206820
:101DF0004069E16BC0F3801001F008010143204607
:101E000024D000F00FFF2068416949061AD54169C6
:101E100021F040014161606BA0B11B490165606B1D
:101E2000FFF7BEF8002810D0606B016DBDE8704070
:101E3000084783060FD58B060DD52046BDE87040B8
:101E400000F007BF2046FFF798FF70BDFFF795FF32
:101E50000020E06370BD030606D50B0604D52046BE
:101E6000BDE8704001F096B84006F3D54806F1D5BC
:101E7000D168204621F04001D160202184F839103A
:101E800000F036FB70BD00004D2B000870B504005B
:101E900004D094F83900002510B106E0012070BD8F
:101EA00084F83850204600F023F8242084F83900C4
:101EB0002068C16821F40051C160204600F014FF81
:101EC0002068016921F4904101612068416921F095
:101ED0002A0141612068C16841F40051C160E56395
:101EE000202084F8390084F83A00002070BD0000FA
:101EF0002DE9F04F87B0044614216846FEF724FB15
:101F0000F848DFF8DCC310382368F64A01270221BD
:101F1000002506154FF003084FF0080B4FF040095D
:101F20004FF0006A634566D1136843F400231360E1
:101F3000126802F400220592026842F00102026077
:101F4000026802F001020592026842F00402026097
:101F5000006802AB00F0040005900220CDE900709B
:101F600083E880096946E048FFF7B4F97000009003
:101F700001AB022083E881096946DC48FFF7AAF932
:101F8000DFF87083DA494046C8F80010C0E901A5BF
:101F9000C0E90356C8F81450C8F81850C8F81C50C7
:101FA000C8F820505746C8F82450FFF7DBF808B1AE
:101FB000FEF7E7FBCF4DCE48C4F8348060353030B3
:101FC000C8F8384085E881020020C5E90306686149
:101FD000A861E861286268622846FFF7C3F808B183
:101FE000FEF7CFFB2563002205213420AC63FFF709
:101FF000D5FA34206DE0DFF800C363456ED1136875
:10200000002543F480131360126802F480120592D5
:10201000026842F004020260026802F004020592C3
:10202000026842F008020260006801AB00F008009C
:1020300005904FF480500090022083E881096946A2
:10204000AA48FFF747F90420009001AB022083E87B
:1020500081096946A948FFF73DF9DFF89882A4494C
:1020600008F1C00830394046C8F80010C0E901A5A1
:10207000C0E90356C8F81450C8F81850C8F81C50E6
:10208000C8F820505746C8F82450FFF76BF808B13D
:10209000FEF777FB96489A4DC4F834807830C8F83C
:1020A000384085E881020020C5E903066861A8611F
:1020B000E861286268622846FFF754F808B1FEF725
:1020C00060FB2563002205213520AC63FFF766FA2B
:1020D0003520FFF755FA07B0BDE8F08FDFF824C2CE
:1020E0004FF0070E63454FD17E4A121D136843F02F
:1020F00010031360126802F010020592026842F0A9
:1021000001020260006800F0010005904FF4C06019
:102110008DE8834169467448FFF7DCF8784F7A48C8
:1021200060373860C7E901A5C7E9035680157D61AE
:10213000C7E906504FF44030C7E908053846FFF7B5
:1021400011F808B1FEF71DFB6763BC636C4F6E4866
:10215000C0377830C7F80890C7E903567D61BD6184
:10216000FD613D627D62C7E9000A3846FEF7FAFF6D
:1021700008B1FEF706FB2763002205212520BC637A
:10218000FFF70CFA2520A4E7DFF880C1634549D1A9
:10219000136843F400331360126802F400320592AE
:1021A000026842F001020260006800F00100059040
:1021B0000C208DE8834169464B48FFF78BF84C486B
:1021C000534F48303860C7E901A5C7E903567D6120
:1021D000BD61FD613D6238467D62FEF7C3FF08B117
:1021E000FEF7CFFA6763BC63494F41486037603000
:1021F000C7F80890C7E903567D61BD61FD613D6286
:102200007D62C7E9000A3846FEF7ACFF08B1FEF769
:10221000B8FA2763002205212620BC63FFF7BEF928
:10222000262056E7DFF8ECC063457AD11368AB4649
:1022300043F480231360126802F48022059202683E
:1022400042F002020260006800F0020005904FF4C4
:1022500040608DE8834169462F48FFF73BF8DFF87F
:10226000B080234908F1C00818394046C8F800106A
:10227000C0E901A5C0E90356C8F81450C8F81850C1
:10228000C8F81C50C8F820505746C8F82450FEF72C
:1022900069FF08B1FEF775FA1548204DC4F834807F
:1022A0001830C8F8384085E88102C5E903B6C5F89A
:1022B00014B0C5F818B0C5F81CB0C5F820B0284651
:1022C000C5F824B0FEF74EFF08B1FEF75AFA2563B1
:1022D000002205212720AC63FFF760F92720F8E6EC
:1022E000004C00404038024000000240000802401C
:1022F00040600240D809002000500040000C02401D
:10230000F80A0020001001404064024000440040F0
:10231000180C00200048004000040240380D002046
:10232000FFE7274A93427FF4D6AE264A136843F06C
:1023300020031360126802F020020592026842F046
:1023400004020260006800F004000590C0208DE8DF
:10235000830969461C48FEF7BDFF1D4F1B484FF01F
:1023600020683860C7E90185C7E903567D61BD6112
:10237000FD613D6238467D62FEF7F4FE08B1FEF76E
:1023800000FA6763BC63124F104860377830C7E9C2
:1023900003567D61BD61FD613D627D6287E8010399
:1023A0003846FEF7DFFE08B1FEF7EBF9276300229F
:1023B00005214720BC63FFF7F1F8472089E60000BC
:1023C00000140140443802400008024028640240E2
:1023D000980D0020F8B5044690F83A0020283CD12A
:1023E000C1B3BAB394F83800012836D0012084F87C
:1023F0003800A162A2850025E563222084F83A0016
:10240000636B1748D863636B16481864636B164890
:10241000D864606B134605650846666B2168024602
:102420003046091DFEF708FF2068016841680091E9
:1024300084F83850C16841F48071C16020684169F6
:1024400041F0010141612068416941F04001416171
:102450000020F8BDFFE70120FBE70220F9E70000BC
:10246000A72B0008E32B00085D2B0008704770477E
:1024700070B5044690F83900202830D169B362B3B2
:1024800094F8380001282AD0012084F8380021620D
:10249000A284E2840025E563212084F83900236BBF
:1024A0001048D863236B10481864236B0F48D86416
:1024B000206B134605652668206B321DFEF7BCFEB7
:1024C00021686FF04000086084F838502068416946
:1024D00041F080014161002070BD012070BD0220EB
:1024E00070BD0000ED2B00081B2C00085D2B0008C0
:1024F00070477047FEE700000F4810B50D490160B6
:102500000621416000214FF400328160C0E90312CE
:10251000120142610176012242768176C17601770D
:102520004177FEF73AFB002803D0BDE81040FEF7E4
:1025300028B910BD00640040C80700200F4810B53E
:102540000D4901600621416000214FF40032816095
:10255000C0E90312120142610176012242768176BE
:10256000C17601774177FEF718FB002803D0BDE85C
:102570001040FEF706B910BD00680040F0070020CB
:10258000394808B5016841F480010160016801F42F
:1025900080010091016841F400110160006800228F
:1025A00000F40010009005210B20FEF7F7FF0B2030
:1025B000FEF7E6FF002205210C20FEF7EFFF0C20BE
:1025C000FEF7DEFF002205210D20FEF7E7FF0D20BC
:1025D000FEF7D6FF002205210E20FEF7DFFF0E20BA
:1025E000FEF7CEFF002205210F20FEF7D7FF0F20B8
:1025F000FEF7C6FF002205211020FEF7CFFF1020B6
:10260000FEF7BEFF002205211120FEF7C7FF1120B3
:10261000FEF7B6FF002205212F20FEF7BFFF2F2077
:10262000FEF7AEFF002205213920FEF7B7FF392063
:10263000FEF7A6FF002205213A20FEF7AFFF3A2061
:10264000FEF79EFF002205214520FEF7A7FF45204B
:10265000FEF796FF002205214620FEF79FFFBDE80A
:1026600008404620FEF78CBF3038024010B596B0C7
:1026700001F0AEFF1C2212496846FDF711FF002150
:10268000684601F069F90F4C0D491C22A0601C310D
:1026900007A8FDF705FF002107A801F05DF908492B
:1026A00020601C2238310EA8FDF7FAFE00210EA88A
:1026B00001F052F9606001F0ABFF16B010BD0000F0
:1026C000245300080000002000B587B0142168469C
:1026D000FDF73AFF19480021026842F080020260CB
:1026E000026802F080020592026842F00102026074
:1026F000026802F001020592026842F002020260E2
:10270000026802F002020592026842F004020260CE
:10271000026802F004020592026842F008020260B8
:102720000068029100F0080005904020CDE900010A
:1027300069460348FEF7CEFD07B000BD30380240C1
:10274000000C02400C4810B50A4901604FF4527168
:10275000416000214FF4FA62C0E902120161802158
:102760008161FFF7DBF9002803D0BDE81040FEF7D8
:1027700008B810BD00200040180800200C4810B513
:102780000A4901604FF416514160002181600C221A
:10279000C160C0E904128161C161FFF777FB0028C5
:1027A00003D0BDE81040FDF7ECBF10BD004C004069
:1027B000580800200C4810B50A4901604FF4E13177
:1027C0004160002181600C22C160C0E90412816176
:1027D000C161FFF75BFB002803D0BDE81040FDF7A7
:1027E000D0BF10BD00500040980800200E4810B522
:1027F0000C4901600D4941604FF480518160002116
:102800004FF48062C0E903120C22C0E90521C161C6
:10281000FFF73CFB002803D0BDE81040FDF7B1BF37
:1028200010BD000000100140D8080020A086010063
:102830000C4810B50A4901604FF4E13141600021B4
:1028400081600C22C160C0E904128161C161FFF79F
:102850001DFB002803D0BDE81040FDF792BF10BD5E
:1028600000440040180900200C4810B50A490160D6
:102870004FF4E1314160002181600C22C160C0E968
:1028800004128161C161FFF701FB002803D0BDE89C
:102890001040FDF776BF10BD0048004058090020E9
:1028A0000C4810B50A4901604FF4E1314160002144
:1028B00081600C22C160C0E904128161C161FFF72F
:1028C000E5FA002803D0BDE81040FDF75ABF10BD5F
:1028D0000014014098090020FEE7704730B4034C13
:1028E0004466034C846630BC01F058B99D3B000837
:1028F000AB3B00080A2001F023F8FBE710B550209D
:1029000080F31188BFF34F8FBFF36F8F02F058FB36
:1029100018B104494FF080500860002080F31188FE
:1029200010BD000004ED00E030B593B030216846E2
:10293000FDF70AFE14210CA8FDF706FE1948002534
:10294000016841F080510160006800F080501190F2
:102950001548016841F4804101600068022400F4D8
:102960008040119001200090000401908001CDE989
:10297000064008200890A820CDE9090404200B9007
:102980006846FEF73BFF0CA90F2081E831004FF4A9
:10299000A0500F90E002109005210CA8FEF730FE29
:1029A00013B030BD4038024000700040104801684C
:1029B00041F4700101600F48016841F001010160BC
:1029C0000C4A00210832116002680B4B1A40026069
:1029D000031D0A4A1A60026822F480220260054838
:1029E0000C300160024958068039086070470000C9
:1029F00088ED00E000380240FFFFF6FE10300024B2
:102A00000148FFF7CDB80000580E0020F0B502686D
:102A1000254C264D264E274F274B4FF0804CA04289
:102A200009D0604507D0A84205D0B04203D0B842D3
:102A300001D0984204D122F0700E4A6842EA0E0298
:102A4000A0421BD0604519D0A84217D0B04215D083
:102A5000B84213D0984211D0184DA8420ED0184D4C
:102A6000A8420BD0174DA84208D0174DA84205D058
:102A7000164DA84202D0164DA84203D122F440754B
:102A8000CA682A434D6922F080022A4302608A689C
:102A9000C2620A688262A04201D0984201D10969EB
:102AA000016301214161F0BD0000014000040040CC
:102AB00000080040000C00400004014000400140BC
:102AC000004401400048014000180040001C004044
:102AD000002000400F4B104A012810D002280DD1D1
:102AE000086898604868D86003F1080090ED000A13
:102AF00082ED000A90ED010A82ED010A7047086834
:102B000018604868586093ED000A82ED020AD060B0
:102B100070470000C4000020F450002010B50448A5
:102B2000FFF72CF9BDE81040014800F0D9BA0000C9
:102B30005808002010B50448FFF720F9BDE8104000
:102B4000014800F0CDBA00009808002010B5806B55
:102B50000021C185C184FFF710F910BD70B5846BE9
:102B60002068406994F83910C0F3C010002521296D
:102B700004D118B1E584204600F062F8206840696D
:102B800094F83A10C0F38010222904D118B1E585D9
:102B9000204600F047F8E06B40F01000E06320466C
:102BA000FFF7EBF870BD10B50146806B0968096846
:102BB000C90513D40021C1850168CA6822F4807256
:102BC000CA6001684A6922F001024A6101684A69E3
:102BD00022F040024A61202180F83A10FFF746FCBB
:102BE00010BD10B5806BFFF742FC10BD10B501465B
:102BF000806B09680968C9050CD40021C18401688B
:102C00004A6922F080024A610068C16841F04001CF
:102C1000C16010BDFFF76CFC10BD10B5806BFFF7F5
:102C200068FC10BD0168CA6822F49072CA6001682D
:102C30004A6922F001024A61202180F83A10704767
:102C40000168CA6822F0C002CA60202180F83910E9
:102C5000704710B590F83A10222901D0022010BD1B
:102C60008168B1F5805F11D00169002901681FD02A
:102C7000496801F07F03816A4A1C82620B70C18D32
:102C8000491E0904090CC18518D02BE00269816A2C
:102C9000002A0268526805D0D2B20A80816A491CB3
:102CA0008162ECE7C2F308020A80816A891CF7E7B7
:102CB0004A68816A4B1C83620A70E0E70168CA684F
:102CC00022F02002CA600168CA6822F48072CA60D9
:102CD00001684A6922F001024A61202180F83A1015
:102CE000FFF7C4FB002010BD2DE9F0410446006849
:102CF0000169E26821F44051114301612169A06832
:102D0000E26908436169114322680843D16849F2C6
:102D10000C6399430143D16020684169A26921F4A1
:102D2000407111434161E2696425B2F5004F974853
:102D3000974922684FF032083FD08A4201D0824240
:102D40007CD1FEF725FD00EBC00101EB00106168AE
:102D50008900B0FBF1F6FEF71BFD00EBC00101EBB3
:102D6000001061688900B0FBF1F0B0FBF5F06FF086
:102D70001801484306EB800108EB0110B0FBF5F0A9
:102D800000F0F006FEF704FD00EBC00101EB0010BF
:102D900061688900B0FBF1F0B0FBF5F006EB0016BE
:102DA000FEF7F6FC00EBC00101EB00106168890042
:102DB000B0FBF1F7FEF7ECFCD2E08A4201D0824290
:102DC0003DD1FEF7E5FC00EBC00101EB00106168AE
:102DD0004900B0FBF1F0B0FBF5F00601FEF7D8FCBE
:102DE00000EBC00101EB001061684900B0FBF1F796
:102DF000FEF7CEFC00EBC00101EB0010616849005A
:102E0000B0FBF1F0B0FBF5F06FF01801484307EBB1
:102E1000800108EBC100B0FBF5F000F0F80006EB14
:102E20004006FEF7B5FC00EBC00101EB0010616845
:102E30004900B0FBF1F7FEF7ABFC3CE055E0FEF7D4
:102E400097FC00EBC00101EB001061684900B0FB8A
:102E5000F1F0B0FBF5F00601FEF78AFC00EBC001D3
:102E600001EB001061684900B0FBF1F7FEF780FC50
:102E700000EBC00101EB001061684900B0FBF1F00C
:102E8000B0FBF5F06FF01801484307EB800108EB49
:102E9000C100B0FBF5F000F0F80006EB4006FEF7CD
:102EA00067FC00EBC00101EB001061684900B0FB5A
:102EB000F1F7FEF75DFC00EBC00101EB001061686B
:102EC0004900B0FBF1F0B0FBF5F06FF0180148439A
:102ED00007EB800108EBC100B0FBF5F000F0070044
:102EE000216830448860BDE8F081FEF741FC00EBCA
:102EF000C00101EB001061688900B0FBF1F6FEF73C
:102F000037FC00EBC00101EB001061688900B0FBE9
:102F1000F1F0B0FBF5F06FF01801484306EB8001CB
:102F200008EB0110B0FBF5F000F0F006FEF720FC16
:102F300000EBC00101EB001061688900B0FBF1F00B
:102F4000B0FBF5F006EB0016FEF712FC00EBC0013B
:102F500001EB001061688900B0FBF1F7FEF708FC97
:102F600000EBC00101EB001061688900B0FBF1F0DB
:102F7000B0FBF5F06FF01801484307EB800108EB58
:102F80000110B0FBF5F000F00F00A9E700140140BC
:102F90000010014090F83910212901D0022070471B
:102FA0008168B1F5805F016A0BD04A1C0262026839
:102FB00009785160C18C491E0904090CC1840ED0E6
:102FC00017E009880268C1F308015160016900290E
:102FD000016A02D0491C0162ECE7891CFBE7016829
:102FE000CA6822F08002CA600068C16841F04001EE
:102FF000C16000207047000010B50448FEF7BEFE17
:10300000BDE81040014800F06BB80000D80800206F
:1030100010B50448FEF7B2FEBDE81040014800F0CC
:103020005FB800001809002010B50448FEF7A6FE9E
:10303000BDE81040014800F053B8000058090020D6
:1030400010B50448FEF79AFEBDE81040014800F0B4
:1030500047B800009809002070B504460068194977
:1030600088420CD11849194801F0BAF912211648C2
:10307000FDF748FA122214491548FFF7ABF9154934
:1030800020680025144E884209D1304600F04CFCDF
:103090003580B570032231462046FFF79BF90F4972
:1030A000206888420DD10C48C01C00F0D9FBC6F83E
:1030B00003502046BDE8704007490422C91CFFF7B1
:1030C00089B970BD00100140BA4F0020A44F002004
:1030D000D808002000500040940000200014014057
:1030E00038B5016804460868C043C0060AD40868B9
:1030F000486800902046FEF714FE2046BDE83840A0
:10310000FFF7AABF38BD0000124810B50068C168BB
:1031100041F01001C16012220F490E48FFF75AF921
:103120000E480068C16841F01001C16003220C49DB
:103130000A48FFF74FF90B480068C16841F01001D9
:10314000C16007490422BDE81040C91C0548FFF7CB
:1031500041B90000D8080020BA4F0020980800208C
:103160009400002098090020FEE70907090E0028B6
:1031700004DB00F1E02080F80014704700F00F003D
:1031800000F1E02080F8141D704730EE201AD0EDD9
:10319000001AF4EEC11AF1EE10FA02DCB0EE611A78
:1031A00001E080ED001A30EEC00AB4EEC01AF1EE74
:1031B00010FA01D280ED000A7047000000B58BB014
:1031C0000020012103900490CDE90601CDE908100B
:1031D000059000900190029069461448FDF7E4FACA
:1031E00069461248FDF7E0FA0028F9D10E20059053
:1031F00069460F48FDF7D8FA69460D48FDF7D4FA3D
:103200000028F9D16420FEF753F80848FDF74EFE78
:1032100002210648FDF7B6FA0548FDF747FE0221F0
:103220000348FDF7AFFA0BB000BD0000C80700204F
:10323000F007002010B5D0ED000A0E4800F16C0137
:10324000C0ED0A0A098800EE101AB8EE400A80EDB7
:10325000090A094800F0AAFBBDEEC00A10EE100AE8
:1032600000B200EE100A0548B8EEC00A80ED020A6E
:1032700010BD000014510020CC4E0020D8000020CA
:1032800010B5154C90ED000A04F16C0084ED040AB1
:1032900090ED020AA0F1600184ED030A9FED0F0A90
:1032A0005C3800F0BBF884ED050A94ED031A0C4875
:1032B00071EE000AB0EE410A00F078FBBDEEC00AE4
:1032C00010EE100A00B2404200EE100A0548B8EEB7
:1032D000C00A80ED010A10BD145100200000B44363
:1032E000604E0020D80000200B4803219FED0B0A00
:1032F000017041700A4880ED010A80ED020A9FEDDD
:10330000090A80ED040AC1700721417006490020B6
:103310000870487070470000D80000200000344357
:103320009C51002000007042D400002010B54FF4E2
:103330007A542DED028BB2EE080A9FED2F8ADFED55
:103340002F8A0023B0EE481AF0EE680A22460321C5
:103350002B48FFF7C3FA2A48B0EE481AF0EE680A85
:10336000B2EE080A0023224603216C30FFF7B6FABA
:103370002348B0EE481AF0EE680AB2EE080A0023BD
:1033800022460321D830FFF7A9FAB0EE481AF0EE32
:10339000680AB2EE080A0023224603211948FFF703
:1033A0009DFAB0EE481AF0EE480A9FED170A002386
:1033B000224603211548FFF791FAB7EE001AF0EE06
:1033C000480A9FED130A002345F6D812032111483D
:1033D000FFF784FAF0EE480ABDEC028B0023BDE84B
:1033E0001040B7EE001AB2EE040A43F2C8220321DD
:1033F0000948FFF773BA000000000000CDCCCC3DB7
:10340000B04C0020F44D002000007043604E0020BE
:1034100000000C42CC4E0020384F0020F0EE400A55
:1034200090ED001A91ED000AB4EEC01AF1EE10FA18
:103430000DDD31EE400AB6EE001A20EE811AB4EE30
:10344000C10AF1EE10FA01DD30EE600A70470DD2CC
:1034500031EE400ABEEE001A20EE811AB4EEC10A27
:10346000F1EE10FAF2D230EE200A70479FED010A19
:10347000704700000000000010B564224FF4FA719C
:10348000032001F00DF8502000F05AFA64220021C8
:10349000012001F005F8BDE81040502000F050BABE
:1034A00010B564224FF42F71032000F0F9FF502073
:1034B00000F046FA64229621012000F0F1FFBDE8F9
:1034C0001040502000F03CBA10B56422FA210320CD
:1034D00000F0E6FF502000F033FA6422962101202C
:1034E00000F0DEFFBDE81040502000F029BA0000D7
:1034F00010490220104F114E087000250C46E0883C
:10350000401C81B2E1807878012807D0A58030780E
:1035100038B1012807D0022805D006E00120A0809C
:10352000F5E7032901D36080E5800A2000F008FA5E
:10353000E5E70000160100200C010020D600002065
:10354000094C6088012803D028B1022806D007E082
:10355000FFF7A6FF04E0FFF78FFF01E0FFF7B4FFDE
:103560000A2000F0EDF9ECE7160100204A8852BA73
:1035700082818A8852BAC2814388838009884ABA84
:103580004280D31A0169B3F5805F01DB491E03E075
:1035900013F5805F01DC491C016102EB41310288B7
:1035A000891A8160704700002DE9F0470E46DFF868
:1035B000E09038490546B9F80200498895ED000ABF
:1035C0004FF0050809F11C0488422ED310EE100AB2
:1035D00031490427884209D010EE100A2F49884249
:1035E00004D010EE100A2E49884204D12D49002043
:1035F00008704870677095ED000AB5EEC00AF1EEEC
:1036000010FA09D0B5EEC00AF1EE10FA04D010EEAF
:10361000100A2549884211D11D49224A1331881EBA
:1036200000F02CF9B0B195ED000AD6ED000AB4EE29
:10363000600AF1EE10FA01D184F801806078042864
:103640000AD0052803D0062820D0072800D1012061
:10365000BDE8F0876770F1E70D4D99F810106C3DEB
:1036600089B199F8120070B105F19800FFF7E2FDF9
:1036700085ED000A00F010F9201DFFF701FE85ED31
:10368000020A0020E4E79FED090AF1E70220DFE7E4
:1036900080510020D80000200000B4420000874381
:1036A00000003443D40000200000B44300000000B8
:1036B0000F4810B5017C00F11C0319B9807C08B9D2
:1036C0000020D870D87838B1012804D0022802D060
:1036D000032800D1012010BD00F0DEF8181DFFF70F
:1036E000CFFD03486C3880ED020A002010BD0000B9
:1036F0008051002010B590ED000AD1ED000A13486A
:10370000B4EE600AF1EE10FA01D00E2100E00C21B7
:103710008170C8B20C2807D00D2803D00E2805D020
:103720000F2800D1012010BD002010BD074C9FEDD7
:10373000080A883C04F1900084ED000A84ED010A37
:10374000FFF79EFD84ED020A022010BD9C5100206F
:103750000000000070B53949B1F91400002800DA02
:103760004042364C4FF4FA721C34904216DBB1F9E9
:103770001600002800DA404290420FDBB1F9180031
:10378000002800DA4042904208DBB1F91A00002814
:1037900000DA4042904201DB092000E00A2020705C
:1037A000C0B2082806D0092806D00A2817D00B284E
:1037B00001D112E0002070BD40F6B83000F092FE5A
:1037C0001E482C30FFF736FD1C4D201D6C3D85ED4D
:1037D000000AFFF755FD85ED020A012070BD94ED4A
:1037E000010A174910EE100ADFED160A884201D1CE
:1037F000C4ED020A10EE100A1349884203D19FED6E
:10380000131A84ED021AB5EEC00AF1EE10FA03D1D4
:103810009FED0F1A84ED021A10EE100A0D4988422E
:1038200003D19FED0D1A84ED021A10EE100A0B4918
:10383000884201D1C4ED020A022070BD80510020EF
:10384000000034430000B4420000B4420000000015
:1038500000008743000087430000B4430000B443E6
:103860000178112907D1C1782B2904D10249427866
:103870000A708078487070470C010020037801209E
:103880000BB9097819B110705070002070470020F2
:1038900010705078704700000949F1EE080A094A93
:1038A00091ED010A30EE200A10EE100A81ED010AB6
:1038B000904203DD9FED040A81ED010A704700008C
:1038C0001451002000204B4600204B46FDF7E8FD38
:1038D000FFF72AF8FEF7F8FEFEF752FEFEF786FF26
:1038E000FEF730FFFEF72AFEFEF706FEFEF7BCFFEE
:1038F000FEF744FFFEF75EFFFEF79AFFFEF7D0FFEC
:10390000FFF702FCFFF75AFCFFF710FDFFF7ECFC96
:10391000FEF7ACFE00F01BF8FEE70146002084290C
:1039200000D0C81C7047000001782C2905D181788F
:103930005B2902D10149407808707047D600002009
:1039400010B500B9012000F017FF002010BD10B520
:1039500000F07AFF002010BD7FB50D460446416996
:10396000B0F9080081B1A16971B1FFF7D6FFD4E9C0
:1039700005128DE80700D4E900102B46226901F0FA
:10398000E0FA039004B070BDFFF7C7FF03A9CDE9CB
:103990000001208A2B4682B2D4E9001001F0A4FA7B
:1039A000012801D00020EDE70398EBE710B5B0EE59
:1039B000601AF0EE401A2DED028B71EE610AC0ED37
:1039C000081A80ED051AC0ED0B0A90ED142A044682
:1039D0009FED710A31EE611AB5EEC02AB1EE411ABF
:1039E000F1EE10FA0ED0F5EEC00AF1EE10FA02DD9B
:1039F000F0EE601A01E0F0EE411AF4EEC21AF1EEB8
:103A000010FA7CDCD4ED151AF5EEC01AF1EE10FABE
:103A10000BD0F5EEC00AF1EE10FA01DDB0EE601A3F
:103A2000B4EEE11AF1EE10FA69D3A16D04F134009D
:103A3000032902D004293FD08AE094ED001AB0EEA9
:103A4000408A21EE201A84ED0C1A94ED0D1AD4ED63
:103A5000011A01EEA01A84ED0D1A94ED0A1A70EE07
:103A6000C10A94ED021A60EE810AC4ED0E0AD4ED8B
:103A7000180AB8EE601AF0EE480AB0EE410AFFF7F5
:103A800084FB94ED0C0AD4ED0D0A04F13C0030EEF9
:103A9000200AD4ED0E0A30EE200AF0EE480A84ED3A
:103AA0000F0A94ED170AB8EE400AFFF76EFB94ED8B
:103AB0000F0A84ED100A4BE094ED0A1A94ED002AE7
:103AC00070EEC11A61EE821AC4ED0C1AD4ED011A1F
:103AD00061EEA01AC4ED0D1AF0EE001A41EE610A73
:103AE00094ED091A70EE810A94ED021A60EE810AD3
:103AF000C4ED0E0AD4ED180AB8EE601A00E044E0F6
:103B0000B0EE408AB0EE410AF0EE480AFFF73DFB06
:103B100094ED0C0AD4ED0D0A04F1480030EE200AB1
:103B2000D4ED0E0A30EE200A84ED110AD4ED130A0A
:103B300030EE800AF0EE480A84ED120A94ED170A7E
:103B4000B8EE400AFFF721FB94ED120A84ED130A48
:103B500094ED0A0A84ED090A94ED0B0A84ED0A0A31
:103B600094ED070A84ED060A94ED080A84ED070A2D
:103B700094ED040A84ED030A94ED050A84ED040A29
:103B8000A06D032804D094ED120ABDEC028B10BD89
:103B900094ED0F0AF9E700000000000000F1580C56
:103BA0008CE80E0080EC030A704780EC030A704733
:103BB0002DE9F041184C0F46054666692068001D46
:103BC00000F0AAFC38B9206890F82C100120884039
:103BD000A1698143A161681C07D137B12168BDE8A3
:103BE000F0410E48091D00F0E7BC20683544B5429D
:103BF0004560216805D2A068BDE8F041091D00F0CC
:103C0000C3BC6068091D00F0BFFC206B854200D278
:103C10002563BDE8F081000020000020B40F0020E3
:103C20002DE9F041054600F0D3FC2E4C2069401CE4
:103C3000206120682C4F10B1E06940B32DE0256071
:103C40002069012829D1002606EB860007EB8000B9
:103C500000F08CFC761C072EF6D323488C3000F045
:103C600085FC2148A03000F081FC1F48B43000F0F2
:103C70007DFC1D48C83000F079FC1B48DC3000F0AA
:103C800075FC19488C3060601430A06005E0206835
:103C9000E96AC06A884200D82560E06A401CE06298
:103CA000E96A0120A26988401043A06101EB81000C
:103CB00007EB8000291D00F07FFC00F0A9FCE06903
:103CC00000280CD02068E96AC06A884207D20749F8
:103CD0004FF080500860BFF34F8FBFF36F8FBDE888
:103CE000F081000020000020D80E002004ED00E04C
:103CF00038B500F06DFC104CA068C8B90F4800F052
:103D000035FC0E48143000F031FC0C4820601430B3
:103D100060600A4B00202833009003F148020C2118
:103D20000A2000F085FEA06010B105A100F0EEFCB5
:103D3000BDE8384000F06CBC5C000020C80F0020DB
:103D4000546D72510000000030B4026C0B46002A22
:103D50000BD0C1681144C1604468A14201D301681D
:103D6000C16030BC1846FCF756BB30BC70472DE92B
:103D7000F041856B174604460026026C82B1C7B13C
:103D8000E068FCF748FBE168206C091AE1602268F2
:103D9000914202D26168081AE060022F16D017E043
:103DA0002068A8B9606801F06FF9064600206060DD
:103DB0000EE0A068FCF72FFB216CA0680844A0600F
:103DC0006168884204D32068A06001E005B16D1EDF
:103DD0006D1CA5633046BDE8F08110B5044690F82F
:103DE000510058B101280CD002280FD0502080F388
:103DF0001188BFF34F8FBFF36F8FFEE7206B00F08A
:103E00001BFC2046BDE8104000F016BC10BD0000B1
:103E100010484FF47051420706D0C01D0D4920F0E4
:103E20000700411AC1F570510B4A00230144C2E951
:103E300000030839103A21F0070111604B600B6054
:103E40000B1AC0E9001393604FF000405360D0603C
:103E500070470000B010002080000020144E154C68
:103E6000A6F1C8074FF08058DFF84C9012E000BF71
:103E700000F0AEFBF068C568281D00F04DFB20691E
:103E8000401E2061E068401EE06000F0C1FB284653
:103E9000FFF7A3FFE0680028EAD138680128F9D9C4
:103EA000C9F80080BFF34F8FBFF36F8FF2E70000B8
:103EB000A00F00202000002004ED00E00346009841
:103EC00029B10260C0E90F31012100F0E5BD0060B9
:103ED000F8E72DE9F0479A46DDE9098481466FF05D
:103EE0000303206B03EB82021044089D20F00706B9
:103EF000700707D0502080F31188BFF34F8FBFF3B6
:103F00006F8FFEE723180A5C83F834200A5C12B135
:103F1000401C1028F6D3002784F84370072D00D3E7
:103F20000625E562C4E91157201D00F02AFB04F1C3
:103F3000180000F026FB2461C5F107006462A0614F
:103F4000E76484F8507052464946304600F032FA31
:103F50002060B8F1000F01D0C8F80040BDE8F0873C
:103F600030B5114900E011460A688242FBD34B6824
:103F70005C18844203D1406818444860084643688E
:103F80001C18944209D1084C103C2468A24209D064
:103F900052681A4442600A6812680260814200D086
:103FA000086030BD0460F9E78000002070B500248F
:103FB00041600B4D0061914206D8D11A826991424D
:103FC00006D2011D686807E09A4203D2994201D3E4
:103FD000012403E0011D286800F0D6FA204670BDD8
:103FE0005C00002010B5044600F0F2FAA06B28B186
:103FF0005FF0000400F00CFB204610BD0124F9E73F
:1040000030B587B02C4D4EE0049800284BDB069C61
:10401000606910B1201D00F07FFA02A800F0B8F826
:10402000024604980A283ED2DFE800F00505053D67
:10403000263705053D260598A1690346014420461B
:10404000FFF7B4FF00B3616A20468847E0690128A2
:1040500029D1002000900598A16900234218194633
:10406000204601F029F978B9502080F31188BFF378
:104070004F8FBFF36F8FFEE70598A06128B18118BD
:1040800013462046FFF792FF0DE0502080F3118881
:10409000BFF34F8FBFF36F8FFEE794F8280010B97E
:1040A000204600F0C9FA002204A9A86800F046FEE4
:1040B0000028A9D107B030BD5C0000202DE9FC41EB
:1040C0000F46054600F004FC01A800F061F8044624
:1040D000019818B101F05EF8BDE8FC81224EAFB145
:1040E00070680068A8B30027291B3A46B06800F042
:1040F00021FB01F04FF80028EED11C494FF0805011
:104100000860BFF34F8FBFF36F8FE5E7A542EBD891
:1041100001F040F830682746C068C468201D00F0F0
:10412000FBF9E069012810D1A0692B4641193A46F4
:104130002046FFF73BFF40B10020034601460090B8
:104140002A46204601F0B8F820B1616A2046884727
:10415000C2E707E0502080F31188BFF34F8FBFF311
:104160006F8FFEE70127BFE75C00002004ED00E051
:1041700006484168096829B14168C968C968496841
:10418000016370474FF0FF31FAE700002000002084
:1041900070B5054600F00EFF064E044630698442B5
:1041A00003D200F009F8012000E00020286020463A
:1041B000346170BD5C000020F8B5194D1FE0C06887
:1041C000C4680668201D00F0A7F9616A2046884788
:1041D000E069012813D1A0693044B04206D92461B6
:1041E0006060211D286800F0CFF908E00020034638
:1041F000014600903246204601F05EF838B128684A
:1042000001680029DBD16968C5E90010F8BD5020BC
:1042100080F31188BFF34F8FBFF36F8FFEE700006D
:104220005C00002008484068401C4FF0500080F3BC
:10423000118804D0BFF34F8FBFF36F8FFEE7BFF33A
:104240004F8FBFF36F8FFEE788000020074C206878
:10425000016841B1C0680021D0F80000FFF72EFFCF
:10426000FFF7CEFEF3E701210020F7E75C00002016
:104270002DE9F041044600F0ABF994F9455004F102
:10428000240609E0606A48B1304600F049FF08B1F1
:1042900000F0A0FA6D1E6DB2002DF3DC4FF0FF367A
:1042A00084F8456000F0B4F900F092F994F94450B4
:1042B00004F1100709E0206948B1384600F030FFEA
:1042C00008B100F087FA6D1E6DB2002DF3DC84F8A2
:1042D0004460BDE8F04100F09BB900002DE9F041D9
:1042E0000546002700F0F4FA314E306808B9FFF7B0
:1042F0008FFDF06805424BD1C5B3083568070ED075
:1043000005F00700C0F108000544680707D05020F9
:1043100080F31188BFF34F8FBFF36F8FFEE72DB38C
:104320007068854234D82248103001460C6801E09C
:1043300020460C466168A94202D221680029F7D1C3
:1043400031688C4224D007682168016060680837B2
:10435000411B10290FD96019420708D0502080F363
:104360001188BFF34F8FBFF36F8FFEE710E04160FE
:104370006560FFF7F5FD61687068401A7060B268AB
:10438000904200D2B060F06801430020C4E900010F
:1043900000F000FF780707D0502080F31188BFF3AA
:1043A0004F8FBFF36F8FFEE73846BDE8F081000006
:1043B0007000002010B5031F4FF080741C601B1F9D
:1043C00021F001011960191F044B0B6014390A60B8
:1043D000091F6FF0020244380A6010BD2542000830
:1043E0002DE9F041054608880C46C0F30A02A2F503
:1043F00080622A8048788978C00840EA4110C0F37A
:104400000A03A3F580636B80A078E178800940EA15
:104410008100217902F5257240EA8120C0F30A016A
:10442000A1F58061A98020796679400840EAC6102C
:10443000C0F30A00A0F58060E880268AA6F58066B1
:1044400036B22E816779BF09AF726779C7F301175A
:10445000EF724FF4A567BA420FD803F52573BB423C
:104460000BD801F52571B94207D800F52570B8427F
:1044700003D806F52576BE4203D916212846FCF757
:1044800041F8E088A8812089E88160892882207B22
:10449000A874607BE874E089A882BDE8F081000020
:1044A00030B41F2818D8002A16D00C4B55245C7045
:1044B0001C7008249C700324DC7001241C715A7148
:1044C000120A9A71D871080A1972587230BC0A22FD
:1044D00019460348FDF7CCBF30BC70470851002097
:1044E0005808002000EE100A0949B8EEC00AD1EDC4
:1044F000010A30EEC00A81ED010AB5EEC00AF1EE04
:1045000010FA03D29FED030A81ED010A7047000003
:104510001451002000000000D0E9013201699A60C6
:10452000D0E901235A604A68824201D182684A6018
:10453000002202610868401E086008687047000099
:10454000034B036003F15400086080201060704743
:1045500020010020044B036003F1540008604FF475
:1045600080701060704700007403002000F10801A3
:104570004FF0FF32C0E90112C1600161002101600A
:10458000704700210161704730B50B685A1C02D09A
:1045900000F1080202E0026904E02246546825683E
:1045A0009D42FAD953684B6099608A6051600861F6
:1045B0000168491C016030BD42684A6093688B60A5
:1045C00093685960916008610168491C01607047F7
:1045D000502080F31188BFF34F8FBFF36F8F0A49CC
:1045E0004868401C486001280CD10848006810F059
:1045F000FF0F07D0502080F31188BFF34F8FBFF318
:104600006F8FFEE7704700008800002004ED00E097
:104610000849486828B1401E486001D180F31188DC
:104620007047502080F31188BFF34F8FBFF36F8F17
:10463000FEE700008800002070B5002827D0144D48
:10464000A0F108046168E868014207D1502080F3B6
:104650001188BFF34F8FBFF36F8FFEE722683AB127
:10466000502080F31188BFF34F8FBFF36F8FFEE7A9
:104670008143616000F02CF96068696808446860F3
:104680002046FFF76DFCBDE8704000F083BD70BDB3
:10469000700000204FF0E020002101618161054998
:1046A0004FF47A720968B1FBF2F1491E41610721AA
:1046B000016170471C00002010B5FBF711FE114985
:1046C00010280ED300F1E02090F8F0030A78904211
:1046D00007D2502080F31188BFF34F8FBFF36F8F45
:1046E000FEE709480068896800F4E060884207D95D
:1046F000502080F31188BFF34F8FBFF36F8FFEE719
:1047000010BD0000880000200CED00E010B5084B43
:10471000002200BF53F832401CB1521C082AF9D3C2
:1047200010BD43F8321003EBC201486010BD000019
:10473000980E002070B515460E460446FFF748FF58
:1047400094F944100020491C01D184F8440094F9E4
:104750004510491C01D184F84500FFF759FFA06BB3
:1047600028B92A46314604F1240000F051F82046C9
:10477000BDE87040FFF77CBD10B5020014D00F48B3
:10478000806B38B1502080F31188BFF34F8FBFF397
:104790006F8FFEE700F09CF800211046FFF708FA43
:1047A00000F0F8FC002807D105494FF08050086060
:1047B000BFF34F8FBFF36F8F10BD000020000020AC
:1047C00004ED00E002498A6A02604969416070476D
:1047D000200000200149012048627047200000208D
:1047E00010B50C4650B1094909681831FFF7CCFEE5
:1047F0002046BDE810400121FFF7DAB9502080F3D0
:104800001188BFF34F8FBFF36F8FFEE720000020AA
:1048100070B514460D4668B10A4909681831FFF7AA
:10482000CBFE0CB14FF0FF3521462846BDE8704065
:10483000FFF7BEB9502080F31188BFF34F8FBFF34D
:104840006F8FFEE72000002030B587B0002403946E
:1048500005AA04A903A80494FFF772FEDDE9030189
:104860000094CDE90110002315A11748059A00F026
:1048700068FB164D002868631FD000F0EDFC01288E
:1048800009D0401C19D1502080F31188BFF34F8FFD
:10489000BFF36F8FFEE7502080F31188BFF34F8F77
:1048A000BFF36F8F4FF0FF3028630120E8616C6128
:1048B00007B0BDE8304000F041B807B030BD00009F
:1048C00049444C45000000005D3E000820000020E7
:1048D0000248816B491C8163704700002000002062
:1048E0001448816B11B1012141627047002141627E
:1048F0008169B1FA81F1C1F11F0101EB81020E4919
:1049000051F822306BB101EB820101F108034A68D2
:1049100052684A609A4201D152684A60D168016087
:104920007047502080F31188BFF34F8FBFF36F8F14
:10493000FEE7000020000020D80E00201CB53748FC
:104940000168374A914207D1502080F31188BFF3A4
:104950004F8FBFF36F8FFEE700683149491E8842D1
:1049600007D1502080F31188BFF34F8FBFF36F8FB3
:10497000FEE72C4908780190FF20087008788DF830
:1049800000009DF800009DF8002000F0F00090422B
:1049900007D0502080F31188BFF34F8FBFF36F8F84
:1049A000FEE79DF80000204B00F050001870072033
:1049B000986005E09DF8002052008DF80020401E10
:1049C0009DF800201206F5D49860032807D05020E7
:1049D00080F31188BFF34F8FBFF36F8FFEE74FF463
:1049E00040709860019808700C482030016841F4CC
:1049F00070010160016841F070410160FFF74AFEFB
:104A000000205860FBF734FC0848016841F0404141
:104A10000160FBF719FC00201CBD000000ED00E068
:104A200071C20F4100E400E08800002034EF00E094
:104A300038B5049D18B153B1CAB181B120E05020FE
:104A400080F31188BFF34F8FBFF36F8FFEE75020C5
:104A500080F31188BFF34F8FBFF36F8FFEE75020B5
:104A600080F31188BFF34F8FBFF36F8FFEE739B12B
:104A7000502080F31188BFF34F8FBFF36F8FFEE795
:104A800048241C46012384F846302B460094FFF747
:104A900015FA204638BD000070B50D46040025D03B
:104AA000FFF796FDD4E90F20216802FB0011616039
:104AB0000021A1632168A1600A46D4E90F01401ECC
:104AC00000FB0121E16021464FF0FF3001F8440F67
:104AD000487004F110008DB1FFF748FD04F1240087
:104AE000FFF744FDFFF794FD012070BD502080F3D7
:104AF0001188BFF34F8FBFF36F8FFEE72169002945
:104B0000F0D000F00DFB0028ECD004494FF08050AD
:104B10000860BFF34F8FBFF36F8FE3E704ED00E052
:104B20002DE9FF4782B01D468A464FF00008040079
:104B300003D0BAF1000F08D011E0502080F31188A3
:104B4000BFF34F8FBFF36F8FFEE7206C38B150205B
:104B500080F31188BFF34F8FBFF36F8FFEE7022DF5
:104B60000AD1E06B012807D0502080F31188BFF3F1
:104B70004F8FBFF36F8FFEE700F00EFA3F4F4FF0FD
:104B800000094FF0805648B9049838B1502080F39E
:104B90001188BFF34F8FBFF36F8FFEE7FFF718FD4C
:104BA000A06BE16B884207D3022D05D00498D0B1E9
:104BB000B8F1000F1AD01EE02A4651462046FFF7F2
:104BC000D6F8616A19B104F1240000F0A9FA20B105
:104BD0003E60BFF34F8FBFF36F8FFFF719FD0120CA
:104BE00006B0BDE8F087FFF713FD22E06846FFF747
:104BF000E9FD4FF00108FFF70BFDFFF769FEFFF736
:104C0000E7FC94F94400401C01D184F8449094F9E5
:104C10004500401C01D184F84590FFF7F9FC04A938
:104C2000684600F027F930B12046FFF721FB00F07D
:104C3000B1FA0020D4E7FFF7CBFCA06BE16B884210
:104C400013D1FFF7E5FC04F110000499FFF7C8FD4C
:104C50002046FFF70DFB00F09DFA00289ED13E6034
:104C6000BFF34F8FBFF36F8F98E7FFF7D1FC20465C
:104C7000FFF7FEFA00F08EFA90E7000004ED00E086
:104C80002DE9F0471F4690468946040003D0B9F14C
:104C9000000F08D011E0502080F31188BFF34F8F30
:104CA000BFF36F8FFEE7206C38B1502080F311887E
:104CB000BFF34F8FBFF36F8FFEE7022F0AD1E06B78
:104CC000012807D0502080F31188BFF34F8FBFF326
:104CD0006F8FFEE7FFF7F0FC5020EFF3118680F3B3
:104CE0001188BFF34F8FBFF36F8FA06BE16B8842CA
:104CF00006D3022F04D0002086F31188BDE8F08788
:104D000094F945503A4649462046FFF730F8681C6A
:104D100004D06D1C84F845500120EDE7606A00283E
:104D2000FAD004F1240000F0FBF90028F4D0B8F127
:104D3000000FF1D00121C8F80010EDE72DE9F74789
:104D4000002683B08A46040003D0BAF1000F08D0D1
:104D500011E0502080F31188BFF34F8FBFF36F8FA6
:104D6000FEE7206C38B1502080F31188BFF34F8FDD
:104D7000BFF36F8FFEE700F00FF9DFF8F4804FF01C
:104D800000094FF0805748B9059838B1502080F39A
:104D90001188BFF34F8FBFF36F8FFEE7FFF718FC4B
:104DA000A56BC5B151462046FEF7CEFF6D1EA5632B
:104DB000206950B104F1100000F0B2F928B1C8F830
:104DC0000070BFF34F8FBFF36F8FFFF721FC0120FF
:104DD00006B0BDE8F087059808B11EB106E0FFF700
:104DE00017FC27E06846FFF7EDFC0126FFF710FCF3
:104DF000FFF76EFDFFF7ECFB94F94400401C01D176
:104E000084F8449094F94500401C01D184F8459001
:104E1000FFF7FEFB05A9684600F02CF800282046A5
:104E20000AD0FFF725FA00F0B5F92046FFF7DAF8C7
:104E30000028B3D00020CBE7FFF7D4F890B104F1FD
:104E400024000599FFF7CCFC2046FFF711FA00F08B
:104E5000A1F90028A2D1C8F80070BFF34F8FBFF3AB
:104E60006F8F9BE72046FFF703FA00F093F995E771
:104E700004ED00E02DE9F0410C46050011D0C4B16D
:104E8000FFF7A6FB174B5A696E682068911B471CF9
:104E900017D02F689B6A9F4219D0964217D80124D9
:104EA00010E0502080F31188BFF34F8FBFF36F8F56
:104EB000FEE7502080F31188BFF34F8FBFF36F8F51
:104EC000FEE70024FFF7A4FB2046BDE8F0818842FE
:104ED00005D9401A20602846FFF774FCF1E700204E
:104EE0002060DCE7200000202DE9FF5F8346DDE93C
:104EF0000E87994616468A469000FFF7EFF905009F
:104F00001CD05420FFF7EAF9040014D000202563D8
:104F100084F85100CDE90240CDE900874B46324686
:104F200051465846FEF7D5FF2046FEF779FE012090
:104F300004B0BDE8F09F2846FFF77EFB4FF0FF303E
:104F4000F6E7F0B585B0DDE90B640A9DA6B1DCB1EA
:104F5000542700972663022684F85160002604AF88
:104F6000CDE90246CDE90057FEF7B3FF2046FEF734
:104F700057FE049805B0F0BD502080F31188BFF3B0
:104F80004F8FBFF36F8FFEE7502080F31188BFF380
:104F90004F8FBFF36F8FFEE70548C16919B1806B72
:104FA00018B10020704701207047022070470000B0
:104FB00020000020014840697047000020000020C8
:104FC0002DE9F0412E4C0027A06B40B1206A401C17
:104FD0002062606A00B101273846BDE8F081666949
:104FE000761C666113D16068006838B1502080F388
:104FF0001188BFF34F8FBFF36F8FFEE76068A16822
:105000006160A060A06A401CA062FFF7B1F8206B4D
:10501000DFF87080864209D36068006880B16068FC
:10502000C068C568686886420DD220632068C06A7F
:1050300000EB800158F821000128CAD90127C8E7F0
:105040004FF0FF30F1E7281DFFF766FAA86A18B1A4
:1050500005F11800FFF760FAE86A0121A2698140B2
:105060001143A16100EB800108EB8100291DFFF7CE
:10507000A3FAE86A2168C96A8842CDD30127CBE741
:1050800020000020D80E002070B504004FF0000171
:1050900040D0214D2868844207D0502080F31188E9
:1050A000BFF34F8FBFF36F8FFEE7A06C38B1401E88
:1050B000A064636CE26A9A422CD040B12AE050208E
:1050C00080F31188BFF34F8FBFF36F8FFEE7201D72
:1050D000FFF722FA114A012150B9E06A00EB800380
:1050E00052F8233023B9AB6901FA00F08343AB6176
:1050F000606CE062C0F10700A061E06AAB698140CA
:105100001943A96100EB800002EB8000211DFFF72D
:1051100053FA0121084670BD20000020D80E00205F
:105120002DE9F041C068C468ACB104F1180007462D
:10513000FFF7F2F9154DA86B0126A0B139461448C6
:10514000FFF73AFAE06A2968C96A88421CD9012047
:105150006E62BDE8F081502080F31188BFF34F8F5D
:10516000BFF36F8FFEE7201DFFF7D6F9E16AAA694A
:1051700006FA01F01043A86101EB81000449B4393B
:1051800001EB8000211DDBE70020E2E7200000208A
:105190008C0F00202DE9F0472C4D00242746A86BEA
:1051A00038B1FFF715FAA86B401EA863A86B40B191
:1051B00046E0502080F31188BFF34F8FBFF36F8F0D
:1051C000FEE72969224E0120D1B3A6F1B409804639
:1051D0003068E8B1F068C46804F11800FFF79CF982
:1051E000201DFFF799F9E06AAA6908FA00F1114356
:1051F000A96100EB800109EB8100211DFFF7DCF9BB
:10520000E06A2968C96A8842E2D3C5F82480DFE7EA
:105210000CB1FEF7ADFF2C6A44B14646FFF7D0FE55
:1052200000B16E62641EF9D100202862686A38B14C
:105230000849012738070860BFF34F8FBFF36F8F0E
:10524000FFF7E6F93846BDE8F087000020000020AF
:105250008C0F002004ED00E010B586B0FEF748FD8D
:10526000114CA068B8B100200390049005AA04A9CD
:1052700003A8FFF76FF9DDE9032102208DE807009D
:1052800000230AA10B48059AFFF75BFEE06010B10E
:1052900006B0012010BD502080F31188BFF34F8F5E
:1052A000BFF36F8FFEE700005C000020546D72209A
:1052B000537663004D420008FEB51E4613460200B9
:1052C000089D4FF0000014D0124CA768002F0FD09B
:1052D000CDE900130292062915DAFFF75DFE0228D8
:1052E0004FF000030DD000226946A068FFF718FCBC
:1052F000FEBD502080F31188BFF34F8FBFF36F8F37
:10530000FEE72A46F0E70023324669463846FFF7B3
:10531000B7FCFEBD5C0000204FF04070E1EE100ACB
:105320007047000098530008F528000800000000AE
:1053300000000000800000000000000000000000ED
:10534000A4530008F1340008000000000000000031
:10535000000100000000000000000000B853000839
:1053600041350008000000000000000000010000BE
:1053700000000000000000000006101600061016D5
:1053800000000000000000000102030406070809F5
:10539000000000000102030464656661756C7454CA
:1053A00061736B00636F6C6F7231706174536F72F5
:1053B000745461736B000000636F6C6F72327061C4
:1053C00074536F72745461736B000000EC530008E7
:1053D0000000002020010000C40100080C55000856
:1053E00020010020F0660000E0010008000000003D
:1053F00000000000000000000000000001000000AC
:1054000010000000000000000024F4000000000074
:10541000000000000000000000000000000000008C
:10542000000000000000000000000000000000007C
:10543000000000000000000000000000000000006C
:10544000000000000000000000000000000000005C
:10545000000000000000000000000000000000004C
:10546000000000000000000000000000000000003C
:105470000000000000000000AAAAAAAA0000000084
:10548000000000000000000000000000000000001C
:10549000000000000000000000000000000000000C
:1054A00000000000000000000000000000000000FC
:1054B00000000000000000000000000000000000EC
:1054C00000000000000032000000000000000000AA
:1054D00000000000000000000100020301000303BF
:1054E000010302030103030355370008A93500082F
:1054F000F5360008B136000800000000000000008A
:0C5500000000000000000000000000009F
:040000050800018965
:00000001FF
