:020000040800F2
:1000000038650020E9020008972800089F240008AE
:10001000952800082F060008753100080000000030
:10002000000000000000000000000000290200089D
:10003000A10700080000000085020008AD280008A4
:100040000303000803030008030300080303000878
:100050000303000803030008030300080303000868
:100060000303000803030008030300086D060008EB
:100070007906000885060008910600089D0600081C
:10008000A9060008B5060008030300083D0600089D
:1000900031060008030300080303000803030008F7
:1000A00003030008B1290008030300080303000844
:1000B0000303000803030008030300080303000808
:1000C00003030008030300080303000803030008F8
:1000D00003030008712F0008892F0008A12F0008D2
:1000E00003030008030300080303000803030008D8
:1000F000030300080303000803030008C106000807
:1001000003030008030300080303000803030008B7
:10011000CD2A0008E52A00080303000803030008AD
:1001200003030008CD060008D906000803030008F1
:100130000303000803030008030300086106000826
:1001400049060008550600080303000803030008D9
:1001500003030008E5060008F1060008B92F0008AF
:100160000303000803030008030300080303000857
:100170000303000803030008030300080000000055
:10018000030300080303000800F002F800F03CF845
:100190000AA090E8000C82448344AAF10107DA45E2
:1001A00001D100F031F8AFF2090EBAE80F0013F0F8
:1001B000010F18BFFB1A43F001031847186800002D
:1001C00038680000103A24BF78C878C1FAD85207BE
:1001D00024BF30C830C144BF04680C6070470000C1
:1001E0000023002400250026103A28BF78C1FBD840
:1001F000520728BF30C148BF0B6070471FB506F0DB
:10020000BFFA1FBD10B510BD00F0DCF91146FFF7B5
:10021000F5FF04F065F800F0FAF903B4FFF7F2FF18
:1002200003BC00F0FDF900002C4B19680868B0E829
:10023000F04F80F30988BFF36F8F4FF0000080F319
:10024000118870470000000008480068006880F3CB
:1002500008884FF0000080F3148862B661B6BFF3DF
:100260004F8FBFF36F8F00DF00BF00BF08ED00E0CE
:10027000DFF80C00016841F470010160704700BFB5
:1002800088ED00E0EFF30980BFF36F8F134B1A681E
:100290001EF0100F08BF20ED108A20E9F04F10600B
:1002A00009B44FF0500080F31188BFF34F8FBFF3B4
:1002B0006F8F04F06BFF4FF0000080F3118809BCD2
:1002C00019680868B0E8F04F1EF0100F08BFB0ECD6
:1002D000108A80F30988BFF36F8F70471C000020DD
:1002E000EFF3058070470000094880470948004740
:1002F000FEE7FEE7FEE7FEE7FEE7FEE7FEE7FEE7D6
:10030000FEE7FEE704480549054A064B7047000032
:100310005D29000889010008384F00203865002059
:10032000385F0020385F002053EA020C00F069803B
:100330002DE9F04B4FF00006002B1FBFB3FA83F5F9
:1003400003FA05F424FA05F65E4012BF1643B2FA2A
:1003500082F502FA05F4C5F120051EBF22FA05FC5C
:1003600044EA0C04203556EA044C4FEA144418BF02
:10037000641C4FF000084FF00009904271EB030C31
:1003800039D3002919BFB1FA81F701FA07F6B0FA9B
:1003900080F700FA07F6C7F120071EBF20FA07FC16
:1003A00046EA0C062037B6FBF4FCA7EB0507103F26
:1003B00007F01F0BCBF120060CFA0BFB2CFA06F60C
:1003C00044BFB3460026202FA4BF5E464FF0000B6B
:1003D0005BEA060C08BF4FF0010B19EB0B09ABFBF6
:1003E000027C48EB0608C01B06FB02CC0BFB03CCCF
:1003F00071EB0C01C1E70B46024641464846BDE899
:10040000F08B13B54FF000004FF00001AFF3008008
:10041000BDE81C407047032A40F2308010F0030C06
:1004200000F0158011F8013BBCF1020F624498BF47
:1004300011F801CB00F8013B38BF11F8013BA2F1E4
:10044000040298BF00F801CB38BF00F8013B11F05F
:10045000030300F02580083AC0F0088051F8043BFF
:10046000083A51F804CBA0E80810F5E7121D5CBF6C
:1004700051F8043B40F8043BAFF30080D20724BF9F
:1004800011F8013B11F801CB48BF11F8012B24BF33
:1004900000F8013B00F801CB48BF00F8012B704782
:1004A00010B5203AC0F00B80B1E81850203AA0E80F
:1004B0001850B1E81850A0E81850BFF4F5AF5FEA43
:1004C000027C24BFB1E81850A0E8185044BF18C9F6
:1004D00018C0BDE810405FEA827C24BF51F8043B9D
:1004E00040F8043B08BF7047D20728BF31F8023BF1
:1004F00048BF11F8012B28BF20F8023B48BF00F885
:10050000012B70474FF000020429C0F0128010F058
:10051000030C00F01B80CCF1040CBCF1020F18BFDF
:1005200000F8012BA8BF20F8022BA1EB0C0100F072
:100530000DB85FEAC17C24BF00F8012B00F8012B45
:1005400048BF00F8012B70474FF0000200B513467A
:1005500094469646203922BFA0E80C50A0E80C50E3
:10056000B1F12001BFF4F7AF090728BFA0E80C5094
:1005700048BF0CC05DF804EB890028BF40F8042B8D
:1005800008BF704748BF20F8022B11F0804F18BFFA
:1005900000F8012B704770477047704710B500F0A6
:1005A00009F8006810BD10B5044600F003F80460B7
:1005B00010BD000000487047D44E0020004870472E
:1005C000D44E00207546FFF7F9FFAE460500694698
:1005D000534620F00700854618B020B5FFF792FE7D
:1005E000BDE820404FF000064FF000074FF0000834
:1005F0004FF0000B21F00701AC46ACE8C009ACE8B5
:10060000C009ACE8C009ACE8C0098D46704710B518
:100610000446AFF300802046BDE81040FFF7FDBD63
:1006200001491820ABBEFEE7260002007047FEE736
:10063000014800F0C4B90000AC070020014800F0F8
:10064000BEB90000AC070020014800F0B8B90000B6
:10065000D4070020014800F0B2B90000D407002000
:10066000014800F0ACB90000D4070020014800F0B8
:10067000B9BC00007C0A0020014800F0B3BC0000B7
:10068000BC0C0020014800F0ADBC0000BC090020FB
:10069000014800F0A7BC00001C0D0020014800F03C
:1006A000A1BC00001C0A0020014800F09BBC000017
:1006B000FC0B0020014800F095BC00005C0C002001
:1006C000014800F08FBC0000DC0A0020014800F067
:1006D00089BC00007C0D0020014800F083BC0000B4
:1006E0003C0B0020014800F07DBC0000DC0D002028
:1006F000014800F077BC00009C0B00200168182323
:10070000CAB2103AB2FBF3F2054B6FF30901032AA8
:100710009B5CC36500D9091D8165084670470000D0
:10072000EC68000810B5014600208B698A6A4FF01A
:10073000C07453B1B3F5005F15D072B1012A0CD06B
:10074000022A0AD0032A09D104E01AB1012A06D0EC
:10075000022A03D1C96AC90100D5012010BDC96AA6
:10076000A142FAD010BD002AF7D0012AF2D0022A05
:10077000F3D0032AF3D010BD30B50468256825F402
:1007800080252560046863608368402B036803D07C
:1007900099600068C26030BD9A600068C16030BD79
:1007A0007047704790F82020012A07D0022A05D010
:1007B000416A41F48021416201207047006842692A
:1007C0000A4342610020704710B590F82020012AAA
:1007D00007D0022A05D0416A41F4802141620120FC
:1007E00010BD3B48D0F8002242F00102C0F80022C0
:1007F000D0F8002222F47C52C0F80022D0F8002267
:100800004B6A42EA0322C0F800220A7D02F01F036D
:1008100001229A40D0F81C329343C0F81C32CB69B5
:10082000B3B9D0F80C329343C0F80C328C894B68C2
:1008300064F31F434C6900EBC404C4F840320C89D4
:100840000B6864F31F434C6900EBC404C4F84432E2
:10085000CB69012B16D1D0F80C321343C0F80C32FF
:100860000C884B6864F31F434C6900EBC404C4F864
:1008700040320C89CB6864F31F434C6900EBC4041D
:10088000C4F844328B69002BD0F804320ED01343E5
:10089000C0F804320B69002BD0F8143208D013438F
:1008A000C0F81432096A012904D008E09343EFE745
:1008B0009343F5E7D0F81C121143C0F81C12D0F88E
:1008C000001221F00101C0F80012002010BD00004C
:1008D00000640040704730B590F82040012C05D0EE
:1008E000022C03D0416A41F480215DE004680029B4
:1008F00055D02469A40754D04FF4D874056804EB8C
:1009000001142D5915F00405956005682D594ED038
:10091000ED08556005682C59C4F34004D4604FF4C9
:10092000DA74056804EB01142D5905F00F05156103
:1009300005682D59C5F30725956105682C59240CC8
:1009400054614FF4DC72046802EB0112A4581C706D
:100950000468A458240A5C700468A458240C9C7091
:100960000468A258120EDA704FF4DE72046802EBCB
:100970000112A4581C710468A458240A5C7104680C
:10098000A458240C9C710468A258120EDA710068F5
:1009900081B1016941F020010161002030BDE468AE
:1009A000A8E7416A41F400114162012030BD6D0D9C
:1009B0001560AFE7C16841F02001C160EDE72DE9A6
:1009C000F05F0546006800244669D0F80490876807
:1009D000D0F80CB0D0F810A0D0F81880F10748D0AB
:1009E000F90714D001218160B80703D5284600F02B
:1009F0009AFA0CE0780702D54FF4006407E0380754
:100A000002D54FF4805402E0284600F08BFAF80536
:100A100016D529684FF480708860B80503D528463C
:100A200000F083FA0CE0780502D544F4005407E0A6
:100A3000380502D544F4804402E0284600F074FAF8
:100A4000F80316D529684FF480308860B80303D5C1
:100A5000284600F06CFA0CE0780302D544F4004418
:100A600007E0380302D544F4803402E0284600F061
:100A70005DFA300707D55FEACB6004D529681020FE
:100A800044F40074C86070074FF0080707D55FEAA8
:100A90000B7004D52868C760284600F0B1F9B0078C
:100AA00006D52868C068800702D0284600F0AAF959
:100AB000700607D55FEACA6004D52968102044F49F
:100AC00080640861B00607D55FEA0A7004D528681B
:100AD0000761284600F0F6F9F00606D52868006997
:100AE000800702D0284600F0EEF9B00308D55FEA8F
:100AF000C96005D5296810204860284600F0E4F94F
:100B0000F00307D55FEA097004D5286847602846D6
:100B100000F00EFA300446D55FEA497040D5F00582
:100B200004D55FEAC87001D044F00104B00504D5D3
:100B30005FEA887001D544F00204700504D55FEACD
:100B4000487001D544F00404300529D518F0700F21
:100B500026D008F07000402815D006DC102809D0F7
:100B600020280AD0302816D10AE050280ED060285C
:100B700011D10EE044F008040DE044F010040AE046
:100B800044F0200407E044F0400404E044F0800412
:100B900001E044F480742868816921F0700181616A
:100BA000296804204860002C05D0686A20436862E8
:100BB0002846FFF78FFEBDE8F09F70B5040003D014
:100BC00094F8200010B104E0012070BD204600F030
:100BD00081F82068016821F00201016000F068FCE2
:100BE0000546052604E000F063FC401B0A2811D8E6
:100BF000206840688007F6D42068016841F0010150
:100C0000016000F055FC05460BE000F051FC401B74
:100C10000A2806D9606A40F40030606284F82060D7
:100C2000D2E720684068C007EFD0207E0128206806
:100C300001683DD021F080010160607E01282068BC
:100C4000016838D021F040010160A07E01282068B1
:100C5000016833D021F020010160E07E0128206886
:100C600001682ED041F010010160207F012820682A
:100C7000016829D021F008010160607F0128206807
:100C8000016824D021F004010160D4E90201084385
:100C9000D4E90412114308436168491E08432168DE
:100CA000C86100206062012084F82000002070BD2F
:100CB00041F08001C0E741F04001C5E741F020016B
:100CC000CAE721F01001CFE741F00801D4E741F075
:100CD0000401D9E7F0B587B0044614216846FFF750
:100CE00033FC424B4248DFF800E11968D4F800C0F9
:100CF0003F4A03250226092710300024491CF445E9
:100D00002AD11960012907D1016841F00071016001
:100D1000006800F000700590106840F00800106056
:100D20001068CDE9005600F00800CDE9047069466E
:100D30003048CDE9024500F0DDFA002205211320FC
:100D400000F042FC132000F031FC002205211420A9
:100D500000F03AFC142043E0DFF89CE0F44541D178
:100D6000D0F800C04CF0806CC0F800C0D0F800C0D3
:100D700001290CF0806CCDF814C0196007D101680E
:100D800041F000710160006800F00070059010688B
:100D900040F002001060106802AB00F00200059005
:100DA0004FF44050CDE9000683E8B000694613488F
:100DB00000F0A0FA002205213F2000F005FC3F20B2
:100DC00000F0F4FB00220521402000F0FDFB402054
:100DD00000F0ECFB00220521412000F0F5FB412052
:100DE00000F0E4FB07B0F0BD006400400800002004
:100DF00030380240000C024000680040000402400D
:100E00007047000010B52A4CA04223D1294B2A4A32
:100E10000021FFF760FD28480068A0F50071013946
:100E200005D0012903D0022901D003290CD1214981
:100E3000401E0839C0B208701F4900EB4000D83985
:100E400001EBC0001B4925E02068416941F0020127
:100E5000416110BD194CA042FBD1164B164A10330C
:100E600034320021FFF737FD134834300068012881
:100E700013D0022811D0A0F50070053806D0012843
:100E8000E2D10C490C481031483803E009490A48BE
:100E90001031603803F003F9D6E709490A7C0AB932
:100EA00001220A740349103101F0ECFDCCE7000087
:100EB000AC070020980000205C4E0020D4070020E2
:100EC000AC4E0020704770477047000070B5044674
:100ED00090F82000012804D0606A40F4002060628D
:100EE00018E0022084F820002068016821F0010148
:100EF000016000F0DDFA05460EE000BF00F0D8FA10
:100F0000401B0A2808D9606A40F40030606205205E
:100F100084F82000012070BD20684068C007EDD132
:100F2000606270BD70477047704770477047704788
:100F300070472DE9F0410446876D00F0B9FA064686
:100F400094F835000025022806D08020606584F8DA
:100F500034500120BDE8F0812068016821F01601BD
:100F600001602068416921F080014161206C08B96D
:100F7000A06C20B12068016821F0080101602068A0
:100F8000016821F0010101600BE000F091FA801B83
:100F9000052806D92020606504F8345F03206070BE
:100FA000D8E720680068C007EFD194F85C103F20B4
:100FB0008840B86004F8345F012060700020C9E701
:100FC00090F83510022903D0802141650120704737
:100FD000052180F835100068016821F001010160E9
:100FE000002070472DE9F84304464FF00009CDF882
:100FF000009063484FF41651A56D0068B0FBF1F7FF
:101000002E6894F85C10082000FA01F131420FD0EC
:1010100021680A6852070BD50A6822F004020A60A8
:1010200094F85C108840A860606D40F00100606535
:1010300094F85C104FF0010808FA01F0304208D033
:1010400021684969090604D5A860606D40F0020076
:10105000606594F85C1004208840304208D0216814
:101060000968890704D5A860606D40F004006065D8
:1010700094F85C1010208840304218D0216809682C
:10108000090714D5A86020680168490304D50068E1
:10109000000308D5A16C07E00168C90503D4016805
:1010A00021F008010160216C09B12046884794F8BD
:1010B0005C1020208840304231D021680968C90680
:1010C0002DD5A86094F8350005282068016806D061
:1010D000490347D5006800031DD4616C1CE021F072
:1010E000160101602068416921F080014161206C96
:1010F00008B9A06C20B12068016821F008010160E6
:1011000094F85C103F208840A86084F8349084F8FC
:101110003580216D1FE0E16B09B120468847606D85
:1011200000282BD0606DC00714D0052084F835004E
:101130002068016821F0010101600098401C0090C6
:10114000B84203D820680068C007F6D184F834900C
:1011500084F83580E16C002910D001B02046BDE84C
:10116000F04308470168C905D5D4016821F0100192
:10117000016084F8349084F83580CCE7BDE8F883CA
:10118000180000202DE9F041044600F091F90646D0
:101190005CB1002584F83450022084F835002068C2
:1011A000016821F0010101600DE00120BDE8F0813E
:1011B00000F07EF9801B052805D9202060650320FA
:1011C00084F83500F2E720680068C007F0D1226893
:1011D000116820480140D4E901031843D4E90336DB
:1011E0003343184363691843A3691843E3691843F9
:1011F000236A18430843616A042903D1D4E90B1315
:1012000019430843106020684069666A20F00701AE
:1012100030460E43012704280CD1A06A0643E06A39
:1012200040B12046FFF77EFA20B14020606584F887
:101230003570BAE7206846612046FFF75FFA94F8F8
:101240005C203F2191408160656584F83570002005
:10125000ACE700003F8010F02DE9F0410446866DB8
:1012600090F83400002501280DD0012084F83400C6
:1012700094F835700020012F07D084F8340002253F
:101280002846BDE8F0810220FBE7022784F835708C
:1012900060652046FFF770FA94F85C103F208840A4
:1012A000B0602068016841F0160101602068416962
:1012B00041F080014161206C20B12068016841F05B
:1012C000080101602068016841F001010160D7E771
:1012D00070B5044600F0ECF80546601C02D00448E6
:1012E0000078044400F0E4F8401BA042FAD370BD3B
:1012F0000C0000202DE9F84FDFF87CB100224FF000
:1013000001084FF0030A4FF00F090BF1040E00BF64
:101310000B6808FA02F42340A3426ED14D68022DF7
:1013200001D0122D0ED1D50800EB850CDCF8205031
:101330005607F70E09FA07F6B5430E69BE402E436D
:10134000CCF82060066855000F790AFA05FC07F012
:10135000030726EA0C06AF40374307604E68012EAC
:1013600005D0022E03D0112E01D0122E0ED1866888
:10137000CF6826EA0C06AF40374387604668A6432D
:101380000C79C4F30014944034434460C6688C68FC
:1013900026EA0C06AC403443C4604C68E40065D5D2
:1013A000364C256845F480452560246822F0030505
:1013B00004F480440094324C2E19D6F8084895075E
:1013C0002F0F09FA07F5AC432E4DA84201D1002595
:1013D00024E02D4DA84201D101251FE02B4DA8424C
:1013E00001D102251AE02A4DA84201D1032515E0BA
:1013F000284DA84202D1042510E037E0264DA8422E
:1014000001D105250AE0254DA84201D1062505E0B8
:10141000234DA84201D1072500E00825BD40254302
:10142000C6F80858DBF800405D464E689C43F6035A
:1014300000D51C432C60DEF8004075464E689C4386
:10144000B60300D51C432C600B4D08352C684E6844
:101450009C43F60200D51C432C60074D0C352C68CC
:101460004E689C43B60200D51C432C60521C102AC7
:10147000FFF44EAFBDE8F88F003C01404438024015
:101480000030014000000240000402400008024019
:10149000000C0240001002400014024000180240FC
:1014A000001C02400069084000D001207047000085
:1014B00001488068704700000C00002002488168E5
:1014C00002781144816070470C0000200B4810B571
:1014D000016841F400710160016841F480610160BC
:1014E000016841F480710160032000F08DF8002054
:1014F00000F006F800F03EF8002010BD003C02406D
:1015000010B5014688B00022192000F05DF81920BE
:1015100000F04CF813480024016841F400310160E8
:10152000006805A900F400300690684600F016F93E
:1015300000F044F90C494000B0FBF1F10C480B4AB3
:10154000491E026040F2E732C0E90324C0E90114F9
:1015500000F0FAFA10B1012008B010BD044800F004
:1015600023FBF9E74438024040420F0000440140A9
:101570003C0E00200C4882B0016841F480410160BB
:10158000006800F4804000900748001F016841F0A7
:10159000805101600068002200F0805000900F210F
:1015A000901E02B000F010B844380240002809DB59
:1015B00000F01F02012191404009800000F1E0206D
:1015C000C0F8001170470000F0B40E4B1B680C46C9
:1015D000C3F30223C3F10705042D00D90425191D07
:1015E000072901D2002300E0DB1E012606FA05F1DF
:1015F000491E214099409E40761E16403143F0BC62
:1016000001F0D1BD0CED00E0064900F007020868CA
:101610004FF6FF03184040EA0220034A10430860D7
:10162000704700000CED00E00000FA052DE9F047DE
:101630000E46050065D0DFF81481D8F80000F7B237
:1016400000F00F00B04207D288F80070D8F8000010
:1016500000F00F00B04254D128683D4C810712D5EC
:10166000400703D5206840F4E05020602878000748
:1016700003D5206840F4604020602068A96820F00D
:10168000F000084320602878C0072DD030496868F2
:101690000839012812D0022813D0032811D0096874
:1016A000890700292DDA216821F003010143216017
:1016B000FFF7FEFE814641F2883A0EE00968890391
:1016C000EFE709688901ECE7FFF7F2FEA0EB0901FB
:1016D000514502D90320BDE8F0872068696800F011
:1016E0000C00B0EB810FEFD1D8F80010404601F0AC
:1016F0000F01B14207D90770006800F00F00B04237
:1017000001D00120E7E72878400705D52068E9687F
:1017100020F4E050084320602878000706D52068B0
:10172000296920F4604040EAC100206000F056F8CA
:101730002168084AC1F30311515CC840064908609A
:101740000020FFF7DDFE0020C5E70000003C02405E
:1017500008380240F4680008180000200F220260D8
:101760000C4A136803F003034360136803F0F003AB
:101770008360136803F4E053C36012684FF4E053CE
:1017800003EAD20202610448006800F00F0008601A
:101790007047000008380240003C024004480549F8
:1017A00000680968044AC1F38221515CC84070474F
:1017B0001800002008380240046900080448054960
:1017C00000680968044AC1F34231515CC84070475F
:1017D000180000200838024004690008104810B5BD
:1017E000006810F00C010F4818D0042916D0082901
:1017F00014D10B4C241F216801F03F02216821689D
:101800000023C1F38811A1FB0001FEF78DFD2168C3
:10181000C1F30141491C4900B0FBF1F010BD0000CB
:10182000083802400024F4002DE9F84F050076D076
:101830002878DFF8F8B2BE4CC00749D0DBF80010BA
:101840005846C1F38101012908D00068C0F3810026
:1018500002280AD1201D0068400206D520688003B6
:1018600036D568680028E2D032E06868B0F5803F7D
:1018700010D0B0F5A02F206810D020F48030206068
:10188000206820F4802020606868A0B1FFF710FE77
:1018900006460CE0206840F48030F4E740F48020F5
:1018A0002060F7E7FFF704FE801B642873D82068E8
:1018B0008003F7D50CE0FFF7FBFD064605E000BF0F
:1018C000FFF7F6FD801B6428F0D820688003F7D46A
:1018D0002878DFF8608280074FF000093ED5DBF8FA
:1018E0000010584611F00C0F09D00068C0F38100B9
:1018F00002280BD18D48001F0068400206D42068E2
:10190000800715D5E868012809D111E0E868B8B169
:101910000120C8F80000FFF7CBFD064605E002E114
:10192000FFF7C6FD801B0228C0D820688007F7D5C6
:101930002068296920F0F80040EAC10020600DE02D
:10194000C8F80090FFF7B4FD064604E0FFF7B0FDCD
:10195000801B02281FD820688007F7D4287800074A
:1019600022D5724E744869696C3671B101210160EB
:10197000FFF79EFD074604E0FFF79AFDC01B022813
:1019800009D830688007F7D50EE0C0F80090FFF75F
:101990008FFD074605E083E0FFF78AFDC01B0228A4
:1019A0007ED830688007F7D42878400768D5DFF8FC
:1019B0007CA100270AF1380ADAF80000C0000BD435
:1019C000DAF8001041F08051CAF80010DAF800008F
:1019D000012700F080500090584E3068C00510D4A8
:1019E000306840F480703060FFF762FD009005E0E1
:1019F000FFF75EFD0099401A022851D83068C005F3
:101A0000F6D54A4EA868683601280FD005283068F8
:101A100010D020F001003060306820F00400306009
:101A2000A868B8B1FFF744FD00900FE0306840F0BF
:101A30000100F4E740F004003060F7E7FFF738FDFD
:101A40000099411A41F28830814264D83068800799
:101A5000F4D50EE0FFF72CFD009007E0FFF728FD1E
:101A60000099411A41F28830814254D83068800789
:101A7000F4D42FB1DAF8001021F08051CAF8001028
:101A8000A869C0B3DBF80010C1F3810102294AD074
:101A90000228484607D0C8F86000FFF709FD00E0BB
:101AA00039E005463AE04746C8F86000FFF700FD18
:101AB000064604E0FFF7FCFC801B02282BD82068B8
:101AC0008001F7D4D5E907010843A96A1C4A4908EF
:101AD00002EB01416A6A41EA8211084395F82C1031
:101AE00040EA01611148001F016001203866FFF7DC
:101AF000DFFC054605E014E0FFF7DAFC401B022896
:101B000009D820688001F7D50BE000BFFFF7D0FCB3
:101B1000401B022802D90320BDE8F88F206880010D
:101B2000F4D40020F8E70120F6E70000083802406E
:101B30000038024000004742800E474200700040DB
:101B40000000FFFF7047704710B5040003D094F801
:101B50003D0010B107E0012010BD002084F83C00DA
:101B6000204600F00DF8022084F83D00211D206879
:101B700000F024FF012084F83D00002010BD00008B
:101B800008B500680649884208D10648016841F452
:101B900080710160006800F48070009008BD000052
:101BA00000200040403802400168CA6842F001024B
:101BB000CA600068816801F00701062903D0016846
:101BC00041F00101016000207047704770B5044684
:101BD000006801694FF00005C943890715D4C16841
:101BE000C943890711D4E91E0161012020772068CB
:101BF00080698007204602D0FFF7E7FF04E000F08D
:101C000098F8204600F096F8257720680169C943C6
:101C1000490717D4C168C943490713D46FF00401B9
:101C20000161022020772068806910F4407F2046FF
:101C300002D0FFF7CAFF04E000F07BF8204600F076
:101C400079F8257720680169C943090716D4C16866
:101C5000C943090712D46FF00801016104202077FD
:101C60002068C0698007204602D0FFF7AEFF04E07D
:101C700000F05FF8204600F05DF8257720680169E4
:101C8000C943C90617D4C168C943C90613D46FF044
:101C900010010161082020772068C06910F4407F9E
:101CA000204602D0FFF791FF04E000F042F8204602
:101CB00000F040F8257720680169C943C90708D1B9
:101CC000C168C943C90704D1891E0161204600F0DB
:101CD00033F820680169C943090609D4C168C943BA
:101CE000090605D46FF0800101612046FFF72AFF45
:101CF00020680169C943490609D4C168C943490636
:101D000005D46FF040010161204600F01FF8206803
:101D10000169C94389060BD4C168C943890607D440
:101D20006FF0200101612046BDE87040FFF70BBF56
:101D300070BD70477047000000680349884201D1B8
:101D4000FFF7BCBB7047000000440140704710B56E
:101D500004460068416994F83920C1F3C011212A72
:101D60000BD151B1416921F080014161206B08B173
:101D7000FFF7DFF8204600F01FFF2068416994F864
:101D80003A20C1F38011222A0BD151B1416921F0CF
:101D900040014161606B08B1FFF7CBF8204600F0CD
:101DA000FDFE002010BD704770B502680446106843
:101DB000D168536910F00F0F51D003F0010501F401
:101DC000907635435DD0C20705D0CA0503D5E26BD6
:101DD00042F00102E263420705D5DA0703D0E26B65
:101DE00042F00202E263820705D5DA0703D0E26B14
:101DF00042F00402E263020705D5DA0703D0E26B82
:101E000042F00802E263E26B002A34D0800604D577
:101E1000880602D5204600F0D8FE20684069E16BB4
:101E2000C0F3801001F008010143204624D000F0E7
:101E3000B5FE2068416949061AD5416921F0400183
:101E40004161606BA0B11B490165606BFFF7B8F899
:101E5000002810D0606B016DBDE870400847830614
:101E60000FD58B060DD52046BDE8704000F0ADBE05
:101E70002046FFF798FF70BDFFF795FF0020E06355
:101E800070BD030606D50B0604D52046BDE870409C
:101E900001F03CB84006F3D54806F1D5D16820469C
:101EA00021F04001D160202184F8391000F0F6FAC9
:101EB00070BD0000FD2A000870B5040004D094F83D
:101EC0003900002510B106E0012070BD84F83850BB
:101ED000204600F023F8242084F839002068C168E7
:101EE00021F40051C160204600F0BAFE206801696B
:101EF00021F4904101612068416921F02A0141618A
:101F00002068C16841F40051C160E563202084F875
:101F1000390084F83A00002070BD00002DE9F04F30
:101F200087B0044614216846FEF70EFBF848DFF838
:101F3000DCC310382368F64A012702210025061564
:101F40004FF003084FF0080B4FF040094FF0006AC4
:101F5000634566D1136843F400231360126802F4EA
:101F600000220592026842F001020260026802F05B
:101F700001020592026842F004020260006802ABAE
:101F800000F0040005900220CDE9007083E880098C
:101F90006946E048FFF7AEF97000009001AB0220FF
:101FA00083E881096946DC48FFF7A4F9DFF870830C
:101FB000DA494046C8F80010C0E901A5C0E9035657
:101FC000C8F81450C8F81850C8F81C50C8F8205069
:101FD0005746C8F82450FFF7D5F808B1FEF7E1FBE3
:101FE000CF4DCE48C4F8348060353030C8F8384022
:101FF00085E881020020C5E903066861A861E861FF
:10200000286268622846FFF7BDF808B1FEF7C9FBF1
:102010002563002205213420AC63FFF7D5FA342074
:102020006DE0DFF800C363456ED11368002543F40B
:1020300080131360126802F480120592026842F065
:1020400004020260026802F004020592026842F093
:1020500008020260006801AB00F0080005904FF430
:1020600080500090022083E881096946AA48FFF762
:1020700041F90420009001AB022083E88109694600
:10208000A948FFF737F9DFF89882A44908F1C0089A
:1020900030394046C8F80010C0E901A5C0E9035630
:1020A000C8F81450C8F81850C8F81C50C8F8205088
:1020B0005746C8F82450FFF765F808B1FEF771FBE2
:1020C00096489A4DC4F834807830C8F8384085E88E
:1020D00081020020C5E903066861A861E861286201
:1020E00068622846FFF74EF808B1FEF75AFB2563F1
:1020F000002205213520AC63FFF766FA3520FFF793
:1021000055FA07B0BDE8F08FDFF824C24FF0070E94
:1021100063454FD17E4A121D136843F010031360CC
:10212000126802F010020592026842F00102026099
:10213000006800F0010005904FF4C0608DE8834115
:1021400069467448FFF7D6F8784F7A4860373860A8
:10215000C7E901A5C7E9035680157D61C7E90650A7
:102160004FF44030C7E908053846FFF70BF808B1CF
:10217000FEF717FB6763BC636C4F6E48C03778305F
:10218000C7F80890C7E903567D61BD61FD613D62F6
:102190007D62C7E9000A3846FEF7F4FF08B1FEF792
:1021A00000FB2763002205212520BC63FFF70CFA02
:1021B0002520A4E7DFF880C1634549D1136843F4C3
:1021C00000331360126802F400320592026842F094
:1021D00001020260006800F0010005900C208DE80B
:1021E000834169464B48FFF785F84C48534F4830C8
:1021F0003860C7E901A5C7E903567D61BD61FD618E
:102200003D6238467D62FEF7BDFF08B1FEF7C9FAB0
:102210006763BC63494F414860376030C7F8089036
:10222000C7E903567D61BD61FD613D627D62C7E91D
:10223000000A3846FEF7A6FF08B1FEF7B2FA276398
:10224000002205212620BC63FFF7BEF9262056E7B1
:10225000DFF8ECC063457AD11368AB4643F48023C2
:102260001360126802F480220592026842F00202B2
:102270000260006800F0020005904FF440608DE8B5
:10228000834169462F48FFF735F8DFF8B0802349CE
:1022900008F1C00818394046C8F80010C0E901A587
:1022A000C0E90356C8F81450C8F81850C8F81C50B4
:1022B000C8F820505746C8F82450FEF763FF08B10D
:1022C000FEF76FFA1548204DC4F834801830C8F86E
:1022D000384085E88102C5E903B6C5F814B0C5F8F1
:1022E00018B0C5F81CB0C5F820B02846C5F824B011
:1022F000FEF748FF08B1FEF754FA256300220521D6
:102300002720AC63FFF760F92720F8E6004C004077
:102310004038024000000240000802404060024095
:10232000BC09002000500040000C0240DC0A0020E4
:10233000001001404064024000440040FC0B0020BB
:1023400000480040000402401C0D0020FFE7274A1F
:1023500093427FF4D6AE264A136843F020031360FD
:10236000126802F020020592026842F00402026044
:10237000006800F004000590C0208DE883096946DC
:102380001C48FEF7B7FF1D4F1B484FF02068386010
:10239000C7E90185C7E903567D61BD61FD613D6205
:1023A00038467D62FEF7EEFE08B1FEF7FAF9676384
:1023B000BC63124F104860377830C7E903567D611F
:1023C000BD61FD613D627D6287E801033846FEF72D
:1023D000D9FE08B1FEF7E5F9276300220521472061
:1023E000BC63FFF7F1F8472089E6000000140140C4
:1023F0004438024000080240286402407C0D00205E
:10240000F8B5044690F83A0020283CD1C1B3BAB3DD
:1024100094F83800012836D0012084F83800A162F1
:10242000A2850025E563222084F83A00636B1748F3
:10243000D863636B16481864636B1648D864606B86
:10244000134605650846666B216802463046091D3D
:10245000FEF702FF206801684168009184F8385057
:10246000C16841F48071C1602068416941F0010197
:1024700041612068416941F0400141610020F8BD9F
:10248000FFE70120FBE70220F9E70000572B0008D7
:10249000932B00080D2B0008704770477047FEE72C
:1024A0000F4810B50D4901600621416000214FF42D
:1024B00000328160C0E903121201426101760122FB
:1024C00042768176C17601774177FEF776FB002868
:1024D00003D0BDE81040FEF764B910BD00640040B1
:1024E000AC0700200F4810B50D490160062141607E
:1024F00000214FF400328160C0E9031212014261F1
:102500000176012242768176C17601774177FEF726
:1025100054FB002803D0BDE81040FEF742B910BDBF
:1025200000680040D4070020394808B5016841F42C
:1025300080010160016801F480010091016841F4AB
:10254000001101600068002200F4001000900521D5
:102550000B20FFF739F80B20FFF728F800220521A0
:102560000C20FFF731F80C20FFF720F8002205219E
:102570000D20FFF729F80D20FFF718F8002205219C
:102580000E20FFF721F80E20FFF710F8002205219A
:102590000F20FFF719F80F20FFF708F80022052198
:1025A0001020FFF711F81020FFF700F80022052196
:1025B0001120FFF709F81120FEF7F8FF002205218E
:1025C0002F20FFF701F82F20FEF7F0FF0022052152
:1025D0003920FEF7F9FF3920FEF7E8FF0022052138
:1025E0003A20FEF7F1FF3A20FEF7E0FF0022052136
:1025F0004520FEF7E9FF4520FEF7D8FF0022052120
:102600004620FEF7E1FFBDE808404620FEF7CEBFBA
:102610003038024010B59CB002F0EAFB1C2217498A
:102620006846FDF73DFF0021684601F0ACFE144C02
:1026300012491C2260601C3107A8FDF731FF002100
:1026400007A801F0A0FE0D4920601C2238310EA819
:10265000FDF726FF00210EA801F095FE0749206036
:102660001C22543115A8FDF71BFF002115A801F00D
:102670008AFE206002F0DCFB1CB010BD7C68000804
:102680000000002000B587B014216846FDF75CFF0C
:1026900019480021026842F080020260026802F0DC
:1026A00080020592026842F001020260026802F0B4
:1026B00001020592026842F002020260026802F022
:1026C00002020592026842F004020260026802F00F
:1026D00004020592026842F008020260006802915A
:1026E00000F0080005904020CDE90001694603484C
:1026F000FEF700FE07B000BD30380240000C02407B
:102700000C4810B50A4901604FF452714160002134
:102710004FF4FA62C0E90212016180218161FFF782
:1027200013FA002803D0BDE81040FEF73AB810BDF8
:1027300000200040FC0700200C4810B50A49016049
:102740004FF4E1314160002181600C22C160C0E999
:1027500004128161C161FFF7AFFB002803D0BDE81F
:102760001040FEF71EB810BD004C00403C08002091
:102770000C4810B50A4901604FF4E1314160002175
:1027800081600C22C160C0E904128161C161FFF760
:1027900093FB002803D0BDE81040FEF702B810BD3F
:1027A000005000407C0800200E4810B50C49016024
:1027B0000D4941604FF48051816000214FF48062E7
:1027C000C0E903120C22C0E90521C161FFF774FBC7
:1027D000002803D0BDE81040FDF7E3BF10BD0000A6
:1027E00000100140BC080020A08601000C4810B574
:1027F0000A4901604FF4E1314160002181600C22FF
:10280000C160C0E904128161C161FFF755FB002876
:1028100003D0BDE81040FDF7C4BF10BD0044004028
:10282000FC0800200C4810B50A4901604FF4E13162
:102830004160002181600C22C160C0E90412816105
:10284000C161FFF739FB002803D0BDE81040FDF758
:10285000A8BF10BD004800403C0900200C4810B53E
:102860000A4901604FF4E1314160002181600C228E
:10287000C160C0E904128161C161FFF71DFB00283E
:1028800003D0BDE81040FDF78CBF10BD001401401F
:102890007C090020FEE77047034801F0A5FC0A20F0
:1028A00001F052FDF8E70000D000002010B55020E4
:1028B00080F31188BFF34F8FBFF36F8F03F00AF8D7
:1028C00018B104494FF080500860002080F311884F
:1028D00010BD000004ED00E030B593B03021684633
:1028E000FDF732FE14210CA8FDF72EFE1948002535
:1028F000016841F080510160006800F08050119043
:102900001548016841F4804101600068022400F428
:102910008040119001200090000401908001CDE9D9
:10292000064008200890A820CDE9090404200B9057
:102930006846FEF779FF0CA90F2081E831004FF4BB
:10294000A0500F90E002109005210CA8FEF76EFE3B
:1029500013B030BD4038024000700040104801689C
:1029600041F4700101600F48016841F0010101600C
:102970000C4A00210832116002680B4B1A400260B9
:10298000031D0A4A1A60026822F480220260054888
:102990000C30016002495806803908607047000019
:1029A00088ED00E000380240FFFFF6FE1030002402
:1029B0000148FFF70BB900003C0E0020F0B502689B
:1029C000254C264D264E274F274B4FF0804CA042DA
:1029D00009D0604507D0A84205D0B04203D0B84224
:1029E00001D0984204D122F0700E4A6842EA0E02E9
:1029F000A0421BD0604519D0A84217D0B04215D0D4
:102A0000B84213D0984211D0184DA8420ED0184D9C
:102A1000A8420BD0174DA84208D0174DA84205D0A8
:102A2000164DA84202D0164DA84203D122F440759B
:102A3000CA682A434D6922F080022A4302608A68EC
:102A4000C2620A688262A04201D0984201D109693B
:102A5000016301214161F0BD00000140000400401C
:102A600000080040000C004000040140004001400C
:102A7000004401400048014000180040001C004094
:102A8000002000400F4B104A012810D002280DD121
:102A9000086898604868D86003F1080090ED000A63
:102AA00082ED000A90ED010A82ED010A7047086884
:102AB00018604868586093ED000A82ED020AD06001
:102AC00070470000B8000020AC4E002010B504484C
:102AD000FFF76AF9BDE81040014800F0EDBA0000C8
:102AE0003C08002010B50448FFF75EF9BDE810402F
:102AF000014800F0E1BA00007C08002010B5806BAE
:102B00000021C185C184FFF74EF910BD70B5846BFB
:102B10002068406994F83910C0F3C01000252129BD
:102B200004D118B1E584204600F046F820684069D9
:102B300094F83A10C0F38010222904D118B1E58529
:102B4000204600F02BF8E06B40F01000E0632046D8
:102B5000FFF729F970BD10B50146806B0968096857
:102B6000C90513D40021C1850168CA6822F48072A6
:102B7000CA6001684A6922F001024A6101684A6933
:102B800022F040024A61202180F83A10FFF784FCCD
:102B900010BD10B5806BFFF780FC10BD0168CA68DE
:102BA00022F49072CA6001684A6922F001024A6107
:102BB000202180F83A1070470168CA6822F0C002EC
:102BC000CA60202180F83910704710B590F83A108B
:102BD000222901D0022010BD8168B1F5805F11D09B
:102BE0000169002901681FD0496801F07F03816AEB
:102BF0004A1C82620B70C18D491E0904090CC185F3
:102C000018D02BE00269816A002A0268526805D058
:102C1000D2B20A80816A491C8162ECE7C2F30802E1
:102C20000A80816A891CF7E74A68816A4B1C8362C3
:102C30000A70E0E70168CA6822F02002CA600168F1
:102C4000CA6822F48072CA6001684A6922F00102EF
:102C50004A61202180F83A10FFF71EFC002010BDC9
:102C60002DE9F041044600680169E26821F4405111
:102C7000114301612169A068E26908436169114358
:102C800022680843D16849F20C6399430143D1603B
:102C900020684169A26921F4407111434161E269F0
:102CA0006425B2F5004F9748974922684FF03208E3
:102CB0003FD08A4201D082427CD1FEF77FFD00EBFB
:102CC000C00101EB001061688900B0FBF1F6FEF76E
:102CD00075FD00EBC00101EB001061688900B0FBDD
:102CE000F1F0B0FBF5F06FF01801484306EB8001FE
:102CF00008EB0110B0FBF5F000F0F006FEF75EFD0A
:102D000000EBC00101EB001061688900B0FBF1F03D
:102D1000B0FBF5F006EB0016FEF750FD00EBC0012E
:102D200001EB001061688900B0FBF1F7FEF746FD8A
:102D3000D2E08A4201D082423DD1FEF73FFD00EB56
:102D4000C00101EB001061684900B0FBF1F0B0FB7D
:102D5000F5F00601FEF732FD00EBC00101EB0010BB
:102D600061684900B0FBF1F7FEF728FD00EBC001F8
:102D700001EB001061684900B0FBF1F0B0FBF5F029
:102D80006FF01801484307EB800108EBC100B0FB6E
:102D9000F5F000F0F80006EB4006FEF70FFD00EB43
:102DA000C00101EB001061684900B0FBF1F7FEF7CC
:102DB00005FD3CE055E0FEF7F1FC00EBC00101EB46
:102DC000001061684900B0FBF1F0B0FBF5F00601BE
:102DD000FEF7E4FC00EBC00101EB00106168490064
:102DE000B0FBF1F7FEF7DAFC00EBC00101EB0010DD
:102DF00061684900B0FBF1F0B0FBF5F06FF018012D
:102E0000484307EB800108EBC100B0FBF5F000F090
:102E1000F80006EB4006FEF7C1FC00EBC00101EB39
:102E2000001061684900B0FBF1F7FEF7B7FC00EB5A
:102E3000C00101EB001061684900B0FBF1F0B0FB8C
:102E4000F5F06FF01801484307EB800108EBC10073
:102E5000B0FBF5F000F00700216830448860BDE861
:102E6000F081FEF79BFC00EBC00101EB00106168F4
:102E70008900B0FBF1F6FEF791FC00EBC00101EB1D
:102E8000001061688900B0FBF1F0B0FBF5F06FF065
:102E90001801484306EB800108EB0110B0FBF5F088
:102EA00000F0F006FEF77AFC00EBC00101EB001029
:102EB00061688900B0FBF1F0B0FBF5F006EB00169D
:102EC000FEF76CFC00EBC00101EB001061688900AB
:102ED000B0FBF1F7FEF762FC00EBC00101EB001064
:102EE00061688900B0FBF1F0B0FBF5F06FF01801FC
:102EF000484307EB800108EB0110B0FBF5F000F050
:102F00000F00A9E7001401400010014090F83910AB
:102F1000212901D0022070478168B1F5805F016AE4
:102F20000BD04A1C0262026809785160C18C491EAC
:102F30000904090CC1840ED017E009880268C1F3A6
:102F40000801516001690029016A02D0491C01622F
:102F5000ECE7891CFBE70168CA6822F08002CA60BE
:102F60000068C16841F04001C16000207047000066
:102F700010B50448FEF718FFBDE81040014800F006
:102F80009BB80000BC08002010B50448FEF70CFFF9
:102F9000BDE81040014800F08FB80000FC08002098
:102FA00010B50448FEF700FFBDE81040014800F0EE
:102FB00083B800003C09002010B50448FEF7F4FE79
:102FC000BDE81040014800F077B800007C090020FF
:102FD00010B504460068304988420CD12F4930486A
:102FE00001F014FE12212D48FDF78CFA12222B4914
:102FF0002C48FFF705FA2C49206888420ED1274853
:10300000123002F009F9254832211230FDF77AFA20
:103010002249322212312046FFF7F2F92349206873
:1030200088420ED11D48443002F0DEF81B483221A0
:103030004430FDF767FA1949322244312046FFF740
:10304000DFF91B49206888420FD114481921A830A4
:1030500001F0E8F8114832217630FDF753FA0F49B4
:103060003222A8312046FFF7CBF912492068884266
:1030700011D10A481921763001F0D4F807483221DD
:103080007630FDF73FFA054920463222BDE8104070
:103090007631FFF7B5B910BD00100140AA4C0020F1
:1030A000944C0020BC08002000480040004C004028
:1030B000004400400050004038B5016804460868EC
:1030C000C043C0060AD40868486800902046FEF74E
:1030D0003EFE2046BDE83840FFF77ABF38BD00000D
:1030E0001E4810B50068C16841F01001C16012228D
:1030F0001B491A48FFF784F91A480068C16841F073
:103100001001C1601649322212311648FFF778F9D2
:1031100015480068C16841F01001C16010493222B1
:1031200044311148FFF76CF910480068C16841F05C
:103130001001C1600A49322276310C48FFF760F96C
:103140000B480068C16841F01001C1600449322297
:10315000BDE81040A8310648FFF752B9BC0800206E
:10316000AA4C00203C0900203C080020FC0800205C
:103170007C080020FEE703B401984100009850EA63
:10318000C12018BF04204A0D18BF40F0010040F2D2
:10319000FF72B2EB515F08BF40F00200012808BF88
:1031A000052002B070470907090E002804DB00F172
:1031B000E02080F80014704700F00F0000F1E020DC
:1031C00080F8141D704700002DE9F04D2DED040B23
:1031D0002DED0E8B96B0DDE92550279CDDF890A0F3
:1031E00025F0004624F00048BAF1000F14BF012179
:1031F000002101EB4502FC4953184A1093422AD39F
:10320000002814BF0123002303EB44030B44F749B8
:103210008B4220D358EA00019FEDF59B76D0DFF872
:10322000D8B35D4503D1BAF1000F05D188E0BAF1FA
:10323000000F08BF002100D0012101EB450111F56D
:10324000001F08D8002814BF0121002101EB440110
:1032500011F5001F0BD99DED261B9DED240B16B01B
:10326000BDEC0E8B04B0BDE8F04D00F069BE002748
:10327000002DBCBFE149884521DAE1498845A8BF56
:1032800002271CDAC3451ADCDE4901EB2851142958
:1032900008DDC1F1340220FA02F101FA02F28242A1
:1032A0000DD108E058B9C1F1140228FA02F101FA6F
:1032B00002F2424503D101F00101C1F1020756EAD1
:1032C0000A0124D1002C22DA002D18BF022F01D0D0
:1032D000012F0AD00220FDF766F916B0BDEC0E8B67
:1032E00004B0BDE8F04D00F013BE0220FDF75BF91D
:1032F00000F00EFE51EC100B02F098FC41EC100BAC
:1033000016B0BDEC0E8B04B0BDE8F08D18E09FED5B
:10331000BEAB9FEDBF8B002871D1B848804522D14C
:1033200005F1804010F5801008BFBAF1000F07D0FA
:10333000B3450ADC002CA8BF9DED260BE0DA0DE0BA
:10334000B0EE490AF0EE690ADAE7002C06DA9DEDE4
:10335000260B51EC100B02F069FC6FE0AE4878448C
:1033600090ED000BCCE7D8454DD1002C48DA2EB1BA
:1033700086423AD1BAF1000F42D126E0BAF1000FED
:1033800013D00220FDF70FF900F0F6FD8DED020BD2
:103390009DED240B8DED000B10EE900A039961F367
:1033A0001E0003909DED020BAAE78DED02AB9DED93
:1033B000240B1AEE901A10EE900A8DED000B61F3BB
:1033C0001E0003909DED020B9AE78DED028B9DEDA3
:1033D000240B18EE901A10EE900A8DED000B61F39D
:1033E0001E0003909DED020B8AE709DA9DED240B88
:1033F00051EC190B53EC102B02F0E0FC1EE020E026
:103400009DED240B7CE786421BDAB4F1804F0DD092
:10341000A4F10050B0F1FF5013D1002D11DB9DED50
:10342000240B51EC100B01F050FC07E09DED240B38
:1034300053EC102B51EC100B00F0C2BC41EC100B04
:103440005EE79DED240B51EC100B00F0C1FEBAF1CC
:10345000000FCDE90E0142D19FED710B46B3A6F1ED
:10346000E040B0F17F600CD05E4538D1002D00DA2D
:10347000A7B3022F0CBF01204FF0FF3002F023FE54
:10348000DCE7002D01DD002C0DDA002D01DD002C24
:103490001FDB002D16DA002C14DB012F08BF9FED77
:1034A000620B3FF42DAFB0EE4A0AF0EE6A0A27E74E
:1034B000022F18BF002D0CD0012F0AD1002DFFF6CE
:1034C0001FAF06E0002DB8BF002C08DA012F3FF433
:1034D00017AFB0EE480AF0EE680A11E71BE00120D2
:1034E00000EBE57050EA070115D0791EB0EE498A6D
:1034F000F0EE698A084308BF9FED4D8B4E480025CA
:10350000804570DD4D494E48884514DDB0420DDBE5
:10351000002C19DB2FE00120FDF745F816B0BDECBB
:103520000E8B04B0BDE8F04D00F016BDB34502DCD3
:10353000002C09DC1FE0864202DA002C1BDA03E0D3
:103540005E452BDD002C16DD0220FDF72CF800F087
:1035500013FD8DED020B53EC1A2B51EC180B02F0FE
:1035600019FECDE900010399019861F31E00039053
:103570009DED020BC4E60220FDF715F800F00CFDEE
:1035800010EE901A18EE900A8DED020B8DED008B67
:1035900061F31E0003909DED020BB1E69DED0E0B55
:1035A00053EC192B51EC100B03F000F89FED260B98
:1035B000CDE9080153EC102B9DED080B51EC100BDD
:1035C00002F0E8FD9FED221B53EC112B02F016FFD9
:1035D0009DED081B53EC112B02F0DCFD9FED1E1B33
:1035E00053EC112B3CE08CE0FFFF1F00FFFF0F00AE
:1035F000000000000000F03F0000F03F0000F07FFE
:103600000000404301FCFFFF000000000000F07FCD
:10361000000000000000000036360000000000003E
:103620000000000000000080000000000000F0FF2B
:10363000000000000000F0BF0000E0410000F04387
:10364000FFFFEF3F00000000000000000000D03F3F
:10365000555555555555D53F000000000000E03F39
:1036600002F0CCFE9DED080B41EC1A0B53EC102B35
:1036700051EC100B02F08EFD53EC1A2B02F08AFD78
:1036800041EC1A0B9FEDFE0B53EC102B9DED080B3C
:1036900051EC100B02F07EFD41EC1B0B9FEDFA0B81
:1036A00051EC1A0B53EC102B02F074FD41EC1A0B89
:1036B0009FEDF70B53EC102B9DED080B51EC100B0D
:1036C00002F068FD53EC1A2B02F070FF41EC1A0B6C
:1036D00051EC1B0B53EC1A2B02F0B4FA0690CDE917
:1036E00006519DED060B53EC1B2B51EC100B02F019
:1036F0005DFF53EC1A2B02F081FE41EC100B00F041
:10370000A1B90020B6F5801F0EDA9FEDE30B53EC54
:10371000102B9DED0E0B51EC100B02F03BFDCDE993
:103720000E016FF034000E4600EB2650A0F2FF377A
:10373000C6F31300DA4940F07F6646F040568842EF
:10374000D8BF002408DDD7498142C8BF012403DC6B
:103750000024A6F580167F1CD348784400EBC400F3
:103760000F9690ED00CB9DED0E0B53EC1C2B51EC06
:10377000100B02F01BFF9DED0E0B41EC1B0B53ECED
:103780001C2B51EC100B02F05DFA41EC100B51ECCC
:10379000190B53EC102B02F011FB41EC1D0B51ECFB
:1037A0001B0B53EC1D2B02F0F5FC41EC1A0BBF4830
:1037B0008DED10AB7844109590ED000B4FF000505C
:1037C00040EA660000EB84408DED080B00F5002018
:1037D00009909DED080B53EC1C2B51EC100B02F0E3
:1037E000E5FE9DED0E1B53EC112B02F007FE41ECA4
:1037F000100B53EC102B9DED100B51EC100B02F045
:10380000C9FC9DED080B41EC1C0B53EC102B9DEDFE
:10381000100B51EC100B02F0BDFC53EC1B2B02F013
:10382000EDFD53EC1C2B02F0C1FE53EC1D2B02F0FE
:10383000B1FC41EC1C0B53EC1A2B51EC1A0B02F0AF
:10384000A9FC41EC1B0B9A480621B0EE4B0AF0EEA6
:103850006B0A784400F0E0FAB0EE401AF0EE601A1D
:10386000B0EE41DAF0EE61DA53EC1B2B51EC1B0B9E
:1038700002F090FC53EC1D2B02F08CFC9DED100B24
:1038800041EC1B0B53EC1A2B51EC100B02F0DAF944
:1038900053EC1C2B02F07EFC53EC1B2B02F0D2F9F4
:1038A0009DED100B41EC1B0B53EC102B51EC100B4E
:1038B00002F070FC41EC1D0B9FED7FEB53EC1E2BD7
:1038C00002F0C0F953EC1B2B02F0BCF90890CDE9D3
:1038D00008519DED080B53EC1E2B51EC100B02F020
:1038E00065FE53EC1D2B02F061FE53EC1B2B02F026
:1038F00085FD9DED080B41EC1D0B53EC102B9DED50
:10390000100B51EC100B02F045FC41EC1B0B53EC7F
:103910001A2B51EC1D0B02F03DFC9DED080B41EC08
:103920001A0B53EC102B51EC1C0B02F033FC53EC34
:103930001A2B02F087F941EC1A0B51EC1B0B53ECDC
:103940001A2B02F07FF90C90CDE90C519DED0C0B78
:1039500053EC1B2B51EC100B02F028FE53EC1A2BEE
:1039600002F04CFD41EC1B0B9FED550B53EC102B63
:103970009DED0C0B51EC100B02F00CFC41EC1A0B02
:103980009FED510B51EC1B0B53EC102B02F002FC82
:1039900041EC1B0B9FED4E0B53EC102B9DED0C0BD4
:1039A00051EC100B02F0F6FB53EC1B2B02F04AF922
:1039B00041EC100B4848784400EBC40090ED001B2C
:1039C00051EC100B53EC112B02F03CF941EC1B0BAA
:1039D000384602F078FBCDE9080153EC1B2B51EC83
:1039E0001A0B02F02FF941EC100B3C48784400EB25
:1039F000C40090ED00CB51EC100B53EC1C2B02F0EB
:103A000021F99DED081B53EC112B02F01BF90690D8
:103A1000CDE906519DED080B53EC102B9DED060BE7
:103A200051EC100B02F0C2FD53EC1C2B02F0BEFD5A
:103A300053EC1A2B02F0BAFD53EC1B2B02F0DEFC08
:103A400041EC100B9DED261B53EC102B8DED001B54
:103A500000959DED260B51EC100B02F09BFB9DEDAC
:103A6000000B41EC1A0B53EC102B9DED260B51EC87
:103A7000100B02F09BFD9DED061B53EC112B2FE06C
:103A8000000000604715F73FFE822B654715F73FA2
:103A900044DF5DF80BAE543E0000000000004043E0
:103AA0008E9803007AB60B00B2310000E0310000BE
:103AB000EA300000000000000000000000000840A4
:103AC000000000E009C7EE3FFD033ADC09C7EE3F06
:103AD000F5015B14E02F3EBE762F0000302F000072
:103AE00002F058FB53EC1A2B02F0ACF89DED060BDC
:103AF00041EC1A0B53EC102B9DED000B51EC100B0D
:103B000002F048FBCDE90C019DED0C0B51EC1A0BBA
:103B100053EC102B02F096F8CDE902010C46AA49AD
:103B20008C422FDB611A084318D19DED0C0B53EC2E
:103B3000102B9DED020B51EC100B02F037FD41EC08
:103B40001B0B9FEDA30B51EC1A0B53EC102B02F047
:103B500079F853EC1B2B02F01BFC2DD20220FCF752
:103B600022FD00F009FA10EE901A18EE900A8DED81
:103B7000020B8DED008B61F31E0003909DED020B97
:103B8000FFF7BEBB944A24F00041914214D39349FD
:103B9000214408437FF4EFAC9DED0C0B53EC102B4C
:103BA0009DED020B51EC100B02F000FD53EC1A2BB3
:103BB00002F0EEFB7FF6DFAC24F000408849894A32
:103BC000002601EB205182422BDA481C4FF4801171
:103BD00021FA00F02044844AC0F30A517A44A1F249
:103BE000FF3192ED000B814A8DED080BCA4020EAAF
:103BF0000202C0F3130040F48010C1F1140120FA56
:103C000001F60992002CB8BF76429DED080B53ECEB
:103C1000102B9DED0C0B51EC100B02F0C7FCCDE905
:103C20000C019DED0C0B51EC1A0B53EC102B02F018
:103C300009F89FED6F0B0890CDE9085153EC102B5C
:103C40009DED080B51EC100B02F0A4FA41EC1B0B9C
:103C50009FED690B53EC102B9DED080B51EC100BF5
:103C600002F098FA9DED0C0B41EC1C0B53EC102B61
:103C70009DED080B51EC100B02F098FC53EC1A2B45
:103C800002F0BCFB9FED5E1B53EC112B02F082FA9D
:103C900053EC1C2B01F0D6FF41EC1A0B51EC1B0B23
:103CA00053EC1A2B01F0CEFFCDE902019DED020B82
:103CB00053EC1B2B51EC100B02F078FC53EC1A2B3D
:103CC00002F09CFB9DED020B41EC1A0B53EC102B08
:103CD00051EC100B02F05EFACDE908014A489DED67
:103CE000080B0521784400F097F89DED081B51EC76
:103CF000100B53EC112B02F04DFA9DED021B53EC0F
:103D0000112B02F07BFBCDE906019DED020B53EC7C
:103D10001A2B51EC100B02F03DFA53EC1A2B01F068
:103D200091FF9FED3B0B41EC1A0B53EC102B9DEDDB
:103D3000060B51EC100B02F039FC9DED060B41EC2B
:103D40001B0B53EC102B9DED020B51EC100B02F0F2
:103D500021FA53EC1B2B02F031F853EC1A2B02F032
:103D600025FC9DED021B53EC112B02F01FFC53ECC4
:103D7000192B02F043FBCDE9020101EB06500115BE
:103D80000029C8BF039015DC9DED020B324651ECB3
:103D9000100B02F02CFDFFF7EEF9042808BF00F02D
:103DA000FBF832469DED020B51EC100B02F01FFDAB
:103DB000CDE902019DED020B51EC180B53EC102BD9
:103DC00002F0E8F9FFF73ABB000090400000000065
:103DD000FE822B654715973C00CC904000346F3F26
:103DE00001FCFFFF0000E03FB82D0000FFFF0F00C7
:103DF00000000000432EE63F396CA80C615C20BE39
:103E0000EF39FAFE422EE63F882C00000000000049
:103E1000000000000000004070B504462DED028B4C
:103E20004D1E00EBC500B0EE408AF0EE608A90EDCA
:103E3000000B35F0060017D053EC182B51EC100B8B
:103E400002F0A8F941EC100B6D1E04EBC50090EDDB
:103E5000001B51EC100B53EC112B01F0F3FE41EC65
:103E6000100B35F00600E7D1022D36D0042D1CD002
:103E7000062D1CBFBDEC028B70BD53EC182B51EC12
:103E8000100B02F087F994ED0A1B53EC112B01F093
:103E9000D9FE53EC182B02F07DF994ED081B53EC7E
:103EA000112B01F0CFFE41EC100B53EC182B51EC11
:103EB000100B02F06FF994ED061B53EC112B01F07F
:103EC000C1FE53EC182B02F065F994ED040B53EC92
:103ED000102B01F0B7FE41EC100B53EC182B51ECFA
:103EE000100B02F057F994ED021B53EC112B01F06B
:103EF000A9FE53EC182B02F04DF994ED001B53EC86
:103F0000112B01F09FFEBDEC028B41EC100B70BD3C
:103F10009FED070B10B553EC102B9FED070B51ECE9
:103F2000100B01F04BFF41EC100B10BD0000000026
:103F30000000000000000000000000000000F03F52
:103F400010B553EC112B51EC100B01F07BFE41EC42
:103F5000100B10BD000000009FED050B10B553ECD9
:103F6000102B51EC100B01F029FF41EC100B10BD90
:103F700000000000000000009FED050B10B553ECA1
:103F8000102B51EC100B02F005F941EC100B10BD99
:103F900000000000000000709FED050B10B553EC11
:103FA000102B51EC100B02F0F5F841EC100B10BD8A
:103FB000000000000000001000B58BB000200121BF
:103FC00003900490CDE90601CDE90810059000901A
:103FD0000190029069461448FCF7F6FB69461248C6
:103FE000FCF7F2FB0028F9D10E20059069460F4836
:103FF000FCF7EAFB69460D48FCF7E6FB0028F9D11F
:104000006420FDF765F90848FCF760FF02210648C7
:10401000FCF7C8FB0548FCF759FF02210348FCF7F1
:10402000C1FB0BB000BD0000AC070020D40700208E
:1040300005480321002201704170426082600C300B
:10404000C170072141707047D400002008B500F00E
:104050008EF90090FFF7ECFF0B4DA5F1200404F161
:1040600010062078084955F820201839081F904775
:104070006070217806EB8101085C207001216846A0
:1040800000F069F9EDE70000F400002008B500F049
:104090006EF900900121684600F05DF9FAE74A8860
:1040A00052BA82818A8852BAC28143888380098841
:1040B0004ABA4280D31A0169B3F5805F01DB491E19
:1040C00003E013F5805F01DC491C016102EB413123
:1040D0000288891A816070470C4841880C48B1F504
:1040E000967F01D9042100E005214170C8B204285F
:1040F00007D0052803D0062805D0072800D10120C5
:10410000704700207047022070470000C04E00201A
:10411000E00000200A480322037C417C094803B9DF
:1041200059B1C270C078002806D0012804D00228F6
:1041300002D0032800D1012070470021C170F1E7AF
:10414000C04E0020E000002010B503680C680D4A46
:10415000A34201D00E2004E0884201D10C2000E0EF
:104160000D209070C0B20C2807D00D2803D00E2867
:1041700005D00F2800D1012010BD002010BD022065
:1041800010BD0000E00000200F48027C417C0F4879
:1041900082B1012A12D0012910D00B210170C8B2BE
:1041A00008280DD0092803D00A280BD00B2800D1ED
:1041B000012070470029EED10921EFE70A21EDE740
:1041C0000020704702207047C04E0020E000002011
:1041D00082B0CDE9000121F0004001909DED000B7F
:1041E00002B051EC100B704770B50C4D04464021E5
:1041F0002846FDF757F9207080212846FDF752F92F
:10420000074D607002212846FDF74CF9A07004218B
:104210002846FDF747F9E07070BD0000000C024031
:1042200000080240F0B506462DED028B83B025480C
:10423000002214460068CDE90002154610466B4680
:104240000F18F75D1F54401C0428F9DB002001AE55
:10425000195C3039092903D8641CE4B2315400E0F8
:104260003254401C0428F3DB23E0601E01F02BFFD6
:1042700041EC110B9FED140BFEF7A6FFC4F10400F7
:10428000B0EE408AF0EE608A305C01F033FF53EC10
:10429000182B01F07FFF41EC180B284601F02AFF94
:1042A00053EC182B01F0CEFC01F0E0FE641E85B249
:1042B000E4B2002CD9D10648058003B0BDEC028BD6
:1042C000F0BD00000C690008000000000000244060
:1042D000CC000020EFF30580002800D001207047BB
:1042E000FDF7F4F8FEF7F8FAFEF7CCF9FEF71CF943
:1042F000FEF75AFAFEF704FAFEF7F4F8FEF7D0F8E4
:10430000FEF790FAFEF718FAFEF732FAFEF76EFAA9
:10431000FEF7A4FAFEF7E4FEFFF74EFEFFF788FE75
:10432000FEF778F900F01EF8FEE701460020842928
:1043300000D0C81C704708B500F019F800900121A2
:10434000684600F008F8FAE710B500B9012000F05F
:1043500023FE002010BD10B501B9012100F042FE7E
:10436000002010BD10B500F0C5FE002010BD10B536
:10437000FFF7B0FF18B1BDE8104001F0A3BABDE8E7
:10438000104001F099BA7FB50D4604464169B0F975
:10439000080081B1A16971B1FFF7C7FFD4E9051227
:1043A0008DE80700D4E900102B46226901F04BFA92
:1043B000039004B070BDFFF7B8FF03A9CDE9000179
:1043C000208A2B4682B2D4E9001001F00FFA0128AE
:1043D00001D00020EDE70398EBE700002DE9F04164
:1043E000184C0F46054666692068001D00F0A4FCC5
:1043F00038B9206890F82C1001208840A1698143C9
:10440000A161681C07D137B12168BDE8F0410E48B1
:10441000091D00F0E1BC20683544B54245602168C3
:1044200005D2A068BDE8F041091D00F0BDBC606880
:10443000091D00F0B9FC206B854200D22563BDE860
:10444000F08100001C000020980F00202DE9F041B1
:10445000054600F0CDFC2E4C2069401C20612068F0
:104460002C4F10B1E06940B32DE025602069012890
:1044700029D1002606EB860007EB800000F086FCC1
:10448000761C072EF6D323488C3000F07FFC2148A1
:10449000A03000F07BFC1F48B43000F077FC1D48D2
:1044A000C83000F073FC1B48DC3000F06FFC19488A
:1044B0008C3060601430A06005E02068E96AC06A52
:1044C000884200D82560E06A401CE062E96A012069
:1044D000A26988401043A06101EB810007EB8000D6
:1044E000291D00F079FC00F0A3FCE06900280CD045
:1044F0002068E96AC06A884207D207494FF08050B5
:104500000860BFF34F8FBFF36F8FBDE8F0810000ED
:104510001C000020BC0E002004ED00E038B500F0C7
:1045200067FC104CA068C8B90F4800F02FFC0E487B
:10453000143000F02BFC0C482060143060600A4BF3
:1045400000202833009003F148020C210A2000F0DB
:10455000F1FEA06010B105A100F0E8FCBDE8384014
:1045600000F066BC58000020AC0F0020546D725162
:104570000000000030B4026C0B46002A0BD0C1686A
:104580001144C1604468A14201D30168C16030BCDC
:104590001846FBF740BF30BC70472DE9F041856BF2
:1045A000174604460026026C82B1C7B1E068FBF7EB
:1045B00032FFE168206C091AE1602268914202D260
:1045C0006168081AE060022F16D017E02068A8B9C9
:1045D000606801F0E3F90646002060600EE0A06824
:1045E000FBF719FF216CA0680844A060616888424D
:1045F00004D32068A06001E005B16D1E6D1CA563A9
:104600003046BDE8F08110B5044690F8510058B12D
:1046100001280CD002280FD0502080F31188BFF35E
:104620004F8FBFF36F8FFEE7206B00F015FC204625
:10463000BDE8104000F010BC10BD000010484FF461
:104640007051420706D0C01D0D4920F00700411AE5
:10465000C1F570510B4A00230144C2E90003083937
:10466000103A21F0070111604B600B600B1AC0E992
:10467000001393604FF000405360D060704700001B
:10468000941000207C000020144E154CA6F1C807A1
:104690004FF08058DFF84C9012E000BF00F0A8FB0C
:1046A000F068C568281D00F047FB2069401E2061A6
:1046B000E068401EE06000F0BBFB2846FFF7A3FF68
:1046C000E0680028EAD138680128F9D9C9F80080E3
:1046D000BFF34F8FBFF36F8FF2E70000840F00200E
:1046E0001C00002004ED00E00346009829B10260A0
:1046F000C0E90F31012100F051BE0060F8E72DE95B
:10470000F0479A46DDE9098481466FF00303206B88
:1047100003EB82021044089D20F00706700707D0C3
:10472000502080F31188BFF34F8FBFF36F8FFEE7E8
:1047300023180A5C83F834200A5C12B1401C10284C
:10474000F6D3002784F84370072D00D30625E562D1
:10475000C4E91157201D00F024FB04F1180000F0FB
:1047600020FB2461C5F107006462A061E76484F85E
:10477000507052464946304600F032FA2060B8F197
:10478000000F01D0C8F80040BDE8F08730B51149EE
:1047900000E011460A688242FBD34B685C188442F1
:1047A00003D1406818444860084643681C18944286
:1047B00009D1084C103C2468A24209D052681A441E
:1047C00042600A6812680260814200D0086030BD11
:1047D0000460F9E77C00002070B5002441600B4DB7
:1047E0000061914206D8D11A8269914206D2011D18
:1047F000686807E09A4203D2994201D3012403E09A
:10480000011D286800F0D0FA204670BD5800002035
:1048100010B5044600F0ECFAA06B28B15FF000047C
:1048200000F006FB204610BD0124F9E730B587B043
:104830002C4D4EE0049800284BDB069C606910B1BB
:10484000201D00F079FA02A800F0B8F8024604989A
:104850000A283ED2DFE800F00505053D26370505AC
:104860003D260598A169034601442046FFF7B4FFA1
:1048700000B3616A20468847E069012829D10020F9
:1048800000900598A169002342181946204601F0BE
:104890009DF978B9502080F31188BFF34F8FBFF393
:1048A0006F8FFEE70598A06128B181181346204656
:1048B000FFF792FF0DE0502080F31188BFF34F8F78
:1048C000BFF36F8FFEE794F8280010B9204600F080
:1048D000C3FA002204A9A86800F0B2FE0028A9D1FA
:1048E00007B030BD580000202DE9FC410F460546B9
:1048F00000F044FC01A800F061F80446019818B1EA
:1049000001F0D2F8BDE8FC81224EAFB170680068BA
:10491000A8B30027291B3A46B06800F01BFB01F042
:10492000C3F80028EED11C494FF080500860BFF357
:104930004F8FBFF36F8FE5E7A542EBD801F0B4F8D6
:1049400030682746C068C468201D00F0F5F9E069AA
:10495000012810D1A0692B4641193A462046FFF79D
:104960003BFF40B100200346014600902A46204606
:1049700001F02CF920B1616A20468847C2E707E0C0
:10498000502080F31188BFF34F8FBFF36F8FFEE786
:104990000127BFE75800002004ED00E00648416809
:1049A000096829B14168C968C968496801637047E5
:1049B0004FF0FF31FAE700001C00002070B50546FB
:1049C00000F07AFF064E04463069844203D200F0BC
:1049D00009F8012000E0002028602046346170BD05
:1049E00058000020F8B5194D1FE0C068C46806687B
:1049F000201D00F0A1F9616A20468847E06901287E
:104A000013D1A0693044B04206D924616060211DF1
:104A1000286800F0C9F908E000200346014600902C
:104A20003246204601F0D2F838B1286801680029E2
:104A3000DBD16968C5E90010F8BD502080F311880A
:104A4000BFF34F8FBFF36F8FFEE7000058000020C9
:104A500008484068401C4FF0500080F3118804D093
:104A6000BFF34F8FBFF36F8FFEE7BFF34F8FBFF3DF
:104A70006F8FFEE784000020074C2068016841B179
:104A8000C0680021D0F80000FFF72EFFFFF7CEFE30
:104A9000F3E701210020F7E7580000202DE9F0415D
:104AA000044600F0A5F994F9455004F1240609E004
:104AB000606A48B1304600F0BDFF08B100F0E0FA8E
:104AC0006D1E6DB2002DF3DC4FF0FF3684F84560AB
:104AD00000F0AEF900F08CF994F9445004F110079D
:104AE00009E0206948B1384600F0A4FF08B100F0A1
:104AF000C7FA6D1E6DB2002DF3DC84F84460BDE88A
:104B0000F04100F095B900002DE9F041054600277D
:104B100000F034FB314E306808B9FFF78FFDF068C4
:104B200005424BD1C5B3083568070ED005F0070024
:104B3000C0F108000544680707D0502080F31188B1
:104B4000BFF34F8FBFF36F8FFEE72DB370688542C1
:104B500034D82248103001460C6801E020460C464B
:104B60006168A94202D221680029F7D131688C42DC
:104B700024D007682168016060680837411B10294C
:104B80000FD96019420708D0502080F31188BFF375
:104B90004F8FBFF36F8FFEE710E041606560FFF756
:104BA000F5FD61687068401A7060B268904200D28A
:104BB000B060F06801430020C4E9000100F074FF18
:104BC000780707D0502080F31188BFF34F8FBFF3D1
:104BD0006F8FFEE73846BDE8F08100006C000020D2
:104BE00010B5031F4FF080741C601B1F21F00101E2
:104BF0001960191F044B0B6014390A60091F6FF00C
:104C0000020244380A6010BD514A00082DE9F04103
:104C1000054608880C46C0F30A02A2F580622A8085
:104C200048788978C00840EA4110C0F30A03A3F528
:104C300080636B80A078E178800940EA8100217967
:104C400002F5257240EA8120C0F30A01A1F58061D6
:104C5000A98020796679400840EAC610C0F30A00AE
:104C6000A0F58060E880268AA6F5806636B22E819F
:104C70006779BF09AF726779C7F30117EF724FF415
:104C8000A567BA420FD803F52573BB420BD801F5CF
:104C90002571B94207D800F52570B84203D806F54A
:104CA0002576BE4203D916212846FBF72BFCE08867
:104CB000A8812089E88160892882207BA874607B94
:104CC000E874E089A882BDE8F08100B52DED048B81
:104CD00083B041EC190B01F09DFB41EC180B18EE71
:104CE000100A18EE901A8DED008B002818BF0120D5
:104CF000084320F00040C0F17F6000F1E040C00FA9
:104D000014D019EE101A19EE900A8DED009B0029AF
:104D100018BF0121084320F00040C0F17F6000F17E
:104D2000E040C00F04BF0120FBF73DFC51EC180B25
:104D300003B0BDEC048B00BDD0E9013201699A607B
:104D4000D0E901235A604A68824201D182684A60F0
:104D5000002202610868401E086008687047000071
:104D6000034B036003F1540008608020106070471B
:104D700004010020044B036003F1540008604FF469
:104D800080701060704700005803002000F1080197
:104D90004FF0FF32C0E90112C160016100210160E2
:104DA000704700210161704730B50B685A1C02D072
:104DB00000F1080202E0026904E022465468256816
:104DC0009D42FAD953684B6099608A6051600861CE
:104DD0000168491C016030BD42684A6093688B607D
:104DE00093685960916008610168491C01607047CF
:104DF000502080F31188BFF34F8FBFF36F8F0A49A4
:104E00004868401C486001280CD10848006810F030
:104E1000FF0F07D0502080F31188BFF34F8FBFF3EF
:104E20006F8FFEE7704700008400002004ED00E073
:104E30000849486828B1401E486001D180F31188B4
:104E40007047502080F31188BFF34F8FBFF36F8FEF
:104E5000FEE700008400002070B5002827D0144D24
:104E6000A0F108046168E868014207D1502080F38E
:104E70001188BFF34F8FBFF36F8FFEE722683AB1FF
:104E8000502080F31188BFF34F8FBFF36F8FFEE781
:104E90008143616000F072F9606869680844686085
:104EA0002046FFF773FCBDE8704000F0FDBD70BD0B
:104EB0006C0000204FF0E020002101618161054974
:104EC0004FF47A720968B1FBF2F1491E4161072182
:104ED000016170471800002010B5FBF701FA114975
:104EE00010280ED300F1E02090F8F0030A789042E9
:104EF00007D2502080F31188BFF34F8FBFF36F8F1D
:104F0000FEE709480068896800F4E060884207D934
:104F1000502080F31188BFF34F8FBFF36F8FFEE7F0
:104F200010BD0000840000200CED00E010B5084B1F
:104F3000002200BF53F832401CB1521C082AF9D39A
:104F400010BD43F8321003EBC201486010BD0000F1
:104F50007C0E002070B515460E460446FFF748FF4C
:104F600094F944100020491C01D184F8440094F9BC
:104F70004510491C01D184F84500FFF759FFA06B8B
:104F800028B92A46314604F1240000F097F820465B
:104F9000BDE87040FFF782BD10B5020014D00F4885
:104FA000806B38B1502080F31188BFF34F8FBFF36F
:104FB0006F8FFEE700F0E2F800211046FFF70EFACF
:104FC00000F072FD002807D105494FF080500860BD
:104FD000BFF34F8FBFF36F8F10BD00001C00002088
:104FE00004ED00E070B50D4604000BD095B11E4AEB
:104FF000906BB8B1502080F31188BFF34F8FBFF38F
:105000006F8FFEE7502080F31188BFF34F8FBFF3FF
:105010006F8FFEE7502080F31188BFF34F8FBFF3EF
:105020006F8FFEE700F0AAF852692368591993427E
:1050300004D98B420AD9914202D807E08B42FAD9AF
:10504000881A21600021FFF7C9F900E0216000F013
:105050002BFD002807D105494FF080500860BFF3B1
:105060004F8FBFF36F8F70BD1C00002004ED00E078
:1050700002498A6A02604969416070471C00002049
:1050800001490120486270471C00002010B50C4601
:1050900050B1094909681831FFF786FE2046BDE87E
:1050A00010400121FFF79AB9502080F31188BFF317
:1050B0004F8FBFF36F8FFEE71C00002070B51446C2
:1050C0000D4668B10A4909681831FFF785FE0CB131
:1050D0004FF0FF3521462846BDE87040FFF77EB906
:1050E000502080F31188BFF34F8FBFF36F8FFEE71F
:1050F0001C00002030B587B00024039405AA04A941
:1051000003A80494FFF72CFEDDE903010094CDE928
:105110000110002315A11748059A00F094FB164DC5
:10512000002868631FD000F021FD012809D0401C31
:1051300019D1502080F31188BFF34F8FBFF36F8FC9
:10514000FEE7502080F31188BFF34F8FBFF36F8FBE
:105150004FF0FF3028630120E8616C6107B0BDE8C3
:10516000304000F06DB807B030BD000049444C45F8
:1051700000000000894600081C0000200248816BE6
:10518000491C8163704700001C0000201448816B9B
:1051900011B1012141627047002141628169B1FA78
:1051A00081F1C1F11F0101EB81020E4951F822305A
:1051B0006BB101EB820101F108034A6852684A6051
:1051C0009A4201D152684A60D1680160704750200C
:1051D00080F31188BFF34F8FBFF36F8FFEE700009E
:1051E0001C000020BC0E00200178592910D1417804
:1051F00059290DD141888088642809D94FF6FF725A
:10520000904205D001EB8100024902EA400008808B
:1052100070470000C8000020017859290CD141785E
:10522000592909D141888088642805D9A0F57F4291
:10523000FF3A01D00148418070470000C8000020BB
:105240001CB537480168374A914207D1502080F396
:105250001188BFF34F8FBFF36F8FFEE700683149AE
:10526000491E884207D1502080F31188BFF34F8F29
:10527000BFF36F8FFEE72C4908780190FF2008707C
:1052800008788DF800009DF800009DF8002000F0DF
:10529000F000904207D0502080F31188BFF34F8F69
:1052A000BFF36F8FFEE79DF80000204B00F0500029
:1052B00018700720986005E09DF8002052008DF8D6
:1052C0000020401E9DF800201206F5D498600328A7
:1052D00007D0502080F31188BFF34F8FBFF36F8F3B
:1052E000FEE74FF440709860019808700C48203039
:1052F000016841F470010160016841F07041016092
:10530000FFF7D8FD00205860FAF7B2FF084801689F
:1053100041F040410160FAF797FF00201CBD0000FA
:1053200000ED00E071C20F4100E400E084000020C5
:1053300034EF00E038B5049D18B153B1CAB181B162
:1053400020E0502080F31188BFF34F8FBFF36F8FA1
:10535000FEE7502080F31188BFF34F8FBFF36F8FAC
:10536000FEE7502080F31188BFF34F8FBFF36F8F9C
:10537000FEE739B1502080F31188BFF34F8FBFF3A0
:105380006F8FFEE748241C46012384F846302B46E5
:105390000094FFF7A9F9204638BD000070B50D460E
:1053A000040025D0FFF724FDD4E90F20216802FB7B
:1053B000001161600021A1632168A1600A46D4E95F
:1053C0000F01401E00FB0121E16021464FF0FF303C
:1053D00001F8440F487004F110008DB1FFF7D6FCBE
:1053E00004F12400FFF7D2FCFFF722FD012070BD7D
:1053F000502080F31188BFF34F8FBFF36F8FFEE70C
:1054000021690029F0D000F015FB0028ECD00449F8
:105410004FF080500860BFF34F8FBFF36F8FE3E70B
:1054200004ED00E02DE9FF4782B01D468A464FF0AB
:105430000008040003D0BAF1000F08D011E050209A
:1054400080F31188BFF34F8FBFF36F8FFEE7206C9F
:1054500038B1502080F31188BFF34F8FBFF36F8FA7
:10546000FEE7022D0AD1E06B012807D0502080F31F
:105470001188BFF34F8FBFF36F8FFEE700F00EFA76
:105480003F4F4FF000094FF0805648B9049838B1AB
:10549000502080F31188BFF34F8FBFF36F8FFEE76B
:1054A000FFF7A6FCA06BE16B884207D3022D05D065
:1054B0000498D0B1B8F1000F1AD01EE02A46514628
:1054C0002046FFF76AF8616A19B104F1240000F080
:1054D000B1FA20B13E60BFF34F8FBFF36F8FFFF77C
:1054E000A7FC012006B0BDE8F087FFF7A1FC22E091
:1054F0006846FFF7BDFD4FF00108FFF799FCFFF785
:105500003DFEFFF775FC94F94400401C01D184F87E
:10551000449094F94500401C01D184F84590FFF770
:1055200087FC04A9684600F027F930B12046FFF750
:10553000B5FA00F0B9FA0020D4E7FFF759FCA06BE8
:10554000E16B884213D1FFF773FC04F1100004995A
:10555000FFF79CFD2046FFF7A1FA00F0A5FA00280E
:105560009ED13E60BFF34F8FBFF36F8F98E7FFF779
:105570005FFC2046FFF792FA00F096FA90E70000F1
:1055800004ED00E02DE9F0471F46904689460400EF
:1055900003D0B9F1000F08D011E0502080F311883A
:1055A000BFF34F8FBFF36F8FFEE7206C38B15020F1
:1055B00080F31188BFF34F8FBFF36F8FFEE7022F89
:1055C0000AD1E06B012807D0502080F31188BFF387
:1055D0004F8FBFF36F8FFEE7FFF77EFC5020EFF396
:1055E000118680F31188BFF34F8FBFF36F8FA06BCD
:1055F000E16B884206D3022F04D0002086F3118885
:10560000BDE8F08794F945503A4649462046FEF7F2
:10561000C4FF681C04D06D1C84F845500120EDE7E0
:10562000606A0028FAD004F1240000F003FA002890
:10563000F4D0B8F1000FF1D00121C8F80010EDE767
:105640002DE9F747002683B08A46040003D0BAF15B
:10565000000F08D011E0502080F31188BFF34F8F66
:10566000BFF36F8FFEE7206C38B1502080F31188B4
:10567000BFF34F8FBFF36F8FFEE700F00FF9DFF836
:10568000F4804FF000094FF0805748B9059838B1C1
:10569000502080F31188BFF34F8FBFF36F8FFEE769
:1056A000FFF7A6FBA56BC5B151462046FEF762FF8A
:1056B0006D1EA563206950B104F1100000F0BAF925
:1056C00028B1C8F80070BFF34F8FBFF36F8FFFF79B
:1056D000AFFB012006B0BDE8F087059808B11EB108
:1056E00006E0FFF7A5FB27E06846FFF7C1FC0126AF
:1056F000FFF79EFBFFF742FDFFF77AFB94F94400AA
:10570000401C01D184F8449094F94500401C01D11B
:1057100084F84590FFF78CFB05A9684600F02CF84B
:10572000002820460AD0FFF7B9F900F0BDF920465D
:10573000FFF76EF80028B3D00020CBE7FFF768F83A
:1057400090B104F124000599FFF7A0FC2046FFF773
:10575000A5F900F0A9F90028A2D1C8F80070BFF39C
:105760004F8FBFF36F8F9BE72046FFF797F900F04D
:105770009BF995E704ED00E02DE9F0410C460500AA
:1057800011D0C4B1FFF734FB174B5A696E6820681B
:10579000911B471C17D02F689B6A9F4219D09642D5
:1057A00017D8012410E0502080F31188BFF34F8FE9
:1057B000BFF36F8FFEE7502080F31188BFF34F8F48
:1057C000BFF36F8FFEE70024FFF732FB2046BDE8F2
:1057D000F081884205D9401A20602846FFF748FC2E
:1057E000F1E700202060DCE71C0000202DE9FF5FCE
:1057F0008346DDE90E87994616468A469000FFF7F4
:1058000083F905001CD05420FFF77EF9040014D062
:105810000020256384F85100CDE90240CDE90087DE
:105820004B46324651465846FEF769FF2046FEF782
:105830000DFE012004B0BDE8F09F2846FFF70CFBE9
:105840004FF0FF30F6E7F0B585B0DDE90B640A9D57
:10585000A6B1DCB1542700972663022684F8516074
:10586000002604AFCDE90246CDE90057FEF747FF19
:105870002046FEF7EBFD049805B0F0BD502080F304
:105880001188BFF34F8FBFF36F8FFEE7502080F377
:105890001188BFF34F8FBFF36F8FFEE70548C169D3
:1058A00019B1806B18B100207047012070470220A9
:1058B000704700001C00002001484069704700004C
:1058C0001C00002010B5FFF707FB0148406910BD20
:1058D0001C0000202DE9F0412E4C0027A06B40B1A8
:1058E000206A401C2062606A00B101273846BDE88A
:1058F000F0816669761C666113D16068006838B112
:10590000502080F31188BFF34F8FBFF36F8FFEE7F6
:105910006068A1686160A060A06A401CA062FFF797
:105920003DF8206BDFF87080864209D3606800681C
:1059300080B16068C068C568686886420DD220631F
:105940002068C06A00EB800158F821000128CAD9FC
:105950000127C8E74FF0FF30F1E7281DFFF7ECF90A
:10596000A86A18B105F11800FFF7E6F9E86A012105
:10597000A26981401143A16100EB800108EB810025
:10598000291DFFF729FAE86A2168C96A8842CDD340
:105990000127CBE71C000020BC0E002070B50400DE
:1059A0004FF0000140D0214D2868844207D050209C
:1059B00080F31188BFF34F8FBFF36F8FFEE7A06CAA
:1059C00038B1401EA064636CE26A9A422CD040B1A8
:1059D0002AE0502080F31188BFF34F8FBFF36F8F01
:1059E000FEE7201DFFF7A8F9114A012150B9E06A2E
:1059F00000EB800352F8233023B9AB6901FA00F0C1
:105A00008343AB61606CE062C0F10700A061E06AB3
:105A1000AB6981401943A96100EB800002EB800073
:105A2000211DFFF7D9F90121084670BD1C00002097
:105A3000BC0E00202DE9F041C068C468ACB104F18F
:105A400018000746FFF778F9154DA86B0126A0B19D
:105A500039461448FFF7C0F9E06A2968C96A8842E4
:105A60001CD901206E62BDE8F081502080F31188BE
:105A7000BFF34F8FBFF36F8FFEE7201DFFF75CF979
:105A8000E16AAA6906FA01F01043A86101EB8100FE
:105A90000449B43901EB8000211DDBE70020E2E777
:105AA0001C000020700F00202DE9F0472C4D002431
:105AB0002746A86B38B1FFF79BF9A86B401EA86377
:105AC000A86B40B146E0502080F31188BFF34F8FA0
:105AD000BFF36F8FFEE72969224E0120D1B3A6F1F3
