:020000040800F2
:1000000000690020E90200082B2B00081B270008CC
:10001000292B00082F0600084534000800000000C6
:10002000000000000000000000000000290200089D
:100030002909000800000000850200084D2B000877
:100040000303000803030008030300080303000878
:100050000303000803030008030300080303000868
:100060000303000803030008030300086D060008EB
:100070007906000885060008910600089D0600081C
:10008000A9060008B5060008030300083D0600089D
:1000900031060008030300080303000803030008F7
:1000A00003030008512C00080303000803030008A1
:1000B0000303000803030008030300080303000808
:1000C00003030008030300080303000803030008F8
:1000D0000303000841320008593200087132000859
:1000E00003030008030300080303000803030008D8
:1000F000030300080303000803030008C106000807
:1001000003030008030300080303000803030008B7
:100110009D2D0008B52D0008030300080303000807
:1001200003030008CD060008D906000803030008F1
:100130000303000803030008030300086106000826
:1001400049060008550600080303000803030008D9
:1001500003030008E5060008F106000889320008DC
:100160000303000803030008030300080303000857
:100170000303000803030008030300080000000055
:10018000030300080303000800F002F800F03CF845
:100190000AA090E8000C82448344AAF10107DA45E2
:1001A00001D100F031F8AFF2090EBAE80F0013F0F8
:1001B000010F18BFFB1A43F001031847A077000096
:1001C000C0770000103A24BF78C878C1FAD8520727
:1001D00024BF30C830C144BF04680C6070470000C1
:1001E0000023002400250026103A28BF78C1FBD840
:1001F000520728BF30C148BF0B6070471FB507F0DA
:1002000071FA1FBD10B510BD00F0DCF91146FFF703
:10021000F5FF04F04BFD00F0FAF903B4FFF7F2FF2D
:1002200003BC00F0FDF900002C4B19680868B0E829
:10023000F04F80F30988BFF36F8F4FF0000080F319
:10024000118870470000000008480068006880F3CB
:1002500008884FF0000080F3148862B661B6BFF3DF
:100260004F8FBFF36F8F00DF00BF00BF08ED00E0CE
:10027000DFF80C00016841F470010160704700BFB5
:1002800088ED00E0EFF30980BFF36F8F134B1A681E
:100290001EF0100F08BF20ED108A20E9F04F10600B
:1002A00009B44FF0500080F31188BFF34F8FBFF3B4
:1002B0006F8F05F0F9FD4FF0000080F3118809BC45
:1002C00019680868B0E8F04F1EF0100F08BFB0ECD6
:1002D000108A80F30988BFF36F8F704720000020D9
:1002E000EFF3058070470000094880470948004740
:1002F000FEE7FEE7FEE7FEE7FEE7FEE7FEE7FEE7D6
:10030000FEE7FEE704480549054A064B7047000032
:10031000FD2B00088901000800530020006900201F
:10032000006300200063002053EA020C00F06980A3
:100330002DE9F04B4FF00006002B1FBFB3FA83F5F9
:1003400003FA05F424FA05F65E4012BF1643B2FA2A
:1003500082F502FA05F4C5F120051EBF22FA05FC5C
:1003600044EA0C04203556EA044C4FEA144418BF02
:10037000641C4FF000084FF00009904271EB030C31
:1003800039D3002919BFB1FA81F701FA07F6B0FA9B
:1003900080F700FA07F6C7F120071EBF20FA07FC16
:1003A00046EA0C062037B6FBF4FCA7EB0507103F26
:1003B00007F01F0BCBF120060CFA0BFB2CFA06F60C
:1003C00044BFB3460026202FA4BF5E464FF0000B6B
:1003D0005BEA060C08BF4FF0010B19EB0B09ABFBF6
:1003E000027C48EB0608C01B06FB02CC0BFB03CCCF
:1003F00071EB0C01C1E70B46024641464846BDE899
:10040000F08B13B54FF000004FF00001AFF3008008
:10041000BDE81C407047032A40F2308010F0030C06
:1004200000F0158011F8013BBCF1020F624498BF47
:1004300011F801CB00F8013B38BF11F8013BA2F1E4
:10044000040298BF00F801CB38BF00F8013B11F05F
:10045000030300F02580083AC0F0088051F8043BFF
:10046000083A51F804CBA0E80810F5E7121D5CBF6C
:1004700051F8043B40F8043BAFF30080D20724BF9F
:1004800011F8013B11F801CB48BF11F8012B24BF33
:1004900000F8013B00F801CB48BF00F8012B704782
:1004A00010B5203AC0F00B80B1E81850203AA0E80F
:1004B0001850B1E81850A0E81850BFF4F5AF5FEA43
:1004C000027C24BFB1E81850A0E8185044BF18C9F6
:1004D00018C0BDE810405FEA827C24BF51F8043B9D
:1004E00040F8043B08BF7047D20728BF31F8023BF1
:1004F00048BF11F8012B28BF20F8023B48BF00F885
:10050000012B70474FF000020429C0F0128010F058
:10051000030C00F01B80CCF1040CBCF1020F18BFDF
:1005200000F8012BA8BF20F8022BA1EB0C0100F072
:100530000DB85FEAC17C24BF00F8012B00F8012B45
:1005400048BF00F8012B70474FF0000200B513467A
:1005500094469646203922BFA0E80C50A0E80C50E3
:10056000B1F12001BFF4F7AF090728BFA0E80C5094
:1005700048BF0CC05DF804EB890028BF40F8042B8D
:1005800008BF704748BF20F8022B11F0804F18BFFA
:1005900000F8012B704770477047704710B500F0A6
:1005A00009F8006810BD10B5044600F003F80460B7
:1005B00010BD000000487047A0520020004870475E
:1005C000A05200207546FFF7F9FFAE4605006946C8
:1005D000534620F00700854618B020B5FFF792FE7D
:1005E000BDE820404FF000064FF000074FF0000834
:1005F0004FF0000B21F00701AC46ACE8C009ACE8B5
:10060000C009ACE8C009ACE8C0098D46704710B518
:100610000446AFF300802046BDE81040FFF7FDBD63
:1006200001491820ABBEFEE7260002007047FEE736
:10063000014800F002BB0000CC070020014800F098
:10064000FCBA0000CC070020014800F0F6BA000018
:10065000F4070020014800F0F0BA0000F407002081
:10066000014800F0EABA0000F4070020014800F059
:10067000F7BD00009C0A0020014800F0F1BD000019
:10068000DC0C0020014800F0EBBD0000DC0900207C
:10069000014800F0E5BD00003C0D0020014800F0DD
:1006A000DFBD00003C0A0020014800F0D9BD000079
:1006B0001C0C0020014800F0D3BD00007C0C002081
:1006C000014800F0CDBD0000FC0A0020014800F008
:1006D000C7BD00009C0D0020014800F0C1BD000016
:1006E0005C0B0020014800F0BBBD0000FC0D0020A9
:1006F000014800F0B5BD0000BC0B002001681823C4
:10070000CAB2103AB2FBF3F2054B6FF30901032AA8
:100710009B5CC36500D9091D8165084670470000D0
:100720006C78000810B5014600208B698A6A4FF08A
:10073000C07453B1B3F5005F15D072B1012A0CD06B
:10074000022A0AD0032A09D104E01AB1012A06D0EC
:10075000022A03D1C96AC90100D5012010BDC96AA6
:10076000A142FAD010BD002AF7D0012AF2D0022A05
:10077000F3D0032AF3D010BD30B50468256825F402
:1007800080252560046863608368402B036803D07C
:1007900099600068C26030BD9A600068C16030BD79
:1007A0000B4A10EE100A12F82D1F491CC9B2117025
:1007B0000A290BD88900064A091FC9B2030A5054F6
:1007C0001144020C4B708A70000EC8707047000014
:1007D000D451002070B5044600F02EF815490020D1
:1007E00091F82D200A2A11D882B1042303EB820349
:1007F00001F8220001EB82028025507095707F2560
:10080000DBB2D57081F82C30002209E00023F9E733
:1008100023681D686D06FCD58D5C5D60521CD2B2EC
:1008200091F82C309342F3D881F82D0081F82C00F8
:1008300070BD0000D451002070B53548354D364CA0
:100840000078052862D2DFE800F0031E3D454D0028
:100850003248007800EE100AB8EE400AFFF7A0FF19
:100860002F48007800EE100AB8EE400AFFF798FF14
:10087000688800EE100AB8EE400AFFF791FF294899
:1008800090ED010A3EE094ED100AFFF789FF94ED28
:10089000140AFFF785FF94ED110AFFF781FF94ED2D
:1008A000150AFFF77DFF94ED120AFFF779FF94ED2B
:1008B000160AFFF775FF94ED130AFFF771FF94ED29
:1008C000170A1FE094ED040AFFF76AFF94ED030A8C
:1008D000FFF766FF94ED0A0AFFF762FF94ED090A3D
:1008E000FFF75EFF288800EE100AB8EE400AFFF717
:1008F00057FF688800EE100AB8EE400AFFF750FF75
:1009000095ED020ABDE87040FFF74ABF70BD0000D8
:10091000DA0000207052002004520020DC00002089
:10092000DD0000208C5200207047704790F8202096
:10093000012A07D0022A05D0416A41F48021416290
:1009400001207047006842690A43426100207047F5
:10095000F0B590F820500468A468012D05D0022D50
:1009600003D0416A41F4802153E014F0406F01D17B
:10097000E5004BD5C4F30164022C03D9416A41F46C
:10098000000146E00125A5401D608D684FF4C0734D
:100990009DB1CE6835434E6845EAC605066803EB4F
:1009A0000417F5514FF4C275076805EB04150E697D
:1009B0007E51097D012905D009E00E88CD6845EA00
:1009C0004655EBE701684E5946F480764E51117951
:1009D000D2F805504FF4C67641EA0525016806EBCA
:1009E00004168D511178D2F801204FF4C47541EAF4
:1009F0000221026805EB04155151006803EB041154
:100A0000425842F0010242500020F0BD416A41F4D8
:100A1000001141620120F0BD10B590F82020012A9C
:100A200007D0022A05D0416A41F4802141620120A9
:100A300010BD3B48D0F8002242F00102C0F800226D
:100A4000D0F8002222F47C52C0F80022D0F8002214
:100A50004B6A42EA0322C0F800220A7D02F01F031B
:100A600001229A40D0F81C329343C0F81C32CB6963
:100A7000B3B9D0F80C329343C0F80C328C894B6870
:100A800064F31F434C6900EBC404C4F840320C8982
:100A90000B6864F31F434C6900EBC404C4F8443290
:100AA000CB69012B16D1D0F80C321343C0F80C32AD
:100AB0000C884B6864F31F434C6900EBC404C4F812
:100AC00040320C89CB6864F31F434C6900EBC404CB
:100AD000C4F844328B69002BD0F804320ED0134393
:100AE000C0F804320B69002BD0F8143208D013433D
:100AF000C0F81432096A012904D008E09343EFE7F3
:100B00009343F5E7D0F81C121143C0F81C12D0F83B
:100B1000001221F00101C0F80012002010BD0000F9
:100B200000640040704730B590F82040012C05D09B
:100B3000022C03D0416A41F480215DE00468002961
:100B400055D02469A40754D04FF4D874056804EB39
:100B500001142D5915F00405956005682D594ED0E6
:100B6000ED08556005682C59C4F34004D4604FF477
:100B7000DA74056804EB01142D5905F00F051561B1
:100B800005682D59C5F30725956105682C59240C76
:100B900054614FF4DC72046802EB0112A4581C701B
:100BA0000468A458240A5C700468A458240C9C703F
:100BB0000468A258120EDA704FF4DE72046802EB79
:100BC0000112A4581C710468A458240A5C710468BA
:100BD000A458240C9C710468A258120EDA710068A3
:100BE00081B1016941F020010161002030BDE4685C
:100BF000A8E7416A41F400114162012030BD6D0D4A
:100C00001560AFE7C16841F02001C160EDE7024621
:100C1000002092F82010012901D002290CD111687E
:100C20008A68520100D501208A68120100D5401C53
:100C30008968C90000D5401C70472DE9F05F054662
:100C4000006800244669D0F804908768D0F80CB09A
:100C5000D0F810A0D0F81880F10748D0F90714D0C8
:100C600001218160B80703D5284600F09AFA0CE00C
:100C7000780702D54FF4006407E0380702D54FF437
:100C8000805402E0284600F08BFAF80516D5296852
:100C90004FF480708860B80503D5284600F083FAC9
:100CA0000CE0780502D544F4005407E0380502D57D
:100CB00044F4804402E0284600F074FAF80316D5A4
:100CC00029684FF480308860B80303D5284600F0C7
:100CD0006CFA0CE0780302D544F4004407E03803D2
:100CE00002D544F4803402E0284600F05DFA300773
:100CF00007D55FEACB6004D52968102044F400745E
:100D0000C86070074FF0080707D55FEA0B7004D57D
:100D10002868C760284600F0B1F9B00706D52868F2
:100D2000C068800702D0284600F0AAF9700607D5EF
:100D30005FEACA6004D52968102044F48064086121
:100D4000B00607D55FEA0A7004D52868076128460F
:100D500000F0F6F9F00606D528680069800702D091
:100D6000284600F0EEF9B00308D55FEAC96005D562
:100D7000296810204860284600F0E4F9F00307D500
:100D80005FEA097004D528684760284600F00EFA2B
:100D9000300446D55FEA497040D5F00504D55FEAD6
:100DA000C87001D044F00104B00504D55FEA887032
:100DB00001D544F00204700504D55FEA487001D5FE
:100DC00044F00404300529D518F0700F26D008F03F
:100DD0007000402815D006DC102809D020280AD041
:100DE000302816D10AE050280ED0602811D10EE02C
:100DF00044F008040DE044F010040AE044F020043C
:100E000007E044F0400404E044F0800401E044F4CE
:100E100080742868816921F070018161296804204B
:100E20004860002C05D0686A204368622846FFF7B6
:100E300079FEBDE8F09F70B5040003D094F820005F
:100E400010B104E0012070BD204600F081F8206858
:100E5000016821F00201016000F068FC05460526EA
:100E600004E000F063FC401B0A2811D820684068A9
:100E70008007F6D42068016841F00101016000F0AC
:100E800055FC05460BE000F051FC401B0A2806D932
:100E9000606A40F40030606284F82060D2E7206825
:100EA0004068C007EFD0207E0128206801683DD04F
:100EB00021F080010160607E01282068016838D03F
:100EC00021F040010160A07E01282068016833D034
:100ED00021F020010160E07E0128206801682ED009
:100EE00041F010010160207F01282068016829D0AD
:100EF00021F008010160607F01282068016824D08A
:100F000021F004010160D4E902010843D4E904128C
:100F1000114308436168491E08432168C8610020E5
:100F20006062012084F82000002070BD41F0800143
:100F3000C0E741F04001C5E741F02001CAE721F0D8
:100F40001001CFE741F00801D4E741F00401D9E7EF
:100F5000F0B587B0044614216846FFF7F5FA424B16
:100F60004248DFF800E11968D4F800C03F4A032581
:100F70000226092710300024491CF4452AD11960A3
:100F8000012907D1016841F000710160006800F09B
:100F900000700590106840F0080010601068CDE9FE
:100FA000005600F00800CDE9047069463048CDE9EC
:100FB000024500F0DDFA00220521132000F042FC7A
:100FC000132000F031FC00220521142000F03AFC2F
:100FD000142043E0DFF89CE0F44541D1D0F800C094
:100FE0004CF0806CC0F800C0D0F800C001290CF0B3
:100FF000806CCDF814C0196007D1016841F0007110
:101000000160006800F000700590106840F0020078
:101010001060106802AB00F0020005904FF44050E1
:10102000CDE9000683E8B0006946134800F0A0FA55
:10103000002205213F2000F005FC3F2000F0F4FBDA
:1010400000220521402000F0FDFB402000F0ECFBD9
:1010500000220521412000F0F5FB412000F0E4FBD7
:1010600007B0F0BD006400400C00002030380240A2
:10107000000C02400068004000040240704700007D
:1010800010B52A4CA04223D1294B2A4A0021FFF750
:101090004AFD28480068A0F50071013905D00129F2
:1010A00003D0022901D003290CD12149401E08395F
:1010B000C0B208701F4900EB4000D83901EBC000F6
:1010C0001B4925E02068416941F00201416110BDE2
:1010D000194CA042FBD1164B164A10333432002172
:1010E000FFF721FD134834300068012813D002288F
:1010F00011D0A0F50070053806D00128E2D10C49C6
:101100000C481031483803E009490A48103160386A
:1011100003F03AFBD6E709490A7C0AB901220A74AE
:101120000349103101F0FEFDCCE70000CC070020A0
:101130009C00002070510020F4070020C0510020C6
:10114000704770477047000070B5044690F8200063
:10115000012804D0606A40F40020606218E0022098
:1011600084F820002068016821F00101016000F08E
:10117000DDFA05460EE000BF00F0D8FA401B0A2851
:1011800008D9606A40F400306062052084F82000CD
:10119000012070BD20684068C007EDD1606270BD5D
:1011A00070477047704770477047704770472DE928
:1011B000F0410446876D00F0B9FA064694F8350010
:1011C0000025022806D08020606584F83450012074
:1011D000BDE8F0812068016821F0160101602068F7
:1011E000416921F080014161206C08B9A06C20B1F7
:1011F0002068016821F0080101602068016821F081
:10120000010101600BE000F091FA801B052806D96E
:101210002020606504F8345F03206070D8E7206800
:101220000068C007EFD194F85C103F208840B86098
:1012300004F8345F012060700020C9E790F8351091
:10124000022903D08021416501207047052180F8E3
:1012500035100068016821F001010160002070472D
:101260002DE9F84304464FF00009CDF8009063489B
:101270004FF41651A56D0068B0FBF1F72E6894F895
:101280005C10082000FA01F131420FD021680A6891
:1012900052070BD50A6822F004020A6094F85C1029
:1012A0008840A860606D40F00100606594F85C10B3
:1012B0004FF0010808FA01F0304208D0216849696E
:1012C000090604D5A860606D40F00200606594F8DE
:1012D0005C1004208840304208D0216809688907E2
:1012E00004D5A860606D40F00400606594F85C105F
:1012F00010208840304218D021680968090714D5A9
:10130000A86020680168490304D50068000308D577
:10131000A16C07E00168C90503D4016821F0080148
:101320000160216C09B12046884794F85C102020A8
:101330008840304231D021680968C9062DD5A8609F
:1013400094F8350005282068016806D0490347D580
:10135000006800031DD4616C1CE021F016010160DF
:101360002068416921F080014161206C08B9A06CBE
:1013700020B12068016821F00801016094F85C1038
:101380003F208840A86084F8349084F83580216D2F
:101390001FE0E16B09B120468847606D00282BD023
:1013A000606DC00714D0052084F8350020680168FE
:1013B00021F0010101600098401C0090B84203D860
:1013C00020680068C007F6D184F8349084F835802E
:1013D000E16C002910D001B02046BDE8F043084779
:1013E0000168C905D5D4016821F01001016084F8B5
:1013F000349084F83580CCE7BDE8F8831C000020E9
:101400002DE9F041044600F091F906465CB1002553
:1014100084F83450022084F835002068016821F0F7
:10142000010101600DE00120BDE8F08100F07EF9CE
:10143000801B052805D920206065032084F835002D
:10144000F2E720680068C007F0D1226811682048E0
:101450000140D4E901031843D4E903363343184368
:1014600063691843A3691843E3691843236A18435F
:101470000843616A042903D1D4E90B1319430843D3
:10148000106020684069666A20F0070130460E430C
:10149000012704280CD1A06A0643E06A40B1204627
:1014A000FFF740F920B14020606584F83570BAE755
:1014B000206846612046FFF721F994F85C203F211F
:1014C00091408160656584F835700020ACE70000CC
:1014D0003F8010F02DE9F0410446866D90F834000D
:1014E000002501280DD0012084F8340094F83570CF
:1014F0000020012F07D084F8340002252846BDE8DB
:10150000F0810220FBE7022784F8357060652046F1
:10151000FFF732F994F85C103F208840B0602068F3
:10152000016841F0160101602068416941F08001C5
:101530004161206C20B12068016841F00801016020
:101540002068016841F001010160D7E770B50446E9
:1015500000F0ECF80546601C02D004480078044412
:1015600000F0E4F8401BA042FAD370BD1000002048
:101570002DE9F84FDFF87CB100224FF001084FF061
:10158000030A4FF00F090BF1040E00BF0B6808FAB5
:1015900002F42340A3426ED14D68022D01D0122DDA
:1015A0000ED1D50800EB850CDCF820505607F70E5D
:1015B00009FA07F6B5430E69BE402E43CCF8206009
:1015C000066855000F790AFA05FC07F0030726EABA
:1015D0000C06AF40374307604E68012E05D0022E3F
:1015E00003D0112E01D0122E0ED18668CF6826EAC4
:1015F0000C06AF40374387604668A6430C79C4F3B6
:101600000014944034434460C6688C6826EA0C0693
:10161000AC403443C4604C68E40065D5364C256862
:1016200045F480452560246822F0030504F48044D5
:101630000094324C2E19D6F8084895072F0F09FA56
:1016400007F5AC432E4DA84201D1002524E02D4DD5
:10165000A84201D101251FE02B4DA84201D102254E
:101660001AE02A4DA84201D1032515E0284DA842D1
:1016700002D1042510E037E0264DA84201D105250E
:101680000AE0254DA84201D1062505E0234DA842D8
:1016900001D1072500E00825BD402543C6F80858BC
:1016A000DBF800405D464E689C43F60300D51C43C2
:1016B0002C60DEF8004075464E689C43B60300D5AA
:1016C0001C432C600B4D08352C684E689C43F60279
:1016D00000D51C432C60074D0C352C684E689C438C
:1016E000B60200D51C432C60521C102AFFF44EAFEA
:1016F000BDE8F88F003C0140443802400030014012
:10170000000002400004024000080240000C0240B9
:10171000001002400014024000180240001C024069
:101720000069084000D0012070470000014880682F
:1017300070470000100000200248816802781144C0
:1017400081607047100000200B4810B5016841F41B
:1017500000710160016841F480610160016841F439
:1017600080710160032000F08DF8002000F006F881
:1017700000F03EF8002010BD003C024010B50146CC
:1017800088B00022192000F05DF8192000F04CF814
:1017900013480024016841F400310160006805A984
:1017A00000F400300690684600F016F900F044F9A5
:1017B0000C494000B0FBF1F10C480B4A491E026095
:1017C00040F2E732C0E90324C0E9011400F0FAFA5C
:1017D00010B1012008B010BD044800F023FBF9E768
:1017E0004438024040420F00004401405C0E00209B
:1017F0000C4882B0016841F480410160006800F447
:10180000804000900748001F016841F0805101604E
:101810000068002200F0805000900F21901E02B05E
:1018200000F010B844380240002809DB00F01F0225
:10183000012191404009800000F1E020C0F8001132
:1018400070470000F0B40E4B1B680C46C3F3022334
:10185000C3F10705042D00D90425191D072901D25C
:10186000002300E0DB1E012606FA05F1491E214097
:1018700099409E40761E16403143F0BC01F0FBBDFE
:101880000CED00E0064900F0070208684FF6FF0380
:10189000184040EA0220034A1043086070470000E5
:1018A0000CED00E00000FA052DE9F0470E460500BA
:1018B00065D0DFF81481D8F80000F7B200F00F000F
:1018C000B04207D288F80070D8F8000000F00F008E
:1018D000B04254D128683D4C810712D5400703D54A
:1018E000206840F4E05020602878000703D5206885
:1018F00040F4604020602068A96820F0F0000843B0
:1019000020602878C0072DD0304968680839012840
:1019100012D0022813D0032811D0096889070029A2
:101920002DDA216821F0030101432160FFF7FEFE5B
:10193000814641F2883A0EE009688903EFE70968B9
:101940008901ECE7FFF7F2FEA0EB0901514502D94E
:101950000320BDE8F0872068696800F00C00B0EB58
:10196000810FEFD1D8F80010404601F00F01B142CD
:1019700007D90770006800F00F00B04201D00120C5
:10198000E7E72878400705D52068E96820F4E050AB
:10199000084320602878000706D52068296920F4CC
:1019A000604040EAC100206000F056F82168084A13
:1019B000C1F30311515CC840064908600020FFF7DD
:1019C000DDFE0020C5E70000003C02400838024070
:1019D000747800081C0000200F2202600C4A136873
:1019E00003F003034360136803F0F003836013689C
:1019F00003F4E053C36012684FF4E05303EAD202E9
:101A000002610448006800F00F00086070470000A1
:101A100008380240003C0240044805490068096853
:101A2000044AC1F38221515CC84070471C00002069
:101A300008380240847800080448054900680968AD
:101A4000044AC1F34231515CC84070471C00002079
:101A50000838024084780008104810B5006810F07B
:101A60000C010F4818D0042916D0082914D10B4CAA
:101A7000241F216801F03F02216821680023C1F37F
:101A80008811A1FB0001FEF74FFC2168C1F3014161
:101A9000491C4900B0FBF1F010BD000008380240BD
:101AA0000024F4002DE9F84F050076D02878DFF8FF
:101AB000F8B2BE4CC00749D0DBF800105846C1F35D
:101AC0008101012908D00068C0F3810002280AD1F1
:101AD000201D0068400206D52068800336D568685E
:101AE0000028E2D032E06868B0F5803F10D0B0F551
:101AF000A02F206810D020F480302060206820F4CF
:101B0000802020606868A0B1FFF710FE06460CE058
:101B1000206840F48030F4E740F480202060F7E74C
:101B2000FFF704FE801B642873D820688003F7D574
:101B30000CE0FFF7FBFD064605E000BFFFF7F6FDF2
:101B4000801B6428F0D820688003F7D42878DFF859
:101B5000608280074FF000093ED5DBF80010584640
:101B600011F00C0F09D00068C0F3810002280BD1DE
:101B70008D48001F0068400206D42068800715D5F4
:101B8000E868012809D111E0E868B8B10120C8F877
:101B90000000FFF7CBFD064605E002E1FFF7C6FDBA
:101BA000801B0228C0D820688007F7D520682969E3
:101BB00020F0F80040EAC10020600DE0C8F8009075
:101BC000FFF7B4FD064604E0FFF7B0FD801B0228D6
:101BD0001FD820688007F7D42878000722D5724ED6
:101BE000744869696C3671B101210160FFF79EFD8F
:101BF000074604E0FFF79AFDC01B022809D83068A9
:101C00008007F7D50EE0C0F80090FFF78FFD07467C
:101C100005E083E0FFF78AFDC01B02287ED830680C
:101C20008007F7D42878400768D5DFF87CA1002723
:101C30000AF1380ADAF80000C0000BD4DAF8001014
:101C400041F08051CAF80010DAF80000012700F0D6
:101C500080500090584E3068C00510D4306840F471
:101C600080703060FFF762FD009005E0FFF75EFDD9
:101C70000099401A022851D83068C005F6D54A4E5E
:101C8000A868683601280FD00528306810D020F0E9
:101C900001003060306820F004003060A868B8B1FE
:101CA000FFF744FD00900FE0306840F00100F4E7DA
:101CB00040F004003060F7E7FFF738FD0099411A63
:101CC00041F28830814264D830688007F4D50EE054
:101CD000FFF72CFD009007E0FFF728FD0099411A5F
:101CE00041F28830814254D830688007F4D42FB153
:101CF000DAF8001021F08051CAF80010A869C0B3CA
:101D0000DBF80010C1F3810102294AD002284846BD
:101D100007D0C8F86000FFF709FD00E039E005468C
:101D20003AE04746C8F86000FFF700FD064604E0C9
:101D3000FFF7FCFC801B02282BD820688001F7D419
:101D4000D5E907010843A96A1C4A490802EB014189
:101D50006A6A41EA8211084395F82C1040EA016151
:101D60001148001F016001203866FFF7DFFC0546BF
:101D700005E014E0FFF7DAFC401B022809D82068D0
:101D80008001F7D50BE000BFFFF7D0FC401B022815
:101D900002D90320BDE8F88F20688001F4D4002028
:101DA000F8E70120F6E7000008380240003802405A
:101DB00000004742800E4742007000400000FFFFD5
:101DC0007047704710B5040003D094F83D0010B17F
:101DD00007E0012010BD002084F83C00204600F000
:101DE0000DF8022084F83D00211D206800F036FF28
:101DF000012084F83D00002010BD000008B50068F7
:101E00000649884208D10648016841F480710160A2
:101E1000006800F48070009008BD000000200040C1
:101E2000403802400168CA6842F00102CA60006896
:101E3000816801F00701062903D0016841F0010122
:101E4000016000207047704770B504460068016962
:101E50004FF00005C943890715D4C168C9438907F4
:101E600011D4E91E01610120207720688069800774
:101E7000204602D0FFF7E7FF04E000F098F8204684
:101E800000F096F8257720680169C943490717D4FF
:101E9000C168C943490713D46FF0040101610220EE
:101EA00020772068806910F4407F204602D0FFF739
:101EB000CAFF04E000F07BF8204600F079F82577AF
:101EC00020680169C943090716D4C168C9430907D5
:101ED00012D46FF008010161042020772068C069E6
:101EE0008007204602D0FFF7AEFF04E000F05FF865
:101EF000204600F05DF8257720680169C943C906CE
:101F000017D4C168C943C90613D46FF01001016129
:101F1000082020772068C06910F4407F204602D056
:101F2000FFF791FF04E000F042F8204600F040F88F
:101F3000257720680169C943C90708D1C168C94329
:101F4000C90704D1891E0161204600F033F82068DA
:101F50000169C943090609D4C168C943090605D402
:101F60006FF0800101612046FFF72AFF20680169B8
:101F7000C943490609D4C168C943490605D46FF06D
:101F800040010161204600F01FF820680169C94343
:101F900089060BD4C168C943890607D46FF02001B4
:101FA00001612046BDE87040FFF70BBF70BD704770
:101FB0007047000000680349884201D1FFF7BCBBAD
:101FC0007047000000440140704710B504460068A7
:101FD000416994F83920C1F3C011212A0BD151B1C4
:101FE000416921F080014161206B08B1FFF7DFF802
:101FF000204600F049FF2068416994F83A20C1F377
:102000008011222A0BD151B1416921F04001416177
:10201000606B08B1FFF7CBF8204600F027FF0020E7
:1020200010BD704770B5026804461068D1685369E6
:1020300010F00F0F51D003F0010501F490763543F5
:102040005DD0C20705D0CA0503D5E26B42F001029C
:10205000E263420705D5DA0703D0E26B42F00202E1
:10206000E263820705D5DA0703D0E26B42F004028F
:10207000E263020705D5DA0703D0E26B42F00802FB
:10208000E263E26B002A34D0800604D5880602D5CC
:10209000204600F002FF20684069E16BC0F3801029
:1020A00001F008010143204624D000F0DFFE206843
:1020B000416949061AD5416921F040014161606BCF
:1020C000A0B11B490165606BFFF7B8F8002810D07C
:1020D000606B016DBDE87040084783060FD58B0625
:1020E0000DD52046BDE8704000F0D7BE2046FFF772
:1020F00098FF70BDFFF795FF0020E06370BD0306F9
:1021000006D50B0604D52046BDE8704001F066B840
:102110004006F3D54806F1D5D168204621F04001AC
:10212000D160202184F8391000F0F6FA70BD00006B
:10213000CD2D000870B5040004D094F839000025B6
:1021400010B106E0012070BD84F83850204600F040
:1021500023F8242084F839002068C16821F4005154
:10216000C160204600F0E4FE2068016921F490413E
:1021700001612068416921F02A0141612068C1683C
:1021800041F40051C160E563202084F8390084F8EF
:102190003A00002070BD00002DE9F04F87B00446E2
:1021A00014216846FEF7D0F9F848DFF8DCC3103890
:1021B0002368F64A01270221002506154FF003087F
:1021C0004FF0080B4FF040094FF0006A634566D1AD
:1021D000136843F400231360126802F4002205928E
:1021E000026842F001020260026802F001020592F8
:1021F000026842F004020260006802AB00F00400D2
:1022000005900220CDE9007083E880096946E04826
:10221000FFF7AEF97000009001AB022083E881095E
:102220006946DC48FFF7A4F9DFF87083DA494046D5
:10223000C8F80010C0E901A5C0E90356C8F8145059
:10224000C8F81850C8F81C50C8F820505746C8F8AD
:102250002450FFF7D5F808B1FEF767FBCF4DCE4805
:10226000C4F8348060353030C8F8384085E88102E1
:102270000020C5E903066861A861E8612862686218
:102280002846FFF7BDF808B1FEF74FFB2563002293
:1022900005213420AC63FFF7D5FA34206DE0DFF878
:1022A00000C363456ED11368002543F480131360A7
:1022B000126802F480120592026842F00402026081
:1022C000026802F004020592026842F0080202600D
:1022D000006801AB00F0080005904FF480500090BA
:1022E000022083E881096946AA48FFF741F90420E2
:1022F000009001AB022083E881096946A948FFF7F5
:1023000037F9DFF89882A44908F1C008303940460F
:10231000C8F80010C0E901A5C0E90356C8F8145078
:10232000C8F81850C8F81C50C8F820505746C8F8CC
:102330002450FFF765F808B1FEF7F7FA96489A4D72
:10234000C4F834807830C8F8384085E8810200202D
:10235000C5E903066861A861E861286268622846E9
:10236000FFF74EF808B1FEF7E0FA256300220521D9
:102370003520AC63FFF766FA3520FFF755FA07B052
:10238000BDE8F08FDFF824C24FF0070E63454FD150
:102390007E4A121D136843F010031360126802F0A6
:1023A00010020592026842F001020260006800F02B
:1023B000010005904FF4C0608DE883416946744880
:1023C000FFF7D6F8784F7A4860373860C7E901A53B
:1023D000C7E9035680157D61C7E906504FF44030C8
:1023E000C7E908053846FFF70BF808B1FEF79DFA74
:1023F0006763BC636C4F6E48C0377830C7F808908D
:10240000C7E903567D61BD61FD613D627D62C7E93B
:10241000000A3846FEF7F4FF08B1FEF786FA276394
:10242000002205212520BC63FFF70CFA2520A4E734
:10243000DFF880C1634549D1136843F4003313606A
:10244000126802F400320592026842F00102026052
:10245000006800F0010005900C208DE8834169467A
:102460004B48FFF785F84C48534F48303860C7E970
:1024700001A5C7E903567D61BD61FD613D62384636
:102480007D62FEF7BDFF08B1FEF74FFA6763BC63DC
:10249000494F414860376030C7F80890C7E9035694
:1024A0007D61BD61FD613D627D62C7E9000A38461C
:1024B000FEF7A6FF08B1FEF738FA276300220521D0
:1024C0002620BC63FFF7BEF9262056E7DFF8ECC0F4
:1024D00063457AD11368AB4643F4802313601268D6
:1024E00002F480220592026842F002020260006853
:1024F00000F0020005904FF440608DE8834169468A
:102500002F48FFF735F8DFF8B080234908F1C008FD
:1025100018394046C8F80010C0E901A5C0E90356C3
:10252000C8F81450C8F81850C8F81C50C8F8205003
:102530005746C8F82450FEF763FF08B1FEF7F5F9D7
:102540001548204DC4F834801830C8F8384085E864
:102550008102C5E903B6C5F814B0C5F818B0C5F8CE
:102560001CB0C5F820B02846C5F824B0FEF748FFD7
:1025700008B1FEF7DAF92563002205212720AC63B4
:10258000FFF760F92720F8E6004C00404038024091
:10259000000002400008024040600240DC090020C8
:1025A00000500040000C0240FC0A002000100140D6
:1025B00040640240004400401C0C002000480040E1
:1025C000000402403C0D0020FFE7274A93427FF4BD
:1025D000D6AE264A136843F020031360126802F057
:1025E00020020592026842F004020260006800F0D6
:1025F00004000590C0208DE8830969461C48FEF759
:10260000B7FF1D4F1B484FF020683860C7E90185B0
:10261000C7E903567D61BD61FD613D6238467D625B
:10262000FEF7EEFE08B1FEF780F96763BC63124F58
:10263000104860377830C7E903567D61BD61FD61A0
:102640003D627D6287E801033846FEF7D9FE08B196
:10265000FEF76BF92763002205214720BC63FFF7D3
:10266000F1F8472089E60000001401404438024098
:1026700000080240286402409C0D0020F8B5044682
:1026800090F83A0020283CD1C1B3BAB394F838008E
:10269000012836D0012084F83800A162A2850025E7
:1026A000E563222084F83A00636B1748D863636BB4
:1026B00016481864636B1648D864606B134605654A
:1026C0000846666B216802463046091DFEF702FF88
:1026D000206801684168009184F83850C16841F46D
:1026E0008071C1602068416941F001014161206849
:1026F000416941F0400141610020F8BDFFE7012040
:10270000FBE70220F9E70000272E0008632E0008EF
:10271000DD2D0008704770477047FEE70F4810B581
:102720000D4901600621416000214FF400328160B3
:10273000C0E90312120142610176012242768176DC
:10274000C17601774177FEF776FB002803D0BDE81C
:102750001040FEF7EAB810BD00640040CC0700202E
:102760000F4810B50D4901600621416000214FF46A
:1027700000328160C0E90312120142610176012238
:1027800042768176C17601774177FEF754FB0028C7
:1027900003D0BDE81040FEF7C8B810BD0068004087
:1027A000F4070020394808B5016841F48001016050
:1027B000016801F480010091016841F40011016099
:1027C0000068002200F40010009005210B20FFF7A4
:1027D00039F80B20FFF728F8002205210C20FFF71D
:1027E00031F80C20FFF720F8002205210D20FFF71B
:1027F00029F80D20FFF718F8002205210E20FFF719
:1028000021F80E20FFF710F8002205210F20FFF716
:1028100019F80F20FFF708F8002205211020FFF714
:1028200011F81020FFF700F8002205211120FFF712
:1028300009F81120FEF7F8FF002205212F20FFF7ED
:1028400001F82F20FEF7F0FF002205213920FEF7C6
:10285000F9FF3920FEF7E8FF002205213A20FEF7B4
:10286000F1FF3A20FEF7E0FF002205214520FEF7A8
:10287000E9FF4520FEF7D8FF002205214620FEF79C
:10288000E1FFBDE808404620FEF7CEBF30380240E9
:1028900010B5A4B003F03AF91C221D496846FDF7B3
:1028A000FFFD0021684602F0D4FA1A4C18491C2298
:1028B000A0601C3107A8FDF7F3FD002107A802F076
:1028C000C8FA134960601C2238310EA8FDF7E8FDF4
:1028D00000210EA802F0BDFA0D4920601C225431DF
:1028E00015A8FDF7DDFD002115A802F0B2FA084990
:1028F00020601C2270311CA8FDF7D2FD00211CA80D
:1029000002F0A7FA206003F021F924B010BD000006
:10291000E07700080000002000B587B01421684669
:10292000FDF712FE19480021026842F080020260A1
:10293000026802F080020592026842F00102026021
:10294000026802F001020592026842F0020202608F
:10295000026802F002020592026842F0040202607C
:10296000026802F004020592026842F00802026066
:102970000068029100F0080005904020CDE90001B8
:1029800069460348FEF7F4FD07B000BD3038024049
:10299000000C02400C4810B50A4901604FF4527116
:1029A000416000214FF4FA62C0E902120161802106
:1029B0008161FFF707FA002803D0BDE81040FDF75A
:1029C000B4BF10BD002000401C0800200C4810B50A
:1029D0000A4901604FF4E1314160002181600C221D
:1029E000C160C0E904128161C161FFF7A3FB002847
:1029F00003D0BDE81040FDF798BF10BD004C00406B
:102A00005C0800200C4810B50A4901604FF4E13120
:102A10004160002181600C22C160C0E90412816123
:102A2000C161FFF787FB002803D0BDE81040FDF728
:102A30007CBF10BD005000409C0800200E4810B51F
:102A40000C4901600D4941604FF4805181600021C3
:102A50004FF48062C0E903120C22C0E90521C16174
:102A6000FFF768FB002803D0BDE81040FDF75DBF0D
:102A700010BD000000100140DC080020A08601000D
:102A80000C4810B50A4901604FF4E1314160002162
:102A900081600C22C160C0E904128161C161FFF74D
:102AA00049FB002803D0BDE81040FDF73EBF10BD34
:102AB000004400401C0900200C4810B50A49016080
:102AC0004FF4E1314160002181600C22C160C0E916
:102AD00004128161C161FFF72DFB002803D0BDE81E
:102AE0001040FDF722BF10BD004800405C090020E7
:102AF0000C4810B50A4901604FF4E13141600021F2
:102B000081600C22C160C0E904128161C161FFF7DC
:102B100011FB002803D0BDE81040FDF706BF10BD33
:102B2000001401409C090020FEE7704730B4034CBC
:102B30004466034C846630BC02F0AEBA995000087B
:102B4000A75000080A2002F00BF9FBE710B550204F
:102B500080F31188BFF34F8FBFF36F8F03F026FE12
:102B600018B104494FF080500860002080F31188AC
:102B700010BD000004ED00E030B593B03021684690
:102B8000FDF7E2FC14210CA8FDF7DEFC1948002536
:102B9000016841F080510160006800F080501190A0
:102BA0001548016841F4804101600068022400F486
:102BB0008040119001200090000401908001CDE937
:102BC000064008200890A820CDE9090404200B90B5
:102BD0006846FEF767FF0CA90F2081E831004FF42B
:102BE000A0500F90E002109005210CA8FEF75CFEAB
:102BF00013B030BD403802400070004010480168FA
:102C000041F4700101600F48016841F00101016069
:102C10000C4A00210832116002680B4B1A40026016
:102C2000031D0A4A1A60026822F4802202600548E5
:102C30000C30016002495806803908607047000076
:102C400088ED00E000380240FFFFF6FE103000245F
:102C50000148FFF7F9B800005C0E0020F0B50268EB
:102C6000254C264D264E274F274B4FF0804CA04237
:102C700009D0604507D0A84205D0B04203D0B84281
:102C800001D0984204D122F0700E4A6842EA0E0246
:102C9000A0421BD0604519D0A84217D0B04215D031
:102CA000B84213D0984211D0184DA8420ED0184DFA
:102CB000A8420BD0174DA84208D0174DA84205D006
:102CC000164DA84202D0164DA84203D122F44075F9
:102CD000CA682A434D6922F080022A4302608A684A
:102CE000C2620A688262A04201D0984201D1096999
:102CF000016301214161F0BD00000140000400407A
:102D000000080040000C0040000401400040014069
:102D1000004401400048014000180040001C0040F1
:102D2000002000400F4B104A012810D002280DD17E
:102D3000086898604868D86003F1080090ED000AC0
:102D400082ED000A90ED010A82ED010A70470868E1
:102D500018604868586093ED000A82ED020AD0605E
:102D600070470000BC000020C051002030B5002298
:102D70001C216FF02F04435CA3F13005092D05D809
:102D800002EB820204EB42021A4492B2491C282947
:102D9000F1DB0148028030BDD000002010B50448AE
:102DA000FFF740F9BDE81040014800F0EDBA00001F
:102DB0005C08002010B50448FFF734F9BDE8104066
:102DC000014800F0E1BA00009C08002010B5806BBB
:102DD0000021C185C184FFF724F910BD70B5846B53
:102DE0002068406994F83910C0F3C01000252129EB
:102DF00004D118B1E584204600F046F82068406907
:102E000094F83A10C0F38010222904D118B1E58556
:102E1000204600F02BF8E06B40F01000E063204605
:102E2000FFF7FFF870BD10B50146806B09680968AF
:102E3000C90513D40021C1850168CA6822F48072D3
:102E4000CA6001684A6922F001024A6101684A6960
:102E500022F040024A61202180F83A10FFF75AFC24
:102E600010BD10B5806BFFF756FC10BD0168CA6835
:102E700022F49072CA6001684A6922F001024A6134
:102E8000202180F83A1070470168CA6822F0C00219
:102E9000CA60202180F83910704710B590F83A10B8
:102EA000222901D0022010BD8168B1F5805F11D0C8
:102EB0000169002901681FD0496801F07F03816A18
:102EC0004A1C82620B70C18D491E0904090CC18520
:102ED00018D02BE00269816A002A0268526805D086
:102EE000D2B20A80816A491C8162ECE7C2F308020F
:102EF0000A80816A891CF7E74A68816A4B1C8362F1
:102F00000A70E0E70168CA6822F02002CA6001681E
:102F1000CA6822F48072CA6001684A6922F001021C
:102F20004A61202180F83A10FFF7F4FB002010BD21
:102F30002DE9F041044600680169E26821F440513E
:102F4000114301612169A068E26908436169114385
:102F500022680843D16849F20C6399430143D16068
:102F600020684169A26921F4407111434161E2691D
:102F70006425B2F5004F9748974922684FF0320810
:102F80003FD08A4201D082427CD1FEF755FD00EB52
:102F9000C00101EB001061688900B0FBF1F6FEF79B
:102FA0004BFD00EBC00101EB001061688900B0FB34
:102FB000F1F0B0FBF5F06FF01801484306EB80012B
:102FC00008EB0110B0FBF5F000F0F006FEF734FD61
:102FD00000EBC00101EB001061688900B0FBF1F06B
:102FE000B0FBF5F006EB0016FEF726FD00EBC00186
:102FF00001EB001061688900B0FBF1F7FEF71CFDE2
:10300000D2E08A4201D082423DD1FEF715FD00EBAD
:10301000C00101EB001061684900B0FBF1F0B0FBAA
:10302000F5F00601FEF708FD00EBC00101EB001012
:1030300061684900B0FBF1F7FEF7FEFC00EBC00150
:1030400001EB001061684900B0FBF1F0B0FBF5F056
:103050006FF01801484307EB800108EBC100B0FB9B
:10306000F5F000F0F80006EB4006FEF7E5FC00EB9B
:10307000C00101EB001061684900B0FBF1F7FEF7F9
:10308000DBFC3CE055E0FEF7C7FC00EBC00101EBC8
:10309000001061684900B0FBF1F0B0FBF5F00601EB
:1030A000FEF7BAFC00EBC00101EB001061684900BB
:1030B000B0FBF1F7FEF7B0FC00EBC00101EB001034
:1030C00061684900B0FBF1F0B0FBF5F06FF018015A
:1030D000484307EB800108EBC100B0FBF5F000F0BE
:1030E000F80006EB4006FEF797FC00EBC00101EB91
:1030F000001061684900B0FBF1F7FEF78DFC00EBB2
:10310000C00101EB001061684900B0FBF1F0B0FBB9
:10311000F5F06FF01801484307EB800108EBC100A0
:10312000B0FBF5F000F00700216830448860BDE88E
:10313000F081FEF771FC00EBC00101EB001061684B
:103140008900B0FBF1F6FEF767FC00EBC00101EB74
:10315000001061688900B0FBF1F0B0FBF5F06FF092
:103160001801484306EB800108EB0110B0FBF5F0B5
:1031700000F0F006FEF750FC00EBC00101EB001080
:1031800061688900B0FBF1F0B0FBF5F006EB0016CA
:10319000FEF742FC00EBC00101EB00106168890002
:1031A000B0FBF1F7FEF738FC00EBC00101EB0010BB
:1031B00061688900B0FBF1F0B0FBF5F06FF0180129
:1031C000484307EB800108EB0110B0FBF5F000F07D
:1031D0000F00A9E7001401400010014090F83910D9
:1031E000212901D0022070478168B1F5805F016A12
:1031F0000BD04A1C0262026809785160C18C491EDA
:103200000904090CC1840ED017E009880268C1F3D3
:103210000801516001690029016A02D0491C01625C
:10322000ECE7891CFBE70168CA6822F08002CA60EB
:103230000068C16841F04001C16000207047000093
:1032400010B50448FEF7EEFEBDE81040014800F05E
:103250009BB80000DC08002010B50448FEF7E2FE31
:10326000BDE81040014800F08FB800001C090020A4
:1032700010B50448FEF7D6FEBDE81040014800F046
:1032800083B800005C09002010B50448FEF7CAFEB0
:10329000BDE81040014800F077B800009C0900200C
:1032A00010B504460068304988420CD12F49304897
:1032B00002F014FB12212D48FDF724F912222B49AC
:1032C0002C48FFF7DBF92C49206888420ED12748AB
:1032D000443002F017FE254832214430FDF712F940
:1032E0002249322244312046FFF7C8F92349206899
:1032F00088420ED11D48123002F01CFE1B483221BC
:103300001230FDF7FFF81949322212312046FFF73B
:10331000B5F91B49206888420FD11448192176302D
:1033200001F016FC114832217630FDF7EBF80F4919
:10333000322276312046FFF7A1F9124920688842EF
:1033400010D10A48A830FFF711FD08483221763025
:10335000FDF7D8F8054920463222BDE81040A831D3
:10336000FFF78CB910BD000000100140BE4F0020D7
:10337000A84F0020DC08002000480040004C00401E
:10338000004400400014014038B501680446086854
:10339000C043C0060AD40868486800902046FEF77B
:1033A00014FE2046BDE83840FFF77ABF38BD000064
:1033B0001E4810B50068C16841F01001C1601222BA
:1033C0001B491A48FFF75AF91A480068C16841F0CA
:1033D0001001C1601649322212311648FFF74EF92A
:1033E00015480068C16841F01001C16010493222DF
:1033F00044311148FFF742F910480068C16841F0B4
:103400001001C1600A49322276310C48FFF736F9C3
:103410000B480068C16841F01001C16004493222C4
:10342000BDE81040A8310648FFF728B9DC080020A5
:10343000BE4F00205C0800205C0900209C09002091
:103440001C090020FEE703B401984100009850EAEF
:10345000C12018BF04204A0D18BF40F0010040F2FF
:10346000FF72B2EB515F08BF40F00200012808BFB5
:10347000052002B070470907090E002804DB00F19F
:10348000E02080F80014704700F00F0000F1E02009
:1034900080F8141D704700002DE9F04D2DED040B50
:1034A0002DED0E8B96B0DDE92550279CDDF890A020
:1034B00025F0004624F00048BAF1000F14BF0121A6
:1034C000002101EB4502FC4953184A1093422AD3CC
:1034D000002814BF0123002303EB44030B44F749E6
:1034E0008B4220D358EA00019FEDF59B76D0DFF8A0
:1034F000D8B35D4503D1BAF1000F05D188E0BAF128
:10350000000F08BF002100D0012101EB450111F59A
:10351000001F08D8002814BF0121002101EB44013D
:1035200011F5001F0BD99DED261B9DED240B16B048
:10353000BDEC0E8B04B0BDE8F04D00F069BE002775
:10354000002DBCBFE149884521DAE1498845A8BF83
:1035500002271CDAC3451ADCDE4901EB2851142985
:1035600008DDC1F1340220FA02F101FA02F28242CE
:103570000DD108E058B9C1F1140228FA02F101FA9C
:1035800002F2424503D101F00101C1F1020756EAFE
:103590000A0124D1002C22DA002D18BF022F01D0FD
:1035A000012F0AD00220FCF7FEFF16B0BDEC0E8BF7
:1035B00004B0BDE8F04D00F013BE0220FCF7F3FFAD
:1035C00000F00EFE51EC100B03F0E2FA41EC100B90
:1035D00016B0BDEC0E8B04B0BDE8F08D18E09FED89
:1035E000BEAB9FEDBF8B002871D1B848804522D17A
:1035F00005F1804010F5801008BFBAF1000F07D028
:10360000B3450ADC002CA8BF9DED260BE0DA0DE0E7
:10361000B0EE490AF0EE690ADAE7002C06DA9DED11
:10362000260B51EC100B03F0B3FA6FE0AE48784470
:1036300090ED000BCCE7D8454DD1002C48DA2EB1E7
:1036400086423AD1BAF1000F42D126E0BAF1000F1A
:1036500013D00220FCF7A7FF00F0F6FD8DED020B62
:103660009DED240B8DED000B10EE900A039961F394
:103670001E0003909DED020BAAE78DED02AB9DEDC0
:10368000240B1AEE901A10EE900A8DED000B61F3E8
:103690001E0003909DED020B9AE78DED028B9DEDD0
:1036A000240B18EE901A10EE900A8DED000B61F3CA
:1036B0001E0003909DED020B8AE709DA9DED240BB5
:1036C00051EC190B53EC102B03F02AFB1EE020E009
:1036D0009DED240B7CE786421BDAB4F1804F0DD0C0
:1036E000A4F10050B0F1FF5013D1002D11DB9DED7E
:1036F000240B51EC100B02F06BF907E09DED240B4D
:1037000053EC102B51EC100B00F0C2BC41EC100B31
:103710005EE79DED240B51EC100B01F097F9BAF127
:10372000000FCDE90E0142D19FED710B46B3A6F11A
:10373000E040B0F17F600CD05E4538D1002D00DA5A
:10374000A7B3022F0CBF01204FF0FF3003F06DFC38
:10375000DCE7002D01DD002C0DDA002D01DD002C51
:103760001FDB002D16DA002C14DB012F08BF9FEDA4
:10377000620B3FF42DAFB0EE4A0AF0EE6A0A27E77B
:10378000022F18BF002D0CD0012F0AD1002DFFF6FB
:103790001FAF06E0002DB8BF002C08DA012F3FF460
:1037A00017AFB0EE480AF0EE680A11E71BE00120FF
:1037B00000EBE57050EA070115D0791EB0EE498A9A
:1037C000F0EE698A084308BF9FED4D8B4E480025F7
:1037D000804570DD4D494E48884514DDB0420DDB13
:1037E000002C19DB2FE00120FCF7DDFE16B0BDEC4C
:1037F0000E8B04B0BDE8F04D00F016BDB34502DC01
:10380000002C09DC1FE0864202DA002C1BDA03E000
:103810005E452BDD002C16DD0220FCF7C4FE00F017
:1038200013FD8DED020B53EC1A2B51EC180B03F02A
:1038300063FCCDE900010399019861F31E00039038
:103840009DED020BC4E60220FCF7ADFE00F00CFD7E
:1038500010EE901A18EE900A8DED020B8DED008B94
:1038600061F31E0003909DED020BB1E69DED0E0B82
:1038700053EC192B51EC100B03F04AFE9FED260B75
:10388000CDE9080153EC102B9DED080B51EC100B0A
:1038900003F032FC9FED221B53EC112B03F060FD73
:1038A0009DED081B53EC112B03F026FC9FED1E1B16
:1038B00053EC112B3CE08CE0FFFF1F00FFFF0F00DB
:1038C000000000000000F03F0000F03F0000F07F2B
:1038D0000000404301FCFFFF000000000000F07FFB
:1038E0000000000000000000E642000000000000B0
:1038F0000000000000000080000000000000F0FF59
:10390000000000000000F0BF0000E0410000F043B4
:10391000FFFFEF3F00000000000000000000D03F6C
:10392000555555555555D53F000000000000E03F66
:1039300003F016FD9DED080B41EC1A0B53EC102B18
:1039400051EC100B03F0D8FB53EC1A2B03F0D4FB13
:1039500041EC1A0B9FEDFE0B53EC102B9DED080B69
:1039600051EC100B03F0C8FB41EC1B0B9FEDFA0B65
:1039700051EC1A0B53EC102B03F0BEFB41EC1A0B6D
:103980009FEDF70B53EC102B9DED080B51EC100B3A
:1039900003F0B2FB53EC1A2B03F0BAFD41EC1A0B07
:1039A00051EC1B0B53EC1A2B03F0FEF80690CDE9FB
:1039B00006519DED060B53EC1B2B51EC100B03F045
:1039C000A7FD53EC1A2B03F0CBFC41EC100B00F0DD
:1039D000A1B90020B6F5801F0EDA9FEDE30B53EC82
:1039E000102B9DED0E0B51EC100B03F085FBCDE978
:1039F0000E016FF034000E4600EB2650A0F2FF37A8
:103A0000C6F31300DA4940F07F6646F0405688421C
:103A1000D8BF002408DDD7498142C8BF012403DC98
:103A20000024A6F580167F1CD348784400EBC40020
:103A30000F9690ED00CB9DED0E0B53EC1C2B51EC33
:103A4000100B03F065FD9DED0E0B41EC1B0B53ECD1
:103A50001C2B51EC100B03F0A7F841EC100B51ECB0
:103A6000190B53EC102B03F05BF941EC1D0B51ECDF
:103A70001B0B53EC1D2B03F03FFB41EC1A0BBF4813
:103A80008DED10AB7844109590ED000B4FF0005089
:103A900040EA660000EB84408DED080B00F5002045
:103AA00009909DED080B53EC1C2B51EC100B03F00F
:103AB0002FFD9DED0E1B53EC112B03F051FC41EC3F
:103AC000100B53EC102B9DED100B51EC100B03F071
:103AD00013FB9DED080B41EC1C0B53EC102B9DEDE3
:103AE000100B51EC100B03F007FB53EC1B2B03F0F6
:103AF00037FC53EC1C2B03F00BFD53EC1D2B03F098
:103B0000FBFA41EC1C0B53EC1A2B51EC1A0B03F093
:103B1000F3FA41EC1B0B9A480621B0EE4B0AF0EE8B
:103B20006B0A784400F0E0FAB0EE401AF0EE601A4A
:103B3000B0EE41DAF0EE61DA53EC1B2B51EC1B0BCB
:103B400003F0DAFA53EC1D2B03F0D6FA9DED100BBF
:103B500041EC1B0B53EC1A2B51EC100B03F024F827
:103B600053EC1C2B03F0C8FA53EC1B2B03F01CF88E
:103B70009DED100B41EC1B0B53EC102B51EC100B7B
:103B800003F0BAFA41EC1D0B9FED7FEB53EC1E2BBB
:103B900003F00AF853EC1B2B03F006F80890CDE96C
:103BA00008519DED080B53EC1E2B51EC100B03F04C
:103BB000AFFC53EC1D2B03F0ABFC53EC1B2B03F0C1
:103BC000CFFB9DED080B41EC1D0B53EC102B9DED35
:103BD000100B51EC100B03F08FFA41EC1B0B53EC64
:103BE0001A2B51EC1D0B03F087FA9DED080B41ECED
:103BF0001A0B53EC102B51EC1C0B03F07DFA53EC19
:103C00001A2B02F0D1FF41EC1A0B51EC1B0B53ECB9
:103C10001A2B02F0C9FF0C90CDE90C519DED0C0B55
:103C200053EC1B2B51EC100B03F072FC53EC1A2BD2
:103C300003F096FB41EC1B0B9FED550B53EC102B47
:103C40009DED0C0B51EC100B03F056FA41EC1A0BE6
:103C50009FED510B51EC1B0B53EC102B03F04CFA66
:103C600041EC1B0B9FED4E0B53EC102B9DED0C0B01
:103C700051EC100B03F040FA53EC1B2B02F094FFB5
:103C800041EC100B4848784400EBC40090ED001B59
:103C900051EC100B53EC112B02F086FF41EC1B0B87
:103CA000384603F0C2F9CDE9080153EC1B2B51EC67
:103CB0001A0B02F079FF41EC100B3C48784400EB02
:103CC000C40090ED00CB51EC100B53EC1C2B02F018
:103CD0006BFF9DED081B53EC112B02F065FF069066
:103CE000CDE906519DED080B53EC102B9DED060B15
:103CF00051EC100B03F00CFC53EC1C2B03F008FCF4
:103D000053EC1A2B03F004FC53EC1B2B03F028FBA1
:103D100041EC100B9DED261B53EC102B8DED001B81
:103D200000959DED260B51EC100B03F0E5F99DED90
:103D3000000B41EC1A0B53EC102B9DED260B51ECB4
:103D4000100B03F0E5FB9DED061B53EC112B2FE050
:103D5000000000604715F73FFE822B654715F73FCF
:103D600044DF5DF80BAE543E00000000000040430D
:103D70008E9803007AB60B00623E0000903E000071
:103D80009A3D000000000000000000000000084014
:103D9000000000E009C7EE3FFD033ADC09C7EE3F33
:103DA000F5015B14E02F3EBE263C0000E03B000026
:103DB00003F0A2F953EC1A2B02F0F6FE9DED060B70
:103DC00041EC1A0B53EC102B9DED000B51EC100B3A
:103DD00003F092F9CDE90C019DED0C0B51EC1A0B9F
:103DE00053EC102B02F0E0FECDE902010C46AA498B
:103DF0008C422FDB611A084318D19DED0C0B53EC5C
:103E0000102B9DED020B51EC100B03F081FB41ECEC
:103E10001B0B9FEDA30B51EC1A0B53EC102B02F074
:103E2000C3FE53EC1B2B03F065FA2DD20220FCF7E6
:103E3000BAFB00F009FA10EE901A18EE900A8DED18
:103E4000020B8DED008B61F31E0003909DED020BC4
:103E5000FFF7BEBB944A24F00041914214D393492A
:103E6000214408437FF4EFAC9DED0C0B53EC102B79
:103E70009DED020B51EC100B03F04AFB53EC1A2B97
:103E800003F038FA7FF6DFAC24F000408849894A15
:103E9000002601EB205182422BDA481C4FF480119E
:103EA00021FA00F02044844AC0F30A517A44A1F276
:103EB000FF3192ED000B814A8DED080BCA4020EADC
:103EC0000202C0F3130040F48010C1F1140120FA83
:103ED00001F60992002CB8BF76429DED080B53EC19
:103EE000102B9DED0C0B51EC100B03F011FBCDE9E9
:103EF0000C019DED0C0B51EC1A0B53EC102B02F046
:103F000053FE9FED6F0B0890CDE9085153EC102B39
:103F10009DED080B51EC100B03F0EEF841EC1B0B80
:103F20009FED690B53EC102B9DED080B51EC100B22
:103F300003F0E2F89DED0C0B41EC1C0B53EC102B45
:103F40009DED080B51EC100B03F0E2FA53EC1A2B29
:103F500003F006FA9FED5E1B53EC112B03F0CCF837
:103F600053EC1C2B02F020FE41EC1A0B51EC1B0B06
:103F700053EC1A2B02F018FECDE902019DED020B65
:103F800053EC1B2B51EC100B03F0C2FA53EC1A2B21
:103F900003F0E6F99DED020B41EC1A0B53EC102BEC
:103FA00051EC100B03F0A8F8CDE908014A489DED4B
:103FB000080B0521784400F097F89DED081B51ECA3
:103FC000100B53EC112B03F097F89DED021B53ECF3
:103FD000112B03F0C5F9CDE906019DED020B53EC61
:103FE0001A2B51EC100B03F087F853EC1A2B02F04C
:103FF000DBFD9FED3B0B41EC1A0B53EC102B9DEDC1
:10400000060B51EC100B03F083FA9DED060B41EC0F
:104010001B0B53EC102B9DED020B51EC100B03F01E
:104020006BF853EC1B2B02F07BFE53EC1A2B03F0C6
:104030006FFA9DED021B53EC112B03F069FA53EC60
:10404000192B03F08DF9CDE9020101EB06500115A2
:104050000029C8BF039015DC9DED020B324651ECE0
:10406000100B03F076FBFFF7EEF9042808BF00F011
:10407000FBF832469DED020B51EC100B03F069FB8F
:10408000CDE902019DED020B51EC180B53EC102B06
:1040900003F032F8FFF73ABB000090400000000048
:1040A000FE822B654715973C00CC904000346F3F53
:1040B00001FCFFFF0000E03F683A0000FFFF0F0037
:1040C00000000000432EE63F396CA80C615C20BE66
:1040D000EF39FAFE422EE63F3839000000000000BA
:1040E000000000000000004070B504462DED028B7A
:1040F0004D1E00EBC500B0EE408AF0EE608A90EDF8
:10410000000B35F0060017D053EC182B51EC100BB8
:1041100002F0F2FF41EC100B6D1E04EBC50090EDB8
:10412000001B51EC100B53EC112B02F03DFD41EC48
:10413000100B35F00600E7D1022D36D0042D1CD02F
:10414000062D1CBFBDEC028B70BD53EC182B51EC3F
:10415000100B02F0D1FF94ED0A1B53EC112B02F06F
:1041600023FD53EC182B02F0C7FF94ED081B53EC12
:10417000112B02F019FD41EC100B53EC182B51ECF4
:10418000100B02F0B9FF94ED061B53EC112B02F05B
:104190000BFD53EC182B02F0AFFF94ED040B53EC26
:1041A000102B02F001FD41EC100B53EC182B51ECDD
:1041B000100B02F0A1FF94ED021B53EC112B02F047
:1041C000F3FC53EC182B02F097FF94ED001B53EC1B
:1041D000112B02F0E9FCBDEC028B41EC100B70BD21
:1041E0009FED070B10B553EC102B9FED070B51EC17
:1041F000100B02F095FD41EC100B10BD000000000B
:104200000000000000000000000000000000F03F7F
:1042100010B553EC112B51EC100B02F0C5FC41EC26
:10422000100B10BD000000009FED050B10B553EC06
:10423000102B51EC100B02F073FD41EC100B10BD74
:1042400000000000000000009FED050B10B553ECCE
:10425000102B51EC100B02F04FFF41EC100B10BD76
:1042600000000000000000709FED050B10B553EC3E
:10427000102B51EC100B02F03FFF41EC100B10BD66
:10428000000000000000001030EE201AD0ED001AEF
:10429000F4EEC11AF1EE10FA02DCB0EE611A01E0A0
:1042A00080ED001A30EEC00AB4EEC01AF1EE10FA3A
:1042B00001D280ED000A704770B5124C049D206059
:1042C0000020A060E060082020610F480C0A047004
:1042D0004170110A8170C270190A01714371290A73
:1042E0008171C5710948FCF792FCC0B20028F9D071
:1042F0000548054A103803494368BDE87040034843
:10430000FCF726BB58510020A4000020CC07002059
:1043100000B58BB00020012103900490CDE9060187
:10432000CDE908100590009001900290694614486C
:10433000FCF772FB69461248FCF76EFB0028F9D1C6
:104340000E20059069460F48FCF766FB69460D484C
:10435000FCF762FB0028F9D16420FDF7F7F8084864
:10436000FCF7F2FE02210648FCF7E0FA0548FCF7EC
:10437000EBFE02210348FCF7D9FA0BB000BD0000A8
:10438000CC070020F40700200EB50E4C4FF0FF358F
:104390004FF400762A460121684600F02FFDDDE942
:1043A00000100829F6D1C007F4D0B4F90600009037
:1043B000B4F90430B4F90220B4F900103046FFF724
:1043C0007BFFE7E71C01002010B5D0ED000A0E4886
:1043D00000F16C01C0ED0A0A098800EE101AB8EE6F
:1043E000400A80ED090A094800F05EFDBDEEC00AF2
:1043F00010EE100A00B200EE100A0548B8EEC00A2E
:1044000080ED020A10BD000004520020D04E0020B2
:10441000DC00002010B5154C90ED000A04F16C0092
:1044200084ED040A90ED020AA0F1600184ED030A14
:104430009FED0F0A5C3800F06BF984ED050A94EDEE
:10444000031A0C4871EE000AB0EE410A00F02CFD90
:10445000BDEEC00A10EE100A00B2404200EE100A93
:104460000548B8EEC00A80ED010A10BD04520020D4
:104470000000B443644E0020DC0000200B48032100
:104480009FED0B0A017041700A4880ED010A80ED32
:10449000020A9FED090A80ED040AC17008214170EB
:1044A000064900200870487070470000DC000020BA
:1044B000000034438C5200200000C842D800002085
:1044C00010B54FF47A542DED028BB2EE080A9FED31
:1044D0002F8ADFED2F8A0023B0EE481AF0EE680A2B
:1044E000224603212B48FEF721FB2A48B0EE481A4A
:1044F000F0EE680AB2EE080A0023224603216C306F
:10450000FEF714FB2348B0EE481AF0EE680AB2EE4C
:10451000080A002322460321D830FEF707FBB0EE3D
:10452000481AF0EE680AB2EE080A00232246032178
:104530001948FEF7FBFAB0EE481AF0EE480A9FED74
:10454000170A0023224603211548FEF7EFFAB7EEBB
:10455000001AF0EE480A9FED130A002345F6D81220
:1045600003211148FEF7E2FAF0EE480ABDEC028B97
:104570000023BDE81040B7EE001AB2EE040A42F282
:10458000F03203210948FEF7D1BA00000000000014
:10459000CDCCCC3DB44C0020F84D00200000704341
:1045A000644E002000000C42D04E00203C4F002002
:1045B0002DE9F041154D164E164F002405EB8400F1
:1045C00004EB4401D0ED0C0A06EBC101C0ED100A6A
:1045D000B1F90C1000EE101AB8EEC00A80ED140A02
:1045E00004EBC40000EB400007EB800000F05CFC33
:1045F000BDEEC00A05EB4401641C10EE100AE4B2E3
:10460000A1F86000042CD9D3BDE8F0810452002049
:1046100098500020B44C002008B500F0B4FB364C94
:10462000344D04F13009354E354F009000F046FA14
:10463000287820B101280ED0022847D124E09FED30
:10464000310A002084ED000A84ED010A84ED020A9B
:10465000206660663AE02C49A1F1280898F800002D
:1046600051F820202449C8F814209031081F9047A1
:1046700088F8010098F8001008F1180202EB810197
:10468000095C88F8001021E02048B0F9041001EB23
:104690008101490000EE101AB8EEC00A84ED000A4C
:1046A000B0F9061001EB8101490000EE101AB8EED6
:1046B000C00A84ED010AB0F9000000EB8000400060
:1046C00000EE100AB8EEC00A84ED020A484694ECE7
:1046D000030A00F018FBFFF76BFF206E3060606E7E
:1046E00070600121386800F05BFB0121684600F032
:1046F0003EFB9BE714010020045200201C01002017
:10470000040000200000000004010020A84F002049
:10471000F0EE400A90ED001A91ED000AB4EEC01AD6
:10472000F1EE10FA0DDD31EE400AB6EE001A20EE81
:10473000811AB4EEC10AF1EE10FA01DD30EE600A22
:1047400070470DD231EE400ABEEE001A20EE811AFB
:10475000B4EEC10AF1EE10FAF2D230EE200A704740
:104760009FED010A704700000000000008B500F04E
:104770000AFB00900348FCF72DF80121684600F081
:10478000F6FAF7E71C0900204A8852BA82818A8823
:1047900052BAC2814388838009884ABA4280D31AB8
:1047A0000169B3F5805F01DB491E03E013F5805F0B
:1047B00001DC491C016102EB41310288891A8160E8
:1047C000704700002DE9F0470F46DFF8F0903C49B4
:1047D0000546B9F802004988062609F11C048842FA
:1047E0003DD3384928684FF00408884205D036493F
:1047F000884202D03549884205D1354900200870E9
:10480000487084F8018095ED000AB5EEC00AF1EE1B
:1048100010FA10D129492E4A1331881E00F022F9CE
:1048200058B395ED000AD7ED000AB4EE600AF1EE38
:1048300010FA00D1667027492868884210D11F49B4
:10484000234A1231881E00F00DF9C8B195ED000A17
:10485000D7ED000AB4EE600AF1EE10FA00D16670EE
:104860006078164D9FED1C0A6C3D001F05281FD275
:10487000DFE800F009132220220084F80180DAE743
:1048800005206070ECE799F8101031B199F812002A
:1048900018B10A482C30FFF797FD85ED000A062075
:1048A00000F0BEF9201DFFF7B5FD85ED020A0020DE
:1048B000BDE8F0870220FBE70120F9E770520020F5
:1048C000DC0000200000B4420000874300003443B5
:1048D000D80000200000B443000000000F4810B5CD
:1048E000017C00F11C0319B9807C08B90020D87044
:1048F000D87838B1012804D0022802D0032800D18A
:10490000012010BD062000F08BF9181DFFF782FD75
:1049100002486C3880ED020A002010BD7052002061
:1049200010B590ED000AD1ED000A1348B4EE600A0C
:10493000F1EE10FA01D00F2100E00D218170C8B214
:104940000D2807D00E2803D00F2805D0102800D13D
:10495000012010BD002010BD074C9FED080A883CC7
:1049600004F1900084ED000A84ED010AFFF752FD86
:1049700084ED020A022010BD8C52002000000000CD
:1049800010B500F069F9284968B10B200870C0B271
:1049900009280AD00A28DFED250A08D00B2815D0EF
:1049A0000C2803D110E00A20F0E7002010BD4FF4DE
:1049B000FA5001F045F81C4C081D883CC4ED000A73
:1049C000FFF728FD84ED020A012010BD91ED010AD8
:1049D000174A10EE100A9FED171A904201D181ED8F
:1049E000021A10EE100A144A904201D1C1ED020AD7
:1049F000B5EEC00AF1EE10FA03D1DFED100AC1EDF9
:104A0000020A10EE100A0E4A904203D1DFED0D0AA1
:104A1000C1ED020A10EE100A0B4A904201D181ED5D
:104A2000021A022010BD00008C520020000000007D
:104A3000000034430000B4420000B4420000874349
:104A4000000087430000B4430000B44382B0CDE9C6
:104A5000000121F0004001909DED000B02B051ECEF
:104A6000100B7047037801200BB9097819B1107049
:104A70005070002070470020107050787047000080
:104A800070B50C4D044602212846FCF749FE0A4E3B
:104A9000207080213046FCF743FE60704021304694
:104AA000FCF73EFEA07004212846FCF739FEE070BA
:104AB00070BD000000080240000C024010B51E4806
:104AC000FFF7DEFF1D4801881D4801801D49498808
:104AD00041801D49D1ED010AC0ED020A91ED020AA3
:104AE00000F11C0180ED030A91ED020A70EEC00A8C
:104AF000C1ED030AF0EEE00A10EE902AB2F17C5FFD
:104B000001DA81ED010A0C490A7802744A7842748C
:104B10008A788274C978C1740C4A002101EB410380
:104B200000EB410402EBC303491C9B89C9B2A38279
:104B30000429F3D310BD0000D4000020D0000020D1
:104B400070520020CC000020C0510020985000205E
:104B5000F0B506462DED028B83B0254800221446A1
:104B60000068CDE90002154610466B460F18F75D48
:104B70001F54401C0428F9DB002001AE195C3039B9
:104B8000092903D8641CE4B2315400E03254401CBB
:104B90000428F3DB23E0601E02F047FA41EC110B1E
:104BA0009FED140BFEF778FCC4F10400B0EE408AD0
:104BB000F0EE608A305C02F04FFA53EC182B02F0F2
:104BC0009BFA41EC180B284602F046FA53EC182BDE
:104BD00001F0EAFF02F0FCF9641E85B2E4B2002C99
:104BE000D9D10648058003B0BDEC028BF0BD0000B2
:104BF0008C7800080000000000002440D000002055
:104C00000548817A0548012904D0022902D00329E8
:104C100001D1002101707047A84F0020140100202D
:104C200000EE100A09490A4AB8EEC00AD1ED010A9D
:104C300030EE800A10EE100A81ED010A904203DD89
:104C40009FED040A81ED010A704700000452002024
:104C500000C00F4600C00F460F48B0F91430B0F93D
:104C60001A20B0F91810B0F91600002B00DA5B42D8
:104C7000002800DA40421844002900DA494208447A
:104C8000002A00DA5242054910440028086101DD7B
:104C9000002070470120704770520020DC00002087
:104CA000EFF30580002800D001207047FCF74CFD91
:104CB000FDF762FFFDF730FEFDF774FDFDF7BEFE68
:104CC000FDF768FEFDF74CFDFDF728FDFDF7F4FE4E
:104CD000FDF77CFEFDF796FEFDF7D2FEFDF708FF1F
:104CE000FEF766FBFFF714FBFFF7EAFBFFF7C6FBD7
:104CF000FDF7CEFD00F042F8FEE7014600208429D2
:104D000000D0C81C704730EE602A70EE201AF1EE19
:104D1000402A30EEC00A72EEE02A71EE811A32EEBD
:104D2000012A30EE010A72EE812A80ED030AC0ECFE
:104D3000031A704708B500F026F8084C0090606828
:104D400010B100F02BFE01E0FFF75AFF052000F044
:104D500007F80121684600F00AF8F0E71401002086
:104D600010B500B9012000F0A5FF002010BD10B55E
:104D700001B9012100F0C4FF002010BD10B501F001
:104D800047F8002010BD10B5FFF78AFF18B1BDE845
:104D9000104001F003BDBDE8104001F0F9BC000077
:104DA000FEB5064600200D4602900190FFF778FF01
:104DB0004FF0004498B102A8009001AB01222946AF
:104DC000304601F05FFC012811D1029888B10A49F0
:104DD000E0080860BFF34F8FBFF36F8F09E001ABAE
:104DE00001222946304601F0E7FB012801D0204688
:104DF000FEBD0198FEBD000004ED00E0FEB50025FB
:104E000006460F462C460195501C06D002B11446AA
:104E1000FFF746FF20B1822015E04FF0FF34F7E79F
:104E200023463946002001AA01F024FD012804D0C0
:104E30000CB1402007E0009506E00198002801DA57
:104E4000862000E0082000909DE8070086E8070023
:104E5000FEBD7FB50D4604464169B0F9080081B139
:104E6000A16971B1FFF749FFD4E905128DE8070088
:104E7000D4E900102B46226901F073FB039004B0C3
:104E800070BDFFF73AFF03A9CDE90001208A2B4648
:104E900082B2D4E9001001F037FB012801D00020D4
:104EA000EDE70398EBE7000010B5B0EE601AF0EE06
:104EB000401A2DED028B71EE610AC0ED081A80EDEB
:104EC000051AC0ED0B0A90ED142A04469FED710AF5
:104ED00031EE611AB5EEC02AB1EE411AF1EE10FAC8
:104EE0000ED0F5EEC00AF1EE10FA02DDF0EE601A17
:104EF00001E0F0EE411AF4EEC21AF1EE10FA7CDC99
:104F0000D4ED151AF5EEC01AF1EE10FA0BD0F5EE4D
:104F1000C00AF1EE10FA01DDB0EE601AB4EEE11A4B
:104F2000F1EE10FA69D3A16D04F13400032902D027
:104F300004293FD08AE094ED001AB0EE408A21EEB9
:104F4000201A84ED0C1A94ED0D1AD4ED011A01EE1D
:104F5000A01A84ED0D1A94ED0A1A70EEC10A94EDB0
:104F6000021A60EE810AC4ED0E0AD4ED180AB8EEFA
:104F7000601AF0EE480AB0EE410AFFF785F994EDA9
:104F80000C0AD4ED0D0A04F13C0030EE200AD4EDF9
:104F90000E0A30EE200AF0EE480A84ED0F0A94ED76
:104FA000170AB8EE400AFFF76FF994ED0F0A84ED87
:104FB000100A4BE094ED0A1A94ED002A70EEC11A23
:104FC00061EE821AC4ED0C1AD4ED011A61EEA01A3A
:104FD000C4ED0D1AF0EE001A41EE610A94ED091AC3
:104FE00070EE810A94ED021A60EE810AC4ED0E0A99
:104FF000D4ED180AB8EE601A00E044E0B0EE408A42
:10500000B0EE410AF0EE480AFFF73EF994ED0C0AC3
:10501000D4ED0D0A04F1480030EE200AD4ED0E0A5A
:1050200030EE200A84ED110AD4ED130A30EE800A26
:10503000F0EE480A84ED120A94ED170AB8EE400A21
:10504000FFF722F994ED120A84ED130A94ED0A0A8F
:1050500084ED090A94ED0B0A84ED0A0A94ED070A1F
:1050600084ED060A94ED080A84ED070A94ED040A1B
:1050700084ED030A94ED050A84ED040AA06D03286B
:1050800004D094ED120ABDEC028B10BD94ED0F0A12
:10509000F9E700000000000000F1580C8CE80E0059
:1050A00080EC030A704780EC030A70472DE9F04159
:1050B000184C0F46054666692068001D00F0CAFCC2
:1050C00038B9206890F82C1001208840A1698143EC
:1050D000A161681C07D137B12168BDE8F0410E48D5
:1050E000091D00F007BD20683544B54245602168C0
:1050F00005D2A068BDE8F041091D00F0E3BC60687E
:10510000091D00F0DFFC206B854200D22563BDE85D
:10511000F081000020000020B80F00202DE9F041B0
:10512000054600F0F3FC2E4C2069401C20612068ED
:105130002C4F10B1E06940B32DE0256020690128B3
:1051400029D1002606EB860007EB800000F0ACFCBE
:10515000761C072EF6D323488C3000F0A5FC21489E
:10516000A03000F0A1FC1F48B43000F09DFC1D48A9
:10517000C83000F099FC1B48DC3000F095FC194861
:105180008C3060601430A06005E02068E96AC06A75
:10519000884200D82560E06A401CE062E96A01208C
:1051A000A26988401043A06101EB810007EB8000F9
:1051B000291D00F09FFC00F0C9FCE06900280CD01C
:1051C0002068E96AC06A884207D207494FF08050D8
:1051D0000860BFF34F8FBFF36F8FBDE8F081000011
:1051E00020000020DC0E002004ED00E038B500F0C7
:1051F0008DFC104CA068C8B90F4800F055FC0E4853
:10520000143000F051FC0C482060143060600A4BF0
:1052100000202833009003F148020C210A2000F0FE
:1052200017FFA06010B105A100F00EFDBDE83840E9
:1052300000F08CBC5C000020CC0F0020546D72513B
:105240000000000030B4026C0B46002A0BD0C1688D
:105250001144C1604468A14201D30168C16030BCFF
:105260001846FBF7D8B830BC70472DE9F041856B84
:10527000174604460026026C82B1C7B1E068FBF70E
:10528000CAF8E168206C091AE1602268914202D2F2
:105290006168081AE060022F16D017E02068A8B9EC
:1052A000606801F02DFB0646002060600EE0A068FB
:1052B000FBF7B1F8216CA0680844A06061688842DF
:1052C00004D32068A06001E005B16D1E6D1CA563CC
:1052D0003046BDE8F08110B5044690F8510058B151
:1052E00001280CD002280FD0502080F31188BFF382
:1052F0004F8FBFF36F8FFEE7206B00F03BFC204623
:10530000BDE8104000F036BC10BD000010484FF45E
:105310007051420706D0C01D0D4920F00700411A08
:10532000C1F570510B4A00230144C2E9000308395A
:10533000103A21F0070111604B600B600B1AC0E9B5
:10534000001393604FF000405360D060704700003E
:10535000B410002080000020144E154CA6F1C807A0
:105360004FF08058DFF84C9012E000BF00F0CEFB09
:10537000F068C568281D00F06DFB2069401E2061A3
:10538000E068401EE06000F0E1FB2846FFF7A3FF65
:10539000E0680028EAD138680128F9D9C9F8008006
:1053A000BFF34F8FBFF36F8FF2E70000A40F002011
:1053B0002000002004ED00E00346009829B10260BF
:1053C000C0E90F31012100F077BE0060F8E72DE958
:1053D000F0479A46DDE9098481466FF00303206BAC
:1053E00003EB82021044089D20F00706700707D0E7
:1053F000502080F31188BFF34F8FBFF36F8FFEE70C
:1054000023180A5C83F834200A5C12B1401C10286F
:10541000F6D3002784F84370072D00D30625E562F4
:10542000C4E91157201D00F04AFB04F1180000F0F8
:1054300046FB2461C5F107006462A061E76484F85B
:10544000507052464946304600F032FA2060B8F1BA
:10545000000F01D0C8F80040BDE8F08730B5114911
:1054600000E011460A688242FBD34B685C18844214
:1054700003D1406818444860084643681C189442A9
:1054800009D1084C103C2468A24209D052681A4441
:1054900042600A6812680260814200D0086030BD34
:1054A0000460F9E78000002070B5002441600B4DD6
:1054B0000061914206D8D11A8269914206D2011D3B
:1054C000686807E09A4203D2994201D3012403E0BD
:1054D000011D286800F0F6FA204670BD5C0000202F
:1054E00010B5044600F012FBA06B28B15FF0000479
:1054F00000F02CFB204610BD0124F9E730B587B041
:105500002C4D4EE0049800284BDB069C606910B1DE
:10551000201D00F09FFA02A800F0B8F80246049897
:105520000A283ED2DFE800F00505053D26370505CF
:105530003D260598A169034601442046FFF7B4FFC4
:1055400000B3616A20468847E069012829D100201C
:1055500000900598A169002342181946204601F0E1
:10556000E7FA78B9502080F31188BFF34F8FBFF36B
:105570006F8FFEE70598A06128B181181346204679
:10558000FFF792FF0DE0502080F31188BFF34F8F9B
:10559000BFF36F8FFEE794F8280010B9204600F0A3
:1055A000E9FA002204A9A86800F0D8FE0028A9D1D1
:1055B00007B030BD5C0000202DE9FC410F460546D8
:1055C00000F06AFC01A800F061F80446019818B1E7
:1055D00001F01CFABDE8FC81224EAFB17068006892
:1055E000A8B30027291B3A46B06800F041FB01F040
:1055F0000DFA0028EED11C494FF080500860BFF32F
:105600004F8FBFF36F8FE5E7A542EBD801F0FEF9AE
:1056100030682746C068C468201D00F01BFAE069A6
:10562000012810D1A0692B4641193A462046FFF7C0
:105630003BFF40B100200346014600902A46204629
:1056400001F076FA20B1616A20468847C2E707E098
:10565000502080F31188BFF34F8FBFF36F8FFEE7A9
:105660000127BFE75C00002004ED00E00648416828
:10567000096829B14168C968C96849680163704708
:105680004FF0FF31FAE700002000002070B505461A
:1056900001F07EF8064E04463069844203D200F0E1
:1056A00009F8012000E0002028602046346170BD28
:1056B0005C000020F8B5194D1FE0C068C46806689A
:1056C000201D00F0C7F9616A20468847E06901287B
:1056D00013D1A0693044B04206D924616060211D15
:1056E000286800F0EFF908E000200346014600902A
:1056F0003246204601F01CFA38B1286801680029BA
:10570000DBD16968C5E90010F8BD502080F311882D
:10571000BFF34F8FBFF36F8FFEE700005C000020E8
:1057200008484068401C4FF0500080F3118804D0B6
:10573000BFF34F8FBFF36F8FFEE7BFF34F8FBFF302
:105740006F8FFEE788000020074C2068016841B198
:10575000C0680021D0F80000FFF72EFFFFF7CEFE53
:10576000F3E701210020F7E75C0000202DE9F0417C
:10577000044600F0CBF994F9455004F1240609E001
:10578000606A48B1304601F007F908B100F006FB45
:105790006D1E6DB2002DF3DC4FF0FF3684F84560CE
:1057A00000F0D4F900F0B2F994F9445004F1100774
:1057B00009E0206948B1384601F0EEF808B100F080
:1057C000EDFA6D1E6DB2002DF3DC84F84460BDE887
:1057D000F04100F0BBB900002DE9F041054600277B
:1057E00000F05AFB314E306808B9FFF78FFDF068C2
:1057F00005424BD1C5B3083568070ED005F0070048
:10580000C0F108000544680707D0502080F31188D4
:10581000BFF34F8FBFF36F8FFEE72DB370688542E4
:1058200034D82248103001460C6801E020460C466E
:105830006168A94202D221680029F7D131688C42FF
:1058400024D007682168016060680837411B10296F
:105850000FD96019420708D0502080F31188BFF398
:105860004F8FBFF36F8FFEE710E041606560FFF779
:10587000F5FD61687068401A7060B268904200D2AD
:10588000B060F06801430020C4E9000101F0BEF8F7
:10589000780707D0502080F31188BFF34F8FBFF3F4
:1058A0006F8FFEE73846BDE8F081000070000020F1
:1058B00010B5031F4FF080741C601B1F21F0010105
:1058C0001960191F044B0B6014390A60091F6FF02F
:1058D000020244380A6010BD215700082DE9F0414A
:1058E000054608880C46C0F30A02A2F580622A80A9
:1058F00048788978C00840EA4110C0F30A03A3F54C
:1059000080636B80A078E178800940EA810021798A
:1059100002F5257240EA8120C0F30A01A1F58061F9
:10592000A98020796679400840EAC610C0F30A00D1
:10593000A0F58060E880268AA6F5806636B22E81C2
:105940006779BF09AF726779C7F30117EF724FF438
:10595000A567BA420FD803F52573BB420BD801F5F2
:105960002571B94207D800F52570B84203D806F56D
:105970002576BE4203D916212846FAF7C3FDE088F2
:10598000A8812089E88160892882207BA874607BB7
:10599000E874E089A882BDE8F08100000A48817AB5
:1059A00003290FD1C17A01290CD1B0F9021011F5E8
:1059B000257F07D1B0F90000B0F5257F02D103495A
:1059C0000020486070470000A84F0020140100200C
:1059D00000B52DED048B83B041EC190B01F0CCFC2C
:1059E00041EC180B18EE100A18EE901A8DED008B92
:1059F000002818BF0120084320F00040C0F17F605C
:105A000000F1E040C00F14D019EE101A19EE900A00
:105A10008DED009B002918BF0121084320F00040B4
:105A2000C0F17F6000F1E040C00F04BF0120FAF731
:105A3000BAFD51EC180B03B0BDEC048B00BD0000A7
:105A400003489FED020A80ED010A70470000000044
:105A500004520020D0E9013201699A60D0E90123A3
:105A60005A604A68824201D182684A60002202611B
:105A70000868401E0860086870470000034B036018
:105A800003F154000860802010607047240100205A
:105A9000044B036003F1540008604FF48070106001
:105AA000704700007803002000F108014FF0FF323A
:105AB000C0E90112C160016100210160704700214D
:105AC0000161704730B50B685A1C02D000F1080222
:105AD00002E0026904E02246546825689D42FAD932
