:020000040800F2
:1000000030670020E9020008972800089F240008B4
:10001000952800082F0600088D3100080000000018
:10002000000000000000000000000000290200089D
:10003000A10700080000000085020008C52800088C
:100040000303000803030008030300080303000878
:100050000303000803030008030300080303000868
:100060000303000803030008030300086D060008EB
:100070007906000885060008910600089D0600081C
:10008000A9060008B5060008030300083D0600089D
:1000900031060008030300080303000803030008F7
:1000A00003030008C929000803030008030300082C
:1000B0000303000803030008030300080303000808
:1000C00003030008030300080303000803030008F8
:1000D00003030008892F0008A12F0008B92F00088A
:1000E00003030008030300080303000803030008D8
:1000F000030300080303000803030008C106000807
:1001000003030008030300080303000803030008B7
:10011000E52A0008FD2A000803030008030300087D
:1001200003030008CD060008D906000803030008F1
:100130000303000803030008030300086106000826
:1001400049060008550600080303000803030008D9
:1001500003030008E5060008F1060008D12F000897
:100160000303000803030008030300080303000857
:100170000303000803030008030300080000000055
:10018000030300080303000800F002F800F03CF845
:100190000AA090E8000C82448344AAF10107DA45E2
:1001A00001D100F031F8AFF2090EBAE80F0013F0F8
:1001B000010F18BFFB1A43F0010318473069000014
:1001C00050690000103A24BF78C878C1FAD85207A5
:1001D00024BF30C830C144BF04680C6070470000C1
:1001E0000023002400250026103A28BF78C1FBD840
:1001F000520728BF30C148BF0B6070471FB506F0DB
:1002000049FB1FBD10B510BD00F0DCF91146FFF72A
:10021000F5FF04F0BBF800F0FAF903B4FFF7F2FFC2
:1002200003BC00F0FDF900002C4B19680868B0E829
:10023000F04F80F30988BFF36F8F4FF0000080F319
:10024000118870470000000008480068006880F3CB
:1002500008884FF0000080F3148862B661B6BFF3DF
:100260004F8FBFF36F8F00DF00BF00BF08ED00E0CE
:10027000DFF80C00016841F470010160704700BFB5
:1002800088ED00E0EFF30980BFF36F8F134B1A681E
:100290001EF0100F08BF20ED108A20E9F04F10600B
:1002A00009B44FF0500080F31188BFF34F8FBFF3B4
:1002B0006F8F04F0F5FF4FF0000080F3118809BC48
:1002C00019680868B0E8F04F1EF0100F08BFB0ECD6
:1002D000108A80F30988BFF36F8F70471C000020DD
:1002E000EFF3058070470000094880470948004740
:1002F000FEE7FEE7FEE7FEE7FEE7FEE7FEE7FEE7D6
:10030000FEE7FEE704480549054A064B7047000032
:10031000752900088901000830510020306700204D
:10032000306100203061002053EA020C00F0698047
:100330002DE9F04B4FF00006002B1FBFB3FA83F5F9
:1003400003FA05F424FA05F65E4012BF1643B2FA2A
:1003500082F502FA05F4C5F120051EBF22FA05FC5C
:1003600044EA0C04203556EA044C4FEA144418BF02
:10037000641C4FF000084FF00009904271EB030C31
:1003800039D3002919BFB1FA81F701FA07F6B0FA9B
:1003900080F700FA07F6C7F120071EBF20FA07FC16
:1003A00046EA0C062037B6FBF4FCA7EB0507103F26
:1003B00007F01F0BCBF120060CFA0BFB2CFA06F60C
:1003C00044BFB3460026202FA4BF5E464FF0000B6B
:1003D0005BEA060C08BF4FF0010B19EB0B09ABFBF6
:1003E000027C48EB0608C01B06FB02CC0BFB03CCCF
:1003F00071EB0C01C1E70B46024641464846BDE899
:10040000F08B13B54FF000004FF00001AFF3008008
:10041000BDE81C407047032A40F2308010F0030C06
:1004200000F0158011F8013BBCF1020F624498BF47
:1004300011F801CB00F8013B38BF11F8013BA2F1E4
:10044000040298BF00F801CB38BF00F8013B11F05F
:10045000030300F02580083AC0F0088051F8043BFF
:10046000083A51F804CBA0E80810F5E7121D5CBF6C
:1004700051F8043B40F8043BAFF30080D20724BF9F
:1004800011F8013B11F801CB48BF11F8012B24BF33
:1004900000F8013B00F801CB48BF00F8012B704782
:1004A00010B5203AC0F00B80B1E81850203AA0E80F
:1004B0001850B1E81850A0E81850BFF4F5AF5FEA43
:1004C000027C24BFB1E81850A0E8185044BF18C9F6
:1004D00018C0BDE810405FEA827C24BF51F8043B9D
:1004E00040F8043B08BF7047D20728BF31F8023BF1
:1004F00048BF11F8012B28BF20F8023B48BF00F885
:10050000012B70474FF000020429C0F0128010F058
:10051000030C00F01B80CCF1040CBCF1020F18BFDF
:1005200000F8012BA8BF20F8022BA1EB0C0100F072
:100530000DB85FEAC17C24BF00F8012B00F8012B45
:1005400048BF00F8012B70474FF0000200B513467A
:1005500094469646203922BFA0E80C50A0E80C50E3
:10056000B1F12001BFF4F7AF090728BFA0E80C5094
:1005700048BF0CC05DF804EB890028BF40F8042B8D
:1005800008BF704748BF20F8022B11F0804F18BFFA
:1005900000F8012B704770477047704710B500F0A6
:1005A00009F8006810BD10B5044600F003F80460B7
:1005B00010BD000000487047D05000200048704730
:1005C000D05000207546FFF7F9FFAE46050069469A
:1005D000534620F00700854618B020B5FFF792FE7D
:1005E000BDE820404FF000064FF000074FF0000834
:1005F0004FF0000B21F00701AC46ACE8C009ACE8B5
:10060000C009ACE8C009ACE8C0098D46704710B518
:100610000446AFF300802046BDE81040FFF7FDBD63
:1006200001491820ABBEFEE7260002007047FEE736
:10063000014800F0C4B90000B0070020014800F0F4
:10064000BEB90000B0070020014800F0B8B90000B2
:10065000D8070020014800F0B2B90000D8070020F8
:10066000014800F0ACB90000D8070020014800F0B4
:10067000B9BC0000800A0020014800F0B3BC0000B3
:10068000C00C0020014800F0ADBC0000C0090020F3
:10069000014800F0A7BC0000200D0020014800F038
:1006A000A1BC0000200A0020014800F09BBC000013
:1006B000000C0020014800F095BC0000600C0020F8
:1006C000014800F08FBC0000E00A0020014800F063
:1006D00089BC0000800D0020014800F083BC0000B0
:1006E000400B0020014800F07DBC0000E00D002020
:1006F000014800F077BC0000A00B0020016818231F
:10070000CAB2103AB2FBF3F2054B6FF30901032AA8
:100710009B5CC36500D9091D8165084670470000D0
:10072000006A000810B5014600208B698A6A4FF004
:10073000C07453B1B3F5005F15D072B1012A0CD06B
:10074000022A0AD0032A09D104E01AB1012A06D0EC
:10075000022A03D1C96AC90100D5012010BDC96AA6
:10076000A142FAD010BD002AF7D0012AF2D0022A05
:10077000F3D0032AF3D010BD30B50468256825F402
:1007800080252560046863608368402B036803D07C
:1007900099600068C26030BD9A600068C16030BD79
:1007A0007047704790F82020012A07D0022A05D010
:1007B000416A41F48021416201207047006842692A
:1007C0000A4342610020704710B590F82020012AAA
:1007D00007D0022A05D0416A41F4802141620120FC
:1007E00010BD3B48D0F8002242F00102C0F80022C0
:1007F000D0F8002222F47C52C0F80022D0F8002267
:100800004B6A42EA0322C0F800220A7D02F01F036D
:1008100001229A40D0F81C329343C0F81C32CB69B5
:10082000B3B9D0F80C329343C0F80C328C894B68C2
:1008300064F31F434C6900EBC404C4F840320C89D4
:100840000B6864F31F434C6900EBC404C4F84432E2
:10085000CB69012B16D1D0F80C321343C0F80C32FF
:100860000C884B6864F31F434C6900EBC404C4F864
:1008700040320C89CB6864F31F434C6900EBC4041D
:10088000C4F844328B69002BD0F804320ED01343E5
:10089000C0F804320B69002BD0F8143208D013438F
:1008A000C0F81432096A012904D008E09343EFE745
:1008B0009343F5E7D0F81C121143C0F81C12D0F88E
:1008C000001221F00101C0F80012002010BD00004C
:1008D00000640040704730B590F82040012C05D0EE
:1008E000022C03D0416A41F480215DE004680029B4
:1008F00055D02469A40754D04FF4D874056804EB8C
:1009000001142D5915F00405956005682D594ED038
:10091000ED08556005682C59C4F34004D4604FF4C9
:10092000DA74056804EB01142D5905F00F05156103
:1009300005682D59C5F30725956105682C59240CC8
:1009400054614FF4DC72046802EB0112A4581C706D
:100950000468A458240A5C700468A458240C9C7091
:100960000468A258120EDA704FF4DE72046802EBCB
:100970000112A4581C710468A458240A5C7104680C
:10098000A458240C9C710468A258120EDA710068F5
:1009900081B1016941F020010161002030BDE468AE
:1009A000A8E7416A41F400114162012030BD6D0D9C
:1009B0001560AFE7C16841F02001C160EDE72DE9A6
:1009C000F05F0546006800244669D0F80490876807
:1009D000D0F80CB0D0F810A0D0F81880F10748D0AB
:1009E000F90714D001218160B80703D5284600F02B
:1009F0009AFA0CE0780702D54FF4006407E0380754
:100A000002D54FF4805402E0284600F08BFAF80536
:100A100016D529684FF480708860B80503D528463C
:100A200000F083FA0CE0780502D544F4005407E0A6
:100A3000380502D544F4804402E0284600F074FAF8
:100A4000F80316D529684FF480308860B80303D5C1
:100A5000284600F06CFA0CE0780302D544F4004418
:100A600007E0380302D544F4803402E0284600F061
:100A70005DFA300707D55FEACB6004D529681020FE
:100A800044F40074C86070074FF0080707D55FEAA8
:100A90000B7004D52868C760284600F0B1F9B0078C
:100AA00006D52868C068800702D0284600F0AAF959
:100AB000700607D55FEACA6004D52968102044F49F
:100AC00080640861B00607D55FEA0A7004D528681B
:100AD0000761284600F0F6F9F00606D52868006997
:100AE000800702D0284600F0EEF9B00308D55FEA8F
:100AF000C96005D5296810204860284600F0E4F94F
:100B0000F00307D55FEA097004D5286847602846D6
:100B100000F00EFA300446D55FEA497040D5F00582
:100B200004D55FEAC87001D044F00104B00504D5D3
:100B30005FEA887001D544F00204700504D55FEACD
:100B4000487001D544F00404300529D518F0700F21
:100B500026D008F07000402815D006DC102809D0F7
:100B600020280AD0302816D10AE050280ED060285C
:100B700011D10EE044F008040DE044F010040AE046
:100B800044F0200407E044F0400404E044F0800412
:100B900001E044F480742868816921F0700181616A
:100BA000296804204860002C05D0686A20436862E8
:100BB0002846FFF78FFEBDE8F09F70B5040003D014
:100BC00094F8200010B104E0012070BD204600F030
:100BD00081F82068016821F00201016000F068FCE2
:100BE0000546052604E000F063FC401B0A2811D8E6
:100BF000206840688007F6D42068016841F0010150
:100C0000016000F055FC05460BE000F051FC401B74
:100C10000A2806D9606A40F40030606284F82060D7
:100C2000D2E720684068C007EFD0207E0128206806
:100C300001683DD021F080010160607E01282068BC
:100C4000016838D021F040010160A07E01282068B1
:100C5000016833D021F020010160E07E0128206886
:100C600001682ED041F010010160207F012820682A
:100C7000016829D021F008010160607F0128206807
:100C8000016824D021F004010160D4E90201084385
:100C9000D4E90412114308436168491E08432168DE
:100CA000C86100206062012084F82000002070BD2F
:100CB00041F08001C0E741F04001C5E741F020016B
:100CC000CAE721F01001CFE741F00801D4E741F075
:100CD0000401D9E7F0B587B0044614216846FFF750
:100CE00033FC424B4248DFF800E11968D4F800C0F9
:100CF0003F4A03250226092710300024491CF445E9
:100D00002AD11960012907D1016841F00071016001
:100D1000006800F000700590106840F00800106056
:100D20001068CDE9005600F00800CDE9047069466E
:100D30003048CDE9024500F0DDFA002205211320FC
:100D400000F042FC132000F031FC002205211420A9
:100D500000F03AFC142043E0DFF89CE0F44541D178
:100D6000D0F800C04CF0806CC0F800C0D0F800C0D3
:100D700001290CF0806CCDF814C0196007D101680E
:100D800041F000710160006800F00070059010688B
:100D900040F002001060106802AB00F00200059005
:100DA0004FF44050CDE9000683E8B000694613488F
:100DB00000F0A0FA002205213F2000F005FC3F20B2
:100DC00000F0F4FB00220521402000F0FDFB402054
:100DD00000F0ECFB00220521412000F0F5FB412052
:100DE00000F0E4FB07B0F0BD006400400800002004
:100DF00030380240000C024000680040000402400D
:100E00007047000010B52A4CA04223D1294B2A4A32
:100E10000021FFF760FD28480068A0F50071013946
:100E200005D0012903D0022901D003290CD1214981
:100E3000401E0839C0B208701F4900EB4000D83985
:100E400001EBC0001B4925E02068416941F0020127
:100E5000416110BD194CA042FBD1164B164A10330C
:100E600034320021FFF737FD134834300068012881
:100E700013D0022811D0A0F50070053806D0012843
:100E8000E2D10C490C481031483803E009490A48BE
:100E90001031603803F047F9D6E709490A7C0AB9EE
:100EA00001220A740349103101F0F8FDCCE700007B
:100EB000B007002098000020604E0020D8070020D6
:100EC000B04E0020704770477047000070B5044670
:100ED00090F82000012804D0606A40F4002060628D
:100EE00018E0022084F820002068016821F0010148
:100EF000016000F0DDFA05460EE000BF00F0D8FA10
:100F0000401B0A2808D9606A40F40030606205205E
:100F100084F82000012070BD20684068C007EDD132
:100F2000606270BD70477047704770477047704788
:100F300070472DE9F0410446876D00F0B9FA064686
:100F400094F835000025022806D08020606584F8DA
:100F500034500120BDE8F0812068016821F01601BD
:100F600001602068416921F080014161206C08B96D
:100F7000A06C20B12068016821F0080101602068A0
:100F8000016821F0010101600BE000F091FA801B83
:100F9000052806D92020606504F8345F03206070BE
:100FA000D8E720680068C007EFD194F85C103F20B4
:100FB0008840B86004F8345F012060700020C9E701
:100FC00090F83510022903D0802141650120704737
:100FD000052180F835100068016821F001010160E9
:100FE000002070472DE9F84304464FF00009CDF882
:100FF000009063484FF41651A56D0068B0FBF1F7FF
:101000002E6894F85C10082000FA01F131420FD0EC
:1010100021680A6852070BD50A6822F004020A60A8
:1010200094F85C108840A860606D40F00100606535
:1010300094F85C104FF0010808FA01F0304208D033
:1010400021684969090604D5A860606D40F0020076
:10105000606594F85C1004208840304208D0216814
:101060000968890704D5A860606D40F004006065D8
:1010700094F85C1010208840304218D0216809682C
:10108000090714D5A86020680168490304D50068E1
:10109000000308D5A16C07E00168C90503D4016805
:1010A00021F008010160216C09B12046884794F8BD
:1010B0005C1020208840304231D021680968C90680
:1010C0002DD5A86094F8350005282068016806D061
:1010D000490347D5006800031DD4616C1CE021F072
:1010E000160101602068416921F080014161206C96
:1010F00008B9A06C20B12068016821F008010160E6
:1011000094F85C103F208840A86084F8349084F8FC
:101110003580216D1FE0E16B09B120468847606D85
:1011200000282BD0606DC00714D0052084F835004E
:101130002068016821F0010101600098401C0090C6
:10114000B84203D820680068C007F6D184F834900C
:1011500084F83580E16C002910D001B02046BDE84C
:10116000F04308470168C905D5D4016821F0100192
:10117000016084F8349084F83580CCE7BDE8F883CA
:10118000180000202DE9F041044600F091F90646D0
:101190005CB1002584F83450022084F835002068C2
:1011A000016821F0010101600DE00120BDE8F0813E
:1011B00000F07EF9801B052805D9202060650320FA
:1011C00084F83500F2E720680068C007F0D1226893
:1011D000116820480140D4E901031843D4E90336DB
:1011E0003343184363691843A3691843E3691843F9
:1011F000236A18430843616A042903D1D4E90B1315
:1012000019430843106020684069666A20F00701AE
:1012100030460E43012704280CD1A06A0643E06A39
:1012200040B12046FFF77EFA20B14020606584F887
:101230003570BAE7206846612046FFF75FFA94F8F8
:101240005C203F2191408160656584F83570002005
:10125000ACE700003F8010F02DE9F0410446866DB8
:1012600090F83400002501280DD0012084F83400C6
:1012700094F835700020012F07D084F8340002253F
:101280002846BDE8F0810220FBE7022784F835708C
:1012900060652046FFF770FA94F85C103F208840A4
:1012A000B0602068016841F0160101602068416962
:1012B00041F080014161206C20B12068016841F05B
:1012C000080101602068016841F001010160D7E771
:1012D00070B5044600F0ECF80546601C02D00448E6
:1012E0000078044400F0E4F8401BA042FAD370BD3B
:1012F0000C0000202DE9F84FDFF87CB100224FF000
:1013000001084FF0030A4FF00F090BF1040E00BF64
:101310000B6808FA02F42340A3426ED14D68022DF7
:1013200001D0122D0ED1D50800EB850CDCF8205031
:101330005607F70E09FA07F6B5430E69BE402E436D
:10134000CCF82060066855000F790AFA05FC07F012
:10135000030726EA0C06AF40374307604E68012EAC
:1013600005D0022E03D0112E01D0122E0ED1866888
:10137000CF6826EA0C06AF40374387604668A6432D
:101380000C79C4F30014944034434460C6688C68FC
:1013900026EA0C06AC403443C4604C68E40065D5D2
:1013A000364C256845F480452560246822F0030505
:1013B00004F480440094324C2E19D6F8084895075E
:1013C0002F0F09FA07F5AC432E4DA84201D1002595
:1013D00024E02D4DA84201D101251FE02B4DA8424C
:1013E00001D102251AE02A4DA84201D1032515E0BA
:1013F000284DA84202D1042510E037E0264DA8422E
:1014000001D105250AE0254DA84201D1062505E0B8
:10141000234DA84201D1072500E00825BD40254302
:10142000C6F80858DBF800405D464E689C43F6035A
:1014300000D51C432C60DEF8004075464E689C4386
:10144000B60300D51C432C600B4D08352C684E6844
:101450009C43F60200D51C432C60074D0C352C68CC
:101460004E689C43B60200D51C432C60521C102AC7
:10147000FFF44EAFBDE8F88F003C01404438024015
:101480000030014000000240000402400008024019
:10149000000C0240001002400014024000180240FC
:1014A000001C02400069084000D001207047000085
:1014B00001488068704700000C00002002488168E5
:1014C00002781144816070470C0000200B4810B571
:1014D000016841F400710160016841F480610160BC
:1014E000016841F480710160032000F08DF8002054
:1014F00000F006F800F03EF8002010BD003C02406D
:1015000010B5014688B00022192000F05DF81920BE
:1015100000F04CF813480024016841F400310160E8
:10152000006805A900F400300690684600F016F93E
:1015300000F044F90C494000B0FBF1F10C480B4AB3
:10154000491E026040F2E732C0E90324C0E90114F9
:1015500000F0FAFA10B1012008B010BD044800F004
:1015600023FBF9E74438024040420F0000440140A9
:10157000400E00200C4882B0016841F480410160B7
:10158000006800F4804000900748001F016841F0A7
:10159000805101600068002200F0805000900F210F
:1015A000901E02B000F010B844380240002809DB59
:1015B00000F01F02012191404009800000F1E0206D
:1015C000C0F8001170470000F0B40E4B1B680C46C9
:1015D000C3F30223C3F10705042D00D90425191D07
:1015E000072901D2002300E0DB1E012606FA05F1DF
:1015F000491E214099409E40761E16403143F0BC62
:1016000001F0DDBD0CED00E0064900F007020868BE
:101610004FF6FF03184040EA0220034A10430860D7
:10162000704700000CED00E00000FA052DE9F047DE
:101630000E46050065D0DFF81481D8F80000F7B237
:1016400000F00F00B04207D288F80070D8F8000010
:1016500000F00F00B04254D128683D4C810712D5EC
:10166000400703D5206840F4E05020602878000748
:1016700003D5206840F4604020602068A96820F00D
:10168000F000084320602878C0072DD030496868F2
:101690000839012812D0022813D0032811D0096874
:1016A000890700292DDA216821F003010143216017
:1016B000FFF7FEFE814641F2883A0EE00968890391
:1016C000EFE709688901ECE7FFF7F2FEA0EB0901FB
:1016D000514502D90320BDE8F0872068696800F011
:1016E0000C00B0EB810FEFD1D8F80010404601F0AC
:1016F0000F01B14207D90770006800F00F00B04237
:1017000001D00120E7E72878400705D52068E9687F
:1017100020F4E050084320602878000706D52068B0
:10172000296920F4604040EAC100206000F056F8CA
:101730002168084AC1F30311515CC840064908609A
:101740000020FFF7DDFE0020C5E70000003C02405E
:1017500008380240086A0008180000200F220260C2
:101760000C4A136803F003034360136803F0F003AB
:101770008360136803F4E053C36012684FF4E053CE
:1017800003EAD20202610448006800F00F0008601A
:101790007047000008380240003C024004480549F8
:1017A00000680968044AC1F38221515CC84070474F
:1017B0001800002008380240186A0008044805494B
:1017C00000680968044AC1F34231515CC84070475F
:1017D0001800002008380240186A0008104810B5A8
:1017E000006810F00C010F4818D0042916D0082901
:1017F00014D10B4C241F216801F03F02216821689D
:101800000023C1F38811A1FB0001FEF78DFD2168C3
:10181000C1F30141491C4900B0FBF1F010BD0000CB
:10182000083802400024F4002DE9F84F050076D076
:101830002878DFF8F8B2BE4CC00749D0DBF80010BA
:101840005846C1F38101012908D00068C0F3810026
:1018500002280AD1201D0068400206D520688003B6
:1018600036D568680028E2D032E06868B0F5803F7D
:1018700010D0B0F5A02F206810D020F48030206068
:10188000206820F4802020606868A0B1FFF710FE77
:1018900006460CE0206840F48030F4E740F48020F5
:1018A0002060F7E7FFF704FE801B642873D82068E8
:1018B0008003F7D50CE0FFF7FBFD064605E000BF0F
:1018C000FFF7F6FD801B6428F0D820688003F7D46A
:1018D0002878DFF8608280074FF000093ED5DBF8FA
:1018E0000010584611F00C0F09D00068C0F38100B9
:1018F00002280BD18D48001F0068400206D42068E2
:10190000800715D5E868012809D111E0E868B8B169
:101910000120C8F80000FFF7CBFD064605E002E114
:10192000FFF7C6FD801B0228C0D820688007F7D5C6
:101930002068296920F0F80040EAC10020600DE02D
:10194000C8F80090FFF7B4FD064604E0FFF7B0FDCD
:10195000801B02281FD820688007F7D4287800074A
:1019600022D5724E744869696C3671B101210160EB
:10197000FFF79EFD074604E0FFF79AFDC01B022813
:1019800009D830688007F7D50EE0C0F80090FFF75F
:101990008FFD074605E083E0FFF78AFDC01B0228A4
:1019A0007ED830688007F7D42878400768D5DFF8FC
:1019B0007CA100270AF1380ADAF80000C0000BD435
:1019C000DAF8001041F08051CAF80010DAF800008F
:1019D000012700F080500090584E3068C00510D4A8
:1019E000306840F480703060FFF762FD009005E0E1
:1019F000FFF75EFD0099401A022851D83068C005F3
:101A0000F6D54A4EA868683601280FD005283068F8
:101A100010D020F001003060306820F00400306009
:101A2000A868B8B1FFF744FD00900FE0306840F0BF
:101A30000100F4E740F004003060F7E7FFF738FDFD
:101A40000099411A41F28830814264D83068800799
:101A5000F4D50EE0FFF72CFD009007E0FFF728FD1E
:101A60000099411A41F28830814254D83068800789
:101A7000F4D42FB1DAF8001021F08051CAF8001028
:101A8000A869C0B3DBF80010C1F3810102294AD074
:101A90000228484607D0C8F86000FFF709FD00E0BB
:101AA00039E005463AE04746C8F86000FFF700FD18
:101AB000064604E0FFF7FCFC801B02282BD82068B8
:101AC0008001F7D4D5E907010843A96A1C4A4908EF
:101AD00002EB01416A6A41EA8211084395F82C1031
:101AE00040EA01611148001F016001203866FFF7DC
:101AF000DFFC054605E014E0FFF7DAFC401B022896
:101B000009D820688001F7D50BE000BFFFF7D0FCB3
:101B1000401B022802D90320BDE8F88F206880010D
:101B2000F4D40020F8E70120F6E70000083802406E
:101B30000038024000004742800E474200700040DB
:101B40000000FFFF7047704710B5040003D094F801
:101B50003D0010B107E0012010BD002084F83C00DA
:101B6000204600F00DF8022084F83D00211D206879
:101B700000F030FF012084F83D00002010BD00007F
:101B800008B500680649884208D10648016841F452
:101B900080710160006800F48070009008BD000052
:101BA00000200040403802400168CA6842F001024B
:101BB000CA600068816801F00701062903D0016846
:101BC00041F00101016000207047704770B5044684
:101BD000006801694FF00005C943890715D4C16841
:101BE000C943890711D4E91E0161012020772068CB
:101BF00080698007204602D0FFF7E7FF04E000F08D
:101C000098F8204600F096F8257720680169C943C6
:101C1000490717D4C168C943490713D46FF00401B9
:101C20000161022020772068806910F4407F2046FF
:101C300002D0FFF7CAFF04E000F07BF8204600F076
:101C400079F8257720680169C943090716D4C16866
:101C5000C943090712D46FF00801016104202077FD
:101C60002068C0698007204602D0FFF7AEFF04E07D
:101C700000F05FF8204600F05DF8257720680169E4
:101C8000C943C90617D4C168C943C90613D46FF044
:101C900010010161082020772068C06910F4407F9E
:101CA000204602D0FFF791FF04E000F042F8204602
:101CB00000F040F8257720680169C943C90708D1B9
:101CC000C168C943C90704D1891E0161204600F0DB
:101CD00033F820680169C943090609D4C168C943BA
:101CE000090605D46FF0800101612046FFF72AFF45
:101CF00020680169C943490609D4C168C943490636
:101D000005D46FF040010161204600F01FF8206803
:101D10000169C94389060BD4C168C943890607D440
:101D20006FF0200101612046BDE87040FFF70BBF56
:101D300070BD70477047000000680349884201D1B8
:101D4000FFF7BCBB7047000000440140704710B56E
:101D500004460068416994F83920C1F3C011212A72
:101D60000BD151B1416921F080014161206B08B173
:101D7000FFF7DFF8204600F02BFF2068416994F858
:101D80003A20C1F38011222A0BD151B1416921F0CF
:101D900040014161606B08B1FFF7CBF8204600F0CD
:101DA00009FF002010BD704770B502680446106836
:101DB000D168536910F00F0F51D003F0010501F401
:101DC000907635435DD0C20705D0CA0503D5E26BD6
:101DD00042F00102E263420705D5DA0703D0E26B65
:101DE00042F00202E263820705D5DA0703D0E26B14
:101DF00042F00402E263020705D5DA0703D0E26B82
:101E000042F00802E263E26B002A34D0800604D577
:101E1000880602D5204600F0E4FE20684069E16BA8
:101E2000C0F3801001F008010143204624D000F0E7
:101E3000C1FE2068416949061AD5416921F0400177
:101E40004161606BA0B11B490165606BFFF7B8F899
:101E5000002810D0606B016DBDE870400847830614
:101E60000FD58B060DD52046BDE8704000F0B9BEF9
:101E70002046FFF798FF70BDFFF795FF0020E06355
:101E800070BD030606D50B0604D52046BDE870409C
:101E900001F048B84006F3D54806F1D5D168204690
:101EA00021F04001D160202184F8391000F0F6FAC9
:101EB00070BD0000152B000870B5040004D094F824
:101EC0003900002510B106E0012070BD84F83850BB
:101ED000204600F023F8242084F839002068C168E7
:101EE00021F40051C160204600F0C6FE206801695F
:101EF00021F4904101612068416921F02A0141618A
:101F00002068C16841F40051C160E563202084F875
:101F1000390084F83A00002070BD00002DE9F04F30
:101F200087B0044614216846FEF70EFBF848DFF838
:101F3000DCC310382368F64A012702210025061564
:101F40004FF003084FF0080B4FF040094FF0006AC4
:101F5000634566D1136843F400231360126802F4EA
:101F600000220592026842F001020260026802F05B
:101F700001020592026842F004020260006802ABAE
:101F800000F0040005900220CDE9007083E880098C
:101F90006946E048FFF7AEF97000009001AB0220FF
:101FA00083E881096946DC48FFF7A4F9DFF870830C
:101FB000DA494046C8F80010C0E901A5C0E9035657
:101FC000C8F81450C8F81850C8F81C50C8F8205069
:101FD0005746C8F82450FFF7D5F808B1FEF7E1FBE3
:101FE000CF4DCE48C4F8348060353030C8F8384022
:101FF00085E881020020C5E903066861A861E861FF
:10200000286268622846FFF7BDF808B1FEF7C9FBF1
:102010002563002205213420AC63FFF7D5FA342074
:102020006DE0DFF800C363456ED11368002543F40B
:1020300080131360126802F480120592026842F065
:1020400004020260026802F004020592026842F093
:1020500008020260006801AB00F0080005904FF430
:1020600080500090022083E881096946AA48FFF762
:1020700041F90420009001AB022083E88109694600
:10208000A948FFF737F9DFF89882A44908F1C0089A
:1020900030394046C8F80010C0E901A5C0E9035630
:1020A000C8F81450C8F81850C8F81C50C8F8205088
:1020B0005746C8F82450FFF765F808B1FEF771FBE2
:1020C00096489A4DC4F834807830C8F8384085E88E
:1020D00081020020C5E903066861A861E861286201
:1020E00068622846FFF74EF808B1FEF75AFB2563F1
:1020F000002205213520AC63FFF766FA3520FFF793
:1021000055FA07B0BDE8F08FDFF824C24FF0070E94
:1021100063454FD17E4A121D136843F010031360CC
:10212000126802F010020592026842F00102026099
:10213000006800F0010005904FF4C0608DE8834115
:1021400069467448FFF7D6F8784F7A4860373860A8
:10215000C7E901A5C7E9035680157D61C7E90650A7
:102160004FF44030C7E908053846FFF70BF808B1CF
:10217000FEF717FB6763BC636C4F6E48C03778305F
:10218000C7F80890C7E903567D61BD61FD613D62F6
:102190007D62C7E9000A3846FEF7F4FF08B1FEF792
:1021A00000FB2763002205212520BC63FFF70CFA02
:1021B0002520A4E7DFF880C1634549D1136843F4C3
:1021C00000331360126802F400320592026842F094
:1021D00001020260006800F0010005900C208DE80B
:1021E000834169464B48FFF785F84C48534F4830C8
:1021F0003860C7E901A5C7E903567D61BD61FD618E
:102200003D6238467D62FEF7BDFF08B1FEF7C9FAB0
:102210006763BC63494F414860376030C7F8089036
:10222000C7E903567D61BD61FD613D627D62C7E91D
:10223000000A3846FEF7A6FF08B1FEF7B2FA276398
:10224000002205212620BC63FFF7BEF9262056E7B1
:10225000DFF8ECC063457AD11368AB4643F48023C2
:102260001360126802F480220592026842F00202B2
:102270000260006800F0020005904FF440608DE8B5
:10228000834169462F48FFF735F8DFF8B0802349CE
:1022900008F1C00818394046C8F80010C0E901A587
:1022A000C0E90356C8F81450C8F81850C8F81C50B4
:1022B000C8F820505746C8F82450FEF763FF08B10D
:1022C000FEF76FFA1548204DC4F834801830C8F86E
:1022D000384085E88102C5E903B6C5F814B0C5F8F1
:1022E00018B0C5F81CB0C5F820B02846C5F824B011
:1022F000FEF748FF08B1FEF754FA256300220521D6
:102300002720AC63FFF760F92720F8E6004C004077
:102310004038024000000240000802404060024095
:10232000C009002000500040000C0240E00A0020DC
:10233000001001404064024000440040000C0020B6
:102340000048004000040240200D0020FFE7274A1B
:1023500093427FF4D6AE264A136843F020031360FD
:10236000126802F020020592026842F00402026044
:10237000006800F004000590C0208DE883096946DC
:102380001C48FEF7B7FF1D4F1B484FF02068386010
:10239000C7E90185C7E903567D61BD61FD613D6205
:1023A00038467D62FEF7EEFE08B1FEF7FAF9676384
:1023B000BC63124F104860377830C7E903567D611F
:1023C000BD61FD613D627D6287E801033846FEF72D
:1023D000D9FE08B1FEF7E5F9276300220521472061
:1023E000BC63FFF7F1F8472089E6000000140140C4
:1023F000443802400008024028640240800D00205A
:10240000F8B5044690F83A0020283CD1C1B3BAB3DD
:1024100094F83800012836D0012084F83800A162F1
:10242000A2850025E563222084F83A00636B1748F3
:10243000D863636B16481864636B1648D864606B86
:10244000134605650846666B216802463046091D3D
:10245000FEF702FF206801684168009184F8385057
:10246000C16841F48071C1602068416941F0010197
:1024700041612068416941F0400141610020F8BD9F
:10248000FFE70120FBE70220F9E700006F2B0008BF
:10249000AB2B0008252B0008704770477047FEE7FC
:1024A0000F4810B50D4901600621416000214FF42D
:1024B00000328160C0E903121201426101760122FB
:1024C00042768176C17601774177FEF776FB002868
:1024D00003D0BDE81040FEF764B910BD00640040B1
:1024E000B00700200F4810B50D490160062141607A
:1024F00000214FF400328160C0E9031212014261F1
:102500000176012242768176C17601774177FEF726
:1025100054FB002803D0BDE81040FEF742B910BDBF
:1025200000680040D8070020394808B5016841F428
:1025300080010160016801F480010091016841F4AB
:10254000001101600068002200F4001000900521D5
:102550000B20FFF739F80B20FFF728F800220521A0
:102560000C20FFF731F80C20FFF720F8002205219E
:102570000D20FFF729F80D20FFF718F8002205219C
:102580000E20FFF721F80E20FFF710F8002205219A
:102590000F20FFF719F80F20FFF708F80022052198
:1025A0001020FFF711F81020FFF700F80022052196
:1025B0001120FFF709F81120FEF7F8FF002205218E
:1025C0002F20FFF701F82F20FEF7F0FF0022052152
:1025D0003920FEF7F9FF3920FEF7E8FF0022052138
:1025E0003A20FEF7F1FF3A20FEF7E0FF0022052136
:1025F0004520FEF7E9FF4520FEF7D8FF0022052120
:102600004620FEF7E1FFBDE808404620FEF7CEBFBA
:102610003038024010B59CB002F074FC1C221749FF
:102620006846FDF73DFF0021684601F012FF144C9B
:1026300012491C2260601C3107A8FDF731FF002100
:1026400007A801F006FF0D4920601C2238310EA8B2
:10265000FDF726FF00210EA801F0FBFE07492060D0
:102660001C22543115A8FDF71BFF002115A801F00D
:10267000F0FE206002F066FC1CB010BD90690008FE
:102680000000002000B587B014216846FDF75CFF0C
:1026900019480021026842F080020260026802F0DC
:1026A00080020592026842F001020260026802F0B4
:1026B00001020592026842F002020260026802F022
:1026C00002020592026842F004020260026802F00F
:1026D00004020592026842F008020260006802915A
:1026E00000F0080005904020CDE90001694603484C
:1026F000FEF700FE07B000BD30380240000C02407B
:102700000C4810B50A4901604FF452714160002134
:102710004FF4FA62C0E90212016180218161FFF782
:1027200013FA002803D0BDE81040FEF73AB810BDF8
:1027300000200040000800200C4810B50A49016044
:102740004FF4E1314160002181600C22C160C0E999
:1027500004128161C161FFF7AFFB002803D0BDE81F
:102760001040FEF71EB810BD004C0040400800208D
:102770000C4810B50A4901604FF4E1314160002175
:1027800081600C22C160C0E904128161C161FFF760
:1027900093FB002803D0BDE81040FEF702B810BD3F
:1027A00000500040800800200E4810B50C49016020
:1027B0000D4941604FF48051816000214FF48062E7
:1027C000C0E903120C22C0E90521C161FFF774FBC7
:1027D000002803D0BDE81040FDF7E3BF10BD0000A6
:1027E00000100140C0080020A08601000C4810B570
:1027F0000A4901604FF4E1314160002181600C22FF
:10280000C160C0E904128161C161FFF755FB002876
:1028100003D0BDE81040FDF7C4BF10BD0044004028
:10282000000900200C4810B50A4901604FF4E1315D
:102830004160002181600C22C160C0E90412816105
:10284000C161FFF739FB002803D0BDE81040FDF758
:10285000A8BF10BD00480040400900200C4810B53A
:102860000A4901604FF4E1314160002181600C228E
:10287000C160C0E904128161C161FFF71DFB00283E
:1028800003D0BDE81040FDF78CBF10BD001401401F
:1028900080090020FEE7704730B4034C4466034CC7
:1028A000846630BC01F0FFBDA7440008B5440008B1
:1028B000034801F0DDFC0A2001F0ACFDF8E7000060
:1028C000D000002010B5502080F31188BFF34F8F47
:1028D000BFF36F8F03F088F818B104494FF08050B0
:1028E0000860002080F3118810BD000004ED00E0B6
:1028F00030B593B030216846FDF726FE14210CA8B0
:10290000FDF722FE19480025016841F08051016061
:10291000006800F0805011901548016841F4804132
:1029200001600068022400F48040119001200090B2
:10293000000401908001CDE9064008200890A820FD
:10294000CDE9090404200B906846FEF76DFF0CA941
:102950000F2081E831004FF4A0500F90E00210905A
:1029600005210CA8FEF762FE13B030BD40380240CE
:10297000007000401048016841F4700101600F4888
:10298000016841F0010101600C4A00210832116028
:1029900002680B4B1A400260031D0A4A1A60026863
:1029A00022F48022026005480C300160024958067A
:1029B000803908607047000088ED00E00038024070
:1029C000FFFFF6FE103000240148FFF7FFB80000BB
:1029D000400E0020F0B50268254C264D264E274FAC
:1029E000274B4FF0804CA04209D0604507D0A84249
:1029F00005D0B04203D0B84201D0984204D122F0B1
:102A0000700E4A6842EA0E02A0421BD0604519D0FF
:102A1000A84217D0B04215D0B84213D0984211D076
:102A2000184DA8420ED0184DA8420BD0174DA84201
:102A300008D0174DA84205D0164DA84202D0164D19
:102A4000A84203D122F44075CA682A434D6922F096
:102A500080022A4302608A68C2620A688262A042D7
:102A600001D0984201D10969016301214161F0BDA2
:102A7000000001400004004000080040000C00403D
:102A80000004014000400140004401400048014072
:102A900000180040001C0040002000400F4B104A6E
:102AA000012810D002280DD1086898604868D860C5
:102AB00003F1080090ED000A82ED000A90ED010A92
:102AC00082ED010A7047086818604868586093ED05
:102AD000000A82ED020AD06070470000B8000020B2
:102AE000B04E002010B50448FFF75EF9BDE8104075
:102AF000014800F0EDBA00004008002010B504487D
:102B0000FFF752F9BDE81040014800F0E1BA0000BB
:102B10008008002010B5806B0021C185C184FFF7BB
:102B200042F910BD70B5846B2068406994F8391083
:102B3000C0F3C0100025212904D118B1E584204636
:102B400000F046F82068406994F83A10C0F380100D
:102B5000222904D118B1E585204600F02BF8E06B5E
:102B600040F01000E0632046FFF71DF970BD10B57E
:102B70000146806B09680968C90513D40021C18525
:102B80000168CA6822F48072CA6001684A6922F04A
:102B900001024A6101684A6922F040024A6120212B
:102BA00080F83A10FFF778FC10BD10B5806BFFF786
:102BB00074FC10BD0168CA6822F49072CA60016892
:102BC0004A6922F001024A61202180F83A107047D8
:102BD0000168CA6822F0C002CA60202180F839105A
:102BE000704710B590F83A10222901D0022010BD8C
:102BF0008168B1F5805F11D00169002901681FD09B
:102C0000496801F07F03816A4A1C82620B70C18DA2
:102C1000491E0904090CC18518D02BE00269816A9C
:102C2000002A0268526805D0D2B20A80816A491C23
:102C30008162ECE7C2F308020A80816A891CF7E727
:102C40004A68816A4B1C83620A70E0E70168CA68BF
:102C500022F02002CA600168CA6822F48072CA6049
:102C600001684A6922F001024A61202180F83A1085
:102C7000FFF712FC002010BD2DE9F041044600686A
:102C80000169E26821F44051114301612169A068A2
:102C9000E26908436169114322680843D16849F237
:102CA0000C6399430143D16020684169A26921F412
:102CB000407111434161E2696425B2F5004F9748C4
:102CC000974922684FF032083FD08A4201D08242B1
:102CD0007CD1FEF773FD00EBC00101EB00106168D1
:102CE0008900B0FBF1F6FEF769FD00EBC00101EBD6
:102CF000001061688900B0FBF1F0B0FBF5F06FF0F7
:102D00001801484306EB800108EB0110B0FBF5F019
:102D100000F0F006FEF752FD00EBC00101EB0010E1
:102D200061688900B0FBF1F0B0FBF5F006EB00162E
:102D3000FEF744FD00EBC00101EB00106168890063
:102D4000B0FBF1F7FEF73AFDD2E08A4201D08242B1
:102D50003DD1FEF733FD00EBC00101EB00106168CF
:102D60004900B0FBF1F0B0FBF5F00601FEF726FDDF
:102D700000EBC00101EB001061684900B0FBF1F706
:102D8000FEF71CFD00EBC00101EB0010616849007B
:102D9000B0FBF1F0B0FBF5F06FF01801484307EB22
:102DA000800108EBC100B0FBF5F000F0F80006EB85
:102DB0004006FEF703FD00EBC00101EB0010616867
:102DC0004900B0FBF1F7FEF7F9FC3CE055E0FEF7F7
:102DD000E5FC00EBC00101EB001061684900B0FBAD
:102DE000F1F0B0FBF5F00601FEF7D8FC00EBC001F6
:102DF00001EB001061684900B0FBF1F7FEF7CEFC73
:102E000000EBC00101EB001061684900B0FBF1F07C
:102E1000B0FBF5F06FF01801484307EB800108EBB9
:102E2000C100B0FBF5F000F0F80006EB4006FEF73D
:102E3000B5FC00EBC00101EB001061684900B0FB7C
:102E4000F1F7FEF7ABFC00EBC00101EB001061688D
:102E50004900B0FBF1F0B0FBF5F06FF0180148430A
:102E600007EB800108EBC100B0FBF5F000F00700B4
:102E7000216830448860BDE8F081FEF78FFC00EBEC
:102E8000C00101EB001061688900B0FBF1F6FEF7AC
:102E900085FC00EBC00101EB001061688900B0FB0C
:102EA000F1F0B0FBF5F06FF01801484306EB80013C
:102EB00008EB0110B0FBF5F000F0F006FEF76EFC39
:102EC00000EBC00101EB001061688900B0FBF1F07C
:102ED000B0FBF5F006EB0016FEF760FC00EBC0015E
:102EE00001EB001061688900B0FBF1F7FEF756FCBA
:102EF00000EBC00101EB001061688900B0FBF1F04C
:102F0000B0FBF5F06FF01801484307EB800108EBC8
:102F10000110B0FBF5F000F00F00A9E7001401402C
:102F20000010014090F83910212901D0022070478B
:102F30008168B1F5805F016A0BD04A1C02620268A9
:102F400009785160C18C491E0904090CC1840ED056
:102F500017E009880268C1F308015160016900297E
:102F6000016A02D0491C0162ECE7891CFBE7016899
:102F7000CA6822F08002CA600068C16841F040015E
:102F8000C16000207047000010B50448FEF70CFF38
:102F9000BDE81040014800F09BB80000C0080020C8
:102FA00010B50448FEF700FFBDE81040014800F0EE
:102FB0008FB800000009002010B50448FEF7F4FEA9
:102FC000BDE81040014800F083B80000400900202F
:102FD00010B50448FEF7E8FEBDE81040014800F0D7
:102FE00077B800008009002010B504460068304919
:102FF00088420CD12F49304801F078FE12212D482B
:10300000FDF780FA12222B492C48FFF7F9F92C49D9
:10301000206888420ED12748123002F087F92548EF
:1030200032211230FDF76EFA224932221231204647
:10303000FFF7E6F92349206888420ED11D48443045
:1030400002F05CF91B4832214430FDF75BFA194964
:10305000322244312046FFF7D3F91B4920688842C9
:103060000FD114481921A83001F020F9114832215C
:103070007630FDF747FA0F493222A8312046FFF794
:10308000BFF912492068884211D10A4819217630C7
:1030900001F00CF9074832217630FDF733FA054983
:1030A00020463222BDE810407631FFF7A9B910BDA5
:1030B00000100140AE4C0020984C0020C0080020B9
:1030C00000480040004C00400044004000500040D8
:1030D00038B5016804460868C043C0060AD40868C9
:1030E000486800902046FEF732FE2046BDE8384092
:1030F000FFF77ABF38BD00001E4810B50068C168F0
:1031000041F01001C16012221B491A48FFF778F9FB
:103110001A480068C16841F01001C16016493222A6
:1031200012311648FFF76CF915480068C16841F084
:103130001001C1601049322244311148FFF760F993
:1031400010480068C16841F01001C1600A4932228C
:1031500076310C48FFF754F90B480068C16841F01C
:103160001001C16004493222BDE81040A831064870
:10317000FFF746B9C0080020AE4C002040090020EF
:10318000400800200009002080080020FEE703B46A
:1031900001984100009850EAC12018BF04204A0D50
:1031A00018BF40F0010040F2FF72B2EB515F08BF60
:1031B00040F00200012808BF052002B0704709074F
:1031C000090E002804DB00F1E02080F800147047AD
:1031D00000F00F0000F1E02080F8141D704700009F
:1031E0002DE9F04D2DED040B2DED0E8B96B0DDE9A4
:1031F0002550279CDDF890A025F0004624F00048DB
:10320000BAF1000F14BF0121002101EB4502FC4976
:1032100053184A1093422AD3002814BF01230023D5
:1032200003EB44030B44F7498B4220D358EA0001D7
:103230009FEDF59B76D0DFF8D8B35D4503D1BAF1A9
:10324000000F05D188E0BAF1000F08BF002100D0BF
:10325000012101EB450111F5001F08D8002814BF1A
:103260000121002101EB440111F5001F0BD99DED57
:10327000261B9DED240B16B0BDEC0E8B04B0BDE8F3
:10328000F04D00F069BE0027002DBCBFE149884524
:1032900021DAE1498845A8BF02271CDAC3451ADCB8
:1032A000DE4901EB2851142908DDC1F1340220FA6E
:1032B00002F101FA02F282420DD108E058B9C1F1DF
:1032C000140228FA02F101FA02F2424503D101F098
:1032D0000101C1F1020756EA0A0124D1002C22DAC9
:1032E000002D18BF022F01D0012F0AD00220FDF7B8
:1032F0005AF916B0BDEC0E8B04B0BDE8F04D00F0ED
:1033000013BE0220FDF74FF900F00EFE51EC100B3A
:1033100002F016FD41EC100B16B0BDEC0E8B04B0A4
:10332000BDE8F08D18E09FEDBEAB9FEDBF8B002890
:1033300071D1B848804522D105F1804010F5801048
:1033400008BFBAF1000F07D0B3450ADC002CA8BFB4
:103350009DED260BE0DA0DE0B0EE490AF0EE690AC9
:10336000DAE7002C06DA9DED260B51EC100B02F08B
:10337000E7FC6FE0AE48784490ED000BCCE7D84511
:103380004DD1002C48DA2EB186423AD1BAF1000F65
:1033900042D126E0BAF1000F13D00220FDF703F965
:1033A00000F0F6FD8DED020B9DED240B8DED000B75
:1033B00010EE900A039961F31E0003909DED020B3D
:1033C000AAE78DED02AB9DED240B1AEE901A10EEDC
:1033D000900A8DED000B61F31E0003909DED020B32
:1033E0009AE78DED028B9DED240B18EE901A10EEEE
:1033F000900A8DED000B61F31E0003909DED020B12
:103400008AE709DA9DED240B51EC190B53EC102BD4
:1034100002F05EFD1EE020E09DED240B7CE786427D
:103420001BDAB4F1804F0DD0A4F10050B0F1FF5081
:1034300013D1002D11DB9DED240B51EC100B01F08D
:10344000CFFC07E09DED240B53EC102B51EC100B3F
:1034500000F0C2BC41EC100B5EE79DED240B51EC7B
:10346000100B00F0F9FEBAF1000FCDE90E0142D1C8
:103470009FED710B46B3A6F1E040B0F17F600CD038
:103480005E4538D1002D00DAA7B3022F0CBF012012
:103490004FF0FF3002F0A1FEDCE7002D01DD002C33
:1034A0000DDA002D01DD002C1FDB002D16DA002CBB
:1034B00014DB012F08BF9FED620B3FF42DAFB0EE80
:1034C0004A0AF0EE6A0A27E7022F18BF002D0CD037
:1034D000012F0AD1002DFFF61FAF06E0002DB8BF67
:1034E000002C08DA012F3FF417AFB0EE480AF0EED7
:1034F000680A11E71BE0012000EBE57050EA0701C4
:1035000015D0791EB0EE498AF0EE698A084308BFEB
:103510009FED4D8B4E480025804570DD4D494E484E
:10352000884514DDB0420DDB002C19DB2FE00120B3
:10353000FDF739F816B0BDEC0E8B04B0BDE8F04DC8
:1035400000F016BDB34502DC002C09DC1FE086420A
:1035500002DA002C1BDA03E05E452BDD002C16DDC1
:103560000220FDF720F800F013FD8DED020B53EC67
:103570001A2B51EC180B02F097FECDE900010399CC
:10358000019861F31E0003909DED020BC4E602203A
:10359000FDF709F800F00CFD10EE901A18EE900AF5
:1035A0008DED020B8DED008B61F31E0003909DED00
:1035B000020BB1E69DED0E0B53EC192B51EC100BE9
:1035C00003F07EF89FED260BCDE9080153EC102B9C
:1035D0009DED080B51EC100B02F066FE9FED221BD7
:1035E00053EC112B02F094FF9DED081B53EC112BB3
:1035F00002F05AFE9FED1E1B53EC112B3CE08CE0B9
:10360000FFFF1F00FFFF0F00000000000000F03F61
:103610000000F03F0000F07F0000404301FCFFFF8E
:10362000000000000000F07F00000000000000002B
:10363000363700000000000000000000000000809D
:10364000000000000000F0FF000000000000F0BFDC
:103650000000E0410000F043FFFFEF3F00000000EA
:10366000000000000000D03F555555555555D53F39
:10367000000000000000E03F02F04AFF9DED080B53
:1036800041EC1A0B53EC102B51EC100B02F00CFE1A
:1036900053EC1A2B02F008FE41EC1A0B9FEDFE0BC7
:1036A00053EC102B9DED080B51EC100B02F0FCFDC0
:1036B00041EC1B0B9FEDFA0B51EC1A0B53EC102B4A
:1036C00002F0F2FD41EC1A0B9FEDF70B53EC102BBF
:1036D0009DED080B51EC100B02F0E6FD53EC1A2B9C
:1036E00002F0EEFF41EC1A0B51EC1B0B53EC1A2BC2
:1036F00002F032FB0690CDE906519DED060B53EC2E
:103700001B2B51EC100B02F0DBFF53EC1A2B02F0D9
:10371000FFFE41EC100B00F0A1B90020B6F5801FB0
:103720000EDA9FEDE30B53EC102B9DED0E0B51ECDD
:10373000100B02F0B9FDCDE90E016FF034000E461A
:1037400000EB2650A0F2FF37C6F31300DA4940F031
:103750007F6646F040568842D8BF002408DDD7492E
:103760008142C8BF012403DC0024A6F580167F1C1B
:10377000D348784400EBC4000F9690ED00CB9DED4C
:103780000E0B53EC1C2B51EC100B02F099FF9DED2E
:103790000E0B41EC1B0B53EC1C2B51EC100B02F0ED
:1037A000DBFA41EC100B51EC190B53EC102B02F02F
:1037B0008FFB41EC1D0B51EC1B0B53EC1D2B02F04E
:1037C00073FD41EC1A0BBF488DED10AB784410959A
:1037D00090ED000B4FF0005040EA660000EB844093
:1037E0008DED080B00F5002009909DED080B53ECC2
:1037F0001C2B51EC100B02F063FF9DED0E1B53ECE4
:10380000112B02F085FE41EC100B53EC102B9DEDBB
:10381000100B51EC100B02F047FD9DED080B41EC35
:103820001C0B53EC102B9DED100B51EC100B02F008
:103830003BFD53EC1B2B02F06BFE53EC1C2B02F0F8
:103840003FFF53EC1D2B02F02FFD41EC1C0B53EC02
:103850001A2B51EC1A0B02F027FD41EC1B0B9A4876
:103860000621B0EE4B0AF0EE6B0A784400F0E0FA65
:10387000B0EE401AF0EE601AB0EE41DAF0EE61DA26
:1038800053EC1B2B51EC1B0B02F00EFD53EC1D2BCC
:1038900002F00AFD9DED100B41EC1B0B53EC1A2BB3
:1038A00051EC100B02F058FA53EC1C2B02F0FCFC0C
:1038B00053EC1B2B02F050FA9DED100B41EC1B0B4F
:1038C00053EC102B51EC100B02F0EEFC41EC1D0BF5
:1038D0009FED7FEB53EC1E2B02F03EFA53EC1B2BBB
:1038E00002F03AFA0890CDE908519DED080B53EC2F
:1038F0001E2B51EC100B02F0E3FE53EC1D2B02F0DB
:10390000DFFE53EC1B2B02F003FE9DED080B41EC98
:103910001D0B53EC102B9DED100B51EC100B02F016
:10392000C3FC41EC1B0B53EC1A2B51EC1D0B02F0AA
:10393000BBFC9DED080B41EC1A0B53EC102B51EC2A
:103940001C0B02F0B1FC53EC1A2B02F005FA41EC0F
:103950001A0B51EC1B0B53EC1A2B02F0FDF90C90D7
:10396000CDE90C519DED0C0B53EC1B2B51EC100BC6
:1039700002F0A6FE53EC1A2B02F0CAFD41EC1B0B21
:103980009FED550B53EC102B9DED0C0B51EC100BD8
:1039900002F08AFC41EC1A0B9FED510B51EC1B0B12
:1039A00053EC102B02F080FC41EC1B0B9FED4E0BF7
:1039B00053EC102B9DED0C0B51EC100B02F074FC32
:1039C00053EC1B2B02F0C8F941EC100B484878442B
:1039D00000EBC40090ED001B51EC100B53EC112BCD
:1039E00002F0BAF941EC1B0B384602F0F6FBCDE9C8
:1039F000080153EC1B2B51EC1A0B02F0ADF941EC12
:103A0000100B3C48784400EBC40090ED00CB51EC27
:103A1000100B53EC1C2B02F09FF99DED081B53EC8F
:103A2000112B02F099F90690CDE906519DED080B96
:103A300053EC102B9DED060B51EC100B02F040FEE9
:103A400053EC1C2B02F03CFE53EC1A2B02F038FE18
:103A500053EC1B2B02F05CFD41EC100B9DED261B83
:103A600053EC102B8DED001B00959DED260B51ECBA
:103A7000100B02F019FC9DED000B41EC1A0B53ECFE
:103A8000102B9DED260B51EC100B02F019FE9DED55
:103A9000061B53EC112B2FE0000000604715F73F89
:103AA000FE822B654715F73F44DF5DF80BAE543EB1
:103AB00000000000000040438E9803007AB60B001F
:103AC000B2320000E0320000EA31000000000000E5
:103AD0000000000000000840000000E009C7EE3FC1
:103AE000FD033ADC09C7EE3FF5015B14E02F3EBE53
:103AF000763000003030000002F0D6FB53EC1A2B79
:103B000002F02AF99DED060B41EC1A0B53EC102B39
:103B10009DED000B51EC100B02F0C6FBCDE90C0142
:103B20009DED0C0B51EC1A0B53EC102B02F014F919
:103B3000CDE902010C46AA498C422FDB611A0843E9
:103B400018D19DED0C0B53EC102B9DED020B51EC9D
:103B5000100B02F0B5FD41EC1B0B9FEDA30B51ECDC
:103B60001A0B53EC102B02F0F7F853EC1B2B02F05E
:103B700099FC2DD20220FCF716FD00F009FA10EE98
:103B8000901A18EE900A8DED020B8DED008B61F30B
:103B90001E0003909DED020BFFF7BEBB944A24F07C
:103BA0000041914214D39349214408437FF4EFAC80
:103BB0009DED0C0B53EC102B9DED020B51EC100BFB
:103BC00002F07EFD53EC1A2B02F06CFC7FF6DFACAA
:103BD00024F000408849894A002601EB20518242A6
:103BE0002BDA481C4FF4801121FA00F02044844A5B
:103BF000C0F30A517A44A1F2FF3192ED000B814AE1
:103C00008DED080BCA4020EA0202C0F3130040F415
:103C10008010C1F1140120FA01F60992002CB8BFFE
:103C200076429DED080B53EC102B9DED0C0B51ECE7
:103C3000100B02F045FDCDE90C019DED0C0B51EC94
:103C40001A0B53EC102B02F087F89FED6F0B0890C6
:103C5000CDE9085153EC102B9DED080B51EC100BE6
:103C600002F022FB41EC1B0B9FED690B53EC102B78
:103C70009DED080B51EC100B02F016FB9DED0C0BAB
:103C800041EC1C0B53EC102B9DED080B51EC100B71
:103C900002F016FD53EC1A2B02F03AFC9FED5E1B6E
:103CA00053EC112B02F000FB53EC1C2B02F054F8E8
:103CB00041EC1A0B51EC1B0B53EC1A2B02F04CF895
:103CC000CDE902019DED020B53EC1B2B51EC100BC7
:103CD00002F0F6FC53EC1A2B02F01AFC9DED020BDD
:103CE00041EC1A0B53EC102B51EC100B02F0DCFAE8
:103CF000CDE908014A489DED080B0521784400F004
:103D000097F89DED081B51EC100B53EC112B02F0B2
:103D1000CBFA9DED021B53EC112B02F0F9FBCDE920
:103D200006019DED020B53EC1A2B51EC100B02F027
:103D3000BBFA53EC1A2B02F00FF89FED3B0B41EC52
:103D40001A0B53EC102B9DED060B51EC100B02F0EF
:103D5000B7FC9DED060B41EC1B0B53EC102B9DEDBE
:103D6000020B51EC100B02F09FFA53EC1B2B02F0EC
:103D7000AFF853EC1A2B02F0A3FC9DED021B53ECA1
:103D8000112B02F09DFC53EC192B02F0C1FBCDE985
:103D9000020101EB065001150029C8BF039015DC94
:103DA0009DED020B324651EC100B02F0AAFDFFF71D
:103DB000EEF9042808BF00F0FBF832469DED020B37
:103DC00051EC100B02F09DFDCDE902019DED020BBF
:103DD00051EC180B53EC102B02F066FAFFF73ABBCC
:103DE0000000904000000000FE822B654715973CC4
:103DF00000CC904000346F3F01FCFFFF0000E03F2B
:103E0000B82E0000FFFF0F0000000000432EE63F29
:103E1000396CA80C615C20BEEF39FAFE422EE63FF9
:103E2000882D00000000000000000000000000409D
:103E300070B504462DED028B4D1E00EBC500B0EEB3
:103E4000408AF0EE608A90ED000B35F0060017D046
:103E500053EC182B51EC100B02F026FA41EC100B2E
:103E60006D1E04EBC50090ED001B51EC100B53ECE4
:103E7000112B01F071FF41EC100B35F00600E7D17A
:103E8000022D36D0042D1CD0062D1CBFBDEC028B9C
:103E900070BD53EC182B51EC100B02F005FA94EDA9
:103EA0000A1B53EC112B01F057FF53EC182B02F0B7
:103EB000FBF994ED081B53EC112B01F04DFF41EC85
:103EC000100B53EC182B51EC100B02F0EDF994EDA4
:103ED000061B53EC112B01F03FFF53EC182B02F0A3
:103EE000E3F994ED040B53EC102B01F035FF41EC9A
:103EF000100B53EC182B51EC100B02F0D5F994ED8C
:103F0000021B53EC112B01F027FF53EC182B02F08E
:103F1000CBF994ED001B53EC112B01F01DFFBDEC10
:103F2000028B41EC100B70BD9FED070B10B553ECED
:103F3000102B9FED070B51EC100B01F0C9FF41EC6A
:103F4000100B10BD00000000000000000000000089
:103F5000000000000000F03F10B553EC112B51ECB5
:103F6000100B01F0F9FE41EC100B10BD0000000039
:103F70009FED050B10B553EC102B51EC100B01F01D
:103F8000A7FF41EC100B10BD000000000000000076
:103F90009FED050B10B553EC102B51EC100B02F0FC
:103FA00083F941EC100B10BD000000000000007010
:103FB0009FED050B10B553EC102B51EC100B02F0DC
:103FC00073F941EC100B10BD000000000000001060
:103FD00000B58BB00020012103900490CDE90601CB
:103FE000CDE90810059000900190029069461448B0
:103FF000FCF7EAFB69461248FCF7E6FB0028F9D11A
:104000000E20059069460F48FCF7DEFB69460D4817
:10401000FCF7DAFB0028F9D16420FDF759F90848CC
:10402000FCF754FF02210648FCF7BCFB0548FCF7EF
:104030004DFF02210348FCF7B5FB0BB000BD0000AB
:10404000B0070020D8070020054803210022017096
:104050004170426082600C30C1700721417070472E
:10406000D400002070B5114D00242DED028B4FF4CB
:104070007A569FED0F8ADFED0F8A00BF04EBC40074
:10408000F0EE480A00EB400005EB8000B0EE601A4D
:10409000B0EE680A002332460321FEF7FDFB641CE4
:1040A000042CEBDBBDEC028B70BD0000204F002028
:1040B000000000009A99994008B500F0BEF9DFF8B9
:1040C0005080114D114FA8F12004002604F1100971
:1040D0000090287810B1012810D102E0FE633E6400
:1040E0000CE0217858F8212009491839081F904719
:1040F0006070227809EB8201085C2070012168461B
:1041000000F08FF9E5E7000005010020C44E002013
:10411000F400002008B500F090F9009001216846F5
:1041200000F07FF9FAE74A8852BA82818A8852BA47
:10413000C2814388838009884ABA4280D31A0169C0
:10414000B3F5805F01DB491E03E013F5805F01DCFE
:10415000491C016102EB41310288891A8160704774
:104160000C4841880C48B1F5967F01D9042100E044
:1041700005214170C8B2042807D0052803D00628BD
:1041800005D0072800D10120704700207047022089
:10419000704700000C4F0020E00000200A48032276
:1041A000037C417C094803B959B1C270C07800282A
:1041B00006D0012804D0022802D0032800D1012013
:1041C00070470021C170F1E70C4F0020E000002093
:1041D00010B503680C680D4AA34201D00E2004E01C
:1041E000884201D10C2000E00D209070C0B20C2854
:1041F00007D00D2803D00E2805D00F2800D10120AC
:1042000010BD002010BD022010BD0000E000002005
:104210000F48027C417C0F4882B1012A12D001294B
:1042200010D00B210170C8B208280DD0092803D086
:104230000A280BD00B2800D1012070470029EED1AD
:104240000921EFE70A21EDE70020704702207047BF
:104250000C4F0020E000002082B0CDE9000121F0E9
:10426000004001909DED000B02B051EC100B704727
:1042700070B50C4D044640212846FDF713F9207017
:1042800080212846FDF70EF9074D6070022128466F
:10429000FDF708F9A07004212846FDF703F9E07046
:1042A00070BD0000000C024000080240F0B5064658
:1042B0002DED028B83B02548002214460068CDE91D
:1042C0000002154610466B460F18F75D1F54401C40
:1042D0000428F9DB002001AE195C3039092903D824
:1042E000641CE4B2315400E03254401C0428F3DB77
:1042F00023E0601E01F071FF41EC110B9FED140BE8
:10430000FEF76EFFC4F10400B0EE408AF0EE608A62
:10431000305C01F079FF53EC182B01F0C5FF41EC44
:10432000180B284601F070FF53EC182B01F014FD18
:1043300001F026FF641E85B2E4B2002CD9D10648F4
:10434000058003B0BDEC028BF0BD0000206A0008C0
:104350000000000000002440CC0000200648817AC4
:104360000648012906D0022903D0032901D10121E1
:10437000417070470021FBE7984C002004010020A9
:10438000EFF30580002800D001207047FDF79EF86C
:10439000FEF7AEFAFEF776F9FEF7C6F8FEF704FA76
:1043A000FEF7AEF9FEF79EF8FEF77AF8FEF73AFA56
:1043B000FEF7C2F9FEF7DCF9FEF718FAFEF74EFA3F
:1043C000FEF79AFEFFF704FEFFF74CFEFFF73CFEF8
:1043D000FEF720F900F02CF8FEE7014600208429C2
:1043E00000D0C81C7047000008B500F026F8084C43
:1043F0000090207808B100F0D9FCFFF7AFFF05204E
:1044000000F008F80121684600F00BF8F1E7000021
:104410000401002010B500B9012000F047FE002083
:1044200010BD10B501B9012100F066FE002010BDDD
:1044300010B500F0E9FE002010BD10B5FFF7A0FF99
:1044400018B1BDE8104001F0C7BABDE8104001F056
:10445000BDBA7FB50D4604464169B0F9080081B187
:10446000A16971B1FFF7B9FFD4E905128DE8070022
:10447000D4E900102B46226901F06FFA039004B0D2
:1044800070BDFFF7AAFF03A9CDE90001208A2B46E2
:1044900082B2D4E9001001F033FA012801D00020E3
:1044A000EDE70398EBE700F1580C8CE80E0080EC88
:1044B000030A704780EC030A704700002DE9F041C1
:1044C000184C0F46054666692068001D00F0BFFCC9
:1044D00038B9206890F82C1001208840A1698143E8
:1044E000A161681C07D137B12168BDE8F0410E48D1
:1044F000091D00F0FBBC20683544B54245602168C9
:1045000005D2A068BDE8F041091D00F0D7BC606885
:10451000091D00F0D3FC206B854200D22563BDE865
:10452000F08100001C0000209C0F00202DE9F041CC
:10453000054600F0E7FC2E4C2069401C20612068F5
:104540002C4F10B1E06940B32DE0256020690128AF
:1045500029D1002606EB860007EB800000F0A0FCC6
:10456000761C072EF6D323488C3000F099FC2148A6
:10457000A03000F095FC1F48B43000F091FC1D48BD
:10458000C83000F08DFC1B48DC3000F089FC194875
:104590008C3060601430A06005E02068E96AC06A71
:1045A000884200D82560E06A401CE062E96A012088
:1045B000A26988401043A06101EB810007EB8000F5
:1045C000291D00F093FC00F0BDFCE06900280CD030
:1045D0002068E96AC06A884207D207494FF08050D4
:1045E0000860BFF34F8FBFF36F8FBDE8F08100000D
:1045F0001C000020C00E002004ED00E038B500F0E3
:1046000081FC104CA068C8B90F4800F049FC0E4866
:10461000143000F045FC0C482060143060600A4BF8
:1046200000202833009003F148020C210A2000F0FA
:104630000BFFA06010B105A100F002FDBDE83840FD
:1046400000F080BC58000020B00F0020546D725163
:104650000000000030B4026C0B46002A0BD0C16889
:104660001144C1604468A14201D30168C16030BCFB
:104670001846FBF7D0BE30BC70472DE9F041856B82
:10468000174604460026026C82B1C7B1E068FBF70A
:10469000C2FEE168206C091AE1602268914202D2F0
:1046A0006168081AE060022F16D017E02068A8B9E8
:1046B000606801F0FDF90646002060600EE0A06829
:1046C000FBF7A9FE216CA0680844A06061688842DD
:1046D00004D32068A06001E005B16D1E6D1CA563C8
:1046E0003046BDE8F08110B5044690F8510058B14D
:1046F00001280CD002280FD0502080F31188BFF37E
:104700004F8FBFF36F8FFEE7206B00F02FFC20462A
:10471000BDE8104000F02ABC10BD000010484FF466
:104720007051420706D0C01D0D4920F00700411A04
:10473000C1F570510B4A00230144C2E90003083956
:10474000103A21F0070111604B600B600B1AC0E9B1
:10475000001393604FF000405360D060704700003A
:10476000981000207C000020144E154CA6F1C807BC
:104770004FF08058DFF84C9012E000BF00F0C2FB11
:10478000F068C568281D00F062FB2069401E2061AA
:10479000E068401EE06000F0D5FB2846FFF7A3FF6D
:1047A000E0680028EAD138680128F9D9C9F8008002
:1047B000BFF34F8FBFF36F8FF2E70000880F002029
:1047C0001C00002004ED00E00346009829B10260BF
:1047D000C0E90F31012100F06BBE0060F8E72DE960
:1047E000F0479A46DDE9098481466FF00303206BA8
:1047F00003EB82021044089D20F00706700707D0E3
:10480000502080F31188BFF34F8FBFF36F8FFEE707
:1048100023180A5C83F834200A5C12B1401C10286B
:10482000F6D3002784F84370072D00D30625E562F0
:10483000C4E91157201D00F03EFB04F1180000F000
:104840003AFB2461C5F107006462A061E76484F863
:10485000507052464946304600F032FA2060B8F1B6
:10486000000F01D0C8F80040BDE8F08730B511490D
:1048700000E011460A688242FBD34B685C18844210
:1048800003D1406818444860084643681C189442A5
:1048900009D1084C103C2468A24209D052681A443D
:1048A00042600A6812680260814200D0086030BD30
:1048B0000460F9E77C00002070B5002441600B4DD6
:1048C0000061914206D8D11A8269914206D2011D37
:1048D000686807E09A4203D2994201D3012403E0B9
:1048E000011D286800F0EAFA204670BD580000203B
:1048F00010B5044600F006FBA06B28B15FF0000481
:1049000000F020FB204610BD0124F9E730B587B048
:104910002C4D4EE0049800284BDB069C606910B1DA
:10492000201D00F094FA02A800F0B8F8024604989E
:104930000A283ED2DFE800F00505053D26370505CB
:104940003D260598A169034601442046FFF7B4FFC0
:1049500000B3616A20468847E069012829D1002018
:1049600000900598A169002342181946204601F0DD
:10497000B7F978B9502080F31188BFF34F8FBFF398
:104980006F8FFEE70598A06128B181181346204675
:10499000FFF792FF0DE0502080F31188BFF34F8F97
:1049A000BFF36F8FFEE794F8280010B9204600F09F
:1049B000DDFA002204A9A86800F0CCFE0028A9D1E5
:1049C00007B030BD580000202DE9FC410F460546D8
:1049D00000F05EFC01A800F061F80446019818B1EF
:1049E00001F0ECF8BDE8FC81224EAFB170680068C0
:1049F000A8B30027291B3A46B06800F035FB01F048
:104A0000DDF80028EED11C494FF080500860BFF35C
:104A10004F8FBFF36F8FE5E7A542EBD801F0CEF8DB
:104A200030682746C068C468201D00F010FAE069AD
:104A3000012810D1A0692B4641193A462046FFF7BC
:104A40003BFF40B100200346014600902A46204625
:104A500001F046F920B1616A20468847C2E707E0C5
:104A6000502080F31188BFF34F8FBFF36F8FFEE7A5
:104A70000127BFE75800002004ED00E00648416828
:104A8000096829B14168C968C96849680163704704
:104A90004FF0FF31FAE700001C00002070B505461A
:104AA00000F094FF064E04463069844203D200F0C1
:104AB00009F8012000E0002028602046346170BD24
:104AC00058000020F8B5194D1FE0C068C46806689A
:104AD000201D00F0BCF9616A20468847E069012882
:104AE00013D1A0693044B04206D924616060211D11
:104AF000286800F0E3F908E0002003460146009032
:104B00003246204601F0ECF838B1286801680029E7
:104B1000DBD16968C5E90010F8BD502080F3118829
:104B2000BFF34F8FBFF36F8FFEE7000058000020E8
:104B300008484068401C4FF0500080F3118804D0B2
:104B4000BFF34F8FBFF36F8FFEE7BFF34F8FBFF3FE
:104B50006F8FFEE784000020074C2068016841B198
:104B6000C0680021D0F80000FFF72EFFFFF7CEFE4F
:104B7000F3E701210020F7E7580000202DE9F0417C
:104B8000044600F0BFF994F9455004F1240609E009
:104B9000606A48B1304600F0D7FF08B100F0FAFA79
:104BA0006D1E6DB2002DF3DC4FF0FF3684F84560CA
:104BB00000F0C8F900F0A6F994F9445004F1100788
:104BC00009E0206948B1384600F0BEFF08B100F0A6
:104BD000E1FA6D1E6DB2002DF3DC84F84460BDE88F
:104BE000F04100F0AFB900002DE9F0410546002783
:104BF00000F04EFB314E306808B9FFF78FFDF068CA
:104C000005424BD1C5B3083568070ED005F0070043
:104C1000C0F108000544680707D0502080F31188D0
:104C2000BFF34F8FBFF36F8FFEE72DB370688542E0
:104C300034D82248103001460C6801E020460C466A
:104C40006168A94202D221680029F7D131688C42FB
:104C500024D007682168016060680837411B10296B
:104C60000FD96019420708D0502080F31188BFF394
:104C70004F8FBFF36F8FFEE710E041606560FFF775
:104C8000F5FD61687068401A7060B268904200D2A9
:104C9000B060F06801430020C4E9000100F08EFF1D
:104CA000780707D0502080F31188BFF34F8FBFF3F0
:104CB0006F8FFEE73846BDE8F08100006C000020F1
:104CC00010B5031F4FF080741C601B1F21F0010101
:104CD0001960191F044B0B6014390A60091F6FF02B
:104CE000020244380A6010BD314B00082DE9F04142
:104CF000054608880C46C0F30A02A2F580622A80A5
:104D000048788978C00840EA4110C0F30A03A3F547
:104D100080636B80A078E178800940EA8100217986
:104D200002F5257240EA8120C0F30A01A1F58061F5
:104D3000A98020796679400840EAC610C0F30A00CD
:104D4000A0F58060E880268AA6F5806636B22E81BE
:104D50006779BF09AF726779C7F30117EF724FF434
:104D6000A567BA420FD803F52573BB420BD801F5EE
:104D70002571B94207D800F52570B84203D806F569
:104D80002576BE4203D916212846FBF7BBFBE088F7
:104D9000A8812089E88160892882207BA874607BB3
:104DA000E874E089A882BDE8F08100000A48817AB1
:104DB00003290FD1C17A01290CD1B0F9021011F5E4
:104DC000257F07D1B0F90000B0F5257F02D1034956
:104DD0000020087070470000984C0020040100205B
:104DE00000B52DED048B83B041EC190B01F09CFB59
:104DF00041EC180B18EE100A18EE901A8DED008B8E
:104E0000002818BF0120084320F00040C0F17F6057
:104E100000F1E040C00F14D019EE101A19EE900AFC
:104E20008DED009B002918BF0121084320F00040B0
:104E3000C0F17F6000F1E040C00F04BF0120FBF72C
:104E4000B2FB51EC180B03B0BDEC048B00BDD0E9F4
:104E5000013201699A60D0E901235A604A688242AE
:104E600001D182684A60002202610868401E086021
:104E700008687047034B036003F15400086080200A
:104E80001060704708010020044B036003F15400D8
:104E900008604FF480701060704700005C030020D1
:104EA00000F108014FF0FF32C0E90112C160016159
:104EB00000210160704700210161704730B50B6827
:104EC0005A1C02D000F1080202E0026904E0224606
:104ED000546825689D42FAD953684B6099608A608E
:104EE000516008610168491C016030BD42684A6038
:104EF00093688B6093685960916008610168491CF0
:104F000001607047502080F31188BFF34F8FBFF3CB
:104F10006F8F0A494868401C486001280CD1084836
:104F2000006810F0FF0F07D0502080F31188BFF306
:104F30004F8FBFF36F8FFEE77047000084000020A3
:104F400004ED00E00849486828B1401E486001D1DE
:104F500080F311887047502080F31188BFF34F8F82
:104F6000BFF36F8FFEE700008400002070B50028BB
:104F700027D0144DA0F108046168E868014207D108
:104F8000502080F31188BFF34F8FBFF36F8FFEE780
:104F900022683AB1502080F31188BFF34F8FBFF3DE
:104FA0006F8FFEE78143616000F072F960686968A5
:104FB000084468602046FFF759FCBDE8704000F0E7
:104FC000FDBD70BD6C0000204FF0E02000210161AC
:104FD000816105494FF47A720968B1FBF2F1491E0B
:104FE00041610721016170471800002010B5FBF7EF
:104FF00077F9114910280ED300F1E02090F8F00362
:105000000A78904207D2502080F31188BFF34F8F67
:10501000BFF36F8FFEE709480068896800F4E0601D
:10502000884207D9502080F31188BFF34F8FBFF318
:105030006F8FFEE710BD0000840000200CED00E043
:1050400010B5084B002200BF53F832401CB1521C6F
:10505000082AF9D310BD43F8321003EBC2014860AF
:1050600010BD0000800E002070B515460E460446A7
:10507000FFF748FF94F944100020491C01D184F83F
:10508000440094F94510491C01D184F84500FFF70C
:1050900059FFA06B28B92A46314604F1240000F0DC
:1050A00097F82046BDE87040FFF768BD10B50200D4
:1050B00014D00F48806B38B1502080F31188BFF3B3
:1050C0004F8FBFF36F8FFEE700F0E2F8002110462C
:1050D000FFF7F4F900F072FD002807D105494FF001
:1050E00080500860BFF34F8FBFF36F8F10BD00007B
:1050F0001C00002004ED00E070B50D4604000BD04C
:1051000095B11E4A906BB8B1502080F31188BFF35F
:105110004F8FBFF36F8FFEE7502080F31188BFF3EE
:105120004F8FBFF36F8FFEE7502080F31188BFF3DE
:105130004F8FBFF36F8FFEE700F0AAF85269236824
:105140005919934204D98B420AD9914202D807E0F7
:105150008B42FAD9881A21600021FFF7AFF900E0ED
:10516000216000F02BFD002807D105494FF0805049
:105170000860BFF34F8FBFF36F8F70BD1C0000201E
:1051800004ED00E002498A6A0260496941607047A3
:105190001C00002001490120486270471C000020CB
:1051A00010B50C4650B1094909681831FFF786FE61
:1051B0002046BDE810400121FFF780B9502080F360
:1051C0001188BFF34F8FBFF36F8FFEE71C000020E5
:1051D00070B514460D4668B10A4909681831FFF7E1
:1051E00085FE0CB14FF0FF3521462846BDE87040E2
:1051F000FFF764B9502080F31188BFF34F8FBFF3DE
:105200006F8FFEE71C00002030B587B000240394A8
:1052100005AA04A903A80494FFF72CFEDDE9030105
:105220000094CDE90110002315A11748059A00F05C
:1052300094FB164D002868631FD000F021FD012863
:1052400009D0401C19D1502080F31188BFF34F8F33
:10525000BFF36F8FFEE7502080F31188BFF34F8FAD
:10526000BFF36F8F4FF0FF3028630120E8616C615E
:1052700007B0BDE8304000F06DB807B030BD0000A9
:1052800049444C4500000000694700081C0000200C
:105290000248816B491C8163704700001C0000209C
:1052A0001448816B11B101214162704700214162B4
:1052B0008169B1FA81F1C1F11F0101EB81020E494F
:1052C00051F822306BB101EB820101F108034A6809
:1052D00052684A609A4201D152684A60D1680160BE
:1052E0007047502080F31188BFF34F8FBFF36F8F4B
:1052F000FEE700001C000020C00E002001785929A4
:1053000010D1417859290DD141888088642809D964
:105310004FF6FF72904205D001EB8100024902EA8C
:105320004000088070470000C8000020017859291B
:105330000CD14178592909D141888088642805D940
:10534000A0F57F42FF3A01D001484180704700003C
:10535000C80000201CB537480168374A914207D180
:10536000502080F31188BFF34F8FBFF36F8FFEE79C
:1053700000683149491E884207D1502080F31188C6
:10538000BFF34F8FBFF36F8FFEE72C490878019072
:10539000FF20087008788DF800009DF800009DF847
:1053A000002000F0F000904207D0502080F31188D8
:1053B000BFF34F8FBFF36F8FFEE79DF80000204BC8
:1053C00000F0500018700720986005E09DF800205C
:1053D00052008DF80020401E9DF800201206F5D4E2
:1053E0009860032807D0502080F31188BFF34F8FB7
:1053F000BFF36F8FFEE74FF440709860019808701C
:105400000C482030016841F470010160016841F0EE
:1054100070410160FFF7D8FD00205860FAF728FFBF
:105420000848016841F040410160FAF70DFF002093
:105430001CBD000000ED00E071C20F4100E400E07F
:105440008400002034EF00E038B5049D18B153B15A
:10545000CAB181B120E0502080F31188BFF34F8F93
:10546000BFF36F8FFEE7502080F31188BFF34F8F9B
:10547000BFF36F8FFEE7502080F31188BFF34F8F8B
:10548000BFF36F8FFEE739B1502080F31188BFF36F
:105490004F8FBFF36F8FFEE748241C46012384F82B
:1054A00046302B460094FFF78FF9204638BD0000A8
:1054B00070B50D46040025D0FFF724FDD4E90F2078
:1054C000216802FB001161600021A1632168A160D5
:1054D0000A46D4E90F01401E00FB0121E16021468C
:1054E0004FF0FF3001F8440F487004F110008DB107
:1054F000FFF7D6FC04F12400FFF7D2FCFFF722FDF2
:10550000012070BD502080F31188BFF34F8FBFF38F
:105510006F8FFEE721690029F0D000F015FB00280D
:10552000ECD004494FF080500860BFF34F8FBFF3B9
:105530006F8FE3E704ED00E02DE9FF4782B01D46E1
:105540008A464FF00008040003D0BAF1000F08D0DB
:1055500011E0502080F31188BFF34F8FBFF36F8F9E
:10556000FEE7206C38B1502080F31188BFF34F8FD5
:10557000BFF36F8FFEE7022D0AD1E06B012807D041
:10558000502080F31188BFF34F8FBFF36F8FFEE77A
:1055900000F00EFA3F4F4FF000094FF0805648B927
:1055A000049838B1502080F31188BFF34F8FBFF3B8
:1055B0006F8FFEE7FFF7A6FCA06BE16B884207D375
:1055C000022D05D00498D0B1B8F1000F1AD01EE01A
:1055D0002A4651462046FFF750F8616A19B104F196
:1055E000240000F0B1FA20B13E60BFF34F8FBFF34B
:1055F0006F8FFFF7A7FC012006B0BDE8F087FFF72B
:10560000A1FC22E06846FFF7BDFD4FF00108FFF75F
:1056100099FCFFF73DFEFFF775FC94F94400401C30
:1056200001D184F8449094F94500401C01D184F8DC
:105630004590FFF787FC04A9684600F027F930B1D0
:105640002046FFF79BFA00F0B9FA0020D4E7FFF7F5
:1056500059FCA06BE16B884213D1FFF773FC04F196
:1056600010000499FFF79CFD2046FFF787FA00F031
:10567000A5FA00289ED13E60BFF34F8FBFF36F8F16
:1056800098E7FFF75FFC2046FFF778FA00F096FAFC
:1056900090E7000004ED00E02DE9F0471F4690463A
:1056A0008946040003D0B9F1000F08D011E0502062
:1056B00080F31188BFF34F8FBFF36F8FFEE7206C2D
:1056C00038B1502080F31188BFF34F8FBFF36F8F35
:1056D000FEE7022F0AD1E06B012807D0502080F3AB
:1056E0001188BFF34F8FBFF36F8FFEE7FFF77EFC8C
:1056F0005020EFF3118680F31188BFF34F8FBFF373
:105700006F8FA06BE16B884206D3022F04D000207C
:1057100086F31188BDE8F08794F945503A4649462A
:105720002046FEF7AAFF681C04D06D1C84F8455083
:105730000120EDE7606A0028FAD004F1240000F0AF
:1057400003FA0028F4D0B8F1000FF1D00121C8F815
:105750000010EDE72DE9F747002683B08A460400E4
:1057600003D0BAF1000F08D011E0502080F3118867
:10577000BFF34F8FBFF36F8FFEE7206C38B150201F
:1057800080F31188BFF34F8FBFF36F8FFEE700F0F8
:105790000FF9DFF8F4804FF000094FF0805748B957
:1057A000059838B1502080F31188BFF34F8FBFF3B5
:1057B0006F8FFEE7FFF7A6FBA56BC5B151462046EC
:1057C000FEF748FF6D1EA563206950B104F110007B
:1057D00000F0BAF928B1C8F80070BFF34F8FBFF3DB
:1057E0006F8FFFF7AFFB012006B0BDE8F08705988B
:1057F00008B11EB106E0FFF7A5FB27E06846FFF7FA
:10580000C1FC0126FFF79EFBFFF742FDFFF77AFB85
:1058100094F94400401C01D184F8449094F9450067
:10582000401C01D184F84590FFF78CFB05A9684620
:1058300000F02CF8002820460AD0FFF79FF900F06E
:10584000BDF92046FFF754F80028B3D00020CBE77D
:10585000FFF74EF890B104F124000599FFF7A0FC82
:105860002046FFF78BF900F0A9F90028A2D1C8F86B
:105870000070BFF34F8FBFF36F8F9BE72046FFF79A
:105880007DF900F09BF995E704ED00E02DE9F0418A
:105890000C46050011D0C4B1FFF734FB174B5A6911
:1058A0006E682068911B471C17D02F689B6A9F4227
:1058B00019D0964217D8012410E0502080F31188A7
:1058C000BFF34F8FBFF36F8FFEE7502080F3118837
:1058D000BFF34F8FBFF36F8FFEE70024FFF732FB5C
:1058E0002046BDE8F081884205D9401A206028464C
:1058F000FFF748FCF1E700202060DCE71C000020F7
:105900002DE9FF5F8346DDE90E87994616468A46F4
:105910009000FFF769F905001CD05420FFF764F9E7
:10592000040014D00020256384F85100CDE9024022
:10593000CDE900874B46324651465846FEF74FFFA9
:105940002046FEF7F3FD012004B0BDE8F09F284695
:10595000FFF70CFB4FF0FF30F6E7F0B585B0DDE95F
:105960000B640A9DA6B1DCB154270097266302267A
:1059700084F85160002604AFCDE90246CDE9005716
:10598000FEF72DFF2046FEF7D1FD049805B0F0BDCF
:10599000502080F31188BFF34F8FBFF36F8FFEE766
:1059A000502080F31188BFF34F8FBFF36F8FFEE756
:1059B0000548C16919B1806B18B1002070470120FA
:1059C00070470220704700001C0000200148406919
:1059D000704700001C00002010B5FFF707FB0148CE
:1059E000406910BD1C0000202DE9F0412E4C00271D
:1059F000A06B40B1206A401C2062606A00B10127A0
:105A00003846BDE8F0816669761C666113D160682E
:105A1000006838B1502080F31188BFF34F8FBFF377
:105A20006F8FFEE76068A1686160A060A06A401C9B
:105A3000A062FFF723F8206BDFF87080864209D35D
:105A40006068006880B16068C068C5686868864240
:105A50000DD220632068C06A00EB800158F8210055
:105A60000128CAD90127C8E74FF0FF30F1E7281D08
:105A7000FFF7EDF9A86A18B105F11800FFF7E7F98B
:105A8000E86A0121A26981401143A16100EB800114
:105A900008EB8100291DFFF729FAE86A2168C96A25
:105AA0008842CDD30127CBE71C000020C00E002088
:105AB00070B504004FF0000140D0214D28688442A9
:105AC00007D0502080F31188BFF34F8FBFF36F8F43
:105AD000FEE7A06C38B1401EA064636CE26A9A4293
