:020000040800F2
:10000000F0680020E9020008A329000893250008F1
:10001000A12900082F0600089932000800000000FE
:10002000000000000000000000000000290200089D
:10003000A10700080000000085020008D12900087F
:100040000303000803030008030300080303000878
:100050000303000803030008030300080303000868
:100060000303000803030008030300086D060008EB
:100070007906000885060008910600089D0600081C
:10008000A9060008B5060008030300083D0600089D
:1000900031060008030300080303000803030008F7
:1000A00003030008D52A000803030008030300081F
:1000B0000303000803030008030300080303000808
:1000C00003030008030300080303000803030008F8
:1000D0000303000895300008AD300008C530000863
:1000E00003030008030300080303000803030008D8
:1000F000030300080303000803030008C106000807
:1001000003030008030300080303000803030008B7
:10011000F12B0008092C0008030300080303000862
:1001200003030008CD060008D906000803030008F1
:100130000303000803030008030300086106000826
:1001400049060008550600080303000803030008D9
:1001500003030008E5060008F1060008DD3000088A
:100160000303000803030008030300080303000857
:100170000303000803030008030300080000000055
:10018000030300080303000800F002F800F03CF845
:100190000AA090E8000C82448344AAF10107DA45E2
:1001A00001D100F031F8AFF2090EBAE80F0013F0F8
:1001B000010F18BFFB1A43F001031847A06E00009F
:1001C000C06E0000103A24BF78C878C1FAD8520730
:1001D00024BF30C830C144BF04680C6070470000C1
:1001E0000023002400250026103A28BF78C1FBD840
:1001F000520728BF30C148BF0B6070471FB506F0DB
:10020000F1FD1FBD10B510BD00F0DCF91146FFF780
:10021000F5FF04F0E5F900F0FAF903B4FFF7F2FF97
:1002200003BC00F0FDF900002C4B19680868B0E829
:10023000F04F80F30988BFF36F8F4FF0000080F319
:10024000118870470000000008480068006880F3CB
:1002500008884FF0000080F3148862B661B6BFF3DF
:100260004F8FBFF36F8F00DF00BF00BF08ED00E0CE
:10027000DFF80C00016841F470010160704700BFB5
:1002800088ED00E0EFF30980BFF36F8F134B1A681E
:100290001EF0100F08BF20ED108A20E9F04F10600B
:1002A00009B44FF0500080F31188BFF34F8FBFF3B4
:1002B0006F8F05F057FA4FF0000080F3118809BCEA
:1002C00019680868B0E8F04F1EF0100F08BFB0ECD6
:1002D000108A80F30988BFF36F8F704720000020D9
:1002E000EFF3058070470000094880470948004740
:1002F000FEE7FEE7FEE7FEE7FEE7FEE7FEE7FEE7D6
:10030000FEE7FEE704480549054A064B7047000032
:10031000812A000889010008F0520020F0680020BE
:10032000F0620020F062002053EA020C00F06980C5
:100330002DE9F04B4FF00006002B1FBFB3FA83F5F9
:1003400003FA05F424FA05F65E4012BF1643B2FA2A
:1003500082F502FA05F4C5F120051EBF22FA05FC5C
:1003600044EA0C04203556EA044C4FEA144418BF02
:10037000641C4FF000084FF00009904271EB030C31
:1003800039D3002919BFB1FA81F701FA07F6B0FA9B
:1003900080F700FA07F6C7F120071EBF20FA07FC16
:1003A00046EA0C062037B6FBF4FCA7EB0507103F26
:1003B00007F01F0BCBF120060CFA0BFB2CFA06F60C
:1003C00044BFB3460026202FA4BF5E464FF0000B6B
:1003D0005BEA060C08BF4FF0010B19EB0B09ABFBF6
:1003E000027C48EB0608C01B06FB02CC0BFB03CCCF
:1003F00071EB0C01C1E70B46024641464846BDE899
:10040000F08B13B54FF000004FF00001AFF3008008
:10041000BDE81C407047032A40F2308010F0030C06
:1004200000F0158011F8013BBCF1020F624498BF47
:1004300011F801CB00F8013B38BF11F8013BA2F1E4
:10044000040298BF00F801CB38BF00F8013B11F05F
:10045000030300F02580083AC0F0088051F8043BFF
:10046000083A51F804CBA0E80810F5E7121D5CBF6C
:1004700051F8043B40F8043BAFF30080D20724BF9F
:1004800011F8013B11F801CB48BF11F8012B24BF33
:1004900000F8013B00F801CB48BF00F8012B704782
:1004A00010B5203AC0F00B80B1E81850203AA0E80F
:1004B0001850B1E81850A0E81850BFF4F5AF5FEA43
:1004C000027C24BFB1E81850A0E8185044BF18C9F6
:1004D00018C0BDE810405FEA827C24BF51F8043B9D
:1004E00040F8043B08BF7047D20728BF31F8023BF1
:1004F00048BF11F8012B28BF20F8023B48BF00F885
:10050000012B70474FF000020429C0F0128010F058
:10051000030C00F01B80CCF1040CBCF1020F18BFDF
:1005200000F8012BA8BF20F8022BA1EB0C0100F072
:100530000DB85FEAC17C24BF00F8012B00F8012B45
:1005400048BF00F8012B70474FF0000200B513467A
:1005500094469646203922BFA0E80C50A0E80C50E3
:10056000B1F12001BFF4F7AF090728BFA0E80C5094
:1005700048BF0CC05DF804EB890028BF40F8042B8D
:1005800008BF704748BF20F8022B11F0804F18BFFA
:1005900000F8012B704770477047704710B500F0A6
:1005A00009F8006810BD10B5044600F003F80460B7
:1005B00010BD0000004870478C5200200048704772
:1005C0008C5200207546FFF7F9FFAE4605006946DC
:1005D000534620F00700854618B020B5FFF792FE7D
:1005E000BDE820404FF000064FF000074FF0000834
:1005F0004FF0000B21F00701AC46ACE8C009ACE8B5
:10060000C009ACE8C009ACE8C0098D46704710B518
:100610000446AFF300802046BDE81040FFF7FDBD63
:1006200001491820ABBEFEE7260002007047FEE736
:10063000014800F03EBA0000BC070020014800F06D
:1006400038BA0000BC070020014800F032BA0000B0
:10065000E4070020014800F02CBA0000E407002065
:10066000014800F026BA0000E4070020014800F02D
:1006700033BD00008C0A0020014800F02DBD0000B1
:10068000CC0C0020014800F027BD0000CC09002060
:10069000014800F021BD00002C0D0020014800F0B1
:1006A0001BBD00002C0A0020014800F015BD000011
:1006B0000C0C0020014800F00FBD00006C0C002065
:1006C000014800F009BD0000EC0A0020014800F0DC
:1006D00003BD00008C0D0020014800F0FDBC0000AF
:1006E0004C0B0020014800F0F7BC0000EC0D00208E
:1006F000014800F0F1BC0000AC0B00200168182399
:10070000CAB2103AB2FBF3F2054B6FF30901032AA8
:100710009B5CC36500D9091D8165084670470000D0
:100720006C6F000810B5014600208B698A6A4FF093
:10073000C07453B1B3F5005F15D072B1012A0CD06B
:10074000022A0AD0032A09D104E01AB1012A06D0EC
:10075000022A03D1C96AC90100D5012010BDC96AA6
:10076000A142FAD010BD002AF7D0012AF2D0022A05
:10077000F3D0032AF3D010BD30B50468256825F402
:1007800080252560046863608368402B036803D07C
:1007900099600068C26030BD9A600068C16030BD79
:1007A0007047704790F82020012A07D0022A05D010
:1007B000416A41F48021416201207047006842692A
:1007C0000A43426100207047F0B590F82050046859
:1007D000A468012D05D0022D03D0416A41F4802187
:1007E00053E014F0406F01D1E5004BD5C4F3016430
:1007F000022C03D9416A41F4000146E00125A540DD
:100800001D608D684FF4C0739DB1CE6835434E684E
:1008100045EAC605066803EB0417F5514FF4C275A7
:10082000076805EB04150E697E51097D012905D085
:1008300009E00E88CD6845EA4655EBE701684E5958
:1008400046F480764E511179D2F805504FF4C676B1
:1008500041EA0525016806EB04168D511178D2F89E
:1008600001204FF4C47541EA0221026805EB04152A
:100870005151006803EB0411425842F0010242500A
:100880000020F0BD416A41F4001141620120F0BD39
:1008900010B590F82020012A07D0022A05D0416A1D
:1008A00041F480214162012010BD3B48D0F8002274
:1008B00042F00102C0F80022D0F8002222F47C525B
:1008C000C0F80022D0F800224B6A42EA0322C0F8A6
:1008D00000220A7D02F01F0301229A40D0F81C3248
:1008E0009343C0F81C32CB69B3B9D0F80C329343B0
:1008F000C0F80C328C894B6864F31F434C6900EBE1
:10090000C404C4F840320C890B6864F31F434C697B
:1009100000EBC404C4F84432CB69012B16D1D0F8E3
:100920000C321343C0F80C320C884B6864F31F433D
:100930004C6900EBC404C4F840320C89CB6864F302
:100940001F434C6900EBC404C4F844328B69002B8C
:10095000D0F804320ED01343C0F804320B69002BD8
:10096000D0F8143208D01343C0F81432096A0129B0
:1009700004D008E09343EFE79343F5E7D0F81C1267
:100980001143C0F81C12D0F8001221F00101C0F888
:100990000012002010BD000000640040704730B518
:1009A00090F82040012C05D0022C03D0416A41F47C
:1009B00080215DE00468002955D02469A40754D043
:1009C0004FF4D874056804EB01142D5915F0040593
:1009D000956005682D594ED0ED08556005682C5975
:1009E000C4F34004D4604FF4DA74056804EB0114D6
:1009F0002D5905F00F05156105682D59C5F307251B
:100A0000956105682C59240C54614FF4DC7204681C
:100A100002EB0112A4581C700468A458240A5C70EC
:100A20000468A458240C9C700468A258120EDA7052
:100A30004FF4DE72046802EB0112A4581C710468C2
:100A4000A458240A5C710468A458240C9C7104689E
:100A5000A258120EDA71006881B1016941F02001DB
:100A60000161002030BDE468A8E7416A41F400114B
:100A70004162012030BD6D0D1560AFE7C16841F0E6
:100A80002001C160EDE70246002092F82010012904
:100A900001D002290CD111688A68520100D50120C9
:100AA0008A68120100D5401C8968C90000D5401C25
:100AB00070472DE9F05F0546006800244669D0F8CC
:100AC00004908768D0F80CB0D0F810A0D0F8188047
:100AD000F10748D0F90714D001218160B80703D588
:100AE000284600F09AFA0CE0780702D54FF400642B
:100AF00007E0380702D54FF4805402E0284600F0A2
:100B00008BFAF80516D529684FF480708860B8050F
:100B100003D5284600F083FA0CE0780502D544F4AA
:100B2000005407E0380502D544F4804402E028462A
:100B300000F074FAF80316D529684FF48030886005
:100B4000B80303D5284600F06CFA0CE0780302D510
:100B500044F4004407E0380302D544F4803402E052
:100B6000284600F05DFA300707D55FEACB6004D570
:100B70002968102044F40074C86070074FF008071B
:100B800007D55FEA0B7004D52868C760284600F0D7
:100B9000B1F9B00706D52868C068800702D028469A
:100BA00000F0AAF9700607D55FEACA6004D5296883
:100BB000102044F480640861B00607D55FEA0A702B
:100BC00004D528680761284600F0F6F9F00606D536
:100BD00028680069800702D0284600F0EEF9B003CB
:100BE00008D55FEAC96005D5296810204860284605
:100BF00000F0E4F9F00307D55FEA097004D528682E
:100C00004760284600F00EFA300446D55FEA497086
:100C100040D5F00504D55FEAC87001D044F0010466
:100C2000B00504D55FEA887001D544F00204700570
:100C300004D55FEA487001D544F00404300529D595
:100C400018F0700F26D008F07000402815D006DC90
:100C5000102809D020280AD0302816D10AE05028C0
:100C60000ED0602811D10EE044F008040DE044F0ED
:100C700010040AE044F0200407E044F0400404E0DB
:100C800044F0800401E044F480742868816921F014
:100C900070018161296804204860002C05D0686AD1
:100CA000204368622846FFF779FEBDE8F09F70B5E3
:100CB000040003D094F8200010B104E0012070BDBE
:100CC000204600F081F82068016821F002010160EF
:100CD00000F068FC0546052604E000F063FC401BBC
:100CE0000A2811D8206840688007F6D42068016877
:100CF00041F00101016000F055FC05460BE000F0F9
:100D000051FC401B0A2806D9606A40F4003060623A
:100D100084F82060D2E720684068C007EFD0207ECA
:100D20000128206801683DD021F080010160607ECB
:100D300001282068016838D021F040010160A07EC0
:100D400001282068016833D021F020010160E07E95
:100D50000128206801682ED041F010010160207F39
:100D600001282068016829D021F008010160607F16
:100D700001282068016824D021F004010160D4E931
:100D800002010843D4E90412114308436168491E73
:100D900008432168C86100206062012084F82000B7
:100DA000002070BD41F08001C0E741F04001C5E77F
:100DB00041F02001CAE721F01001CFE741F008011E
:100DC000D4E741F00401D9E7F0B587B00446142117
:100DD0006846FFF7B9FB424B4248DFF800E119686B
:100DE000D4F800C03F4A032502260927103000240A
:100DF000491CF4452AD11960012907D1016841F045
:100E000000710160006800F000700590106840F00B
:100E1000080010601068CDE9005600F00800CDE928
:100E2000047069463048CDE9024500F0DDFA002241
:100E30000521132000F042FC132000F031FC0022B9
:100E40000521142000F03AFC142043E0DFF89CE078
:100E5000F44541D1D0F800C04CF0806CC0F800C01F
:100E6000D0F800C001290CF0806CCDF814C01960D6
:100E700007D1016841F000710160006800F0007066
:100E80000590106840F002001060106802AB00F09E
:100E9000020005904FF44050CDE9000683E8B00011
:100EA0006946134800F0A0FA002205213F2000F017
:100EB00005FC3F2000F0F4FB00220521402000F05B
:100EC000FDFB402000F0ECFB00220521412000F05A
:100ED000F5FB412000F0E4FB07B0F0BD00640040EA
:100EE0000C00002030380240000C02400068004036
:100EF000000402407047000010B52A4CA04223D1E4
:100F0000294B2A4A0021FFF74AFD28480068A0F52E
:100F10000071013905D0012903D0022901D003292C
:100F20000CD12149401E0839C0B208701F4900EB9E
:100F30004000D83901EBC0001B4925E02068416919
:100F400041F00201416110BD194CA042FBD1164B8A
:100F5000164A103334320021FFF721FD1348343094
:100F60000068012813D0022811D0A0F500700538C0
:100F700006D00128E2D10C490C481031483803E072
:100F800009490A481031603803F0F7F9D6E70949F2
:100F90000A7C0AB901220A740349103101F004FEE7
:100FA000CCE70000BC0700209C0000206C4E002015
:100FB000E4070020BC4E00207047704770470000D7
:100FC00070B5044690F82000012804D0606A40F40F
:100FD0000020606218E0022084F820002068016888
:100FE00021F00101016000F0DDFA05460EE000BFCE
:100FF00000F0D8FA401B0A2808D9606A40F4003093
:101000006062052084F82000012070BD20684068DF
:10101000C007EDD1606270BD704770477047704780
:101020007047704770472DE9F0410446876D00F026
:10103000B9FA064694F835000025022806D080202B
:10104000606584F834500120BDE8F08120680168B3
:1010500021F0160101602068416921F080014161A1
:10106000206C08B9A06C20B12068016821F008014B
:1010700001602068016821F0010101600BE000F0CF
:1010800091FA801B052806D92020606504F8345F9A
:1010900003206070D8E720680068C007EFD194F89B
:1010A0005C103F208840B86004F8345F0120607015
:1010B0000020C9E790F83510022903D0802141654E
:1010C00001207047052180F835100068016821F083
:1010D00001010160002070472DE9F84304464FF0FC
:1010E0000009CDF8009063484FF41651A56D0068D3
:1010F000B0FBF1F72E6894F85C10082000FA01F1BB
:1011000031420FD021680A6852070BD50A6822F0D5
:1011100004020A6094F85C108840A860606D40F09A
:101120000100606594F85C104FF0010808FA01F0C6
:10113000304208D021684969090604D5A860606D6D
:1011400040F00200606594F85C1004208840304252
:1011500008D021680968890704D5A860606D40F04F
:101160000400606594F85C1010208840304218D06C
:1011700021680968090714D5A86020680168490337
:1011800004D50068000308D5A16C07E00168C90513
:1011900003D4016821F008010160216C09B12046E7
:1011A000884794F85C1020208840304231D0216874
:1011B0000968C9062DD5A86094F83500052820686F
:1011C000016806D0490347D5006800031DD4616C4F
:1011D0001CE021F0160101602068416921F08001C6
:1011E0004161206C08B9A06C20B12068016821F031
:1011F0000801016094F85C103F208840A86084F8E2
:10120000349084F83580216D1FE0E16B09B12046F0
:101210008847606D00282BD0606DC00714D0052072
:1012200084F835002068016821F001010160009810
:10123000401C0090B84203D820680068C007F6D16F
:1012400084F8349084F83580E16C002910D001B026
:101250002046BDE8F04308470168C905D5D40168B8
:1012600021F01001016084F8349084F83580CCE7D7
:10127000BDE8F8831C0000202DE9F041044600F091
:1012800091F906465CB1002584F83450022084F8B8
:1012900035002068016821F0010101600DE00120A6
:1012A000BDE8F08100F07EF9801B052805D92020DB
:1012B0006065032084F83500F2E720680068C00705
:1012C000F0D12268116820480140D4E90103184395
:1012D000D4E903363343184363691843A3691843B9
:1012E000E3691843236A18430843616A042903D158
:1012F000D4E90B1319430843106020684069666AFB
:1013000020F0070130460E43012704280CD1A06AC3
:101310000643E06A40B12046FFF704FA20B14020BE
:10132000606584F83570BAE7206846612046FFF7AB
:10133000E5F994F85C203F2191408160656584F86F
:1013400035700020ACE700003F8010F02DE9F0413F
:101350000446866D90F83400002501280DD0012048
:1013600084F8340094F835700020012F07D084F8F9
:10137000340002252846BDE8F0810220FBE7022761
:1013800084F8357060652046FFF7F6F994F85C1034
:101390003F208840B0602068016841F0160101607C
:1013A0002068416941F080014161206C20B12068D2
:1013B000016841F0080101602068016841F0010105
:1013C0000160D7E770B5044600F0ECF80546601CF4
:1013D00002D004480078044400F0E4F8401BA04226
:1013E000FAD370BD100000202DE9F84FDFF87CB172
:1013F00000224FF001084FF0030A4FF00F090BF1E4
:10140000040E00BF0B6808FA02F42340A3426ED119
:101410004D68022D01D0122D0ED1D50800EB850CA0
:10142000DCF820505607F70E09FA07F6B5430E69A7
:10143000BE402E43CCF82060066855000F790AFAAA
:1014400005FC07F0030726EA0C06AF4037430760A8
:101450004E68012E05D0022E03D0112E01D0122E7F
:101460000ED18668CF6826EA0C06AF403743876006
:101470004668A6430C79C4F3001494403443446096
:10148000C6688C6826EA0C06AC403443C4604C68DD
:10149000E40065D5364C256845F480452560246810
:1014A00022F0030504F480440094324C2E19D6F83F
:1014B000084895072F0F09FA07F5AC432E4DA842AF
:1014C00001D1002524E02D4DA84201D101251FE0C6
:1014D0002B4DA84201D102251AE02A4DA84201D184
:1014E000032515E0284DA84202D1042510E037E07D
:1014F000264DA84201D105250AE0254DA84201D17B
:10150000062505E0234DA84201D1072500E0082566
:10151000BD402543C6F80858DBF800405D464E68DC
:101520009C43F60300D51C432C60DEF80040754652
:101530004E689C43B60300D51C432C600B4D083508
:101540002C684E689C43F60200D51C432C60074D66
:101550000C352C684E689C43B60200D51C432C60A9
:10156000521C102AFFF44EAFBDE8F88F003C01403A
:1015700044380240003001400000024000040240B4
:1015800000080240000C024000100240001402401B
:1015900000180240001C02400069084000D00120F1
:1015A000704700000148806870470000100000206C
:1015B0000248816802781144816070471000002061
:1015C0000B4810B5016841F400710160016841F4F5
:1015D00080610160016841F480710160032000F0C6
:1015E0008DF8002000F006F800F03EF8002010BD55
:1015F000003C024010B5014688B00022192000F0DE
:101600005DF8192000F04CF813480024016841F4FB
:1016100000310160006805A900F4003006906846BA
:1016200000F016F900F044F90C494000B0FBF1F16C
:101630000C480B4A491E026040F2E732C0E903241D
:10164000C0E9011400F0FAFA10B1012008B010BD91
:10165000044800F023FBF9E74438024040420F0001
:10166000004401404C0E00200C4882B0016841F457
:1016700080410160006800F4804000900748001F2E
:10168000016841F0805101600068002200F0805044
:1016900000900F21901E02B000F010B844380240B4
:1016A000002809DB00F01F02012191404009800061
:1016B00000F1E020C0F8001170470000F0B40E4BBC
:1016C0001B680C46C3F30223C3F10705042D00D9A0
:1016D0000425191D072901D2002300E0DB1E012685
:1016E00006FA05F1491E214099409E40761E16409B
:1016F0003143F0BC01F0E9BD0CED00E0064900F01B
:10170000070208684FF6FF03184040EA0220034A28
:1017100010430860704700000CED00E00000FA057F
:101720002DE9F0470E46050065D0DFF81481D8F8A2
:101730000000F7B200F00F00B04207D288F8007046
:10174000D8F8000000F00F00B04254D128683D4C9A
:10175000810712D5400703D5206840F4E05020608F
:101760002878000703D5206840F460402060206896
:10177000A96820F0F000084320602878C0072DD029
:10178000304968680839012812D0022813D003288C
:1017900011D00968890700292DDA216821F0030199
:1017A00001432160FFF7FEFE814641F2883A0EE0D8
:1017B00009688903EFE709688901ECE7FFF7F2FEA2
:1017C000A0EB0901514502D90320BDE8F08720684C
:1017D000696800F00C00B0EB810FEFD1D8F8001071
:1017E000404601F00F01B14207D90770006800F0D0
:1017F0000F00B04201D00120E7E72878400705D567
:101800002068E96820F4E050084320602878000749
:1018100006D52068296920F4604040EAC1002060B4
:1018200000F056F82168084AC1F30311515CC84022
:10183000064908600020FFF7DDFE0020C5E7000034
:10184000003C024008380240746F00081C00002071
:101850000F2202600C4A136803F00303436013680D
:1018600003F0F0038360136803F4E053C36012686D
:101870004FF4E05303EAD20202610448006800F02A
:101880000F0008607047000008380240003C02402A
:101890000448054900680968044AC1F38221515C83
:1018A000C84070471C00002008380240846F0008C0
:1018B0000448054900680968044AC1F34231515C93
:1018C000C84070471C00002008380240846F0008A0
:1018D000104810B5006810F00C010F4818D004290A
:1018E00016D0082914D10B4C241F216801F03F02A7
:1018F000216821680023C1F38811A1FB0001FEF7D4
:1019000013FD2168C1F30141491C4900B0FBF1F00E
:1019100010BD0000083802400024F4002DE9F84F03
:10192000050076D02878DFF8F8B2BE4CC00749D061
:10193000DBF800105846C1F38101012908D0006886
:10194000C0F3810002280AD1201D0068400206D59C
:101950002068800336D568680028E2D032E06868E5
:10196000B0F5803F10D0B0F5A02F206810D020F443
:1019700080302060206820F4802020606868A0B15A
:10198000FFF710FE06460CE0206840F48030F4E7D4
:1019900040F480202060F7E7FFF704FE801B6428F6
:1019A00073D820688003F7D50CE0FFF7FBFD0646EF
:1019B00005E000BFFFF7F6FD801B6428F0D8206823
:1019C0008003F7D42878DFF8608280074FF00009A1
:1019D0003ED5DBF80010584611F00C0F09D0006816
:1019E000C0F3810002280BD18D48001F006840021F
:1019F00006D42068800715D5E868012809D111E0D0
:101A0000E868B8B10120C8F80000FFF7CBFD064632
:101A100005E002E1FFF7C6FD801B0228C0D8206860
:101A20008007F7D52068296920F0F80040EAC10056
:101A300020600DE0C8F80090FFF7B4FD064604E012
:101A4000FFF7B0FD801B02281FD820688007F7D45D
:101A50002878000722D5724E744869696C3671B1D6
:101A600001210160FFF79EFD074604E0FFF79AFDA4
:101A7000C01B022809D830688007F7D50EE0C0F8EF
:101A80000090FFF78FFD074605E083E0FFF78AFD32
:101A9000C01B02287ED830688007F7D4287840071A
:101AA00068D5DFF87CA100270AF1380ADAF80000CF
:101AB000C0000BD4DAF8001041F08051CAF80010D1
:101AC000DAF80000012700F080500090584E30688E
:101AD000C00510D4306840F480703060FFF762FDBC
:101AE000009005E0FFF75EFD0099401A022851D8EA
:101AF0003068C005F6D54A4EA868683601280FD070
:101B00000528306810D020F001003060306820F0E7
:101B100004003060A868B8B1FFF744FD00900FE002
:101B2000306840F00100F4E740F004003060F7E76F
:101B3000FFF738FD0099411A41F28830814264D89C
:101B400030688007F4D50EE0FFF72CFD009007E029
:101B5000FFF728FD0099411A41F28830814254D89C
:101B600030688007F4D42FB1DAF8001021F08051EA
:101B7000CAF80010A869C0B3DBF80010C1F38101F6
:101B800002294AD00228484607D0C8F86000FFF76B
:101B900009FD00E039E005463AE04746C8F8600034
:101BA000FFF700FD064604E0FFF7FCFC801B02285F
:101BB0002BD820688001F7D4D5E907010843A96A2A
:101BC0001C4A490802EB01416A6A41EA8211084352
:101BD00095F82C1040EA01611148001F01600120B6
:101BE0003866FFF7DFFC054605E014E0FFF7DAFC96
:101BF000401B022809D820688001F7D50BE000BF00
:101C0000FFF7D0FC401B022802D90320BDE8F88F63
:101C100020688001F4D40020F8E70120F6E70000F6
:101C2000083802400038024000004742800E474218
:101C3000007000400000FFFF7047704710B50400BF
:101C400003D094F83D0010B107E0012010BD002042
:101C500084F83C00204600F00DF8022084F83D0096
:101C6000211D206800F03CFF012084F83D00002089
:101C700010BD000008B500680649884208D1064832
:101C8000016841F480710160006800F48070009088
:101C900008BD000000200040403802400168CA68CA
:101CA00042F00102CA600068816801F0070106295C
:101CB00003D0016841F001010160002070477047C6
:101CC00070B50446006801694FF00005C9438907F3
:101CD00015D4C168C943890711D4E91E01610120E7
:101CE0002077206880698007204602D0FFF7E7FF51
:101CF00004E000F098F8204600F096F82577206878
:101D00000169C943490717D4C168C943490713D4B6
:101D10006FF004010161022020772068806910F4CF
:101D2000407F204602D0FFF7CAFF04E000F07BF8B6
:101D3000204600F079F8257720680169C943090732
:101D400016D4C168C943090712D46FF008010161B4
:101D5000042020772068C0698007204602D0FFF762
:101D6000AEFF04E000F05FF8204600F05DF8257754
:101D700020680169C943C90617D4C168C943C906A7
:101D800013D46FF010010161082020772068C0692A
:101D900010F4407F204602D0FFF791FF04E000F0EE
:101DA00042F8204600F040F8257720680169C943D1
:101DB000C90708D1C168C943C90704D1891E016197
:101DC000204600F033F820680169C943090609D4A8
:101DD000C168C943090605D46FF08001016120463E
:101DE000FFF72AFF20680169C943490609D4C16881
:101DF000C943490605D46FF040010161204600F057
:101E00001FF820680169C94389060BD4C168C9431A
:101E1000890607D46FF0200101612046BDE87040BB
:101E2000FFF70BBF70BD70477047000000680349A3
:101E3000884201D1FFF7BCBB70470000004401405D
:101E4000704710B504460068416994F83920C1F321
:101E5000C011212A0BD151B1416921F080014161AA
:101E6000206B08B1FFF7DFF8204600F037FF20684D
:101E7000416994F83A20C1F38011222A0BD151B163
:101E8000416921F040014161606B08B1FFF7CBF877
:101E9000204600F015FF002010BD704770B50268A5
:101EA00004461068D168536910F00F0F51D003F049
:101EB000010501F4907635435DD0C20705D0CA050F
:101EC00003D5E26B42F00102E263420705D5DA076F
:101ED00003D0E26B42F00202E263820705D5DA0723
:101EE00003D0E26B42F00402E263020705D5DA0791
:101EF00003D0E26B42F00802E263E26B002A34D0C6
:101F0000800604D5880602D5204600F0F0FE206841
:101F10004069E16BC0F3801001F0080101432046E5
:101F200024D000F0CDFE2068416949061AD54169E8
:101F300021F040014161606BA0B11B490165606BFC
:101F4000FFF7B8F8002810D0606B016DBDE8704055
:101F5000084783060FD58B060DD52046BDE8704097
:101F600000F0C5BE2046FFF798FF70BDFFF795FF54
:101F70000020E06370BD030606D50B0604D520469D
:101F8000BDE8704001F054B84006F3D54806F1D5DD
:101F9000D168204621F04001D160202184F8391019
:101FA00000F0F6FA70BD0000212C000870B50400A6
:101FB00004D094F83900002510B106E0012070BD6E
:101FC00084F83850204600F023F8242084F83900A3
:101FD0002068C16821F40051C160204600F0D2FEA3
:101FE0002068016921F4904101612068416921F074
:101FF0002A0141612068C16841F40051C160E56374
:10200000202084F8390084F83A00002070BD0000D8
:102010002DE9F04F87B0044614216846FEF794FA84
:10202000F848DFF8DCC310382368F64A012702219C
:10203000002506154FF003084FF0080B4FF040093C
:102040004FF0006A634566D1136843F400231360C0
:10205000126802F400220592026842F00102026056
:10206000026802F001020592026842F00402026076
:10207000006802AB00F0040005900220CDE900707A
:1020800083E880096946E048FFF7AEF970000090E8
:1020900001AB022083E881096946DC48FFF7A4F917
:1020A000DFF87083DA494046C8F80010C0E901A59E
:1020B000C0E90356C8F81450C8F81850C8F81C50A6
:1020C000C8F820505746C8F82450FFF7D5F808B193
:1020D000FEF767FBCF4DCE48C4F834806035303012
:1020E000C8F8384085E881020020C5E90306686128
:1020F000A861E861286268622846FFF7BDF808B168
:10210000FEF74FFB2563002205213420AC63FFF767
:10211000D5FA34206DE0DFF800C363456ED1136853
:10212000002543F480131360126802F480120592B4
:10213000026842F004020260026802F004020592A2
:10214000026842F008020260006801AB00F008007B
:1021500005904FF480500090022083E88109694681
:10216000AA48FFF741F90420009001AB022083E860
:1021700081096946A948FFF737F9DFF89882A44931
:1021800008F1C00830394046C8F80010C0E901A580
:10219000C0E90356C8F81450C8F81850C8F81C50C5
:1021A000C8F820505746C8F82450FFF765F808B122
:1021B000FEF7F7FA96489A4DC4F834807830C8F89C
:1021C000384085E881020020C5E903066861A861FE
:1021D000E861286268622846FFF74EF808B1FEF70A
:1021E000E0FA2563002205213520AC63FFF766FA8B
:1021F0003520FFF755FA07B0BDE8F08FDFF824C2AD
:102200004FF0070E63454FD17E4A121D136843F00D
:1022100010031360126802F010020592026842F087
:1022200001020260006800F0010005904FF4C060F8
:102230008DE8834169467448FFF7D6F8784F7A48AD
:1022400060373860C7E901A5C7E9035680157D618D
:10225000C7E906504FF44030C7E908053846FFF794
:102260000BF808B1FEF79DFA6763BC636C4F6E48CC
:10227000C0377830C7F80890C7E903567D61BD6163
:10228000FD613D627D62C7E9000A3846FEF7F4FF52
:1022900008B1FEF786FA2763002205212520BC63DA
:1022A000FFF70CFA2520A4E7DFF880C1634549D188
:1022B000136843F400331360126802F4003205928D
:1022C000026842F001020260006800F0010005901F
:1022D0000C208DE8834169464B48FFF785F84C4850
:1022E000534F48303860C7E901A5C7E903567D61FF
:1022F000BD61FD613D6238467D62FEF7BDFF08B1FC
:10230000FEF74FFA6763BC63494F4148603760305E
:10231000C7F80890C7E903567D61BD61FD613D6264
:102320007D62C7E9000A3846FEF7A6FF08B1FEF74E
:1023300038FA2763002205212620BC63FFF7BEF987
:10234000262056E7DFF8ECC063457AD11368AB4628
:1023500043F480231360126802F48022059202681D
:1023600042F002020260006800F0020005904FF4A3
:1023700040608DE8834169462F48FFF735F8DFF864
:10238000B080234908F1C00818394046C8F8001049
:10239000C0E901A5C0E90356C8F81450C8F81850A0
:1023A000C8F81C50C8F820505746C8F82450FEF70B
:1023B00063FF08B1FEF7F5F91548204DC4F83480E5
:1023C0001830C8F8384085E88102C5E903B6C5F879
:1023D00014B0C5F818B0C5F81CB0C5F820B0284630
:1023E000C5F824B0FEF748FF08B1FEF7DAF9256317
:1023F000002205212720AC63FFF760F92720F8E6CB
:10240000004C0040403802400000024000080240FA
:1024100040600240CC09002000500040000C024007
:10242000EC0A0020001001404064024000440040DB
:102430000C0C002000480040000402402C0D00203D
:10244000FFE7274A93427FF4D6AE264A136843F04B
:1024500020031360126802F020020592026842F025
:1024600004020260006800F004000590C0208DE8BE
:10247000830969461C48FEF7B7FF1D4F1B484FF004
:1024800020683860C7E90185C7E903567D61BD61F1
:10249000FD613D6238467D62FEF7EEFE08B1FEF753
:1024A00080F96763BC63124F104860377830C7E922
:1024B00003567D61BD61FD613D627D6287E8010378
:1024C0003846FEF7D9FE08B1FEF76BF92763002204
:1024D00005214720BC63FFF7F1F8472089E600009B
:1024E00000140140443802400008024028640240C1
:1024F0008C0D0020F8B5044690F83A0020283CD115
:10250000C1B3BAB394F83800012836D0012084F85A
:102510003800A162A2850025E563222084F83A00F4
:10252000636B1748D863636B16481864636B16486F
:10253000D864606B134605650846666B21680246E1
:102540003046091DFEF702FF2068016841680091CE
:1025500084F83850C16841F48071C16020684169D5
:1025600041F0010141612068416941F04001416150
:102570000020F8BDFFE70120FBE70220F9E700009B
:102580007B2C0008B72C0008312C000870477047DE
:102590007047FEE70F4810B50D4901600621416004
:1025A00000214FF400328160C0E903121201426140
:1025B0000176012242768176C17601774177FEF776
:1025C00076FB002803D0BDE81040FEF7EAB810BD46
:1025D00000640040BC0700200F4810B50D490160A1
:1025E0000621416000214FF400328160C0E90312EE
:1025F000120142610176012242768176C17601772D
:102600004177FEF754FB002803D0BDE81040FEF7E9
:10261000C8B810BD00680040E4070020394808B57C
:10262000016841F480010160016801F480010091BA
:10263000016841F4001101600068002200F40010FC
:10264000009005210B20FFF739F80B20FFF728F841
:10265000002205210C20FFF731F80C20FFF720F8AD
:10266000002205210D20FFF729F80D20FFF718F8AB
:10267000002205210E20FFF721F80E20FFF710F8A9
:10268000002205210F20FFF719F80F20FFF708F8A7
:10269000002205211020FFF711F81020FFF700F8A5
:1026A000002205211120FFF709F81120FEF7F8FF9D
:1026B000002205212F20FFF701F82F20FEF7F0FF61
:1026C000002205213920FEF7F9FF3920FEF7E8FF47
:1026D000002205213A20FEF7F1FF3A20FEF7E0FF45
:1026E000002205214520FEF7E9FF4520FEF7D8FF2F
:1026F000002205214620FEF7E1FFBDE80840462004
:10270000FEF7CEBF3038024010B5A4B002F05CFE38
:102710001C221D496846FDF7C3FE0021684602F0F1
:1027200003F81A4C18491C22A0601C3107A8FDF7B9
:10273000B7FE002107A801F0F7FF134960601C22D3
:1027400038310EA8FDF7ACFE00210EA801F0ECFF19
:102750000D4920601C22543115A8FDF7A1FE00216F
:1027600015A801F0E1FF084920601C2270311CA867
:10277000FDF796FE00211CA801F0D6FF206002F0B4
:1027800043FE24B010BD0000E06E000800000020F1
:1027900000B587B014216846FDF7D6FE1948002120
:1027A000026842F080020260026802F08002059234
:1027B000026842F001020260026802F00102059222
:1027C000026842F002020260026802F00202059210
:1027D000026842F004020260026802F004020592FC
:1027E000026842F0080202600068029100F00800EE
:1027F00005904020CDE9000169460348FEF7F4FD4D
:1028000007B000BD30380240000C02400C4810B543
:102810000A4901604FF45271416000214FF4FA629D
:10282000C0E90212016180218161FFF707FA0028E7
:1028300003D0BDE81040FDF7B4BF10BD002000403C
:102840000C0800200C4810B50A4901604FF4E13132
:102850004160002181600C22C160C0E904128161E5
:10286000C161FFF7A3FB002803D0BDE81040FDF7CE
:1028700098BF10BD004C00404C0800200C4810B51B
:102880000A4901604FF4E1314160002181600C226E
:10289000C160C0E904128161C161FFF787FB0028B4
:1028A00003D0BDE81040FDF77CBF10BD00500040D4
:1028B0008C0800200E4810B50C4901600D4941609C
:1028C0004FF48051816000214FF48062C0E903120F
:1028D0000C22C0E90521C161FFF768FB002803D085
:1028E000BDE81040FDF75DBF10BD000000100140C5
:1028F000CC080020A08601000C4810B50A490160F0
:102900004FF4E1314160002181600C22C160C0E9D7
:1029100004128161C161FFF749FB002803D0BDE8C3
:102920001040FDF73EBF10BD004400400C090020E0
:102930000C4810B50A4901604FF4E13141600021B3
:1029400081600C22C160C0E904128161C161FFF79E
:102950002DFB002803D0BDE81040FDF722BF10BDBD
:10296000004800404C0900200C4810B50A4901609D
:102970004FF4E1314160002181600C22C160C0E967
:1029800004128161C161FFF711FB002803D0BDE88B
:102990001040FDF706BF10BD001401408C09002057
:1029A000FEE7704730B4034C4466034C846630BC89
:1029B00001F0DCBF6D4900087B490008034801F0C5
:1029C00081FD0A2001F066FEF8E70000D400002037
:1029D00010B5502080F31188BFF34F8FBFF36F8F76
:1029E00003F064FA18B104494FF0805008600020E9
:1029F00080F3118810BD000004ED00E030B593B005
:102A000030216846FDF7A0FD14210CA8FDF79CFDC0
:102A100019480025016841F080510160006800F00C
:102A2000805011901548016841F4804101600068B0
:102A3000022400F4804011900120009000040190D5
:102A40008001CDE9064008200890A820CDE90904BE
:102A500004200B906846FEF761FF0CA90F2081E867
:102A600031004FF4A0500F90E002109005210CA807
:102A7000FEF756FE13B030BD4038024000700040F3
:102A80001048016841F4700101600F48016841F08D
:102A9000010101600C4A00210832116002680B4BF1
:102AA0001A400260031D0A4A1A60026822F480225A
:102AB000026005480C300160024958068039086000
:102AC0007047000088ED00E000380240FFFFF6FE8E
:102AD000103000240148FFF7F3B800004C0E00202E
:102AE000F0B50268254C264D264E274F274B4FF058
:102AF000804CA04209D0604507D0A84205D0B04222
:102B000003D0B84201D0984204D122F0700E4A6836
:102B100042EA0E02A0421BD0604519D0A84217D04D
:102B2000B04215D0B84213D0984211D0184DA842E7
:102B30000ED0184DA8420BD0174DA84208D0174D03
:102B4000A84205D0164DA84202D0164DA84203D186
:102B500022F44075CA682A434D6922F080022A4354
:102B600002608A68C2620A688262A04201D098420A
:102B700001D10969016301214161F0BD00000140FB
:102B80000004004000080040000C00400004014028
:102B9000004001400044014000480140001800404E
:102BA000001C0040002000400F4B104A012810D0AC
:102BB00002280DD1086898604868D86003F10800C1
:102BC00090ED000A82ED000A90ED010A82ED010A03
:102BD0007047086818604868586093ED000A82EDF5
:102BE000020AD06070470000BC000020BC4E0020EC
:102BF00010B50448FFF752F9BDE81040014800F055
:102C0000EDBA00004C08002010B50448FFF746F963
:102C1000BDE81040014800F0E1BA00008C08002037
:102C200010B5806B0021C185C184FFF736F910BD56
:102C300070B5846B2068406994F83910C0F3C010F7
:102C40000025212904D118B1E584204600F046F87A
:102C50002068406994F83A10C0F38010222904D10A
:102C600018B1E585204600F02BF8E06B40F010002D
:102C7000E0632046FFF711F970BD10B50146806B87
:102C800009680968C90513D40021C1850168CA68AB
:102C900022F48072CA6001684A6922F001024A6126
:102CA00001684A6922F040024A61202180F83A1006
:102CB000FFF76CFC10BD10B5806BFFF768FC10BD12
:102CC0000168CA6822F49072CA6001684A6922F0F9
:102CD00001024A61202180F83A1070470168CA68F1
:102CE00022F0C002CA60202180F83910704710B568
:102CF00090F83A10222901D0022010BD8168B1F568
:102D0000805F11D00169002901681FD0496801F076
:102D10007F03816A4A1C82620B70C18D491E0904BF
:102D2000090CC18518D02BE00269816A002A02686B
:102D3000526805D0D2B20A80816A491C8162ECE7F0
:102D4000C2F308020A80816A891CF7E74A68816A2F
:102D50004B1C83620A70E0E70168CA6822F0200217
:102D6000CA600168CA6822F48072CA6001684A6950
:102D700022F001024A61202180F83A10FFF706FC98
:102D8000002010BD2DE9F041044600680169E268A9
:102D900021F44051114301612169A068E2690843AF
:102DA0006169114322680843D16849F20C63994371
:102DB0000143D16020684169A26921F44071114347
:102DC0004161E2696425B2F5004F9748974922684E
:102DD0004FF032083FD08A4201D082427CD1FEF7C8
:102DE00067FD00EBC00101EB001061688900B0FBDA
:102DF000F1F6FEF75DFD00EBC00101EB001061682C
:102E00008900B0FBF1F0B0FBF5F06FF0180148431A
:102E100006EB800108EB0110B0FBF5F000F0F006C6
:102E2000FEF746FD00EBC00101EB00106168890070
:102E3000B0FBF1F0B0FBF5F006EB0016FEF738FD45
:102E400000EBC00101EB001061688900B0FBF1F7F5
:102E5000FEF72EFDD2E08A4201D082423DD1FEF73C
:102E600027FD00EBC00101EB001061684900B0FBD9
:102E7000F1F0B0FBF5F00601FEF71AFD00EBC00122
:102E800001EB001061684900B0FBF1F7FEF710FD9F
:102E900000EBC00101EB001061684900B0FBF1F0EC
:102EA000B0FBF5F06FF01801484307EB800108EB29
:102EB000C100B0FBF5F000F0F80006EB4006FEF7AD
:102EC000F7FC00EBC00101EB001061684900B0FBAA
:102ED000F1F7FEF7EDFC3CE055E0FEF7D9FC00EB26
:102EE000C00101EB001061684900B0FBF1F0B0FBDC
:102EF000F5F00601FEF7CCFC00EBC00101EB001081
:102F000061684900B0FBF1F7FEF7C2FC00EBC001BD
:102F100001EB001061684900B0FBF1F0B0FBF5F087
:102F20006FF01801484307EB800108EBC100B0FBCC
:102F3000F5F000F0F80006EB4006FEF7A9FC00EB08
:102F4000C00101EB001061684900B0FBF1F7FEF72A
:102F50009FFC00EBC00101EB001061684900B0FB71
:102F6000F1F0B0FBF5F06FF01801484307EB80017A
:102F700008EBC100B0FBF5F000F007002168304419
:102F80008860BDE8F081FEF783FC00EBC00101EB37
:102F9000001061688900B0FBF1F6FEF779FC00EBE8
:102FA000C00101EB001061688900B0FBF1F0B0FBDB
:102FB000F5F06FF01801484306EB800108EB0110B3
:102FC000B0FBF5F000F0F006FEF762FC00EBC0018C
:102FD00001EB001061688900B0FBF1F0B0FBF5F087
:102FE00006EB0016FEF754FC00EBC00101EB0010ED
:102FF00061688900B0FBF1F7FEF74AFC00EBC00105
:1030000001EB001061688900B0FBF1F0B0FBF5F056
:103010006FF01801484307EB800108EB0110B0FB8B
:10302000F5F000F00F00A9E7001401400010014086
:1030300090F83910212901D0022070478168B1F53C
:10304000805F016A0BD04A1C0262026809785160F5
:10305000C18C491E0904090CC1840ED017E00988EF
:103060000268C1F30801516001690029016A02D0B8
:10307000491C0162ECE7891CFBE70168CA6822F081
:103080008002CA600068C16841F04001C160002050
:103090007047000010B50448FEF700FFBDE810407F
:1030A000014800F09BB80000CC08002010B504488F
:1030B000FEF7F4FEBDE81040014800F08FB80000B4
:1030C0000C09002010B50448FEF7E8FEBDE81040EA
:1030D000014800F083B800004C09002010B50448F6
:1030E000FEF7DCFEBDE81040014800F077B80000B4
:1030F0008C09002010B504460068304988420CD184
:103100002F49304802F054F812212D48FDF7FAF902
:1031100012222B492C48FFF7EDF92C4920688842F0
:103120000ED12748123002F063FB254832211230BD
:10313000FDF7E8F92249322212312046FFF7DAF989
:103140002349206888420ED11D48443002F038FBE4
:103150001B4832214430FDF7D5F919493222443158
:103160002046FFF7C7F91B49206888420FD1144851
:103170001921A83001F0C4F9114832217630FDF749
:10318000C1F90F493222A8312046FFF7B3F912499D
:103190002068884211D10A481921763001F0B0F92F
:1031A000074832217630FDF7ADF905492046322235
:1031B000BDE810407631FFF79DB910BD0010014009
:1031C000BA4C0020A44C0020CC080020004800404D
:1031D000004C0040004400400050004038B50168F9
:1031E00004460868C043C0060AD4086848680090CE
:1031F0002046FEF726FE2046BDE83840FFF77ABF9E
:1032000038BD00001E4810B50068C16841F01001CB
:10321000C16012221B491A48FFF76CF91A4800686E
:10322000C16841F01001C1601649322212311648BE
:10323000FFF760F915480068C16841F01001C160EE
:103240001049322244311148FFF754F91048006800
:10325000C16841F01001C1600A49322276310C4840
:10326000FFF748F90B480068C16841F01001C160E0
:1032700004493222BDE81040A8310648FFF73AB9A8
:10328000CC080020BA4C00204C0900204C0800203B
:103290000C0900208C080020FEE703B401984100CF
:1032A000009850EAC12018BF04204A0D18BF40F012
:1032B000010040F2FF72B2EB515F08BF40F0020024
:1032C000012808BF052002B070470907090E002831
:1032D00004DB00F1E02080F80014704700F00F00DC
:1032E00000F1E02080F8141D70470000000000008D
:1032F0002DE9F04D2DED040B2DED0E8B96B0DDE993
:103300002550279CDDF890A025F0004624F00048C9
:10331000BAF1000F14BF0121002101EB4502FC4965
:1033200053184A1093422AD3002814BF01230023C4
:1033300003EB44030B44F7498B4220D358EA0001C6
:103340009FEDF59B76D0DFF8D8B35D4503D1BAF198
:10335000000F05D188E0BAF1000F08BF002100D0AE
:10336000012101EB450111F5001F08D8002814BF09
:103370000121002101EB440111F5001F0BD99DED46
:10338000261B9DED240B16B0BDEC0E8B04B0BDE8E2
:10339000F04D00F069BE0027002DBCBFE149884513
:1033A00021DAE1498845A8BF02271CDAC3451ADCA7
:1033B000DE4901EB2851142908DDC1F1340220FA5D
:1033C00002F101FA02F282420DD108E058B9C1F1CE
:1033D000140228FA02F101FA02F2424503D101F087
:1033E0000101C1F1020756EA0A0124D1002C22DAB8
:1033F000002D18BF022F01D0012F0AD00220FDF7A7
:10340000D2F816B0BDEC0E8B04B0BDE8F04D00F064
:1034100013BE0220FDF7C7F800F00EFE51EC100BB2
:1034200002F036FF41EC100B16B0BDEC0E8B04B071
:10343000BDE8F08D18E09FEDBEAB9FEDBF8B00287F
:1034400071D1B848804522D105F1804010F5801037
:1034500008BFBAF1000F07D0B3450ADC002CA8BFA3
:103460009DED260BE0DA0DE0B0EE490AF0EE690AB8
:10347000DAE7002C06DA9DED260B51EC100B02F07A
:1034800007FF6FE0AE48784490ED000BCCE7D845DD
:103490004DD1002C48DA2EB186423AD1BAF1000F54
:1034A00042D126E0BAF1000F13D00220FDF77BF8DD
:1034B00000F0F6FD8DED020B9DED240B8DED000B64
:1034C00010EE900A039961F31E0003909DED020B2C
:1034D000AAE78DED02AB9DED240B1AEE901A10EECB
:1034E000900A8DED000B61F31E0003909DED020B21
:1034F0009AE78DED028B9DED240B18EE901A10EEDD
:10350000900A8DED000B61F31E0003909DED020B00
:103510008AE709DA9DED240B51EC190B53EC102BC3
:1035200002F07EFF1EE020E09DED240B7CE786424A
:103530001BDAB4F1804F0DD0A4F10050B0F1FF5070
:1035400013D1002D11DB9DED240B51EC100B01F07C
:10355000A9FE07E09DED240B53EC102B51EC100B52
:1035600000F0C2BC41EC100B5EE79DED240B51EC6A
:10357000100B00F09BFFBAF1000FCDE90E0142D114
:103580009FED710B46B3A6F1E040B0F17F600CD027
:103590005E4538D1002D00DAA7B3022F0CBF012001
:1035A0004FF0FF3003F0C1F8DCE7002D01DD002C07
:1035B0000DDA002D01DD002C1FDB002D16DA002CAA
:1035C00014DB012F08BF9FED620B3FF42DAFB0EE6F
:1035D0004A0AF0EE6A0A27E7022F18BF002D0CD026
:1035E000012F0AD1002DFFF61FAF06E0002DB8BF56
:1035F000002C08DA012F3FF417AFB0EE480AF0EEC6
:10360000680A11E71BE0012000EBE57050EA0701B2
:1036100015D0791EB0EE498AF0EE698A084308BFDA
:103620009FED4D8B4E480025804570DD4D494E483D
:10363000884514DDB0420DDB002C19DB2FE00120A2
:10364000FCF7B1FF16B0BDEC0E8B04B0BDE8F04D39
:1036500000F016BDB34502DC002C09DC1FE08642F9
:1036600002DA002C1BDA03E05E452BDD002C16DDB0
:103670000220FCF798FF00F013FD8DED020B53ECD8
:103680001A2B51EC180B03F0B7F8CDE900010399A0
:10369000019861F31E0003909DED020BC4E6022029
:1036A000FCF781FF00F00CFD10EE901A18EE900A66
:1036B0008DED020B8DED008B61F31E0003909DEDEF
:1036C000020BB1E69DED0E0B53EC192B51EC100BD8
:1036D00003F09EFA9FED260BCDE9080153EC102B69
:1036E0009DED080B51EC100B03F086F89FED221BAB
:1036F00053EC112B03F0B4F99DED081B53EC112B87
:1037000003F07AF89FED1E1B53EC112B3CE08CE08C
:10371000FFFF1F00FFFF0F00000000000000F03F50
:103720000000F03F0000F07F0000404301FCFFFF7D
:10373000000000000000F07F00000000000000001A
:103740008E3B000000000000000000000000008030
:10375000000000000000F0FF000000000000F0BFCB
:103760000000E0410000F043FFFFEF3F00000000D9
:10377000000000000000D03F555555555555D53F28
:10378000000000000000E03F03F06AF99DED080B27
:1037900041EC1A0B53EC102B51EC100B03F02CF8EE
:1037A00053EC1A2B03F028F841EC1A0B9FEDFE0B9B
:1037B00053EC102B9DED080B51EC100B03F01CF893
:1037C00041EC1B0B9FEDFA0B51EC1A0B53EC102B39
:1037D00003F012F841EC1A0B9FEDF70B53EC102B92
:1037E0009DED080B51EC100B03F006F853EC1A2B6F
:1037F00003F00EFA41EC1A0B51EC1B0B53EC1A2B95
:1038000002F052FD0690CDE906519DED060B53ECFA
:103810001B2B51EC100B03F0FBF953EC1A2B03F0AC
:103820001FF941EC100B00F0A1B90020B6F5801F84
:103830000EDA9FEDE30B53EC102B9DED0E0B51ECCC
:10384000100B02F0D9FFCDE90E016FF034000E46E7
:1038500000EB2650A0F2FF37C6F31300DA4940F020
:103860007F6646F040568842D8BF002408DDD7491D
:103870008142C8BF012403DC0024A6F580167F1C0A
:10388000D348784400EBC4000F9690ED00CB9DED3B
:103890000E0B53EC1C2B51EC100B03F0B9F99DED02
:1038A0000E0B41EC1B0B53EC1C2B51EC100B02F0DC
:1038B000FBFC41EC100B51EC190B53EC102B02F0FC
:1038C000AFFD41EC1D0B51EC1B0B53EC1D2B02F01B
:1038D00093FF41EC1A0BBF488DED10AB7844109567
:1038E00090ED000B4FF0005040EA660000EB844082
:1038F0008DED080B00F5002009909DED080B53ECB1
:103900001C2B51EC100B03F083F99DED0E1B53ECB7
:10391000112B03F0A5F841EC100B53EC102B9DED8F
:10392000100B51EC100B02F067FF9DED080B41EC02
:103930001C0B53EC102B9DED100B51EC100B02F0F7
:103940005BFF53EC1B2B03F08BF853EC1C2B03F0A9
:103950005FF953EC1D2B02F04FFF41EC1C0B53ECB5
:103960001A2B51EC1A0B02F047FF41EC1B0B9A4843
:103970000621B0EE4B0AF0EE6B0A784400F0E0FA54
:10398000B0EE401AF0EE601AB0EE41DAF0EE61DA15
:1039900053EC1B2B51EC1B0B02F02EFF53EC1D2B99
:1039A00002F02AFF9DED100B41EC1B0B53EC1A2B80
:1039B00051EC100B02F078FC53EC1C2B02F01CFFB6
:1039C00053EC1B2B02F070FC9DED100B41EC1B0B1C
:1039D00053EC102B51EC100B02F00EFF41EC1D0BC1
:1039E0009FED7FEB53EC1E2B02F05EFC53EC1B2B88
:1039F00002F05AFC0890CDE908519DED080B53ECFC
:103A00001E2B51EC100B03F003F953EC1D2B03F0AC
:103A1000FFF853EC1B2B03F023F89DED080B41EC52
:103A20001D0B53EC102B9DED100B51EC100B02F005
:103A3000E3FE41EC1B0B53EC1A2B51EC1D0B02F077
:103A4000DBFE9DED080B41EC1A0B53EC102B51ECF7
:103A50001C0B02F0D1FE53EC1A2B02F025FC41ECBA
:103A60001A0B51EC1B0B53EC1A2B02F01DFC0C90A3
:103A7000CDE90C519DED0C0B53EC1B2B51EC100BB5
:103A800003F0C6F853EC1A2B02F0EAFF41EC1B0BD3
:103A90009FED550B53EC102B9DED0C0B51EC100BC7
:103AA00002F0AAFE41EC1A0B9FED510B51EC1B0BDF
:103AB00053EC102B02F0A0FE41EC1B0B9FED4E0BC4
:103AC00053EC102B9DED0C0B51EC100B02F094FEFF
:103AD00053EC1B2B02F0E8FB41EC100B48487844F8
:103AE00000EBC40090ED001B51EC100B53EC112BBC
:103AF00002F0DAFB41EC1B0B384602F016FECDE972
:103B0000080153EC1B2B51EC1A0B02F0CDFB41ECDE
:103B1000100B3C48784400EBC40090ED00CB51EC16
:103B2000100B53EC1C2B02F0BFFB9DED081B53EC5C
:103B3000112B02F0B9FB0690CDE906519DED080B63
:103B400053EC102B9DED060B51EC100B03F060F8BD
:103B500053EC1C2B03F05CF853EC1A2B03F058F8D1
:103B600053EC1B2B02F07CFF41EC100B9DED261B50
:103B700053EC102B8DED001B00959DED260B51ECA9
:103B8000100B02F039FE9DED000B41EC1A0B53ECCB
:103B9000102B9DED260B51EC100B03F039F89DED29
:103BA000061B53EC112B2FE0000000604715F73F78
:103BB000FE822B654715F73F44DF5DF80BAE543EA0
:103BC00000000000000040438E9803007AB60B000E
:103BD0000A370000383700004236000000000000BD
:103BE0000000000000000840000000E009C7EE3FB0
:103BF000FD033ADC09C7EE3FF5015B14E02F3EBE42
:103C0000CE3400008834000002F0F6FD53EC1A2B8D
:103C100002F04AFB9DED060B41EC1A0B53EC102B06
:103C20009DED000B51EC100B02F0E6FDCDE90C010F
:103C30009DED0C0B51EC1A0B53EC102B02F034FBE6
:103C4000CDE902010C46AA498C422FDB611A0843D8
:103C500018D19DED0C0B53EC102B9DED020B51EC8C
:103C6000100B02F0D5FF41EC1B0B9FEDA30B51ECA9
:103C70001A0B53EC102B02F017FB53EC1B2B02F02A
:103C8000B9FE2DD20220FCF78EFC00F009FA10EEEE
:103C9000901A18EE900A8DED020B8DED008B61F3FA
:103CA0001E0003909DED020BFFF7BEBB944A24F06B
:103CB0000041914214D39349214408437FF4EFAC6F
:103CC0009DED0C0B53EC102B9DED020B51EC100BEA
:103CD00002F09EFF53EC1A2B02F08CFE7FF6DFAC55
:103CE00024F000408849894A002601EB2051824295
:103CF0002BDA481C4FF4801121FA00F02044844A4A
:103D0000C0F30A517A44A1F2FF3192ED000B814ACF
:103D10008DED080BCA4020EA0202C0F3130040F404
:103D20008010C1F1140120FA01F60992002CB8BFED
:103D300076429DED080B53EC102B9DED0C0B51ECD6
:103D4000100B02F065FFCDE90C019DED0C0B51EC61
:103D50001A0B53EC102B02F0A7FA9FED6F0B089093
:103D6000CDE9085153EC102B9DED080B51EC100BD5
:103D700002F042FD41EC1B0B9FED690B53EC102B45
:103D80009DED080B51EC100B02F036FD9DED0C0B78
:103D900041EC1C0B53EC102B9DED080B51EC100B60
:103DA00002F036FF53EC1A2B02F05AFE9FED5E1B19
:103DB00053EC112B02F020FD53EC1C2B02F074FA93
:103DC00041EC1A0B51EC1B0B53EC1A2B02F06CFA62
:103DD000CDE902019DED020B53EC1B2B51EC100BB6
:103DE00002F016FF53EC1A2B02F03AFE9DED020B87
:103DF00041EC1A0B53EC102B51EC100B02F0FCFCB5
:103E0000CDE908014A489DED080B0521784400F0F2
:103E100097F89DED081B51EC100B53EC112B02F0A1
:103E2000EBFC9DED021B53EC112B02F019FECDE9CA
:103E300006019DED020B53EC1A2B51EC100B02F016
:103E4000DBFC53EC1A2B02F02FFA9FED3B0B41ECFD
:103E50001A0B53EC102B9DED060B51EC100B02F0DE
:103E6000D7FE9DED060B41EC1B0B53EC102B9DED8B
:103E7000020B51EC100B02F0BFFC53EC1B2B02F0B9
:103E8000CFFA53EC1A2B02F0C3FE9DED021B53EC4C
:103E9000112B02F0BDFE53EC192B02F0E1FDCDE930
:103EA000020101EB065001150029C8BF039015DC83
:103EB0009DED020B324651EC100B02F0CAFFFFF7EA
:103EC000ECF9042808BF00F0FBF832469DED020B28
:103ED00051EC100B02F0BDFFCDE902019DED020B8C
:103EE00051EC180B53EC102B02F086FCFFF73ABB99
:103EF0000000904000000000FE822B654715973CB3
:103F000000CC904000346F3F01FCFFFF0000E03F19
:103F100010330000FFFF0F0000000000432EE63FBB
:103F2000396CA80C615C20BEEF39FAFE422EE63FE8
:103F3000E031000000000000000000000000004030
:103F400070B504462DED028B4D1E00EBC500B0EEA2
:103F5000408AF0EE608A90ED000B35F0060017D035
:103F600053EC182B51EC100B02F046FC41EC100BFB
:103F70006D1E04EBC50090ED001B51EC100B53ECD3
:103F8000112B02F091F941EC100B35F00600E7D14E
:103F9000022D36D0042D1CD0062D1CBFBDEC028B8B
:103FA00070BD53EC182B51EC100B02F025FC94ED76
:103FB0000A1B53EC112B02F077F953EC182B02F08B
:103FC0001BFC94ED081B53EC112B02F06DF941EC36
:103FD000100B53EC182B51EC100B02F00DFC94ED70
:103FE000061B53EC112B02F05FF953EC182B02F077
:103FF00003FC94ED040B53EC102B02F055F941EC4B
:10400000100B53EC182B51EC100B02F0F5FB94ED58
:10401000021B53EC112B02F047F953EC182B02F062
:10402000EBFB94ED001B53EC112B02F03DF9BDECC2
:10403000028B41EC100B70BD9FED070B10B553ECDC
:10404000102B9FED070B51EC100B02F0E9F941EC3E
:10405000100B10BD00000000000000000000000078
:10406000000000000000F03F10B553EC112B51ECA4
:10407000100B02F019F941EC100B10BD000000000C
:104080009FED050B10B553EC102B51EC100B02F00B
:10409000C7F941EC100B10BD00000000000000004B
:1040A0009FED050B10B553EC102B51EC100B02F0EB
:1040B000A3FB41EC100B10BD0000000000000070DD
:1040C0009FED050B10B553EC102B51EC100B02F0CB
:1040D00093FB41EC100B10BD00000000000000102D
:1040E00030EE201AD0ED001AF4EEC11AF1EE10FAFB
:1040F00002DCB0EE611A01E080ED001A30EEC00A79
:10410000B4EEC01AF1EE10FA01D280ED000A704749
:1041100070B5114C049D20600020A060E060082074
:1041200020610E480C0A04704170110A8170C2703F
:10413000190A01714371290A8171C5710848FCF798
:10414000A2FCC0B20028F9D0BDE870400123034AA8
:1041500001490348FCF738BB884E0020B40000201A
:10416000E407002000B58BB00020012103900490EB
:10417000CDE90601CDE9081005900090019002906C
:1041800069461448FCF784FB69461248FCF780FB3B
:104190000028F9D10E20059069460F48FCF778FBFE
:1041A00069460D48FCF774FB0028F9D16420FDF73F
:1041B00009F90848FCF704FF02210648FCF7F2FA67
:1041C0000548FCF7FDFE02210348FCF7EBFA0BB0B3
:1041D00000BD0000BC070020E40700200EB50E4C17
:1041E0004FF0FF354FF400762A460121684600F073
:1041F00070FADDE900100829F6D1C007F4D0B4F94F
:1042000006000090B4F90430B4F90220B4F90010AB
:104210003046FFF77DFFE7E70A010020054803214C
:10422000002201704170426082600C30C170072131
:1042300041707047D800002070B5114D00242DED5D
:10424000028B4FF47A569FED0F8ADFED0F8A00BF85
:1042500004EBC400F0EE480A00EB400005EB8000E0
:10426000B0EE601AB0EE680A002332460321FEF772
:1042700099FB641C042CEBDBBDEC028B70BD0000D1
:10428000DC500020000000009A9999402DE9F0418F
:10429000144E154D154F002404EB440006EBC000EE
:1042A000B0F90C0000EE100A05EB8400B8EEC00A6D
:1042B00080ED0B0AD0ED070A04EBC40000EB4000D0
:1042C00007EB800000F05AFABDEEC00A05EB44018E
:1042D000641C10EE100AE4B28887042CDCD3BDE81D
:1042E000F0810000944D0020D04E00202C4F002083
:1042F00008B500F0E2F9184D184C194E00902878D6
:1043000010B101281ED103E00020E063206419E011
:104310001448A0F12007397850F82120A0F11801A5
:104320001C38904778703A7807F1100101EB820150
:10433000085C3870094894EC030A0C3000F07DF9F1
:10434000FFF7A4FFE06B3060206C706001216846CD
:1043500000F0A7F9D3E7000009010020D04E0020AB
:104360000A010020F800002008B500F0A6F900902E
:104370000121684600F095F9FAE74A8852BA82812D
:104380008A8852BAC2814388838009884ABA4280A7
:10439000D31A0169B3F5805F01DB491E03E013F511
:1043A000805F01DC491C016102EB41310288891AFE
:1043B000816070470C4841880C48B1F5967F01D95F
:1043C000042100E005214170C8B2042807D0052867
:1043D00003D0062805D0072800D10120704700200F
:1043E0007047022070470000184F0020E4000020B2
:1043F0000A480322037C417C094803B959B1C270C1
:10440000C078002806D0012804D0022802D0032852
:1044100000D1012070470021C170F1E7184F002042
:10442000E400002010B503680C680D4AA34201D0D7
:104430000E2004E0884201D10C2000E00D20907095
:10444000C0B20C2807D00D2803D00E2805D00F28A5
:1044500000D1012010BD002010BD022010BD0000C1
:10446000E40000200F48027C417C0F4882B1012A01
:1044700012D0012910D00B210170C8B208280DD02C
:10448000092803D00A280BD00B2800D1012070473F
:104490000029EED10921EFE70A21EDE7002070475E
:1044A00002207047184F0020E400002082B0CDE9C0
:1044B000000121F0004001909DED000B02B051EC95
:1044C000100B704770B50C4D044640212846FDF78F
:1044D00063F8207080212846FDF75EF8074D607074
:1044E00002212846FDF758F8A07004212846FDF760
:1044F00053F8E07070BD0000000C0240000802405C
:10450000F0B506462DED028B83B0254800221446F7
:104510000068CDE90002154610466B460F18F75D9E
:104520001F54401C0428F9DB002001AE195C30390F
:10453000092903D8641CE4B2315400E03254401C11
:104540000428F3DB23E0601E02F0EFF841EC110BCE
:104550009FED140BFEF7CCFEC4F10400B0EE408AD0
:10456000F0EE608A305C02F0F7F853EC182B02F0A2
:1045700043F941EC180B284602F0EEF853EC182BE7
:1045800001F092FE02F0A4F8641E85B2E4B2002CA1
:10459000D9D10648058003B0BDEC028BF0BD000008
:1045A0008C6F00080000000000002440D0000020B4
:1045B0000648817A0648012906D0022903D003293A
:1045C00001D10121417070470021FBE7A44C00207C
:1045D00008010020EFF30580002800D0012070477B
:1045E000FCF7EEFFFEF70AFAFEF7D2F8FEF716F830
:1045F000FEF760F9FEF70AF9FDF7EEFFFDF7CAFFD7
:10460000FEF796F9FEF71EF9FEF738F9FEF774F992
:10461000FEF7AAF9FEF7F6FDFFF7A4FDFFF70CFE83
:10462000FFF7FCFDFEF770F800F042F8FEE70146E8
:104630000020842900D0C81C704730EE602A70EE3C
:10464000201AF1EE402A30EEC00A72EEE02A71EE36
:10465000811A32EE012A30EE010A72EE812A80EDD3
:10466000030AC0EC031A704708B500F026F8084C9E
:104670000090207808B100F0FBFDFFF799FF0520BE
:1046800000F008F80121684600F00BF8F1E700009F
:104690000801002010B500B9012000F069FF0020DA
:1046A00010BD10B501B9012100F088FF002010BD38
:1046B00010B501F00BF8002010BD10B5FFF78AFF10
:1046C00018B1BDE8104001F0E9BBBDE8104001F0B1
:1046D000DFBBFEB5002506460F462C460195501C53
:1046E00006D002B11446FFF775FF20B1822015E015
:1046F0004FF0FF34F7E723463946002001AA01F0C6
:1047000039FC012804D00CB1402007E0009506E0F8
:104710000198002801DA862000E0082000909DE83A
:10472000070086E80700FEBD7FB50D4604464169D7
:10473000B0F9080081B1A16971B1FFF778FFD4E940
:1047400005128DE80700D4E900102B46226901F01C
:1047500066FB039004B070BDFFF769FF03A9CDE9C4
:104760000001208A2B4682B2D4E9001001F02AFB16
:10477000012801D00020EDE70398EBE710B5B0EE7B
:10478000601AF0EE401A2DED028B71EE610AC0ED59
:10479000081A80ED051AC0ED0B0A90ED142A0446A4
:1047A0009FED710A31EE611AB5EEC02AB1EE411AE1
:1047B000F1EE10FA0ED0F5EEC00AF1EE10FA02DDBD
:1047C000F0EE601A01E0F0EE411AF4EEC21AF1EEDA
:1047D00010FA7CDCD4ED151AF5EEC01AF1EE10FAE1
:1047E0000BD0F5EEC00AF1EE10FA01DDB0EE601A62
:1047F000B4EEE11AF1EE10FA69D3A16D04F13400C0
:10480000032902D004293FD08AE094ED001AB0EECB
:10481000408A21EE201A84ED0C1A94ED0D1AD4ED85
:10482000011A01EEA01A84ED0D1A94ED0A1A70EE29
:10483000C10A94ED021A60EE810AC4ED0E0AD4EDAD
:10484000180AB8EE601AF0EE480AB0EE410AFFF717
:1048500047FC94ED0C0AD4ED0D0A04F13C0030EE57
:10486000200AD4ED0E0A30EE200AF0EE480A84ED5C
:104870000F0A94ED170AB8EE400AFFF731FC94EDE9
:104880000F0A84ED100A4BE094ED0A1A94ED002A09
:1048900070EEC11A61EE821AC4ED0C1AD4ED011A41
:1048A00061EEA01AC4ED0D1AF0EE001A41EE610A95
:1048B00094ED091A70EE810A94ED021A60EE810AF5
:1048C000C4ED0E0AD4ED180AB8EE601A00E044E018
:1048D000B0EE408AB0EE410AF0EE480AFFF700FC65
:1048E00094ED0C0AD4ED0D0A04F1480030EE200AD4
:1048F000D4ED0E0A30EE200A84ED110AD4ED130A2D
:1049000030EE800AF0EE480A84ED120A94ED170AA0
:10491000B8EE400AFFF7E4FB94ED120A84ED130AA7
:1049200094ED0A0A84ED090A94ED0B0A84ED0A0A53
:1049300094ED070A84ED060A94ED080A84ED070A4F
:1049400094ED040A84ED030A94ED050A84ED040A4B
:10495000A06D032804D094ED120ABDEC028B10BDAB
:1049600094ED0F0AF9E700000000000000F1580C78
:104970008CE80E0080EC030A704780EC030A704755
:104980002DE9F041184C0F46054666692068001D68
:1049900000F0BFFC38B9206890F82C100120884046
:1049A000A1698143A161681C07D137B12168BDE8C5
:1049B000F0410E48091D00F0FBBC20683544B542AB
:1049C0004560216805D2A068BDE8F041091D00F0EE
:1049D000D7BC6068091D00F0D3FC206B854200D273
:1049E0002563BDE8F081000020000020A80F002012
:1049F0002DE9F041054600F0E7FC2E4C2069401CF3
:104A0000206120682C4F10B1E06940B32DE0256093
:104A10002069012829D1002606EB860007EB8000DB
:104A200000F0A0FC761C072EF6D323488C3000F053
:104A300099FC2148A03000F095FC1F48B43000F0EC
:104A400091FC1D48C83000F08DFC1B48DC3000F0A4
:104A500089FC19488C3060601430A06005E0206843
:104A6000E96AC06A884200D82560E06A401CE062BA
:104A7000E96A0120A26988401043A06101EB81002E
:104A800007EB8000291D00F093FC00F0BDFCE069FD
:104A900000280CD02068E96AC06A884207D207491A
:104AA0004FF080500860BFF34F8FBFF36F8FBDE8AA
:104AB000F081000020000020CC0E002004ED00E07A
:104AC00038B500F081FC104CA068C8B90F4800F060
:104AD00049FC0E48143000F045FC0C4820601430AE
:104AE00060600A4B00202833009003F148020C213B
:104AF0000A2000F00BFFA06010B105A100F002FD3C
:104B0000BDE8384000F080BC5C000020BC0F0020F5
:104B1000546D72510000000030B4026C0B46002A44
:104B20000BD0C1681144C1604468A14201D301683F
:104B3000C16030BC1846FBF76EBC30BC70472DE935
:104B4000F041856B174604460026026C82B1C7B15E
:104B5000E068FBF760FCE168206C091AE1602268FC
:104B6000914202D26168081AE060022F16D017E065
:104B70002068A8B9606801F043FA0646002060602A
:104B80000EE0A068FBF747FC216CA0680844A06019
:104B90006168884204D32068A06001E005B16D1E01
:104BA0006D1CA5633046BDE8F08110B5044690F851
:104BB000510058B101280CD002280FD0502080F3AA
:104BC0001188BFF34F8FBFF36F8FFEE7206B00F0AC
:104BD0002FFC2046BDE8104000F02ABC10BD0000AC
:104BE00010484FF47051420706D0C01D0D4920F007
:104BF0000700411AC1F570510B4A00230144C2E974
:104C000000030839103A21F0070111604B600B6076
:104C10000B1AC0E9001393604FF000405360D0605E
:104C200070470000A410002080000020144E154C96
:104C3000A6F1C8074FF08058DFF84C9012E000BF93
:104C400000F0C2FBF068C568281D00F062FB206917
:104C5000401E2061E068401EE06000F0D5FB284661
:104C6000FFF7A3FFE0680028EAD138680128F9D9E6
:104C7000C9F80080BFF34F8FBFF36F8FF2E70000DA
:104C8000940F00202000002004ED00E0034600986F
:104C900029B10260C0E90F31012100F06BBE006054
:104CA000F8E72DE9F0479A46DDE9098481466FF07F
:104CB0000303206B03EB82021044089D20F00706DB
:104CC000700707D0502080F31188BFF34F8FBFF3D8
:104CD0006F8FFEE723180A5C83F834200A5C12B158
:104CE000401C1028F6D3002784F84370072D00D30A
:104CF0000625E562C4E91157201D00F03EFB04F1D2
:104D0000180000F03AFB2461C5F107006462A0615D
:104D1000E76484F8507052464946304600F032FA53
:104D20002060B8F1000F01D0C8F80040BDE8F0875E
:104D300030B5114900E011460A688242FBD34B6846
:104D40005C18844203D140681844486008464368B0
:104D50001C18944209D1084C103C2468A24209D086
:104D600052681A4442600A6812680260814200D0A8
:104D7000086030BD0460F9E78000002070B50024B1
:104D800041600B4D0061914206D8D11A826991426F
:104D900006D2011D686807E09A4203D2994201D306
:104DA000012403E0011D286800F0EAFA204670BDE6
:104DB0005C00002010B5044600F006FBA06B28B193
:104DC0005FF0000400F020FB204610BD0124F9E74D
:104DD00030B587B02C4D4EE0049800284BDB069C84
:104DE000606910B1201D00F094FA02A800F0B8F834
:104DF000024604980A283ED2DFE800F00505053D8A
:104E0000263705053D260598A1690346014420463D
:104E1000FFF7B4FF00B3616A20468847E0690128C4
:104E200029D1002000900598A16900234218194655
:104E3000204601F0FDF978B9502080F31188BFF3C6
:104E40004F8FBFF36F8FFEE70598A06128B18118DF
:104E500013462046FFF792FF0DE0502080F31188A3
:104E6000BFF34F8FBFF36F8FFEE794F8280010B9A0
:104E7000204600F0DDFA002204A9A86800F0CCFE6C
:104E80000028A9D107B030BD5C0000202DE9FC410D
:104E90000F46054600F05EFC01A800F061F80446EC
:104EA000019818B101F032F9BDE8FC81224EAFB192
:104EB00070680068A8B30027291B3A46B06800F064
:104EC00035FB01F023F90028EED11C494FF080504A
:104ED0000860BFF34F8FBFF36F8FE5E7A542EBD8B4
:104EE00001F014F930682746C068C468201D00F03E
:104EF00010FAE069012810D1A0692B4641193A4601
:104F00002046FFF73BFF40B10020034601460090DA
:104F10002A46204601F08CF920B1616A2046884774
:104F2000C2E707E0502080F31188BFF34F8FBFF333
:104F30006F8FFEE70127BFE75C00002004ED00E073
:104F400006484168096829B14168C968C968496863
:104F5000016370474FF0FF31FAE7000020000020A6
:104F600070B5054600F094FF064E04463069844251
:104F700003D200F009F8012000E00020286020465C
:104F8000346170BD5C000020F8B5194D1FE0C068A9
:104F9000C4680668201D00F0BCF9616A2046884795
:104FA000E069012813D1A0693044B04206D92461D8
:104FB0006060211D286800F0E3F908E00020034646
:104FC000014600903246204601F032F938B1286897
:104FD00001680029DBD16968C5E90010F8BD5020DF
:104FE00080F31188BFF34F8FBFF36F8FFEE7000090
:104FF0005C00002008484068401C4FF0500080F3DF
:10500000118804D0BFF34F8FBFF36F8FFEE7BFF35C
:105010004F8FBFF36F8FFEE788000020074C20689A
:10502000016841B1C0680021D0F80000FFF72EFFF1
:10503000FFF7CEFEF3E701210020F7E75C00002038
:105040002DE9F041044600F0BFF994F9455004F110
:10505000240609E0606A48B1304601F01DF808B145
:1050600000F0FAFA6D1E6DB2002DF3DC4FF0FF3642
:1050700084F8456000F0C8F900F0A6F994F94450AE
:1050800004F1100709E0206948B1384601F004F83E
:1050900008B100F0E1FA6D1E6DB2002DF3DC84F86A
:1050A0004460BDE8F04100F0AFB900002DE9F041E7
:1050B0000546002700F04EFB314E306808B9FFF777
:1050C0008FFDF06805424BD1C5B3083568070ED097
:1050D00005F00700C0F108000544680707D050201C
:1050E00080F31188BFF34F8FBFF36F8FFEE72DB3AF
:1050F0007068854234D82248103001460C6801E0BF
:1051000020460C466168A94202D221680029F7D1E5
:1051100031688C4224D007682168016060680837D4
:10512000411B10290FD96019420708D0502080F385
:105130001188BFF34F8FBFF36F8FFEE710E0416020
:105140006560FFF7F5FD61687068401A7060B268CD
:10515000904200D2B060F06801430020C4E9000131
:1051600000F0D4FF780707D0502080F31188BFF3F8
:105170004F8FBFF36F8FFEE73846BDE8F081000028
:105180007000002010B5031F4FF080741C601B1FBF
:1051900021F001011960191F044B0B6014390A60DA
:1051A000091F6FF0020244380A6010BDF54F000875
:1051B0002DE9F041054608880C46C0F30A02A2F525
:1051C00080622A8048788978C00840EA4110C0F39C
:1051D0000A03A3F580636B80A078E178800940EA38
:1051E0008100217902F5257240EA8120C0F30A018D
:1051F000A1F58061A98020796679400840EAC6104F
:10520000C0F30A00A0F58060E880268AA6F58066D3
:1052100036B22E816779BF09AF726779C7F301177C
:10522000EF724FF4A567BA420FD803F52573BB425E
:105230000BD801F52571B94207D800F52570B842A1
:1052400003D806F52576BE4203D916212846FBF77A
:1052500059F9E088A8812089E88160892882207B2B
:10526000A874607BE874E089A882BDE8F081000042
:105270000A48817A03290FD1C17A01290CD1B0F9EA
:10528000021011F5257F07D1B0F90000B0F5257F98
:1052900002D103490020087070470000A44C002090
:1052A0000801002000B52DED048B83B041EC190BF3
:1052B00001F0E2FB41EC180B18EE100A18EE901A00
:1052C0008DED008B002818BF0120084320F000401E
:1052D000C0F17F6000F1E040C00F14D019EE101A49
:1052E00019EE900A8DED009B002918BF012108439B
:1052F00020F00040C0F17F6000F1E040C00F04BF2B
:105300000120FBF750F951EC180B03B0BDEC048BF6
:1053100000BDD0E9013201699A60D0E901235A60E9
:105320004A68824201D182684A60002202610868AC
:10533000401E086008687047034B036003F1540087
:10534000086080201060704714010020044B036047
:1053500003F1540008604FF4807010607047000043
:105360006803002000F108014FF0FF32C0E901128C
:10537000C160016100210160704700210161704737
:1053800030B50B685A1C02D000F1080202E0026935
:1053900004E02246546825689D42FAD953684B6060
:1053A00099608A60516008610168491C016030BDE4
:1053B00042684A6093688B609368596091600861A5
:1053C0000168491C01607047502080F31188BFF3C9
:1053D0004F8FBFF36F8F0A494868401C486001280F
:1053E0000CD10848006810F0FF0F07D0502080F360
:1053F0001188BFF34F8FBFF36F8FFEE77047000038
:105400008800002004ED00E00849486828B1401EEB
:10541000486001D180F311887047502080F31188D3
:10542000BFF34F8FBFF36F8FFEE7000088000020AF
:1054300070B5002827D0144DA0F108046168E86811
:10544000014207D1502080F31188BFF34F8FBFF383
:105450006F8FFEE722683AB1502080F31188BFF3C6
:105460004F8FBFF36F8FFEE78143616000F072F9E9
:1054700060686968084468602046FFF759FCBDE829
:10548000704000F043BE70BD700000204FF0E0207F
:1054900000210161816105494FF47A720968B1FB0D
:1054A000F2F1491E41610721016170471C00002093
:1054B00010B5FAF715FF114910280ED300F1E020BE
:1054C00090F8F0030A78904207D2502080F31188B8
:1054D000BFF34F8FBFF36F8FFEE7094800688968FD
:1054E00000F4E060884207D9502080F31188BFF3B0
:1054F0004F8FBFF36F8FFEE710BD000088000020C4
:105500000CED00E010B5084B002200BF53F832400C
:105510001CB1521C082AF9D310BD43F8321003EB1A
:10552000C201486010BD00008C0E002070B5154609
:105530000E460446FFF748FF94F944100020491C2A
:1055400001D184F8440094F94510491C01D184F834
:105550004500FFF759FFA06B28B92A46314604F1F0
:10556000240000F097F82046BDE87040FFF768BDC2
:1055700010B5020014D00F48806B38B1502080F372
:105580001188BFF34F8FBFF36F8FFEE700F0E2F893
:1055900000211046FFF7F4F900F0B8FD002807D10C
:1055A00005494FF080500860BFF34F8FBFF36F8FF6
:1055B00010BD00002000002004ED00E070B50D4695
:1055C00004000BD095B11E4A906BB8B1502080F307
:1055D0001188BFF34F8FBFF36F8FFEE7502080F32A
:1055E0001188BFF34F8FBFF36F8FFEE7502080F31A
:1055F0001188BFF34F8FBFF36F8FFEE700F0AAF85B
:10560000526923685919934204D98B420AD99142AD
:1056100002D807E08B42FAD9881A21600021FFF7EF
:10562000AFF900E0216000F071FD002807D10549C5
:105630004FF080500860BFF34F8FBFF36F8F70BD86
:105640002000002004ED00E002498A6A02604969F6
:1056500041607047200000200149012048627047E6
:105660002000002010B50C4650B1094909681831D6
:10567000FFF786FE2046BDE810400121FFF780B904
:10568000502080F31188BFF34F8FBFF36F8FFEE779
:105690002000002070B514460D4668B10A4909681B
:1056A0001831FFF785FE0CB14FF0FF352146284633
:1056B000BDE87040FFF764B9502080F31188BFF354
:1056C0004F8FBFF36F8FFEE72000002030B587B00B
:1056D0000024039405AA04A903A80494FFF72CFE50
:1056E000DDE903010094CDE90110002315A117485D
:1056F000059A00F094FB164D002868631FD000F057
:1057000067FD012809D0401C19D1502080F3118871
:10571000BFF34F8FBFF36F8FFEE7502080F31188E8
:10572000BFF34F8FBFF36F8F4FF0FF30286301201F
:10573000E8616C6107B0BDE8304000F06DB807B0BB
:1057400030BD000049444C45000000002D4C0008CD
:10575000200000200248816B491C816370470000D3
:10576000200000201448816B11B101214162704773
:10577000002141628169B1FA81F1C1F11F0101EBA0
:1057800081020E4951F822306BB101EB820101F127
:1057900008034A6852684A609A4201D152684A60D6
:1057A000D16801607047502080F31188BFF34F8F9C
:1057B000BFF36F8FFEE7000020000020CC0E00201A
:1057C0000178592910D1417859290DD14188808813
:1057D000642809D94FF6FF72904205D001EB810091
:1057E000024902EA4000088070470000CC00002017
:1057F000017859290CD14178592909D141888088EB
:10580000642805D9A0F57F42FF3A01D001484180C4
:1058100070470000CC0000201CB537480168374AAB
:10582000914207D1502080F31188BFF34F8FBFF30F
:105830006F8FFEE700683149491E884207D150202A
:1058400080F31188BFF34F8FBFF36F8FFEE72C49B2
:1058500008780190FF20087008788DF800009DF806
:1058600000009DF8002000F0F000904207D050208A
:1058700080F31188BFF34F8FBFF36F8FFEE79DF862
:105880000000204B00F0500018700720986005E0E1
:105890009DF8002052008DF80020401E9DF8002049
:1058A0001206F5D49860032807D0502080F31188A1
:1058B000BFF34F8FBFF36F8FFEE74FF440709860D8
:1058C000019808700C482030016841F470010160B3
:1058D000016841F070410160FFF7D8FD0020586079
:1058E000FAF7C6FC0848016841F040410160FAF748
:1058F000ABFC00201CBD000000ED00E071C20F41B8
:1059000000E400E08800002034EF00E038B5049D9A
:1059100018B153B1CAB181B120E0502080F3118891
:10592000BFF34F8FBFF36F8FFEE7502080F31188D6
:10593000BFF34F8FBFF36F8FFEE7502080F31188C6
:10594000BFF34F8FBFF36F8FFEE739B1502080F365
:105950001188BFF34F8FBFF36F8FFEE748241C46BB
:10596000012384F846302B460094FFF78FF9204638
:1059700038BD000070B50D46040025D0FFF724FDAA
:10598000D4E90F20216802FB001161600021A163AE
:105990002168A1600A46D4E90F01401E00FB0121E5
:1059A000E16021464FF0FF3001F8440F487004F1E8
:1059B00010008DB1FFF7D6FC04F12400FFF7D2FCF4
:1059C000FFF722FD012070BD502080F31188BFF346
:1059D0004F8FBFF36F8FFEE721690029F0D000F0F1
:1059E0005BFB0028ECD004494FF080500860BFF307
:1059F0004F8FBFF36F8FE3E704ED00E02DE9FF4722
:105A000082B01D468A464FF00008040003D0BAF168
:105A1000000F08D011E0502080F31188BFF34F8FA2
:105A2000BFF36F8FFEE7206C38B1502080F31188F0
:105A3000BFF34F8FBFF36F8FFEE7022D0AD1E06BEC
:105A4000012807D0502080F31188BFF34F8FBFF398
:105A50006F8FFEE700F00EFA3F4F4FF000094FF056
:105A6000805648B9049838B1502080F31188BFF3AC
:105A70004F8FBFF36F8FFEE7FFF7A6FCA06BE16BC4
:105A8000884207D3022D05D00498D0B1B8F1000F99
:105A90001AD01EE02A4651462046FFF750F8616AA8
:105AA00019B104F1240000F0F7FA20B13E60BFF311
:105AB0004F8FBFF36F8FFFF7A7FC012006B0BDE843
:105AC000F087FFF7A1FC22E06846FFF7BDFD4FF02D
:105AD0000108FFF799FCFFF73DFEFFF775FC94F90D
